:1000000000800010FD0000002D6800003568000031
:10001000000000000000000000000000A1AEFEEFA4
:10002000000000000000000000000000396800002F
:1000300000000000000000003D680000D94B0000F7
:10004000316800003168000031680000316800004C
:10005000316800003168000031680000316800003C
:10006000316800003168000031680000316800002C
:10007000316800003168000031680000316800001C
:100080003168000031680000C1490000316800009B
:1000900031680000316800003168000031680000FC
:1000A00031680000316800003168000031680000EC
:1000B0003168000031680000316800000000000075
:1000C000F8B2000000010010A0000000F8B200002B
:1000D0000000002000000000F8B2000000400020F6
:1000E00000000000A0010010D81E00000000002049
:1000F000000000000040002000000000F0B5454670
:10010000DE4657464E46E0B55D4A5E4B904683B0AC
:10011000934200D3B1E00722934607329246213240
:10012000914619001C6889685D680C331A0020002C
:1001300000292FD027005E462F4337407E4277416B
:10014000EE1D361BB245B641764201393E4200D122
:100150007FE089457DD28908481C9C4621004708DC
:10016000FF003F192E1B0094019573180C684D6811
:1001700008311C605D60B942F7D101210600009C86
:10018000019D8E43B100634664186D18B04201D0E2
:10019000216829609845C4D83B498A424FD2072339
:1001A0000139891A994313008C4608339C44012372
:1001B00090469A460023424606CA0800002A39D0D3
:1001C0005646551EAC080134A1468C0864423440A2
:1001D000172D4BD9002C3AD0042508C04E46361BAB
:1001E000B146A40009197408E40064180026002729
:1001F000C0C18C42FAD151464C468C43A1008B467B
:10020000290058445944A14514D00C1D0360A24252
:1002100010D904344360A2420CD904348360A24252
:1002200008D90434C360A24204D9143103618A425C
:1002300000D9436108229146C844E045BBD106F08D
:1002400025FB124B002B13D000E000BFFEE700257A
:10025000C4E78908261D890089192E1B05002D6811
:100260008419043025608842F8D193E70021CCE757
:1002700007F03AFA06F046FAE8E71A008CE7C046BB
:10028000E4000000C0000000FC00000000000000CE
:1002900010B5064C2378002B07D1054B002B02D05C
:1002A000044800E000BF0123237010BDA00100102E
:1002B00000000000F8B20000044B10B5002B03D082
:1002C0000349044800E000BF10BDC0460000000024
:1002D000A4010010F8B20000F0B5DE4657464E46C5
:1002E0004546E0B585B001F037F92820002101F03E
:1002F0004DFCC34B3C201A78C24B1A70C24B1A7883
:10030000C24B1A7001F020FA582408E06E23002234
:1003100000210020009401F0E7F900280BD101F042
:100320009DF80028F2D1002005B03CBC90469946CB
:10033000A246AB46F0BD0021012000F03DFAB44ECC
:10034000002804D03378002B01D0013B337000210A
:10035000032000F031FA002807D0AB4B32781B782D
:100360000F3B9A4201DA013232700021042000F082
:1003700023FA002806D0A74B1B78002B02D0A54AF1
:10038000013B13700021052000F016FA002809D067
:10039000A04B1A789C4B1B780F3B9A4202DA9D4B7C
:1003A00001321A709C4B9D4D1B789A46002B00D051
:1003B00081E09B4B28681968984607F08DFC8146C0
:1003C0004B462B60974B984C1B782778002B7AD0A4
:1003D0000137FFB248469549277007F03DFC0028D9
:1003E0000ED19249484607F077FC874B8146187832
:1003F00008F0DAFA011C484607F042FC002805D054
:10040000012352465A401300834A1370042F5DD0D3
:10041000237899467A4B1F784B465A1D3B1F9A42C8
:1004200000D1C2E04B460A2B0DD1337818009A4612
:1004300008F0BAFA2B680390191C9B4607F00CFCD5
:10044000002800D0B4E07A4B9B467A4B0A3F9A468C
:10045000B94500D19AE00123774F0A212D203B8036
:1004600001F094FB53460A21186802F087F973489B
:1004700002F086F85B460A21186802F07FF9022331
:10048000317805223B8000200D3302F06DFC032300
:1004900028683B8007F008FC0522C1B2207802F0F2
:1004A00029FD04233B805B4B0522197869200F232B
:1004B00002F05AFC28E75A4B28681968984608F059
:1004C0008BF881467CE7013FFFB283E7584B9B46A0
:1004D0005A461B680133136037232370584B4D4A2B
:1004E0002B602823137033704246002313600123CE
:1004F000494A137000234B4A137037339946404BD7
:100500001F78402FA1D14B4B28209A4652461B689A
:10051000414601331360372323703E4B484A18701D
:1005200000230B6001233C492A600B703D49307069
:100530000B70412F8FD1434B07009946039238002F
:100540000F3008F031FA039F391C07F099FB00289F
:1005500081D0344B391C1A7801235340314A484624
:10056000137008F039F809F0F3F80022364B08F060
:1005700007FE0022354B08F099FA0B00020008F044
:1005800095FA09F02DF94346186064E7214B1F786E
:10059000380008F009FA2B688146191C039307F00C
:1005A0005BFB002800D156E7C9E7214B9B46AAE731
:1005B00050460F3008F0F8F9011C584607F04CFB84
:1005C000002800D13FE7174B59461A7801235340C2
:1005D000144A0398137007F0FFFF09F0B9F80022DE
:1005E000194B08F0CDFD0022184B08F05FFA0B0004
:1005F000020008F05BFA09F0F3F84346186022E7BE
:100600000F0100101C0100100E0100101D01001050
:100610000C0100100D010010040100100801001071
:10062000C0010010BC010010050100100000A04036
:10063000CC010010C80100101A0100102C99000014
:10064000000030420000204200001E400000F03F49
:1006500010B5024800F082F910BDC046C401001078
:1006600010B50249024806F0A5F910BD5C2E000045
:10067000D001001010B503F061F810BD474A484B97
:100680001178002900D06DE01878002804D0FF28E8
:1006900000D16CE0FF311970517800295BD1587896
:1006A000002803D0FF285BD0FF31597091780029D2
:1006B0004AD19878002803D0FF284AD0FF3199709A
:1006C000D178002939D1D878002803D0FF2839D033
:1006D000FF31D9701179002928D11879002803D069
:1006E000FF2828D0FF3119715179002917D1587985
:1006F000002803D0FF2817D0FF3159719279002AC2
:1007000006D09A790132D2B2FF2A32D09A7170475C
:1007100099790029FBD0FF29F8D0FF22F6E7597913
:100720000131C9B2FF2927D05971E7E719790131A1
:10073000C9B2FF2923D01971D6E7D9780131C9B2DE
:10074000FF291FD0D970C5E799780131C9B2FF29B7
:100750001BD09970B4E759780131C9B2FF2917D07D
:100760005970A3E719780131C9B2FF2913D0197064
:1007700092E702229A71CAE702215971BEE702216B
:100780001971B1E70221D970A4E70221997097E7A6
:10079000022159708AE7022119707DE7FC170010C9
:1007A000D4010010034B185C013843425841C0B2D9
:1007B0007047C046D401001010B50C4B01290CD96C
:1007C000185CFF2807D007F045F9C8B2013841424C
:1007D0004841C0B210BD0020FCE71B5CFD22002098
:1007E000013BDBB29A424041C0B2F3E7D4010010B2
:1007F000002330B51D491E4A08780B705378022437
:10080000002B02D0012301340B70D578002D01D0CC
:1008100023000C701478002C03D004242343DBB293
:100820000B709478002C03D008242343DBB20B70A8
:100830001479002C03D010242343DBB20B705479BD
:10084000002C03D020242343DBB20B709279002AC2
:1008500003D040221343DBB20B701900054A01405C
:100860009843054B1170187030BDC046D20100107E
:10087000FC170010D1010010D3010010014B1879B2
:100880007047C046FC170010014B58787047C046AF
:10089000FC170010014BD8787047C046FC170010B9
:1008A00030B583B072B600210422254B80245960F4
:1008B0001961244BE4001A608E23234A9B00D5580B
:1008C0002C43D4508024D55864002C43D4500123A9
:1008D0005367516701310C00536F1C401942FAD124
:1008E0001467516754670122174914004B6F1C406D
:1008F0001A42FAD18E224C644B6C92008C600C67C9
:100900004C608B58114D2B4080250193019B2B434C
:100910000193C823019D1B022B438B50A0238422EB
:100920001B0692019C500A4A9C500A4A9C500A4B52
:100930009860001C01688D464068804703B030BD58
:10094000004000A010E000E000800440FF2500000F
:10095000042100000821000000ED00E07047C046BF
:10096000F0B5C64600B58025C0B00E0000F0E2FF2D
:1009700000F0ECFFED02AD1B854200D9050000F050
:10098000CFFF184801F06CFF002D24D080235B00BE
:1009900000249846144F06E00134FF34380001F07B
:1009A000EFFDA54217D980216846490000F096FF67
:1009B000FF2802D82B1B43450FD86946301904F095
:1009C0002BFC0028E8D0094801F04AFF012040B084
:1009D00004BC9046F0BD0020F9E7054801F040FF57
:1009E0000120F4E72CA30000ACA3000054A30000F6
:1009F00038A300008021F0B58023C6465D4AC902B5
:100A000000B5D150012200255B4B5C4C1A705C4B49
:100A100082B01D80FC23DB00238001F097F80021C9
:100A2000002001F0B3F8012001F0B8FC0095019519
:100A300000F0A8FE0421534800F0D8FE00286CD036
:100A4000514B524A1968524F524E534D914242D027
:100A5000524B196891423ED0514B196891423AD09D
:100A6000504B1968914236D0202330005B422380DE
:100A700001F0F6FE009B002B60D0E023019A9B0260
:100A80009A425BD3484B2800238001F079FD012373
:100A900000985B420A21238001F0E6FFFC234348D3
:100AA000DB00238001F0DCFE03E0FFF7F3FE00280B
:100AB0002FD1FFF7E9FE0028F7D001990098FFF742
:100AC0004FFF002852D13A4801F0CAFE2E4B2F4A60
:100AD00019689142BCD19846364B3800238001F00A
:100AE0004FFD01235B42238043460A21586801F0F1
:100AF000BBFF4346009A5B689342C3D34346986862
:100B0000FFF7CEFE2DE0FFF773FEFFF7B7FE0028DC
:100B1000F9D102B004BC9046F0BD00F00BFF0820F4
:100B2000404200F0E5FE0421684600F0D7FE0421B3
:100B300001A800F0D3FE00F0F3FE81E71E4801F0AB
:100B40008FFE1E4801F08CFEFC231D48DB00238035
:100B500001F086FE05E0FFF74BFEFFF78FFE002851
:100B6000D3D1FFF78BFE0028F5D0D2E7154801F06E
:100B700077FEF6E700E100E01E0100101201001010
:100B80008E15001040A40000F4FF03001EAB07B058
:100B900090A4000048A400009CA4000004FF0300EF
:100BA00004FE030004F003001FF8FFFFB0A40000E0
:100BB000F4A40000FF0700005CA4000054AC000097
:100BC00074A40000D8A40000F8B5012001F0E6FBF1
:100BD00000224F4B00251A8000F0B8FF4D4C4E4BC1
:100BE0004E48238001F0C0FB0123FC274C4E3021EE
:100BF00033704C4B60201D704B4BFF001D70012566
:100C0000278001F069FF494801F0BAFC38216020D3
:100C100001F062FF464801F0B3FC4021602001F082
:100C20005BFF444801F0ACFC4821602001F054FF18
:100C3000414801F0A5FC6021282001F04DFF3F480C
:100C400001F09EFC6D423E48258001F099FC3D4834
:100C5000278001F095FC02233B483370258004F087
:100C6000A3FB4319042B4BD903F0CEFF032485B219
:100C70000DE002F005FE002821D102F0F5FD00286C
:100C800035D102F0F7FD002823D1002C25D0FFF745
:100C9000AFFD7821682001F01FFF0A21200001F03C
:100CA0006DFD03F0B1FFFA239B00EB189842E0D9E9
:100CB00003F0AAFF013C85B2DBE7FFF799FD02F0E4
:100CC000DFFD0028F9D1FFF795FE0024D5E7FFF7F7
:100CD0008FFD02F0CFFD0028F9D10123337000F021
:100CE00035FF002001F05AFBF8BDFFF781FD02F04F
:100CF000BBFD0028F9D102F0BDFD0028E9D1ECE7E9
:100D0000040003F081FF002CE7D085B2BFE7C046A6
:100D10008E1500101201001000F8FFFF989F0000D0
:100D20001E010010150100101601001000A50000A2
:100D300008A5000010A5000018A5000020A50000CF
:100D400028A500002CA50000A20F0000F0B5DE468B
:100D50004E4645465746E0B51C00E14B89B09B46E0
:100D60001B880500069353110E000593002C00D03C
:100D7000A5E1032B00DCDDE0059B042B00D080E126
:100D80005A46243B1380002C00D080E10123984672
:100D9000D44C37B228B222003900009300F04CFF47
:100DA000ABB21D000393434608352DB22200390033
:100DB0002800009300F040FFB3B21E1F0493434687
:100DC00036B2220031002800009300F035FF039B6B
:100DD000012510331BB298462200012339004046FA
:100DE000009500F029FF01232200310040460095C4
:100DF00000F022FF049B2200083B1BB299464046AC
:100E000001234946009500F017FF059B032B00D1F5
:100E1000DFE0039B220018331BB298463900012300
:100E20004046009500F008FF0123220031004046B3
:100E3000009500F001FF012322004946404600953D
:100E400000F0FAFE049B22000C3B1BB29A4640467F
:100E500001235146009500F0EFFE059B042B00D1C5
:100E6000DEE0039B220020331BB2984639000123A9
:100E70004046009500F0E0FE01232200310040468C
:100E8000009500F0D9FE0123220049464046009516
:100E900000F0D2FE0123220051464046009500F0AA
:100EA000CBFE049B2200103B1BB219000793404667
:100EB0000123009500F0C0FE059B052B00D1DCE06E
:100EC00001239846039D220028352DB239002800C1
:100ED000009300F0B1FE4346220031002800009349
:100EE00000F0AAFE4346220049462800009300F085
:100EF000A3FE4346220051462800009300F09CFECA
:100F00004346220028000799009300F095FE4346CF
:100F10000499220014390093280009B200F08CFED5
:100F20005B46069A1A8009B03CBC90469946A24698
:100F3000AB46F0BDFC235A46DB001380059B002B1B
:100F400000DDD7E05A46684B664C1380012337B268
:100F50002200390028B2009300F06EFE5A46624B20
:100F600039001380ABB21D00039301239846083566
:100F70002DB222002800009300F05EFEB3B21E1FC7
:100F80000493434636B2220031002800009300F05B
:100F900053FE5A46544B039D138001239846103547
:100FA0002DB2220039002800009300F045FE434690
:100FB000220031002800009300F03EFE049B220036
:100FC000083B1BB29946434649462800009300F06F
:100FD00033FE5A46444B039D13800123984618352F
:100FE0002DB2220039002800009300F025FE434670
:100FF000220031002800009300F01EFE434622002C
:1010000049462800009300F017FE049B22000C3B89
:101010001BB29A46434651462800009300F00CFE4E
:101020005A46314B039D13800123984620352DB23B
:10103000220039002800009300F0FEFD4346220004
:1010400031002800009300F0F7FD43462200494696
:101050002800009300F0F0FD43462200514628008E
:10106000009300F0E9FD049B2200103B19B24346B7
:1010700028000093079100F0DFFD5A461A4B1380B9
:101080001EE75A46194B1380002C00D17EE601F072
:101090007DF90400012001F081F902F031FA3100FC
:1010A00002001439681E0A23C9B2C0B201F01EFD45
:1010B0000F4801F065FA200001F070F93EE70023C7
:1010C0003222009300213233002000F051FD059BB5
:1010D000032B00DD50E6FC235A46DB001380D6E7E5
:1010E0001201001064AB00008A52000000F8FFFFFC
:1010F000C4A500000123154C37B20093220039002B
:1011000028B2984600F098FD059B012B00D125E7F9
:10111000ABB21D000393434608352DB222003900BF
:1011200028000093012300F087FDB3B204931E1F33
:10113000434636B20093220001233100280000F01C
:101140007BFD059B022B00DC23E740E664AB00003F
:10115000F0B5DE46454657464E46E0B5012085B01F
:1011600001F01CF90022A64B1A7002F0C9F9FA200E
:10117000000104F019F9A34B85B204001D807F2DF6
:1011800000D826E1FF2002F075F9A80802F0A0F9C6
:10119000680802F09DF920B202F09AF900229A4BF9
:1011A0009A4F64119A483C701A7004F0FDF8431E7F
:1011B0000400092B00D9974C03F026FD964B01261D
:1011C00098461B7885B20393002B00D191E0934B96
:1011D000AA469946924B9B46002C00D189E003F029
:1011E00013FDFA239B00534498426FD8022E78D007
:1011F000039B002B00D0A3E08A4D9921302000F002
:10120000C5FC3B78032B00D894E0F8231B022B800D
:1012100002234A463021A4200093013B00F00CFD3C
:101220003621182000F0B2FC7F4801F0A9F94221D4
:10123000182000F0ABFC3B78032B00D876E07B480D
:1012400001F09EF9FC260223F600794A6021A420D1
:101250002E800093013B00F0EFFC6621182000F087
:1012600095FC584601F08CF97221182000F08EFC94
:1012700002F046F97F2801DDF826360238782E8004
:10128000042859D0072802D1062301383B700A21CF
:1012900001F074FA674801F073F9FC23DB002B803E
:1012A00002F02EF90023020077217020FFF74EFD97
:1012B00043461B78002B1CD0002C1AD003F0A4FC52
:1012C000FA239B005344022698428FD903F09CFCDA
:1012D00083B29A46584BE3185A1E9341E41A022EE1
:1012E00086D1FFF785FAFFF7C9F902F0BDFA0028A9
:1012F0005FD002F005F90400FA20000104F054F870
:1013000080B2A04204D0FA20E1B2000104F06EF8ED
:1013100020B202F0DDF80021002000F037FC05B01B
:101320003CBC90469946A246AB46F0BD434801F00E
:1013300027F987E7374B6AE720235B422B80A6E734
:1013400000F004FC0123FC26364D5B4210212020D6
:101350002B8000F01BFC3A4801F012F9992128205B
:1013600000F014FC374801F00BF9F60036482E80E7
:1013700001F006F9012335485B422B8001F000F9AA
:10138000582100202E8000F001FC314801F068FA5D
:10139000304E300001F064FA300001F061FA3000A4
:1013A00001F05EFA300001F05BFA2B4801F058FAC8
:1013B00023E70230FFF7F6F900280ED002F020F8FC
:1013C00043461B78002B94D000230126114C039335
:1013D00005E77F2002F04EF8D7E60020FFF7E2F99C
:1013E000002805D143461B78002B00D0F4E680E7A7
:1013F00002F026F843461B78002BE5D179E7C0467A
:1014000015010010C6150010E9010010C5150010E7
:10141000A30F0000FFFF0000F101001010A6000064
:10142000C8A5000012010010DCA30000B0A5000058
:1014300040AB0000C4A500000100FFFFBCA50000F8
:1014400038A5000028A400004CA5000050A500000D
:101450005CA5000078A5000094A50000014B187859
:101460007047C046F1010010FC23F0B54746CE4658
:10147000DB009946344B00260025984680B5334C56
:10148000334F83B003F0C0FB23688342FAD21E308F
:101490002060012D32D0022D17D0002D0AD0FFF789
:1014A000EDF9002801D1292DECD903B00CBC9046F0
:1014B0009946F0BD274B00201D8000F055FBFFF73B
:1014C000DDF90028F1D10135DCE74A461E4B6E20DC
:1014D0001A8058231E4A3F365178B6B24908591A25
:1014E00013785B08C01A0123009300F0A5FB80234A
:1014F000DB009E421BD3FFF7C1F9D6E7FC21F2B215
:10150000C900002001F052FF4346582118806E2088
:101510007B781C365B08C91A3B783A005B08C01A16
:1015200000950123B6B200F087FBFE2E04D8FFF72A
:10153000A5F90028A6D0B8E7FFF7A0F90028B4D194
:10154000002602259EE7C04612010010142000105C
:1015500034A600008E150010F8B50125524B00206E
:101560001D7000F01BFF514800F0FEFE03F03CFB35
:1015700003F066FB02F0E2F803F05AFB1022FF26AC
:101580004B4B4C4C1A704C4B7F201D60267001F069
:1015900071FF7F22494B26701A80FFF76BF8FFF727
:1015A0006DF800F0EFFA464803F0FEFE04008307F2
:1015B00000D573E001252E002640254235D00027B6
:1015C000012000F0EBFE3F4E378000F0BFFA3E4CAA
:1015D000200000F0C9FE012000F0E0FEFC223B4BA1
:1015E000D200200037801A8000F0BEFE0023384F62
:1015F000384E3B70357001F083FF00B201F068FF98
:10160000002000F0CBFE0123334A34481370344AE3
:101610003B703370137000F0A7FE01F051FF0520FE
:10162000FFF7C0F8002835D1F8BDFFF71DFF0120F6
:1016300000F0B4FE234F3E8000F088FA224C2000D8
:1016400000F092FE012000F0A9FEFC221F4B2000BA
:10165000D2001A803E8000F087FE00231C4F1D4EF2
:101660003B703570FFF7B0FAFFF772FD00F03CFEFB
:10167000002000F095FA1B4C2379002BC0D0FEF718
:10168000FDFF2379002BBBD0FEF7F8FF2379002B59
:10169000F5D1B5E7002001F01BFFC5E72900814324
:1016A000074803F0A3FE85E7F10100103099000020
:1016B000E0010010E8010010E4010010C615001060
:1016C000B40F00008E150010989F0000120100104A
:1016D00015010010160100101E010010349C0000BE
:1016E0001F010010D401001070B5050003F08CFA42
:1016F000114B12491A780B68114C1B1A934209D9E5
:101700002368002B0BD1280000F04AFA01230020A7
:10171000236003E023680020002BF4D070BD101874
:10172000084A086013680133136000232360FEF742
:10173000A5FF0120F2E7C046E0010010EC01001017
:10174000E4010010DC0100100100FA2010B5800057
:1017500006F084F9014B187010BDC046E00100107E
:1017600010B5024800F0B0F910BDC046F0010010FD
:101770007047C04610B50400182105F0B1FF2000E5
:1017800010BDC046A022802380219B011206D058A4
:101790008900014310B5D1508021D0584900014340
:1017A0004020D150D1580143D150D158403001434D
:1017B000D15004F08BF8084C2070084804F072FBFC
:1017C00007492070074804F0DBFD42424241064BC6
:1017D00020701A7010BDC046640200103402001060
:1017E00054AC00001C0200103002001070B5384EDE
:1017F000040033780D00102B09D02000357004F060
:101800000FFC00280AD008230120337070BD314836
:1018100004F048FB0028F0D00120F7E72278002AE6
:101820003BD02D4B1A706278002A39D05A70A278BA
:10183000002A37D09A70E278002A35D0DA702279FF
:10184000002A33D01A716279002A31D05A71A279F4
:10185000002A2FD09A71E279002A1CD0DA71227AFC
:10186000002A29D01A72627A002A27D05A72A27AE4
:10187000002A25D09A72E27A002A23D0DA72227BDB
:10188000002A21D01A73627B002A1FD05A730E22BD
:1018900000219954BAE70722FAE700220E4BF7E736
:1018A0000122F5E70222F3E70322F1E70422EFE742
:1018B0000522EDE70622EBE70822E9E70922E7E740
:1018C0000A22E5E70B22E3E70C22E1E70D22DFE73E
:1018D0001001001034020010F401001010B582B0A5
:1018E0006B469C1D220004F0CFFB208802B010BD87
:1018F000030010B5084A002806DBD069181804F068
:101900004FFC064B187010BDD16942420020914235
:10191000F5D35818F3E7C0463402001064020010F3
:1019200010B5002004F03CFC014B187010BDC046FF
:1019300064020010034B10B5186A04F031FC024B2E
:10194000187010BD3402001064020010014BD869F9
:101950007047C046340200100123812210B5084CA4
:1019600082B05B4200932000064B0749520104F00D
:1019700015FE2000054A064904F062FF02B010BDC2
:1019800004020010180C00002412000000010010D6
:1019900071170000F8B54E46DE4657464546E0B59D
:1019A000424B81461B789C46984202DB013B1BB2AE
:1019B00099463F4B1B78042B47D0022B3FD148461A
:1019C00003213C4A127893465043C417214009181A
:1019D000891089B2384A3948924612880088904660
:1019E000524610804A46002A39DD48466246121A9D
:1019F0009146002A18DD5A46D0084343002B13D0E5
:101A0000002400222E4D00200E00AF5D2600013084
:101A10000131013480B289B2A4B2AF559842F3DBF0
:101A2000013292B24A45EEDB264B5A460021595EFE
:101A30000020634601F098F9534642461A803CBCA8
:101A400090469946A246AB46F8BD4846194A1278D8
:101A50005043C10F09184910934689B2BAE764464A
:101A6000A2B294464A4690B2A04217D25A46534375
:101A7000DB1013D000260027114D002430002A5C13
:101A80000800013401360131A4B2B6B289B22A5439
:101A90009C42F3DB0137BFB26745EED34B465A4653
:101AA0000021002001F060F9C6E7C0461D010010CA
:101AB000140100101C0100101A0100109A150010EA
:101AC000680200109E150010134B144A10B5040054
:101AD00013481A6001F0A2FB0122124B12491A703E
:101AE000124BDB321A70124B2C3A1A70114B124AFD
:101AF000200013601A7801320A705B780F4A0133B4
:101B0000137011220E4B1A8000220E4B1A800E4BBE
:101B100004321A7010BDC046C015001068020010D3
:101B2000FCA2000098150010C415001092150010BA
:101B300091150010309900009415001087150010C1
:101B4000180100109A1500101401001010B50020A3
:101B500001F0C8FF0023024A1380024A138010BD1F
:101B60009C1500109E15001010B501F0BBFF10BDB4
:101B700010B582B004AC2488009402F02DFE02B0AF
:101B800010BDC04610B502F0C7F810BD024B18805A
:101B9000024B19807047C0469C1500109E1500101E
:101BA00010B5002804D01C4B1B78002B0DD010BDA5
:101BB0001A4B1C6801F0DAFE194B2000196802F07C
:101BC000F7FE154B1B78002BF1D1164B164A1978EE
:101BD00018880F2312780B40012A17D0022A0ED042
:101BE000042A16D1190119430C4B104A186805F044
:101BF000B5FD00230E4A13800E4A1380D7E7032356
:101C00000B40990019430B011943EDE7FF21002810
:101C1000EAD11900E8E7C0468C150010C015001085
:101C2000881500109A150010140100101F130000F1
:101C30009C1500109E150010F0B5DE4657464E4626
:101C40004546E0B58DB0069116A909780191517805
:101C50000291911C12780A910592012B00D1F4E0B7
:101C6000042B06D00DB03CBC90469946A246AB462C
:101C7000F0BD029B002BF5D0002AF3D06B461B8BE6
:101C80000F00089307930023C24A01309146C24ACD
:101C9000904682B20B9208999BB209930BB20393C0
:101CA0000B0001331BB2049300230B9D00932C0007
:101CB00036E0601E03B206936B461C215B5E9A46BB
:101CC0004B461B880F2B05D8B4495B00C85AB0425D
:101CD00000D177E132005146069802F0EDFC0F2268
:101CE00039784B460A4041461B8809685200525ACF
:101CF00020B20F2B04D8A9495B00CB5A934202D0E3
:101D0000514602F0D9FC009B059A02331BB2023403
:101D1000043501370093A4B2ADB29A4200DC41E130
:101D200043461B683A789C46614613115B005E5A35
:101D3000019B022BBDD16B1E1BB29A464B461B88E2
:101D40000F2B05D895495B00C85AB04200D141E13C
:101D500032005046039902F0AFFC2BB29B464B4633
:101D60001B880F2B05D88D495B00CA5AB24200D19F
:101D70002FE132005846039902F09EFC4B461B8827
:101D80000F2B05D885495B00CA5AB24200D120E129
:101D900032005846049902F08FFC4B461B880F2BEB
:101DA00005D87E495B00CA5AB24200D111E1320027
:101DB0005046049902F080FC0F2239784B460A40C5
:101DC000414609685200565A1B886A1C12B2924654
:101DD0000F2B04D871495B00CB5AB34293D0320029
:101DE0005046039902F068FCAB1C1BB29B464B4665
:101DF0001B880F2B05D869495B00CB5AB34200D131
:101E000081E732005846039902F056FC4B461B8886
:101E10000F2B05D861495B00CB5AB34200D172E762
:101E200032005846049902F047FC4B461B880F2BA2
:101E300005D85A4A5B00D35AB34200D163E7320057
:101E40005046049902F038FC5DE7131E00D109E703
:101E50000733DB100493029B002B00D102E783B20F
:101E6000099301339BB208934D4B00269946494B89
:101E700098460723802233401A410092089AB3B251
:101E80000793531E1BB29A4613B20A9AF610944651
:101E900076B266449B460024002303964AE06B46D4
:101EA0001E8B4B461A8843466500ADB21B887719D6
:101EB0003FB20F2B04D839495B005B5A934233D0B1
:101EC0003900504602F0F8FB4B461A8843461B88FF
:101ED0000F2B04D831495B005B5A934224D0390060
:101EE000584602F0E9FB4B461A88434601361B88E8
:101EF000AD192DB20F2B04D828495B005B5A9342D1
:101F000012D02900504602F0D7FB4B461A884346B0
:101F10001B880F2B04D821495B005B5A934203D0E6
:101F20002900584602F0C8FB0134029A24B223006B
:101F3000944222DA049A5343039AD35C009A1A42D9
:101F4000F2D0019B012BAAD1099A079B94466344C6
:101F500018B2069B1919124B09B21A880D4B1B882F
:101F60000F2BDFD80D4D5B005B5B9342DAD1013460
:101F7000029A24B223009442DCDB089B079E0233C2
:101F80009BB201360893059B36B2B34200DD70E781
:101F900068E6C0461801001088150010A015001052
:101FA00012010010089A099B023292B20892079A15
:101FB0000133013292B20792029A1BB2934200DAC5
:101FC00069E64FE60F20024060465200125A20B2E6
:101FD00093E63A780F200240404600685200165AB5
:101FE0006A1C12B29246F7E6F0B54546DE46574601
:101FF0004E46E0B5B44B8BB01B6801915978050093
:1020000088460990F720083944460140481E81411E
:10201000E01009180C0008911978614301314A4316
:1020200004329B185A1C1B7805925BB20793002B55
:1020300000DC46E1A54B089A1F78ABB29A46013303
:1020400006939BB2039353460293059B3900A04E1F
:1020500047461D78022A00D17DE001330593ADB2D9
:10206000002F62D0039AB846531E1BB29A4613B291
:10207000002499460F0027E0022F73D0954B1B7860
:10208000002B00D1B4E04346581E019B9C466B4692
:1020900008229A5E904B604404921A883388001B91
:1020A00000B20F2B06D85B009B4659468B4BCB5A90
:1020B000934204D0049902F0FFFA844B1F78013454
:1020C00064B26D08A0452EDDEB07D5D4844B1A8889
:1020D00033889A42F3D0022F00D1ACE07D490978D1
:1020E000002900D192E04146481E01998C46604487
:1020F000001B01B2049169460820085E83460F2B3D
:1021000006D85B009C466146744BCB5A9342D6D0AE
:102110005946049802F0D0FA01346C4B64B21F782F
:102120006D08A045D0DC390047466B461A8B039BEF
:10213000079802339BB20393099B0292D31A5BB2B6
:10214000984200DCAEE0531C0693089A059B1D786C
:10215000022A00D081E71A005B781B021D43931C02
:1021600005937DE7019B67009C466744BBB20493DF
:10217000594B3FB29B461A8833880F2B04D85749D6
:102180005B005B5A934253D03900504602F094FAF8
:102190005B461A8833880F2B04D850495B005B5A82
:1021A000934245D03900484602F086FA5B46049FC8
:1021B0001A88338801373FB20F2B04D847495B0098
:1021C0005B5A934234D03900504602F075FA5B46B0
:1021D0001A8833880F2B04D840495B005B5A93421E
:1021E00026D03900484602F067FA384B1F7866E778
:1021F0006B460820185E019BE1180BB20493364B26
:102200001A8833880F2B00D84DE753E7694608201A
:10221000085E0199611809B28C460F2B05D82F4929
:102220005B005B5A934200D149E7614602F044FAF1
:10223000264B1F7843E7019967008C466744B9B283
:102240008B463FB20F2B04D824495B005B5A934264
:10225000EED03900504602F02FFA214B1A8833880D
:102260000F2B04D81D495B005B5A9342E0D0390024
:102270005F46484602F020FA194B01371A88338826
:102280003FB20F2B04D815495B005B5A9342CFD065
:102290003900504602F010FA114B1A8833880F2B80
:1022A0009AD99EE70F0000200E4B1856079B9C46BC
:1022B000604478430BB03CBC90469946A246AB467E
:1022C000F0BD024B1F78EEE7941500101E010010C0
:1022D000180100109015001012010010A015001038
:1022E0008E15001015010010134B10B519781888C1
:1022F0000F23124A0B401278012A16D0022A03D06B
:10230000042A16D0190005E003230B409900194355
:102310000B0119430A4B0B4A186805F01FFA0023FA
:10232000094A1380094A138010BDFF210028F1D10A
:10233000E8E719011943EDE79A15001014010010A0
:10234000C01500101F1300009C1500109E150010F2
:1023500010B5002A04DA92B25118524209B212B2F0
:10236000521800F08BFC10BD054B064A186003782C
:10237000013313704378044A013313707047C04629
:1023800094150010C415001087150010024B187822
:10239000431E9841C0B27047981500100A4B0028A0
:1023A00008D001221A70094BDB321A70084B2C3A04
:1023B0001A7070471870074B1A78044B1A70064B46
:1023C0001A78034B1A70F4E7981500109215001054
:1023D000911500101C0100101D010010F0B5C6463B
:1023E00000B55D4D04002A68D378002B35D06028F5
:1023F00033D9203CE4B2594E11780023F05E584B9B
:102400001B785B1A98422EDB00233380554B1B78D8
:10241000002B3DD0544B507898460021595E534BC9
:1024200047001B78DB1B994200DD79E0504B1B789D
:102430005BB2181843464118002009B219809278FF
:102440004C4BA21A1B78D2B292B2002B00D17EE084
:10245000FF231940FFF7C8FD15E00E2CCBD84649E5
:10246000A300CB589F46404B92780021595E414BC8
:10247000A21A1B78D2B292B2002B4BD1FF23194083
:10248000184000F0A5FD202C59D033881818308052
:1024900004BC9046F0BD314B11781888401A80B2C8
:1024A0001880314B0021595E93782022D21A314B8B
:1024B000D2B21B7892B2002B1FD0FF2319401840D4
:1024C000FFF792FDE4E70021244B1980264952785A
:1024D0000023CC5E254B50001B781B1A9C4212DD5A
:1024E0000020234B185680180028D1D0FFF752FA4D
:1024F000CEE70022194B1A80CAE7FF231940184083
:1025000000F066FDC4E70020194B1856801800192A
:102510000880BDE7FF2319401840FFF765FDB2E7CB
:10252000134B1B785BB21818002800D187E7FFF720
:1025300031FA434630780021595E2A687FE70F4B15
:102540001B785BB2002BA0D0401001309DE7FF2329
:10255000194000F03DFD96E7941500109C15001001
:10256000921500101F0100109E150010911500100B
:102570001601001098150010D4A5000015010010D8
:10258000F0B5D6464F464646C0B504780500002C47
:1025900050D0714B714E9846714B724F99463368CB
:1025A0000135DA78002A4AD0602C48D9203CE4B2C0
:1025B0000022B85E424619781278521A904200DA28
:1025C0006FE000223A80684A1278002A2FD0674ACA
:1025D00092460021515E5A7894466046644A400013
:1025E0001278121A914200DD9AE00020614A1056DA
:1025F000524660444118002009B211809A785E4B1F
:10260000A21A1B78D2B292B2002B00D19FE0FF2316
:102610001940FFF7E9FC202C55D14B461B785BB2E3
:10262000002B50D03B8840100130181838802C788F
:10263000002CB4D11CBC90469946A246F0BD0A2C91
:1026400045D008D90D2C24D10022464B1A802C7875
:10265000002CA4D1EEE7082CAAD1424A19781088A0
:102660009B78401A80B21080404A0021515E20229F
:10267000D21A414BD2B21B7892B2002B3DD0FF232D
:1026800019401840FFF7B0FC2C78002C00D086E7EA
:10269000D0E70E2C00D08BE72C78002C00D07EE702
:1026A000C8E7324A0021515E9A78334BA21A1B7850
:1026B000D2B292B2002B2DD1FF231940184000F066
:1026C00087FC202CA9D03B8818183880AFE7002160
:1026D000244A1180254900228C5E5A78244B5000F0
:1026E0001B781B1A9C420EDD0020224B18568018C6
:1026F00000289CD0FFF74EF999E7FF2319401840B6
:1027000000F066FC93E700201A4B18568018001959
:1027100008808CE7FF2319401840FFF765FCD0E7DD
:102720000020144A10566044002800D166E7FFF7E5
:1027300031F953460021595E336838789A780E4B48
:10274000A21A1B78D2B292B2002B00D05FE7FF230F
:10275000194000F03DFCB4E79215001094150010EC
:10276000150100109C1500101F0100109E1500108F
:10277000911500101601001098150010F0B5CE4606
:10278000474680B5040089B000295BD00A2933D1BF
:1027900000285FDB5AD001235B426B4400276D4663
:1027A000984643462000B9460A210137DE1905F054
:1027B00051F9200031700A2105F0C6F82600040006
:1027C000092EEED84B46EE1807E03030C0B2FFF7C6
:1027D00005FE731EB5420AD01E0030780928F4D9D0
:1027E0003730C0B2FFF7FAFD731EB542F4D109B01D
:1027F0000CBC90469946F0BD002827D001235B42CF
:10280000FF276B4400266D4698460F402000390094
:1028100005F020F9424633000136915522000400AC
:102820009742F3D9EC1807E03030C0B2FFF7D6FD7D
:10283000631EA542DBD01C0020780928F4D937306C
:10284000C0B2F3E7C0B2FFF7C9FDD0E73020FFF711
:10285000C5FDCCE72D20FFF7C1FD64429BE7C046D4
:10286000F0B5D6464F464646C0B504780500002C64
:1028700050D0744B744E9846744B754F99463368DC
:102880000135DA78002A50D0602C4ED9203CE4B2D1
:102890000022B85E424619781278521A904200DA45
:1028A00075E000223A806B4A1278002A2FD06A4ADB
:1028B00092460021515E5A7894466046674A40002D
:1028C0001278121A914200DDA0E00020644A1056EE
:1028D000524660444118002009B211809A78614B39
:1028E000A21A1B78D2B292B2002B00D1A5E0FF232E
:1028F0001940FFF779FB202C5BD14B461B785BB26C
:10290000002B56D03B8840100130181838802C78A6
:10291000002CB4D10D20FFF761FD0A20FFF75EFD0A
:102920001CBC90469946A246F0BD0A2C45D008D959
:102930000D2C24D10022464B1A802C78002C9ED1DD
:10294000E8E7082CA4D1424A197810889B78401AED
:1029500080B21080404A0021515E2022D21A414BA1
:10296000D2B21B7892B2002B3DD0FF231940184001
:10297000FFF73AFB2C78002C00D080E7CAE70E2C3A
:1029800000D085E72C78002C00D078E7C2E7324AE7
:102990000021515E9A78334BA21A1B78D2B292B2C0
:1029A000002B2DD1FF231940184000F011FB202CE3
:1029B000A3D03B8818183880A9E70021244A118049
:1029C000254900228C5E5A78244B50001B781B1A34
:1029D0009C420EDD0020224B18568018002896D00D
:1029E000FEF7D8FF93E7FF231940184000F0F0FAF4
:1029F0008DE700201A4B185680180019088086E7CA
:102A0000FF2319401840FFF7EFFAD0E70020144ADF
:102A100010566044002800D160E7FEF7BBFF534624
:102A20000021595E336838789A780E4BA21A1B78C9
:102A3000D2B292B2002B00D059E7FF23194000F028
:102A4000C7FAB4E792150010941500101501001094
:102A50009C1500101F0100109E150010911500100C
:102A60001601001098150010F0B5040089B0002977
:102A70000AD1C0B2FFF7B2FC0D20FFF7AFFC0A206D
:102A8000FFF7ACFC09B0F0BD002820D0FF260027DE
:102A90006D460E402000310004F0DCFF6A463B002A
:102AA000013A0137D155220004009642F2D9EC18C0
:102AB00007E03030C0B2FFF791FC631EA542DBD0C7
:102AC0001C0020780928F4D93730C0B2F3E7302051
:102AD000FFF784FCD0E7C046024B1880024B1980F8
:102AE0007047C0469C1500109E150010F0B5CE46EC
:102AF000474680B51400384A89B01080374A1180A3
:102B0000002B5BD00A2B33D1002C5FDB5AD0012382
:102B10005B426B4400276D46984643462000B94609
:102B20000A210137DE1904F095FF200031700A21D7
:102B300004F00AFF26000400092EEED84B46EE18DA
:102B400007E03030C0B2FFF749FC731EB5420AD02F
:102B50001E0030780928F4D93730C0B2FFF73EFCA8
:102B6000731EB542F4D109B00CBC90469946F0BD35
:102B7000002C27D0FF271F4001235B426B44002617
:102B80006D4698462000390004F064FF4346320049
:102B900001369955230004009F42F3D9AC1807E091
:102BA0003030C0B2FFF71AFC631EA542DBD01C0018
:102BB00020780928F4D93730C0B2F3E7E0B2FFF744
:102BC0000DFCD0E73020FFF709FCCCE72D20FFF704
:102BD00005FC64429BE7C0469C1500109E15001042
:102BE0007047C04610B50C4B1B785B104B4341102F
:102BF00059180A4B89B21B685C18595CC30704D585
:102C00000F2399430A43227010BD0F2312010B407A
:102C10001A43D2B2F7E7C0461C010010C0150010DD
:102C2000124B30B51B889A4219D0114C85B22378CB
:102C3000AB4214D90F4C89B224788C420FD90F249F
:102C40005B1059430C4B40101B68091889B2581887
:102C500022405B5CE90703D5A3431A43027030BDF1
:102C60001C40120122430270F9E7C046180100100F
:102C70001C0100101D010010C0150010F0B54E46DB
:102C8000DE4657464546E0B5334E83B033788B4237
:102C900001D893422CD9314C2378834228D99142D0
:102CA0002DDC07B27F10BFB2BC4685B2C00730D55D
:102CB0002B4882460F2081462A48804600E0237830
:102CC000AB4212D9377888B287420ED95B104343A2
:102CD00050464F46006863449BB2C05CB8434746C9
:102CE0003F88384357463F68F85401319142E6DD4A
:102CF00003B03CBC90469946A246AB46F0BD0D00E1
:102D000007B27F10BFB21100BC462A0085B2C007CF
:102D1000CED4134881460F2080461248834600E0F7
:102D200023789D4213D2377888B287420FD95B103F
:102D300043434846634407689BB2F85C01974746A3
:102D400007405846007800013843019FF85401318C
:102D50008A42E5DACCE7C0461D0100101C010010D4
:102D6000C01500101A010010F0B5DE4657464E4659
:102D70004546E0B5821887B012B2002800DAA9E013
:102D8000584C2478844201DC94426ADDCB181BB293
:102D900000296DDB544C24788C4201DC9C4260DDC0
:102DA000824269DA00B214000190994268DD0AB2E9
:102DB00019000392CB43E043DB17019AC0170B4085
:102DC0002040029390424CDA039A0493934200DD30
:102DD0000492029B039A0093934200DA0092434BC1
:102DE00007009C469846404C2378029A934202D8AA
:102DF000039A93422FD93B4D2A78BA422BD983B2FA
:102E000099467B109BB29A46C3073CD40F239B463E
:102E10004B46049E81460597180000E02A789042B0
:102E200013D22178B3B299420FD941465F4652106E
:102E30005A4309682E4B524492B21B78895C1B019D
:102E400039400B43414609688B54009B01369E4232
:102E5000E4DD4846059F0130019B00B20137834203
:102E6000C2D107B03CBC90469946A246AB46F0BDE5
:102E7000002BF6DB824295DB04B20192994296DC8C
:102E800009B2039396E70F2356469B46BA46049928
:102E900027004C46814600E02A78A24212D93878B1
:102EA0008BB298420ED952105A43634658461B685B
:102EB000B21892B29B5C83430D480088034360467E
:102EC00000688354009B01319942E5DD3C0048468F
:102ED0005746C0E7002AC4DBCB181BB2002900DB31
:102EE00058E7C5E71C0100101D010010C0150010B7
:102EF0001A010010F0B5DE4657464E4645460124FD
:102F0000E0B58BB297B2D91B15007A0085B012B22A
:102F100009B202930600FFF71BFAFB03DB1B5B0001
:102F2000E41B1BB224B20393002D49DDB3B200931E
:102F30000023A34601933DE0039B013D02331AB2F7
:102F40005B44AEB203922DB29BB2019A013297B2AA
:102F50007C0012B2A4B20192621C9B181BB29B4669
:102F6000029B24B29B1B18B27300814618B28246A2
:102F7000009B5246F818494600B2FFF7E9F902995A
:102F80002200CB1B19B28846009B981900B2FFF7AC
:102F9000DFF9009B5246D81B494600B2FFF7D8F92B
:102FA000009B2200981B414600B2FFF7D1F9019A1D
:102FB000954205DD5B46002BBEDA9BB2AEB2C4E79C
:102FC00005B03CBC90469946A246AB46F0BDC04613
:102FD000F0B54E464546DE465746E0B5844B060002
:102FE0001B68F7245D788DB0280008382040441E07
:102FF000A041EC1000190400049018780195444396
:103000000134624304329B185A1C1B780692794A99
:103010005BB203931378022B01D001231370002EAF
:1030200008DB002906DB5843734A80191278904266
:1030300000DAC5E0714A724812880488A24200D1C1
:10304000BCE0704D70480088844200D1B4E06D4C03
:103050000A9408AC0B9520716271022B4CD0039B33
:10306000002B34DD0023994601339846069B8FB22E
:103070009B46BA46019F5B461D78049B022B33D0CA
:1030800001239C46ADB2E34452460024B24601926D
:103090004346082601992B4009AA08A8D25C0919C1
:1030A00080199B000134C35809B2504664B2984756
:1030B0006D08A742ECDA019B56469A464B4601330F
:1030C0005BB29946039B013636B24B45D3D1002003
:1030D0004E4B1856039B9C4660440DB03CBC90463A
:1030E0009946A246AB46F0BD5B465B781B021D438A
:1030F00002239C46E344C7E7039B002B4CDDB3B29D
:1031000005938BB2029300230793069A04991378D0
:10311000022949D09BB299460132069205990026B0
:103120000BB29B460B0001331BB29A464A46012361
:103130000821134009AAD25C9B00904608AA5218A5
:10314000D758029B74009C466444A5B224B2424600
:10315000210058460135B8472DB24246210050465D
:10316000B847424629005846B847424629005046CB
:10317000B8474B465B0899460136019B76B2B3428D
:10318000D4DA079B01335AB2059B079202339BB2F4
:103190000593039B9342B8D100201C4B1856039B08
:1031A0009C466044400098E71100527812021A438E
:1031B0008B1C91460693B1E7154C49E7144D41E746
:1031C000019A144801325A4300785218824200DBB7
:1031D00030E70A4A0A4812880488A24206D00E4DF7
:1031E000094800888442E7D00B4C31E7084DF7E7E7
:1031F000941500101E0100101C0100101A0100108F
:1032000018010010212C00009A1500101501001063
:10321000E12B00001D010010E52B00004278017831
:103220009210C910C90252010A4381785D4BC9103E
:103230000A431A80C2784179D210C910D2020A43D7
:103240000179891049010A435A808279017AD210A2
:10325000C910D2020A43C179891049010A439A80F0
:10326000427AC17AD210C910D2020A43817A8910F7
:1032700049010A43DA80027B817BD210C910D20255
:103280000A43417B891049010A431A81C27B417C70
:10329000D210C910D2020A43017C891049010A43A5
:1032A0005A81827C017DD210C910D2020A43C17CAE
:1032B000891049010A439A81427DC17DD210C9100B
:1032C000D2020A43817D891049010A43DA81027ED4
:1032D000817ED210C910D2020A43417E8910490171
:1032E0000A431A82C27E417FD210C910D2020A4319
:1032F000017F891049010A4320215A82827F415C63
:10330000D210C910D2020A43C17F891049010A4371
:103310009A8221222321825C415CD210C910D20200
:103320000A432221415C891049010A43DA8224229E
:103330002621825C415CD210C910D2020A432521A9
:10334000415C891049010A431A8327222921825CA2
:10335000415CD210C910D2020A432821415C891075
:1033600049010A435A832A222C21825C415CD210F3
:10337000C910D2020A432B21415C891049010A433A
:103380009A832D222F21825C415CD210C910D20277
:103390000A432E21415C891049010A43DA83024A1B
:1033A00013607047A0150010881500101F2370B51A
:1033B0001C000B4004401B1B1BB253431B12E318A1
:1033C0003F244E1145112540C00A3440C912091A44
:1033D000641B54434A4312128218D04324122D19FD
:1033E0001BB2C017EC431040DA43E417D2172C404D
:1033F0001340C00218436401204380B270BDC04630
:1034000010B50B490B780133DBB2072B0CD80948F8
:10341000C25C501114005309074A105C074A0B7034
:10342000148001F00BFB10BD7F200723E024F5E79B
:10343000C51500106CAB000074AB0000C615001081
:1034400010B5084A1378002B01D0013BDBB20649C6
:10345000CB5C06490B805B111370054AD05C01F010
:10346000EDFA10BDC51500106CAB0000C6150010BC
:1034700074AB000010B5021CFF2800DDFF2213B260
:10348000DB43DB170A4913400A4A138000200B5E16
:103490000A88DB43DB1713401AB20B805311064A2C
:1034A0001370FF221340054AD05C01F0C7FA10BD2B
:1034B000C615001020010010C515001074AB0000E7
:1034C00010B501F083FB012001F0D8FA10BDC04611
:1034D0000300C043C0171840064B10B51880064BB8
:1034E00040111870FF231840044B185C01F0A6FA35
:1034F00010BDC046C6150010C515001074AB000005
:10350000014B18887047C046C615001010B5024818
:10351000FDF724FA10BDC046C81500100122014B6A
:103520001A717047FC1700100022014B1A71704786
:10353000FC1700100122014B5A717047FC17001054
:103540000022014B5A717047FC1700100122014BF9
:103550009A717047FC1700100022014B9A71704756
:10356000FC1700100122014B5A707047FC17001025
:103570000022014B5A707047FC1700100122014BCA
:10358000DA707047FC1700100022014BDA707047A8
:10359000FC1700100022014B9A707047FC170010B6
:1035A0000022014B1A707047FC17001010B5054B34
:1035B0009A79002A02D101229A7010BDFFF720FFEC
:1035C000FBE7C046FC17001010B5054B9A79002A9E
:1035D00002D101221A7010BDFFF732FFFBE7C0468F
:1035E000FC17001010B5044802F084FF0122034BC1
:1035F0001871034B5A6210BDCC150010FC17001057
:10360000004000A010B5044802F074FF0222034BF2
:103610005871034B5A6210BD1C160010FC170010A5
:10362000004000A010B5044802F064FF0422034BE0
:103630009871034B5A6210BD6C160010FC170010F5
:10364000004000A010B5044802F054FF0822034BCC
:103650005870034B5A6210BDAC170010FC170010D5
:10366000004000A010B5044802F044FF1022034BB4
:10367000D870034B5A6210BDBC160010FC17001026
:10368000004000A070B5114802F034FF104CA0714A
:10369000104802F02FFFA379C0B22070002B01D098
:1036A000002806D100220C4B1A7020220B4B5A62C4
:1036B00070BD094D2B78002B04D0002323700133FB
:1036C0002B70F2E7FFF7BCFEF7E7C0466C16001060
:1036D000FC1700100C17001005180010004000A087
:1036E00070B5114802F006FF104CA071104802F0AE
:1036F00001FFA379C0B2A070002B01D0002806D131
:1037000000220C4B1A7040220B4B5A6270BD094DBF
:103710002B78002B04D00023A37001332B70F2E729
:10372000FFF76EFEF7E7C0466C160010FC1700109E
:103730005C17001005180010004000A010B52E4CBA
:103740002E49200002F0FEFE20002D4902F0E8FE86
:103750002C4C2D49200002F0F5FE20002B4902F0F0
:10376000DFFE2B4C2B49200002F0ECFE20002A4902
:1037700002F0D6FE294C2A49200002F0E3FE200088
:10378000284902F0CDFE284C2849200002F0DAFE3C
:103790002000274902F0C4FE264C2749200002F0F1
:1037A000D1FE2000254902F0BBFE254C2549200012
:1037B00002F0C8FE2000244902F0B2FE0020234996
:1037C00003F044F80120224903F040F80220214987
:1037D00003F03CF80320204903F038F804201F4987
:1037E00003F034F805201E4903F030F806201D4987
:1037F00003F02CF810BDC046CC1500102935000090
:103800001D3500001C160010413500003535000044
:103810006C160010593500004D350000AC17001033
:103820007135000065350000BC16001089350000B8
:103830007D3500000C170010A1350000C9350000CF
:103840005C17001095350000AD350000E53500002F
:1038500005360000253600004536000065360000BC
:1038600085360000E1360000014B18797047C046EC
:10387000FC170010014B58797047C046FC17001028
:10388000014B98797047C046FC17001070B5264868
:10389000FEF71AF9254E2649300002F007FE254DA5
:1038A000254C2A002100300002F0CAFF234E244993
:1038B000300002F0FBFD2A002100300002F0C0FFC2
:1038C000204E2149300002F0F1FD2A002100300095
:1038D00002F0B6FF1D4E1E49300002F0E7FD2A003F
:1038E0002100300002F0ACFF1A4E1B49300002F0FC
:1038F000DDFD2A002100300002F0A2FF174E18491A
:10390000300002F0D3FD2A002100300002F098FFC1
:10391000144E1549300002F0C9FD2A003000210084
:1039200002F08EFF70BDC04604180010CC150010C8
:103930008412010000010010296400001C16001010
:10394000700801006C16001088140100AC170010FC
:10395000941A0100BC1600106C0601000C17001030
:10396000C43201005C1700107C0E0100F0B54A481B
:1039700057464E464546DE468046A0238A22E0B59D
:1039800004278025444618201B0692019F50434976
:103990009246434E434A6D049D505E501851424832
:1039A000002484468020654640015C505851C04642
:1039B000C046843D9850A9465F5180256D049D50B6
:1039C0003A4D5E50AB4645465E465E5165465C509C
:1039D0005851C046554698505F5180256D049D5002
:1039E00080256D00AB462E4E45465E505E465E51CC
:1039F00065465C505851C046C0464D4698505F5190
:103A000080256D049D504546254E5E505C516546AF
:103A10005C505851C046554698505F5180256D0402
:103A20009D5084256D00AB465E5045465E465E5116
:103A300065465C505851C046C0464D4698505F514F
:103A400080256D049D504546154E5E505C5165467F
:103A50005C505851C046554698505F5180256D04C2
:103A60009D5088256D00AA465E50454656465E51DB
:103A70005C5064461851C046C0464C4698501F5191
:103A80008024074E64049C5098505E503CBC904685
:103A90009946A246AB46F0BD882100008820000070
:103AA0000700F8FF0422000084220000C08100000B
:103AB00080230B4A9B00D25810B5031C642800D900
:103AC0006423D8B26421504303F03EFF81220421D5
:103AD000034B920098505A688A435A6010BDC04602
:103AE00000C00050F0B557464546DE464E46A0237E
:103AF0008A22E0B5042580271B06920183B000903E
:103B00003C4C9D5092463C493C4A7F045F50904655
:103B10001A513B4A3B4894468022654652005A510E
:103B200000221A51802252011A50C046C0468826EF
:103B30000425B6015A50B1469D5146465F500025B6
:103B40001E5166469D5100261E511A50C0465646CB
:103B500004355A509D5146465F501E5184267600CA
:103B6000B34666465F469F5100261E511A50C04616
:103B7000C0464E4680275A5001959D5146467F04C7
:103B80005F5000251E5166469D5100261E511A5059
:103B9000C0465646019D5A509D5146465F501E51A3
:103BA00088267600B246664657469F5100261E512B
:103BB0001A50C046C04646465A501E51009EF60056
:103BC000B046664647469F51002680271E514C4608
:103BD0007F041D510C4C5F505A501A50C046013C96
:103BE0005A50002CF9D103B03CBC90469946A246ED
:103BF000AB46F0BD88200000042200000700F8FF5B
:103C0000882100008422000040970000F0B557464C
:103C10004E464546DE46A0228A23E0B5042780268C
:103C200012069B01D75036499A463648364B7604E1
:103C300016508846D150354900258C46802164466F
:103C4000490011518021324C4901D5501151C046D3
:103C5000C046843C1150A146175144461650D450DA
:103C6000644615512A4CD5501151C0465446115046
:103C7000175144461650D45084246400A346644629
:103C80005E461651224CD5501151C046C0464C4696
:103C9000802611501751444676041650D45064467D
:103CA00015511B4CD5501151C04654461150175157
:103CB00044461650D45088246400A24664465646B2
:103CC0001651134CD5501151C046C04644461150B0
:103CD000D450644680261551D5504B467604D750B3
:103CE0000B4C0C4B165011501151C046013B11505A
:103CF000002BF9D13CBC90469946A246AB46F0BD9C
:103D00000700F8FF0422000088200000882100003E
:103D1000842200004097000080208022F8B5DE4613
:103D200057464E464546EC4B12061958E0B50A4335
:103D30001A5080225968920011435960FC210324D3
:103D4000E6480127435880269B0A9B022343E44C04
:103D500043502168E34B76010B430C2123606368D9
:103D6000E1480B436360A123DB00E750DF4B0A39D6
:103D7000E150C1239B00E650C021012389005B4232
:103D800063500C31605004396350D94B6421A35007
:103D9000A358D84D1801C01A400003F0D5FD812367
:103DA00004229B00E0506368924693436360A02422
:103DB000240667510A2002F01DFDCF4A0A20A750B1
:103DC000914602F017FD67510A2002F013FD8A2385
:103DD00051469B01E1508021082300224904615192
:103DE000C64F8B46C648C749E05190466350E251E2
:103DF0004A469C46A650C046C0465346843A665141
:103E0000A3505B468E22635143461201E05162503B
:103E1000E3514B46E650C0468A2253469201665112
:103E2000A3505B46102263514346E0516250E35178
:103E30004B46E650C046C046882253469201665122
:103E4000A3505B468022635143461201E051625009
:103E5000E3514B46E650C0468A22534692016651D2
:103E6000A3505B46182263514346E0516250E35130
:103E70004B46E650C046C0468822534692016651E2
:103E8000A3505B46635143469F4AE0516250E35161
:103E90004B46E650C0468A22534692016651A350D3
:103EA0005B46402263514346E0516250E3514B462A
:103EB000E650C046C0468822534692016651A35040
:103EC0005B4663514346914AE0516250E3514B4691
:103ED000E650C0468A22534692016651A3505B4683
:103EE000602263514346E0516250E3514B46E65035
:103EF000C046C0468822534692016651A3505B4695
:103F000063514346E0516350E3514B46E650C0468F
:103F1000534680326651A3505B4678226351434634
:103F2000E0516250E3514B46E650C046C0468822FD
:103F3000534692016651A3505B4663516346E0517C
:103F400063504346E3514B46E650C04653468032E9
:103F50006651A3505B46635180235B00E051635080
:103F60004346E3514B46E650C046C0465146843B6B
:103F70006651E1505946434661516249E0516350F0
:103F8000E3514B46E650C04653466651A3505B464C
:103F9000635184235B00E05163504346E3514B4639
:103FA000E650C046C0465146843B6651E1505B46F0
:103FB000635143465349E0516350E3514B46E65049
:103FC000C04653466651A3505B4663518023E0517F
:103FD00063504346E3514B46E650C046C046504608
:103FE000843B6651E0505846434660514448E05196
:103FF0006350E3514B46E650C04653466651A350CA
:104000005B4663518823E05163504346E3514B467E
:10401000E650C046C0465246843B6651E2505B467D
:10402000635180231B02E05163504346E3514B46EA
:10403000E650C0460A20665102F0DCFB8A22534655
:104040009201A3505B466351C0232D482D495B006C
:10405000E05163504346E3514B46E650C046C046EC
:104060005046843B6651E0505846434660512448D0
:10407000E0516350E3514B46E650C046534666510B
:10408000A3505B466351C4235B00E0516350434639
:10409000E3514B46E650C046C0465146843B66510C
:1040A000E1505946DB2361511649DB00E0519C4643
:1040B00063504346E3514B46E650C0465346665173
:1040C000A3505B46C822635143465200E051625000
:1040D000E3514B46E6501BE00080044000400440A2
:1040E00000C0005001000600011000000C05000097
:1040F000204E0000042200008422000088200000DE
:104100000700F8FF88210000808100004040000087
:10411000C046C0468822534692016651A3505B4672
:1041200063514346E0516350E3514B46E650C0466D
:10413000534680326651A3505B46CC2263514346BE
:104140005200E0516250E3514B46E650C046C04633
:104150008822534692016651A3505B466351434601
:10416000E0516350E3514B46E650C046534680321F
:104170006651A3505B46D022635143465200E05142
:104180006250E3514B46E650C046C0468822534633
:1041900092016651A3505B4663516346E051635000
:1041A0004346E3514B46E650C04653468032665183
:1041B000A3505B46D422635143465200E051625003
:1041C000E3514B46E650C046C04688225346920112
:1041D0006651A3505B4663514346E0516350E3513F
:1041E0004B46E650C046534680326651A3505B466C
:1041F000D822635143465200E0516250E3514B468E
:10420000E650C046C0468822534692016651A350EC
:104210005B46AF2263514346D200E0516250E35106
:104220004B46E650C0468A22534692016651A3503F
:104230005B46DC22635143465200E0516250E35139
:104240004B46E650C046C04688225346920166510E
:10425000A3505B4663514346E0516350E3514B46E4
:10426000E650C046534680326651A3505B46E0227A
:10427000635143465200E0516250E3514B46E650D1
:10428000C046C0468822534692016651A3505B4601
:1042900063516346E0510A0063504146E15149468B
:1042A0006650C0468A2351469B016651E1505946EB
:1042B000E423615141465B00E051A350E15149467E
:1042C0006650C046C04653468439665163505946CD
:1042D00061514146E051A150E15149466650C04606
:1042E0000A20665102F086FA8A2351469B01E1506A
:1042F0005946FF2342466151E248E349DB00E05161
:104300006350E2514A469C46A650C046C0465346BA
:10431000843A6651A3505B46182263514346E051EC
:104320006250E3514B46E650C0465246043B66514C
:10433000E2505A466251A0229200E0516250424639
:10434000E2514A46A650C046C0465046843A66519D
:10435000A0505846CD4A6051CA48E051625042468A
:10436000E2514A46A650C04652466651E2505A466D
:104370006251A2229200E05162504246E2514A4606
:10438000A650C046C0465046843A6651A050584692
:10439000BF4A6051BB48E05162504246E2514A4632
:1043A000A650C04652466651E2505A466251A42277
:1043B0009200E05162504246E2514A46A650C04641
:1043C000C0465146843A6651A1505946282261514F
:1043D000AD49E05162504246E2514A46A650C046BD
:1043E00052466651E2505A466251A6229200E0516E
:1043F00062504146E15149466650C046C046882257
:10440000514692016651A15059469F4A6151A149B6
:10441000E051A1504246E2514A46A650C04652469B
:104420006651E2505B46A8226351974B9200E051DF
:104430001900E2504346E3514B46E650C046C046A1
:104440008822534692016651A3505A466251924ABD
:10445000E05162504246E2514A46A650C046043AF4
:104460006651A3505B46AA22635143469200E05135
:104470006250E3514B46E650C046C0465246843B2C
:104480006651E2505B4663511823E0516350434646
:10449000E3514B460A00E650C0465346F832665197
:1044A000A350AC225B4692006351E05162504246F9
:1044B000E2514A46A650C046C0465346843A665129
:1044C000A3505A4643466251744AE0516250E35148
:1044D0004B46E650C0465146043B6651E1505946B2
:1044E0006151E051AE204146674B8000E050E15100
:1044F00049466650C046C0468820514680016651F4
:1045000021505946615141465E48E0516448E050AF
:10451000E15149466650C0465146F8336651E15074
:10452000594658486151E051B0204146564B8000F1
:10453000E050E15149466650C046C0468820514689
:1045400080016651215059464E4861515149E05110
:10455000E1504146E15149466650C0465346043950
:104560006651635059466151B221474B8900E05171
:10457000E1504146E15149466650C046C046534667
:1045800084396651635059466151E05101003E48FB
:1045900022504246E2514A46A650C0468A2352461D
:1045A0009B016651E2505A466251B022D200E1515D
:1045B00022504246E2514A46A650C046C0465346A3
:1045C000843A6651A3505B4663514346354AE151F4
:1045D0002250E3514B46E650C0465246043B6651DA
:1045E000E2505A4663466251E1510A0023500100ED
:1045F0004046E05148462650C046C046534684389F
:10460000665123505B4663514346E2516350E35188
:104610004B46E650C0465046043B6651E050584673
:10462000382360514046E2516350E05148462650DD
:10463000C046C046534684386651235058466051A0
:104640004046194BE2516350E05148462650C0465F
:10465000C820665102F0CEF88A2350469B01E050F4
:104660005B4663518823074A07495B00E251635068
:104670004346E3514B46E650C046C0466651FFF7FD
:10468000C5FA13E00700F8FF8821000018100000A9
:104690004850000008810000103000001838000069
:1046A0003828000008280100B88000003CBC904673
:1046B0009946A246AB46F8BDF0B5DE4657464E4693
:1046C000454680B29346E0B5DB2874D88BB2AF2B59
:1046D00071D804229246A0238A22544680251B06C4
:1046E00092019C508022374C6D041D51364EA946D4
:1046F000364D52009D51A846354D5A510022AC46C8
:1047000080259A51334A6D019D50C046C046882786
:104710005246BF011D51DA514A461A5142469A513A
:104720006246C900995000222A499A515D50C046FC
:10473000524604391D515A504A461A514246842164
:104740009A51624649009950002222499A515D507F
:10475000C046C04652461D51DA514A461A51424699
:104760009A516246C0009850002208009A515D504C
:10477000C046524604391D515A504A461A514246C3
:1047800088219A5162464900995000229A511D5041
:10479000C046C04652461D51DA514A461A51424659
:1047A0001D519A515A46D1006246995000229A51A1
:1047B0001D50C0461D513CBC90469946A246AB4692
:1047C000F0BDC04604220000882000000700F8FF6A
:1047D0008821000084220000F0B54546DE46574699
:1047E0004E46E0B587B01500039210AA1288A84281
:1047F00002DD040028000394994202DD0C00190038
:104800002300DC2800D9A5E0B02900D9A2E0039C50
:10481000DC2C00D9A5E0B02B00D9BDE0C443E417DF
:104820000440C843C017014009B2049103990194A0
:104830008C4200DD8EE00499D200C900059104216C
:104840008846802194464904A0228B46534C120688
:1048500002938A254346AD01535180215B46504D5A
:10486000504F514E5351490000231751915180210F
:10487000135199464D4B4901D150C046C046515144
:104880004546843BD5505D461800454BD550059DA7
:10489000175195514D461551444D5151C046D15077
:1048A0004346043D53515B463D4D535184235B00C9
:1048B000175193514B4613513C4BD150C046C04603
:1048C0005151454615505D46354BD550019D175108
:1048D000ED0095514D461551344D5151C046D150C2
:1048E0004346043D53515D462D4BD55088256D0000
:1048F000175195514D4615512C4D5151C046C0464A
:104900004546D1505B461550254D02985351049BA6
:1049100051511D00834215DA244BB2460093002604
:104920002B0081466046554617515051009816514C
:104930001150C0461A4801331BB211509945F1D1AC
:104940004B460293019901310BB2039901939942AD
:1049500000DB7EE707B03CBC90469946A246AB46DA
:10496000F0BDB02B0CD9C343DB1703400193CB43FD
:10497000DB1719400BB2DC2104930391B0235AE7F3
:10498000C443E4170440C843C017014009B204916E
:10499000DC21019403914EE7B0233FE7882000001B
:1049A000042200000700F8FF882100008422000094
:1049B000030010B50800190000F03EFD10BDC04610
:1049C0000222164B10B519680A4200D110BD1A60B8
:1049D000134B144A1B78144CD35CDA01D21A134BD4
:1049E000120A196880239B00CB58534381221B0A6B
:1049F00092008B500E4B0F491B7808880E4A7F336C
:104A00005B08138023548023421C92B20A805B000F
:104A10009A42DBD100230B80D8E7C046004001401A
:104A2000C51500107CAB000010180010081800100D
:104A300006180010102000101220001010B543B20C
:104A40000C4C8EB0002B12DB2070812168460A4A84
:104A5000090100F079F922785E21684600F00EFA2B
:104A60002478684600F008FA20000EB010BD7F23BD
:104A70002370EAE707180010140A0000A0221206AB
:104A8000002804D08021044B8902D1507047802136
:104A9000024B8902D150F9E7042200008422000071
:104AA00070B5002857D08022802333499B00885856
:104AB000324C03438B50324B6268186800236360AA
:104AC0000133A36001336360A368002BFCD16260F3
:104AD000082263692B491343636102F035FF1022FA
:104AE000E061636980251343636163680F3A134390
:104AF0006360C023244CED025B00E5501220234983
:104B000001F0A4FE8023224A25601360214A224836
:104B10001360224A1360224A1360224A1360224A19
:104B20001360224A1360224A1360F023214A1B06B5
:104B300011680B431360F0231F4A1B0411680B43D9
:104B40001360A02380211B061A5889020A431A50B9
:104B50001A4A995070BD1A4C1A49200002F0A6FA60
:104B600020000F2102F0CAFB2000174902F096FB3B
:104B70001E20FEF79DFF96E70080044000400140A4
:104B8000380100102256000000E100E0C149000099
:104B9000DC400440D840044004200000D4400440DD
:104BA000D04004404C41044048410440444104404A
:104BB00040410440042000A0082000A0042200007E
:104BC0000818001040270200CDCCCC3D10B50020C5
:104BD000FFF766FF10BDC046024A136864331360D6
:104BE0007047C04618200010044B054A07215A6040
:104BF00000229A601960034B1A60704710E000E0D1
:104C0000FF3D490018200010054B9868054B1A68B5
:104C1000054B1B1A05485B0A5843000C8018704767
:104C200010E000E018200010FF3D4900BB0200002A
:104C300010B5002001F082FD02F040FE10BDC0461C
:104C4000A023802104201B0689015A5810B5024375
:104C50005A508021294A490198580143995080218E
:104C6000985849040143012099509958014399509B
:104C70002349244A585802435A502348002102F03D
:104C8000DFF90021214802F0DBF90021204802F081
:104C9000D7F900211F4802F0D3F900211E4802F085
:104CA000CFF900211D4802F0CBF900211C4802F089
:104CB000C7F900211B4802F0C3F900211A4802F08D
:104CC000BFF90021194802F0BBF90021184802F091
:104CD000B7F90021174802F0B3F90021164802F095
:104CE000AFF90021154802F0ABF90021144802F099
:104CF000A7F90021134802F0A3F910BD0420000019
:104D000008200000F8FF0700000702000409020065
:104D1000080B02000C0D0200100F0200141102001B
:104D2000181302001C1502002017020024190200AB
:104D3000281B02002C1D0200301F0200342102003B
:104D4000382302003C250200F0B5C64604000D00E1
:104D500000B516000021182202F000FD29002500F0
:104D60002000183501F078FC18220021280002F0FC
:104D7000F5FC3100280001F06FFC0121280001F052
:104D8000D7FE0421280001F0CDFE0121200001F012
:104D9000CFFE0421200001F0C5FE00223023E254A2
:104DA0002F3B63630121280001F0C2FE0121200096
:104DB00001F0BEFE2368013348D0E36862681A60E0
:104DC000A36901334DD0A36AE26904251A60606BC0
:104DD00001F020FD264E274B370098460121200088
:104DE00001F0A6FE606B01F015FD2368013327D0AA
:104DF000236962681A60606B01F00CFDA3690133DE
:104E000018D0636AE2691A60606B01F003FD2368E1
:104E1000013309D0E3686268013D1A60002DDDD1DD
:104E2000200004BC9046F0BD24221149114801F035
:104E300005FCEFE7242239000E4801F0FFFBE0E714
:104E400024223100404601F0F9FBD1E72422084931
:104E5000084801F0F3FBE36862681A60A369013354
:104E6000B1D124220249034801F0E8FBABE7C04678
:104E700084AB0000E8AB00007047C046F8B50123E2
:104E8000DE46574645464E4604009943E0B58846FF
:104E90000121170001F04CFE606B01F0BBFCA3691F
:104EA000013300D19BE1636AE2691A602368013330
:104EB00000D18EE1E36862681A60606B01F0AAFCC1
:104EC0002368013300D17EE1236962681A60606B58
:104ED00001F0A0FCA369013300D16EE1A36AE2698D
:104EE00008251A60606B01F095FC0121200001F09B
:104EF0001FFEC74B9946C74BCA469B460126606BAF
:104F0000013D01F087FCAE4043461E40236801335B
:104F100000D108E1002E00D101E1E36862681A6067
:104F2000A369013300D1F4E0636AE2691A60606B3F
:104F300001F070FCA369013300D1DEE0A36AE269ED
:104F40001A60002DDAD12368013300D12FE1E36824
:104F5000626801211A60200001F0EAFD2368013334
:104F600000D11EE1E36862681A60A369013300D1D1
:104F700011E1636AE26900211A60200001F0D8FDA6
:104F80000421200001F0CEFD606B01F043FCA36919
:104F9000013300D1F9E0A36AE2691A6023680133A2
:104FA00000D1ECE0636962681B681A4200D1C4E07A
:104FB0000121200001F0BCFD954B08259846954B3A
:104FC000C1469A460126013DAE40606B01F022FCCD
:104FD00023683E40013300D189E0002E00D182E0F9
:104FE000E36862681A60A369013300D175E0636AFF
:104FF000E2691A60606B01F00DFCA369013360D0B7
:10500000A36AE2691A60002DDCD12368013300D164
:1050100097E0E368626801211A60200001F088FDD2
:105020002368013300D1A4E0E36862681A60A369D1
:10503000013300D197E0636AE26900211A60200021
:1050400001F076FD0421200001F06CFD606B01F0A1
:10505000E1FBA369013300D17FE0A36AE2691A6032
:105060002368013300D172E0636962681B681A42E9
:105070005FD00121200001F05BFD606B01F0CAFBF5
:105080002368013300D1BCE0236962681A60606B59
:1050900001F0C0FBA369013300D1ACE0636AE269AF
:1050A0001A60606B01F0B6FB2368013300D19CE00D
:1050B000E36862681A603CBC90469946A246AB46DB
:1050C000F8BD24225249534801F0B8FAA36AE269B4
:1050D0001A60002D00D075E797E7242249464D4815
:1050E00001F0ACFA83E7236962681A607BE7242247
:1050F0004146504601F0A2FA6FE724224449454850
:1051000001F09CFAA36AE2691A60002D00D0F5E66E
:1051100019E7242251463F4801F090FA04E7236939
:1051200062681A60FCE624224946584601F086FA75
:10513000F0E6606B01F06EFB9BE7606B01F06AFBD1
:1051400036E724223249334801F078FA61E72C220D
:105150002F49304801F072FA86E724222C492D4865
:1051600001F06CFA79E7242229492A4801F066FA0D
:1051700061E724222649274801F060FA54E72C22EF
:105180002349244801F05AFA0CE7242220492148F7
:1051900001F054FAFFE624221D491E4801F04EFAA0
:1051A000E7E624221A491B4801F048FADAE62422ED
:1051B0001749184801F042FAC9E624221449154853
:1051C00001F03CFA8AE624221149124801F036FA2D
:1051D0007AE624220E490F4801F030FA6AE62422CA
:1051E0000B490C4801F02AFA5DE6242208490948D7
:1051F00001F024FA5CE724220549064801F01EFA72
:105200004CE724220249034801F018FA3CE7C04663
:1052100084AB0000E8AB0000F0B54546DE465746DB
:105220004E46E0B5884605008BB072B6C0235B02DF
:1052300098422FD232236F46060B04AC04933900F8
:10524000564B20006660A6609847009B002B42D119
:105250002B055A425341DBB2002B00D07AE0504B71
:105260009946332304934346A36080235B00E360A5
:10527000FA214B4689001868656002F065FB474BD0
:105280002061390020009847009B002B23D162B693
:10529000002021E0E0239B02984224D2C0231B2659
:1052A0009B0298420AD2A023013E9B02984205D25B
:1052B000802300269B0298427641183632236F469F
:1052C00004AC04933900354B20006660A660984713
:1052D000009B002B5ED001200BB03CBC9046994651
:1052E000A246AB46F0BD32231C266F4604AC0493A5
:1052F0009B462A4B390020006660A6609A46984774
:10530000009B002BE7D1E4226B045B0C92029542D8
:105310009FD1E0233B22FA219B0004920593214B6D
:105320008900A3601E4B1868994602F00DFB3900F6
:10533000E0602000D0473B68002BCCD15B463900B1
:10534000236020006660A660D0473B68002B00D138
:1053500087E7C0E73423FA210493114B89001868CA
:1053600099466660A66002F0EFFA0C4BE0603900E7
:1053700020009A469847009B002BACD1323304930F
:10538000390020006660A660D047009B002B00D14A
:1053900067E7A0E76B045B0C5BE7C046F11FFF1FEC
:1053A00038010010FF0300003E2310B58AB00593BA
:1053B0006B46DC1C0123FA2108930A4B06908900F6
:1053C0001868079402F0C0FA099072B6064B01A95A
:1053D00005A8984762B6019B002B02D120780AB03D
:1053E00010BDFEE738010010F11FFF1F10B58CB093
:1053F0006B46D971FA213D220124073309930B4BE7
:1054000008908900186807920A9402F09DFA084BE8
:105410000B905C6072B6074B03A907A8984762B669
:10542000039B002B01D10CB010BDFEE7380100102A
:1054300000400140F11FFF1FF0B544464D4656465F
:1054400070B4EEB06E46414C414AA146414CA04674
:105450006E250F780F243B0927405B00C45AE400F7
:1054600014604B46D36710C6FC241351D3677F00EA
:105470001351C45BE40014604B46D36710C6FC2490
:105480001351D36701311351023DE2D16E466E25AF
:105490004C4608CE1360D467FC23D450D467013D3A
:1054A000D45008CE1360D467FC23D450D467013D98
:1054B000D45008CE1360D467FC23D450D467013D88
:1054C000D45008CE1360D467FC23D450D467013D78
:1054D000D45008CE1360D467FC23D450D467013D68
:1054E000D45008CE1360D467FC23D450D467013D58
:1054F000D45008CE1360D467FC23D450D467013D48
:10550000D45008CE1360D467FC23D450D467013D37
:10551000D45008CE1360D467FC23D450D467013D27
:10552000D45008CE1360D467FC23D450D467013D17
:10553000D450AED16E4601245823A044984587D15B
:105540006EB070BCA046A946B246F0BD0010000087
:10555000882100A00000000010B50A4B187803F065
:1055600069FA011C084802F053FD084902F01AFFCD
:10557000F621890502F016FF02F096FB044B188015
:1055800010BDC04622010010000070420044AC462D
:105590001C20001010B50248FBF7E0F910BDC04612
:1055A00020200010F8B543B204000D00002B68DB8A
:1055B000A0228823802112069B01D1500222354966
:1055C0000B781A42FCD0FF22334B32491A70FB3A57
:1055D0000B781A42FCD0304BA0221B788A23802102
:1055E00012069B01D15002222A490B781A42FCD0A4
:1055F000FF22294B27481A70FB3A03781A42FCD045
:10560000FF27264E244B210030001B7800F0ACFF12
:10561000290E300000F0A8FF290C3940300000F0BE
:10562000A3FF290A3940300000F09EFF3900300006
:10563000294000F099FF402C21D0210048394C1E10
:10564000A1418523494299438731300000F08CFF06
:105650000A250224FF2704210E4B0F4E1A7814420C
:10566000FCD037701A781142FCD03278D0B252B2E6
:10567000002A03DA013DEDB2002DEFD1F8BD9521EE
:10568000E3E700217720FFF78DFF0128F6D87F237D
:105690001C408DE70C000440080004400402001088
:1056A000F8B557464E464546DE46E0B59946514B5D
:1056B00080461B7892461B0700D449025120FFF711
:1056C00071FF8346002814D10226FF2704254A4B88
:1056D0004A494B480C782642FCD007700C7825428A
:1056E000FCD00278D4B2FF2A21D1013B9BB2002B1F
:1056F000F0D101239B46A0228823802112069B0122
:10570000D15002223D490B781A42FCD0FF223C4B7B
:105710003A491A70FB3A0B781A42FCD0384B58467B
:105720001B783CBC90469946A246AB46F8BDFE2C81
:10573000DFD14B46334DED1A5346ED1AADB2002B77
:1057400014D0FF22042194462C4B2D4EFC3C1A7899
:105750001442FCD0624632701A781142FCD0327882
:105760005246013A92B29246002AF0D14346002BAB
:105770002CD047464B46FE18214B02249C46FF2363
:10578000042198461D4AB6B213781C42FCD06346E9
:105790004046187013781942FCD063461B783B7062
:1057A0000137BBB29E42EFD10224FF270421134BE5
:1057B000134E1A781442FCD037701A781142FCD07C
:1057C000013DADB23278002DF3D194E70224FF27DA
:1057D00004210A4A0A4E13781C42FCD03770137811
:1057E0001942FCD033784B46013B9BB29946002BC3
:1057F000F1D1D9E721200010307500000C000440E1
:105800000800044002020000294B2A4A1B8870B598
:105810005C1CA4B2934209D0274E284D013C0021C4
:105820003000A4B200F0A0FEAC42F7D1022224491D
:105830000B781A42FCD0FF22224B21491A70FB3A06
:105840000B781A42FCD01F231E4D2A781340052BDB
:1058500016D00120A0228823802112069B01D1505E
:10586000022217490B781A42FCD0FF22154B14492B
:105870001A70FB3A0B781A42FCD0124B1B7870BDA1
:105880000220FF260421104C0D4B1A781042FCD048
:105890002E701A781142FCD02A78FF2A04D0002CEE
:1058A000D7D0013CA4B2F0E760426041C0B2D1E77A
:1058B00022200010FEFF000004020010FFFF000085
:1058C0000C00044008000440E8FD0000F0B5DE468E
:1058D0004E46454657468823E0B5A0258024684EAD
:1058E0009B012D06EC503000664983B000F090FE1D
:1058F00000220821300000F077FE84239B01EB5842
:105900001C4200D197E064240220FF2604215E4B54
:105910005E4D1A781042FCD02E701A781142FCD0DD
:10592000013CE4B22A78002CF3D100214020FFF79B
:1059300039FE050001281ED00120554BA0221C7005
:105940008823802112069B01D15002224E490B78F8
:105950001A42FCD0FF224D4B4B491A70FB3A0B7890
:105960001A42FCD0494B1B7803B03CBC9046994688
:10597000A246AB46F0BDD52148204900FFF712FEF4
:1059800001285BD1414A01AD9046FF222E00AC4672
:105990009146042102AB9B463B4B01301A781042E2
:1059A000FCD042464F4617701A781142FCD042464E
:1059B000674612783A7001229246D444DC45EDD114
:1059C000AB78012BB8D1EB78AA2BB5D1314B9846E7
:1059D00005E04346013B9BB29846002BACD08021AA
:1059E000E920C905FFF7DEFD0028F2D100217A2069
:1059F000FFF7D8FD00289FD104210223FF24894608
:105A00009C46214A214B1778B846674641460F42CB
:105A1000F9D01C704F4611780F42FBD019783170C5
:105A20000136B345EFD12B780C245B0600D584E713
:105A30000020083C81E7FFF7E7FE64E70021E9204A
:105A4000FFF7B0FD4127012816D9134E04E0013EAF
:105A5000B6B2002E00D16FE700213800FFF7A2FD9B
:105A60000028F4D1802150208900FFF79BFD0028F9
:105A700000D061E72C0060E70225E927E5E7C04692
:105A80000402001000366E010C00044008000440BF
:105A900021200010E02E0000A8610000F0B50400F5
:105AA00083B0012820D9314B1D68EB6883421BD994
:105AB0002B78022B2ED0032B19D00120012B14D1CF
:105AC000A3B25A08D2182A4B96B2D205D20D760A42
:105AD0009A422CD0296901AFFE3B38007118FF3B78
