:1000000000800010FD000000B1690000B969000027
:1000100000000000000000000000000099ABFEEFAF
:10002000000000000000000000000000BD690000AA
:100030000000000000000000C16900005D4D0000EC
:10004000B5690000B5690000B5690000B569000038
:10005000B5690000B5690000B5690000B569000028
:10006000B5690000B5690000B5690000B569000018
:10007000B5690000B5690000B5690000B569000008
:10008000B5690000B5690000454B0000B569000086
:10009000B5690000B5690000B5690000B5690000E8
:1000A000B5690000B5690000B5690000B5690000D8
:1000B000B5690000B5690000B569000000000000E6
:1000C00044A30000000100109400000044A30000BD
:1000D000000000200000000044A3000000400020B9
:1000E0000000000098010010C81E00000000002061
:1000F000000000000040002000000000F0B5454670
:10010000DE4657464E46E0B55D4A5E4B904683B0AC
:10011000934200D3B1E00722934607329246213240
:10012000914619001C6889685D680C331A0020002C
:1001300000292FD027005E462F4337407E4277416B
:10014000EE1D361BB245B641764201393E4200D122
:100150007FE089457DD28908481C9C4621004708DC
:10016000FF003F192E1B0094019573180C684D6811
:1001700008311C605D60B942F7D101210600009C86
:10018000019D8E43B100634664186D18B04201D0E2
:10019000216829609845C4D83B498A424FD2072339
:1001A0000139891A994313008C4608339C44012372
:1001B00090469A460023424606CA0800002A39D0D3
:1001C0005646551EAC080134A1468C0864423440A2
:1001D000172D4BD9002C3AD0042508C04E46361BAB
:1001E000B146A40009197408E40064180026002729
:1001F000C0C18C42FAD151464C468C43A1008B467B
:10020000290058445944A14514D00C1D0360A24252
:1002100010D904344360A2420CD904348360A24252
:1002200008D90434C360A24204D9143103618A425C
:1002300000D9436108229146C844E045BBD106F08D
:10024000E7FB124B002B13D000E000BFFEE70025B8
:10025000C4E78908261D890089192E1B05002D6811
:100260008419043025608842F8D193E70021CCE757
:1002700007F0FCFA06F008FBE8E71A008CE7C04636
:10028000E4000000C0000000FC00000000000000CE
:1002900010B5064C2378002B07D1054B002B02D05C
:1002A000044800E000BF0123237010BD9801001036
:1002B0000000000044A30000044B10B5002B03D045
:1002C0000349044800E000BF10BDC0460000000024
:1002D0009C01001044A30000F0B583B000F0C4FFFF
:1002E000224803F0D3F80122214B00260025582490
:1002F000204F1A8008E06E23002200210020009485
:1003000001F07AF8002806D100F030FF0028F2D181
:10031000002003B0F0BD012001F096FE00F03CF992
:10032000002803D033005A1E9341F61A00F03AF920
:10033000002804D0104B1B78B34200DD013600F0DA
:100340001FF9002803D02B005A1E9341ED1A00F02C
:100350001DF9002804D0094B1B78AB4200DD0135A4
:100360003A0031B228B201F089FECDE7A889000039
:1003700082150010D4860000110100101001001039
:1003800010B5024800F072F910BDC046B40100106B
:1003900010B50249024806F0CFFB10BD5C2E0000EC
:1003A000B801001010B503F08BFA10BD474A484B56
:1003B0001178002900D06DE01878002804D0FF28BB
:1003C00000D16CE0FF311970517800295BD1587869
:1003D000002803D0FF285BD0FF31597091780029A5
:1003E0004AD19878002803D0FF284AD0FF3199706D
:1003F000D178002939D1D878002803D0FF2839D006
:10040000FF31D9701179002928D11879002803D03B
:10041000FF2828D0FF3119715179002917D1587957
:10042000002803D0FF2817D0FF3159719279002A94
:1004300006D09A790132D2B2FF2A32D09A7170472F
:1004400099790029FBD0FF29F8D0FF22F6E75979E6
:100450000131C9B2FF2927D05971E7E71979013174
:10046000C9B2FF2923D01971D6E7D9780131C9B2B1
:10047000FF291FD0D970C5E799780131C9B2FF298A
:100480001BD09970B4E759780131C9B2FF2917D050
:100490005970A3E719780131C9B2FF2913D0197037
:1004A00092E702229A71CAE702215971BEE702213E
:1004B0001971B1E70221D970A4E70221997097E779
:1004C000022159708AE7022119707DE7E4170010B4
:1004D000BC010010034B185C013843425841C0B2C4
:1004E0007047C046BC010010002330B51D491E4AAC
:1004F00008780B7053780224002B02D001230134BA
:100500000B70D578002D01D023000C701478002CCE
:1005100003D004242343DBB20B709478002C03D067
:1005200008242343DBB20B701479002C03D0102471
:100530002343DBB20B705479002C03D020242343D7
:10054000DBB20B709279002A03D040221343DBB256
:100550000B701900054A01409843054B1170187043
:1005600030BDC046BA010010E4170010B9010010F8
:10057000BB010010014B18797047C046E41700100A
:10058000014B18787047C046E4170010014B98786B
:100590007047C046E4170010014B58787047C046BA
:1005A000E4170010014BD8787047C046E4170010DC
:1005B00030B583B072B600210422254B80245960E7
:1005C0001961244BE4001A608E23234A9B00D558FE
:1005D0002C43D4508024D55864002C43D45001239C
:1005E0005367516701310C00536F1C401942FAD117
:1005F0001467516754670122174914004B6F1C4060
:100600001A42FAD18E224C644B6C92008C600C67BB
:100610004C608B58114D2B4080250193019B2B433F
:100620000193C823019D1B022B438B50A0238422DE
:100630001B0692019C500A4A9C500A4A9C500A4B45
:100640009860001C01688D464068804703B030BD4B
:10065000004000A010E000E000800440FF25000002
:10066000042100000821000000ED00E07047C046B2
:10067000F0B5C64600B58025C0B00E0000F0D6FF2C
:1006800000F0E0FFED02AD1B854200D9050000F04F
:10069000C3FF184801F0A6FF002D24D080235B0083
:1006A00000249846144F06E00134FF34380001F06E
:1006B00029FEA54217D980216846490000F08AFF2B
:1006C000FF2802D82B1B43450FD86946301904F088
:1006D00065FE0028E8D0094801F084FF012040B001
:1006E00004BC9046F0BD0020F9E7054801F07AFF10
:1006F0000120F4E7B893000038940000E093000074
:10070000C49300008021F0B58023C6465D4AC9022B
:1007100000B5D150012200255B4B5C4C1A705C4B3C
:1007200082B01D80FC23DB00238001F08BF80021C8
:10073000002001F0A7F8012001F0F2FC00950195DE
:1007400000F09CFE0421534800F0CCFE00286CD041
:10075000514B524A1968524F524E534D914242D01A
:10076000524B196891423ED0514B196891423AD090
:10077000504B1968914236D0202330005B422380D1
:1007800001F030FF009B002B60D0E023019A9B0218
:100790009A425BD3484B2800238001F0B3FD01232C
:1007A00000985B420A21238002F020F8FC23434892
:1007B000DB00238001F016FF03E0FFF7F3FE0028C3
:1007C0002FD1FFF7E9FE0028F7D001990098FFF735
:1007D0004FFF002852D13A4801F004FF2E4B2F4A18
:1007E00019689142BCD19846364B3800238001F0FD
:1007F00089FD01235B42238043460A21586801F0AA
:10080000F5FF4346009A5B689342C3D3434698681A
:10081000FFF7CEFE2DE0FFF767FEFFF7ABFE0028E7
:10082000F9D102B004BC9046F0BD00F0FFFE0820F4
:10083000404200F0D9FE0421684600F0CBFE0421BE
:1008400001A800F0C7FE00F0E7FE81E71E4801F0B6
:10085000C9FE1E4801F0C6FEFC231D48DB002380B4
:1008600001F0C0FE05E0FFF73FFEFFF783FE002822
:10087000D3D1FFF77FFE0028F5D0D2E7154801F06D
:10088000B1FEF6E700E100E01201001006010010E1
:1008900076150010CC940000F4FF03001EAB07B0E7
:1008A0001C950000D49400002895000004FF03006C
:1008B00004FE030004F003001FF8FFFF3C95000056
:1008C00080950000FF070000E8940000E09C000015
:1008D0000095000064950000F8B5012001F020FCAF
:1008E00000224F4B00251A8000F0ACFF4D4C4E4BC0
:1008F0004E48238001F0B0FB0123FC274C4E3021F1
:1009000033704C4B60201D704B4BFF001D70012558
:10091000278001F0A3FF494801F0F4FC3821602052
:1009200001F09CFF464801F0EDFC4021602001F001
:1009300095FF444801F0E6FC4821602001F08EFF5D
:10094000414801F0DFFC6021282001F087FF3F488B
:1009500001F0D8FC6D423E48258001F0D3FC3D48B3
:10096000278001F0CFFC02233B483370258004F040
:10097000DDFD4319042B4BD904F008FA032485B29A
:100980000DE003F03FF8002821D103F02FF80028F4
:1009900035D103F031F8002823D1002C25D0FFF702
:1009A000A3FD7821682001F059FF0A21200001F001
:1009B000A7FD04F0EBF9FA239B00EB189842E0D96D
:1009C00004F0E4F9013C85B2DBE7FFF78DFD03F0AD
:1009D00019F80028F9D1FFF795FE0024D5E7FFF7B5
:1009E00083FD03F009F80028F9D10123337000F0EA
:1009F00029FF002001F094FBF8BDFFF775FD02F020
:100A0000F5FF0028F9D102F0F7FF0028E9D1ECE763
:100A1000040004F0BBF9002CE7D085B2BFE7C04664
:100A2000761500100601001000F8FFFF249000006A
:100A300012010010090100100A0100108C9500003D
:100A4000949500009C950000A4950000AC950000D2
:100A5000B4950000B8950000A20F0000F0B5DE4686
:100A60004E4645465746E0B51C00E14B89B09B46D3
:100A70001B880500069353110E000593002C00D02F
:100A8000A5E1032B00DCDDE0059B042B00D080E119
:100A90005A46243B1380002C00D080E10123984665
:100AA000D44C37B228B222003900009300F040FF46
:100AB000ABB21D000393434608352DB22200390026
:100AC0002800009300F034FFB3B21E1F0493434686
:100AD00036B2220031002800009300F029FF039B6A
:100AE000012510331BB298462200012339004046ED
:100AF000009500F01DFF01232200310040460095C3
:100B000000F016FF049B2200083B1BB299464046AA
:100B100001234946009500F00BFF059B032B00D1F4
:100B2000DFE0039B220018331BB2984639000123F3
:100B30004046009500F0FCFE0123220031004046B3
:100B4000009500F0F5FE012322004946404600953D
:100B500000F0EEFE049B22000C3B1BB29A4640467E
:100B600001235146009500F0E3FE059B042B00D1C4
:100B7000DEE0039B220020331BB29846390001239C
:100B80004046009500F0D4FE01232200310040468B
:100B9000009500F0CDFE0123220049464046009515
:100BA00000F0C6FE0123220051464046009500F0A9
:100BB000BFFE049B2200103B1BB219000793404666
:100BC0000123009500F0B4FE059B052B00D1DCE06D
:100BD00001239846039D220028352DB239002800B4
:100BE000009300F0A5FE4346220031002800009348
:100BF00000F09EFE4346220049462800009300F084
:100C000097FE4346220051462800009300F090FED4
:100C10004346220028000799009300F089FE4346CE
:100C20000499220014390093280009B200F080FED4
:100C30005B46069A1A8009B03CBC90469946A2468B
:100C4000AB46F0BDFC235A46DB001380059B002B0E
:100C500000DDD7E05A46684B664C1380012337B25B
:100C60002200390028B2009300F062FE5A46624B1F
:100C700039001380ABB21D00039301239846083559
:100C80002DB222002800009300F052FEB3B21E1FC6
:100C90000493434636B2220031002800009300F04E
:100CA00047FE5A46544B039D138001239846103546
:100CB0002DB2220039002800009300F039FE43468F
:100CC000220031002800009300F032FE049B220035
:100CD000083B1BB29946434649462800009300F062
:100CE00027FE5A46444B039D13800123984618352E
:100CF0002DB2220039002800009300F019FE43466F
:100D0000220031002800009300F012FE434622002A
:100D100049462800009300F00BFE049B22000C3B88
:100D20001BB29A46434651462800009300F000FE4D
:100D30005A46314B039D13800123984620352DB22E
:100D4000220039002800009300F0F2FD4346220003
:100D500031002800009300F0EBFD43462200494695
:100D60002800009300F0E4FD43462200514628008D
:100D7000009300F0DDFD049B2200103B19B24346B6
:100D800028000093079100F0D3FD5A461A4B1380B8
:100D90001EE75A46194B1380002C00D17EE601F065
:100DA000B7F90400012001F0BBF902F06BFC31003F
:100DB00002001439681E0A23C9B2C0B201F058FDFE
:100DC0000F4801F09FFA200001F0AAF93EE7002346
:100DD0003222009300213233002000F045FD059BB4
:100DE000032B00DD50E6FC235A46DB001380D6E7D8
:100DF00006010010F09B00008A52000000F8FFFF7F
:100E0000509600000123154C37B2009322003900A0
:100E100028B2984600F08CFD059B012B00D125E7F8
:100E2000ABB21D000393434608352DB222003900B2
:100E300028000093012300F07BFDB3B204931E1F32
:100E4000434636B20093220001233100280000F00F
:100E50006FFD059B022B00DC23E740E6F09B0000C2
:100E6000F0B5DE46454657464E46E0B5012085B012
:100E700001F056F90022A64B1A7002F003FCFA208A
:100E8000000104F053FBA34B85B204001D807F2DAD
:100E900000D826E1FF2002F0AFFBA80802F0DAFB41
:100EA000680802F0D7FB20B202F0D4FB00229A4B74
:100EB0009A4F64119A483C701A7004F037FB431E35
:100EC0000400092B00D9974C03F060FF964B0126D4
:100ED00098461B7885B20393002B00D191E0934B89
:100EE000AA469946924B9B46002C00D189E003F01C
:100EF0004DFFFA239B00534498426FD8022E78D0BE
:100F0000039B002B00D0A3E08A4D9921302000F0F4
:100F1000B9FC3B78032B00D894E0F8231B022B800C
:100F200002234A463021A4200093013B00F000FD3B
:100F30003621182000F0A6FC7F4801F0E3F9422199
:100F4000182000F09FFC3B78032B00D876E07B480C
:100F500001F0D8F9FC260223F600794A6021A4208A
:100F60002E800093013B00F0E3FC6621182000F086
:100F700089FC584601F0C6F97221182000F082FC65
:100F800002F080FB7F2801DDF826360238782E80BB
:100F9000042859D0072802D1062301383B700A21C2
:100FA00001F0AEFA674801F0ADF9FC23DB002B80BD
:100FB00002F068FB0023020077217020FFF74EFD4E
:100FC00043461B78002B1CD0002C1AD003F0DEFE09
:100FD000FA239B005344022698428FD903F0D6FE91
:100FE00083B29A46584BE3185A1E9341E41A022ED4
:100FF00086D1FFF779FAFFF7D9F902F0F7FC00285C
:101000005FD002F03FFB0400FA20000104F08EFAEA
:1010100080B2A04204D0FA20E1B2000104F0A8FAA4
:1010200020B202F017FB0021002000F02BFC05B0DD
:101030003CBC90469946A246AB46F0BD434801F001
:1010400061F987E7374B6AE720235B422B80A6E7ED
:1010500000F0F8FB0123FC26364D5B4210212020D6
:101060002B8000F00FFC3A4801F04CF99921282020
:1010700000F008FC374801F045F9F60036482E80AC
:1010800001F040F9012335485B422B8001F03AF929
:10109000582100202E8000F0F5FB314801F0A2FA23
:1010A000304E300001F09EFA300001F09BFA300023
:1010B00001F098FA300001F095FA2B4801F092FA0D
:1010C00023E70230FFF706FA00280ED002F05AFAA2
:1010D00043461B78002B94D000230126114C039328
:1010E00005E77F2002F088FAD7E60020FFF7F2F943
:1010F000002805D143461B78002B00D0F4E680E79A
:1011000002F060FA43461B78002BE5D179E7C04630
:1011100009010010AE150010D1010010AD1500102E
:10112000A30F0000FFFF0000D90100109C960000F3
:101130005496000006010010689400003C960000E0
:10114000CC9B0000509600000100FFFF4896000075
:10115000C4950000B4940000D8950000DC95000010
:10116000E89500000496000020960000014B1878D6
:101170007047C046D9010010FC23F0B54746CE4663
:10118000DB009946344B00260025984680B5334C49
:10119000334F83B003F0FAFD23688342FAD21E3046
:1011A0002060012D32D0022D17D0002D0AD0FFF77C
:1011B000E1F9002801D1292DECD903B00CBC9046EF
:1011C0009946F0BD274B00201D8000F049FBFFF73A
:1011D000D1F90028F1D10135DCE74A461E4B6E20DB
:1011E0001A8058231E4A3F365178B6B24908591A18
:1011F00013785B08C01A0123009300F099FB802349
:10120000DB009E421BD3FFF7B5F9D6E7FC21F2B213
:10121000C900002002F08CF94346582118806E2046
:101220007B781C365B08C91A3B783A005B08C01A09
:1012300000950123B6B200F07BFBFE2E04D8FFF729
:1012400099F90028A6D0B8E7FFF794F90028B4D19F
:10125000002602259EE7C04606010010FC1F001074
:10126000C096000076150010F8B50125524B0020FD
:101270001D7000F055FF514800F0EEFE03F076FDC2
:1012800003F0A0FD02F01CFB03F094FD1022FF26EA
:101290004B4B4C4C1A704C4B7F201D60267002F05B
:1012A000ABF97F22494B26701A80FFF77BF8FFF7D6
:1012B0007DF800F0E3FA464804F038F904008307AB
:1012C00000D573E001252E002640254235D00027A9
:1012D000012000F025FF3F4E378000F0B3FA3E4C6E
:1012E000200000F0B9FE012000F01AFFFC223B4B69
:1012F000D200200037801A8000F0AEFE0023384F65
:10130000384E3B70357002F0BDF900B202F0A2F920
:10131000002000F005FF0123334A34481370344A9B
:101320003B703370137000F097FE02F08BF90520CC
:10133000FFF7D0F8002835D1F8BDFFF71DFF0120D9
:1013400000F0EEFE234F3E8000F07CFA224C20009D
:1013500000F082FE012000F0E3FEFC221F4B200083
:10136000D2001A803E8000F077FE00231C4F1D4EF5
:101370003B703570FFF7B0FAFFF772FD00F030FEFA
:10138000002000F089FA1B4C2379002BC0D0FFF716
:101390000DF82379002BBBD0FFF708F82379002B39
:1013A000F5D1B5E7002002F055F9C5E729008143E2
:1013B000074804F0DDF885E7D9010010BC8900007A
:1013C000C8010010D0010010CC010010AE150010B3
:1013D000B40F0000761500102490000006010010E4
:1013E000090100100A01001012010010C08C000059
:1013F00013010010BC01001070B5050003F0C6FC1D
:10140000114B12491A780B68114C1B1A934209D9D7
:101410002368002B0BD1280000F03EFA01230020A6
:10142000236003E023680020002BF4D070BD101867
:10143000084A086013680133136000232360FEF735
:10144000B5FF0120F2E7C046C8010010D40100102A
:10145000CC010010C401001010B5024800F0B0F932
:1014600010BDC046D80100107047C04610B504003A
:10147000182106F0F7F9200010BDC046A0228023F5
:1014800080219B011206D0588900014310B5D1502C
:101490008021D058490001434020D150D158014308
:1014A000D150D15840300143D15004F0D1FA084C0A
:1014B0002070084804F0B8FD07492070074805F07F
:1014C00021F842424241064B20701A7010BDC046BE
:1014D0004C0200101C020010E09C000004020010EE
:1014E0001802001070B5384E040033780D00102B30
:1014F00009D02000357004F055FE00280AD00823DA
:101500000120337070BD314804F08EFD0028F0D00A
:101510000120F7E72278002A3BD02D4B1A70627821
:10152000002A39D05A70A278002A37D09A70E2780F
:10153000002A35D0DA702279002A33D01A71627904
:10154000002A31D05A71A279002A2FD09A71E279FB
:10155000002A1CD0DA71227A002A29D01A72627A03
:10156000002A27D05A72A27A002A25D09A72E27AEB
:10157000002A23D0DA72227B002A21D01A73627BE0
:10158000002A1FD05A730E2200219954BAE707226D
:10159000FAE700220E4BF7E70122F5E70222F3E714
:1015A0000322F1E70422EFE70522EDE70622EBE74D
:1015B0000822E9E70922E7E70A22E5E70B22E3E749
:1015C0000C22E1E70D22DFE7040100101C020010ED
:1015D000DC01001010B582B06B469C1D220004F0A7
:1015E00015FE208802B010BD030010B5084A00287F
:1015F00006DBD069181804F095FE064B187010BD74
:10160000D169424200209142F5D35818F3E7C04611
:101610001C0200104C02001010B5002004F082FEE5
:10162000014B187010BDC0464C020010034B10B5A2
:10163000186A04F077FE024B187010BD1C020010EF
:101640004C020010014BD8697047C0461C020010C4
:101650000123812210B5084C82B05B420093200028
:10166000064B0749520105F05BF82000054A064980
:1016700005F0A8F902B010BDEC010010180C000034
:10168000241200000001001069140000F8B54E4655
:10169000DE4657464546E0B5424B81461B789C46A0
:1016A000984202DB013B1BB299463F4B1B78042B4F
:1016B00047D0022B3FD1484603213C4A127893463B
:1016C0005043C41721400918891089B2384A394853
:1016D0009246128800889046524610804A46002A58
:1016E00039DD48466246121A9146002A18DD5A46EC
:1016F000D0084343002B13D0002400222E4D00209D
:101700000E00AF5D260001300131013480B289B294
:10171000A4B2AF559842F3DB013292B24A45EEDBF8
:10172000264B5A460021595E0020634601F068F9B5
:10173000534642461A803CBC90469946A246AB4668
:10174000F8BD4846194A12785043C10F091849108C
:10175000934689B2BAE76446A2B294464A4690B22A
:10176000A04217D25A465343DB1013D0002600275D
:10177000114D002430002A5C08000134013601318B
:10178000A4B2B6B289B22A549C42F3DB0137BFB28D
:101790006745EED34B465A460021002001F030F950
:1017A000C6E7C0461101001008010010100100102A
:1017B0000E01001082150010500200108615001056
:1017C000134B144A10B5040013481A6001F096FD3B
:1017D0000122124B12491A70124BDB321A70124B53
:1017E0002C3A1A70114B124A200013601A780132F9
:1017F0000A705B780F4A0133137011220E4B1A8066
:1018000000220E4B1A800E4B04321A7010BDC046D7
:10181000A8150010500200108893000080150010D9
:10182000AC1500107A15001079150010BC89000065
:101830007C1500106F1500100C01001082150010AF
:101840000801001010B5002002F00EFA0023024A31
:101850001380024A138010BD8415001086150010F5
:1018600010B502F001FA10BD10B582B004AC2488A6
:10187000009403F073F802B010BDC04610B502F03A
:101880000DFB10BD024B1880024B19807047C046FB
:10189000841500108615001010B5002804D01C4BCC
:1018A0001B78002B0DD010BD1A4B1C6802F020F9DC
:1018B000194B2000196803F03DF9154B1B78002BDC
:1018C000F1D1164B164A197818880F2312780B405D
:1018D000012A17D0022A0ED0042A16D11901194361
:1018E0000C4B104A186805F0FBFF00230E4A1380CA
:1018F0000E4A1380D7E703230B40990019430B01CD
:101900001943EDE7FF210028EAD11900E8E7C046B6
:1019100074150010A8150010701500108215001025
:10192000080100101F130000841500108615001018
:10193000F0B5DE4657464E464546E0B58DB00691B9
:1019400016A90978019151780291911C12780A9197
:101950000592012B00D1F4E0042B06D00DB03CBC65
:1019600090469946A246AB46F0BD029B002BF5D0AF
:10197000002AF3D06B461B8B0F00089307930023BC
:10198000C24A01309146C24A904682B20B920899EF
:101990009BB209930BB203930B0001331BB2049368
:1019A00000230B9D00932C0036E0601E03B20693CB
:1019B0006B461C215B5E9A464B461B880F2B05D855
:1019C000B4495B00C85AB04200D177E132005146B9
:1019D000069802F033FF0F2239784B460A40414601
:1019E0001B8809685200525A20B20F2B04D8A9490B
:1019F0005B00CB5A934202D0514602F01FFF009B7E
:101A0000059A02331BB20234043501370093A4B2A5
:101A1000ADB29A4200DC41E143461B683A789C46ED
:101A2000614613115B005E5A019B022BBDD16B1EF8
:101A30001BB29A464B461B880F2B05D895495B0075
:101A4000C85AB04200D141E132005046039902F039
:101A5000F5FE2BB29B464B461B880F2B05D88D49B4
:101A60005B00CA5AB24200D12FE1320058460399B6
:101A700002F0E4FE4B461B880F2B05D885495B001E
:101A8000CA5AB24200D120E132005846049902F00D
:101A9000D5FE4B461B880F2B05D87E495B00CA5AE2
:101AA000B24200D111E132005046049902F0C6FE64
:101AB0000F2239784B460A40414609685200565A6F
:101AC0001B886A1C12B292460F2B04D871495B0026
:101AD000CB5AB34293D032005046039902F0AEFE87
:101AE000AB1C1BB29B464B461B880F2B05D8694984
:101AF0005B00CB5AB34200D181E7320058460399CC
:101B000002F09CFE4B461B880F2B05D861495B00F9
:101B1000CB5AB34200D172E732005846049902F022
:101B20008DFE4B461B880F2B05D85A4A5B00D35AB3
:101B3000B34200D163E732005046049902F07EFEC2
:101B40005DE7131E00D109E70733DB100493029B06
:101B5000002B00D102E783B2099301339BB20893B3
:101B60004D4B00269946494B984607238022334027
:101B70001A410092089AB3B20793531E1BB29A46B9
:101B800013B20A9AF610944676B266449B46002435
:101B9000002303964AE06B461E8B4B461A88434649
:101BA0006500ADB21B8877193FB20F2B04D83949B5
:101BB0005B005B5A934233D03900504602F03EFE40
:101BC0004B461A8843461B880F2B04D831495B00CB
:101BD0005B5A934224D03900584602F02FFE4B4600
:101BE0001A88434601361B88AD192DB20F2B04D835
:101BF00028495B005B5A934212D02900504602F0FC
:101C00001DFE4B461A8843461B880F2B04D82149DA
:101C10005B005B5A934203D02900584602F00EFE47
:101C20000134029A24B22300944222DA049A5343E4
:101C3000039AD35C009A1A42F2D0019B012BAAD1DD
:101C4000099A079B9446634418B2069B1919124BD4
:101C500009B21A880D4B1B880F2BDFD80D4D5B0086
:101C60005B5B9342DAD10134029A24B2230094429E
:101C7000DCDB089B079E02339BB201360893059B71
:101C800036B2B34200DD70E768E6C0460C010010D2
:101C9000701500108815001006010010089A099BA5
:101CA000023292B20892079A0133013292B207923D
:101CB000029A1BB2934200DA69E64FE60F20024017
:101CC00060465200125A20B293E63A780F20024042
:101CD000404600685200165A6A1C12B29246F7E655
:101CE000F0B54546DE4657464E46E0B5B44B8BB0A0
:101CF0001B6801915978050088460990F72008393A
:101D000044460140481E8141E01009180C0008912A
:101D10001978614301314A4304329B185A1C1B78DD
:101D200005925BB20793002B00DC46E1A54B089AB5
:101D30001F78ABB29A46013306939BB20393534686
:101D40000293059B3900A04E47461D78022A00D118
:101D50007DE001330593ADB2002F62D0039AB846FF
:101D6000531E1BB29A4613B2002499460F0027E077
:101D7000022F73D0954B1B78002B00D1B4E0434663
:101D8000581E019B9C466B4608229A5E904B60440D
:101D900004921A883388001B00B20F2B06D85B0010
:101DA0009B4659468B4BCB5A934204D0049902F080
:101DB00045FD844B1F78013464B26D08A0452EDDCB
:101DC000EB07D5D4844B1A8833889A42F3D0022F7C
:101DD00000D1ACE07D490978002900D192E041466C
:101DE000481E01998C466044001B01B2049169466B
:101DF0000820085E83460F2B06D85B009C46614690
:101E0000744BCB5A9342D6D05946049802F016FD33
:101E100001346C4B64B21F786D08A045D0DC3900EA
:101E200047466B461A8B039B079802339BB203937A
:101E3000099B0292D31A5BB2984200DCAEE0531CBD
:101E40000693089A059B1D78022A00D081E71A00A4
:101E50005B781B021D43931C05937DE7019B670084
:101E60009C466744BBB20493594B3FB29B461A88C9
:101E700033880F2B04D857495B005B5A934253D0E9
:101E80003900504602F0DAFC5B461A8833880F2B83
:101E900004D850495B005B5A934245D0390048460C
:101EA00002F0CCFC5B46049F1A88338801373FB2AE
:101EB0000F2B04D847495B005B5A934234D039005A
:101EC000504602F0BBFC5B461A8833880F2B04D8BF
:101ED00040495B005B5A934226D03900484602F0E5
:101EE000ADFC384B1F7866E76B460820185E019BF7
:101EF000E1180BB20493364B1A8833880F2B00D8A5
:101F00004DE753E769460820085E0199611809B258
:101F10008C460F2B05D82F495B005B5A934200D1AA
:101F200049E7614602F08AFC264B1F7843E7019996
:101F300067008C466744B9B28B463FB20F2B04D87A
:101F400024495B005B5A9342EED03900504602F0C0
:101F500075FC214B1A8833880F2B04D81D495B0070
:101F60005B5A9342E0D039005F46484602F066FC77
:101F7000194B01371A8833883FB20F2B04D8154903
:101F80005B005B5A9342CFD03900504602F056FCBA
:101F9000114B1A8833880F2B9AD99EE70F00002027
:101FA0000E4B1856079B9C46604478430BB03CBCD4
:101FB00090469946A246AB46F0BD024B1F78EEE72D
:101FC0007C150010120100100C0100107815001093
:101FD0000601001088150010761500100901001088
:101FE000134B10B5197818880F23124A0B4012783A
:101FF000012A16D0022A03D0042A16D0190005E0BF
:1020000003230B40990019430B0119430A4B0B4A58
:10201000186805F065FC0023094A1380094A1380FB
:1020200010BDFF210028F1D1E8E719011943EDE7C0
:102030008215001008010010A81500101F130000E1
:1020400084150010861500100F23024A03401380E8
:102050007047C0460E010010054B064A1860037811
:10206000013313704378044A013313707047C0463C
:102070007C150010AC1500106F150010F0B5474628
:10208000CE4680B55678070073420D0083B0994262
:1020900016DB1C4B1B78994212DA14786342984283
:1020A0000EDB194B1B7898420ADA931C9846174BA3
:1020B00099461B78022B1CD0042B0FD0082B04D080
:1020C00003B00CBC90469946F0BD434622000093F5
:1020D00029003300380001F087F8F1E74346220079
:1020E000009329003300380000F034FF4B461B7882
:1020F000E4E7434622000093330000F06DFE4B46B8
:102100001B78D9E711010010100100100801001020
:10211000024B1878431E9841C0B2704780150010DA
:102120000A4B002808D001221A70094BDB321A70C2
:10213000084B2C3A1A7070471870074B1A78044BEA
:102140001A70064B1A78034B1A70F4E780150010CA
:102150007A150010791500101001001011010010FF
:10216000F0B5C64600B55D4D04002A68D378002B53
:1021700035D0602833D9203CE4B2594E1178002381
:10218000F05E584B1B785B1A98422EDB002333809D
:10219000554B1B78002B3DD0544B5078984600216E
:1021A000595E534B47001B78DB1B994200DD79E0F9
:1021B000504B1B785BB2181843464118002009B2F7
:1021C000198092784C4BA21A1B78D2B292B2002B93
:1021D00000D17EE0FF231940FFF782FD15E00E2CB1
:1021E000CBD84649A300CB589F46404B927800215C
:1021F000595E414BA21A1B78D2B292B2002B4BD13E
:10220000FF231940184000F0C1FC202C59D033881E
:102210001818308004BC9046F0BD314B11781888F6
:10222000401A80B21880314B0021595E93782022E9
:10223000D21A314BD2B21B7892B2002B1FD0FF239F
:1022400019401840FFF74CFDE4E70021244B1980AA
:10225000264952780023CC5E254B50001B781B1A70
:102260009C4212DD0020234B185680180028D1D044
:10227000FFF70CFACEE70022194B1A80CAE7FF23BA
:102280001940184000F082FCC4E70020194B185692
:10229000801800190880BDE7FF2319401840FFF798
:1022A0001FFDB2E7134B1B785BB21818002800D152
:1022B00087E7FFF7EBF9434630780021595E2A683B
:1022C0007FE70F4B1B785BB2002BA0D04010013092
:1022D0009DE7FF23194000F059FC96E77C1500109C
:1022E000841500107A1500101301001086150010D7
:1022F000791500100A01001080150010609600008A
:1023000009010010F0B5D6464F464646C0B50478E0
:102310000500002C50D0714B714E9846714B724F96
:10232000994633680135DA78002A4AD0602C48D9BA
:10233000203CE4B20022B85E424619781278521A64
:10234000904200DA6FE000223A80684A1278002A50
:102350002FD0674A92460021515E5A7894466046D3
:10236000644A40001278121A914200DD9AE000207F
:10237000614A1056524660444118002009B211804B
:102380009A785E4BA21A1B78D2B292B2002B00D17F
:102390009FE0FF231940FFF7A3FC202C55D14B46AB
:1023A0001B785BB2002B50D03B88401001301818CE
:1023B00038802C78002CB4D11CBC90469946A2469B
:1023C000F0BD0A2C45D008D90D2C24D10022464B53
:1023D0001A802C78002CA4D1EEE7082CAAD1424A0E
:1023E000197810889B78401A80B21080404A0021EA
:1023F000515E2022D21A414BD2B21B7892B2002BEE
:102400003DD0FF2319401840FFF76AFC2C78002CC0
:1024100000D086E7D0E70E2C00D08BE72C78002C7C
:1024200000D07EE7C8E7324A0021515E9A78334BEC
:10243000A21A1B78D2B292B2002B2DD1FF231940E1
:10244000184000F0A3FB202CA9D03B881818388036
:10245000AFE70021244A1180254900228C5E5A787A
:10246000244B50001B781B1A9C420EDD0020224B8F
:102470001856801800289CD0FFF708F999E7FF2329
:102480001940184000F082FB93E700201A4B1856C1
:102490008018001908808CE7FF2319401840FFF7C7
:1024A0001FFCD0E70020144A10566044002800D1D9
:1024B00066E7FFF7EBF853460021595E336838783A
:1024C0009A780E4BA21A1B78D2B292B2002B00D08F
:1024D0005FE7FF23194000F059FBB4E77A150010BD
:1024E0007C15001009010010841500101301001064
:1024F00086150010791500100A01001080150010D3
:10250000F0B5CE46474680B5040089B000295BD0BF
:102510000A2933D100285FDB5AD001235B426B4488
:1025200000276D46984643462000B9460A210137E8
:10253000DE1905F051FB200031700A2105F0C6FAC2
:1025400026000400092EEED84B46EE1807E0303086
:10255000C0B2FFF705FE731EB5420AD01E003078E8
:102560000928F4D93730C0B2FFF7FAFD731EB5421F
:10257000F4D109B00CBC90469946F0BD002827D094
:1025800001235B42FF276B4400266D4698460F40AF
:102590002000390005F020FB4246330001369155FA
:1025A000220004009742F3D9EC1807E03030C0B2A3
:1025B000FFF7D6FD631EA542DBD01C00207809285A
:1025C000F4D93730C0B2F3E7C0B2FFF7C9FDD0E7A6
:1025D0003020FFF7C5FDCCE72D20FFF7C1FD644299
:1025E0009BE7C046F0B5D6464F464646C0B5047890
:1025F0000500002C50D0744B744E9846744B754FA8
:10260000994633680135DA78002A50D0602C4ED9CB
:10261000203CE4B20022B85E424619781278521A81
:10262000904200DA75E000223A806B4A1278002A64
:102630002FD06A4A92460021515E5A7894466046ED
:10264000674A40001278121A914200DDA0E0002093
:10265000644A1056524660444118002009B2118065
:102660009A78614BA21A1B78D2B292B2002B00D199
:10267000A5E0FF231940FFF733FB202C5BD14B462D
:102680001B785BB2002B56D03B88401001301818E5
:1026900038802C78002CB4D10D20FFF761FD0A2082
:1026A000FFF75EFD1CBC90469946A246F0BD0A2C81
:1026B00045D008D90D2C24D10022464B1A802C7805
:1026C000002C9ED1E8E7082CA4D1424A1978108842
:1026D0009B78401A80B21080404A0021515E20222F
:1026E000D21A414BD2B21B7892B2002B3DD0FF23BD
:1026F00019401840FFF7F4FA2C78002C00D080E73E
:10270000CAE70E2C00D085E72C78002C00D078E7A3
:10271000C2E7324A0021515E9A78334BA21A1B78E5
:10272000D2B292B2002B2DD1FF231940184000F0F5
:102730002DFA202CA3D03B8818183880A9E7002157
:10274000244A1180254900228C5E5A78244B50007F
:102750001B781B1A9C420EDD0020224B1856801855
:10276000002896D0FEF792FF93E7FF231940184008
:1027700000F00CFA8DE700201A4B1856801800194B
:10278000088086E7FF2319401840FFF7A9FAD0E731
:102790000020144A10566044002800D160E7FEF77C
:1027A00075FF53460021595E336838789A780E4B8E
:1027B000A21A1B78D2B292B2002B00D059E7FF23A5
:1027C000194000F0E3F9B4E77A1500107C15001009
:1027D0000901001084150010130100108615001067
:1027E000791500100A01001080150010F0B50400E2
:1027F00089B000290AD1C0B2FFF7B2FC0D20FFF763
:10280000AFFC0A20FFF7ACFC09B0F0BD002820D0D7
:10281000FF2600276D460E402000310005F0DCF950
:102820006A463B00013A0137D15522000400964226
:10283000F2D9EC1807E03030C0B2FFF791FC631E0C
:10284000A542DBD01C0020780928F4D93730C0B26B
:10285000F3E73020FFF784FCD0E7C046024B188036
:10286000024B19807047C046841500108615001071
:10287000F0B5CE46474680B51400384A89B010807E
:10288000374A1180002B5BD00A2B33D1002C5FDB41
:102890005AD001235B426B4400276D46984643465D
:1028A0002000B9460A210137DE1905F095F920000C
:1028B00031700A2105F00AF926000400092EEED82D
:1028C0004B46EE1807E03030C0B2FFF749FC731EEC
:1028D000B5420AD01E0030780928F4D93730C0B28A
:1028E000FFF73EFC731EB542F4D109B00CBC904614
:1028F0009946F0BD002C27D0FF271F4001235B42E3
:102900006B4400266D4698462000390005F064F9B6
:102910004346320001369955230004009F42F3D903
:10292000AC1807E03030C0B2FFF71AFC631EA542B6
:10293000DBD01C0020780928F4D93730C0B2F3E787
:10294000E0B2FFF70DFCD0E73020FFF709FCCCE741
:102950002D20FFF705FC64429BE7C046841500105C
:10296000861500107047C04610B50C4B1B785B10E5
:102970004B43411059180A4B89B21B685C18595CCB
:10298000C30704D50F2399430A43227010BD0F23B8
:1029900012010B401A43D2B2F7E7C04610010010F3
:1029A000A8150010124B30B51B889A4219D0114C53
:1029B00085B22378AB4214D90F4C89B224788C426B
:1029C0000FD90F245B1059430C4B40101B6809189A
:1029D00089B2581822405B5CE90703D5A3431A4328
:1029E000027030BD1C40120122430270F9E7C0465C
:1029F0000C0100101001001011010010A8150010AA
:102A0000F0B5DE4657464E464546E0B5821887B0DB
:102A100012B2002800DAA9E0584C2478844201DC84
:102A200094426ADDCB181BB200296DDB544C24782C
:102A30008C4201DC9C4260DD824269DA00B2140003
:102A40000190994268DD0AB219000392CB43E0433A
:102A5000DB17019AC0170B402040029390424CDADA
:102A6000039A0493934200DD0492029B039A00931D
:102A7000934200DA0092434B07009C469846404C34
:102A80002378029A934202D8039A93422FD93B4D5E
:102A90002A78BA422BD983B299467B109BB29A46C8
:102AA000C3073CD40F239B464B46049E81460597A3
:102AB000180000E02A78904213D22178B3B29942EC
:102AC0000FD941465F4652105A4309682E4B524473
:102AD00092B21B78895C1B0139400B43414609685F
:102AE0008B54009B01369E42E4DD4846059F013031
:102AF000019B00B201378342C2D107B03CBC904673
:102B00009946A246AB46F0BD002BF6DB824295DB30
:102B100004B20192994296DC09B2039396E70F231F
:102B200056469B46BA46049927004C46814600E02B
:102B30002A78A24212D938788BB298420ED9521014
:102B40005A43634658461B68B21892B29B5C834353
:102B50000D4800880343604600688354009B0131A0
:102B60009942E5DD3C0048465746C0E7002AC4DBF1
:102B7000CB181BB2002900DB58E7C5E71001001095
:102B800011010010A81500100E010010F0B54E46FE
:102B90004546DE465746E0B5844B06001B68F724E1
:102BA0005D788DB0280008382040441EA041EC100C
:102BB00000190400049018780195444301346243DD
:102BC00004329B185A1C1B780692794A5BB2039315
:102BD0001378022B01D001231370002E08DB00298B
:102BE00006DB5843734A80191278904200DAC5E038
:102BF000714A724812880488A24200D1BCE0704D2C
:102C000070480088844200D1B4E06D4C0A9408AC4E
:102C10000B9520716271022B4CD0039B002B34DD8D
:102C20000023994601339846069B8FB29B46BA46CD
:102C3000019F5B461D78049B022B33D001239C46E9
:102C4000ADB2E34452460024B24601924346082600
:102C500001992B4009AA08A8D25C091980199B0088
:102C60000134C35809B2504664B298476D08A74270
:102C7000ECDA019B56469A464B4601335BB29946C5
:102C8000039B013636B24B45D3D100204E4B18562C
:102C9000039B9C4660440DB03CBC90469946A246BE
:102CA000AB46F0BD5B465B781B021D4302239C468E
:102CB000E344C7E7039B002B4CDDB3B205938BB213
:102CC000029300230793069A04991378022949D0A6
:102CD0009BB2994601320692059900260BB29B469B
:102CE0000B0001331BB29A464A46012308211340C8
:102CF00009AAD25C9B00904608AA5218D758029B9A
:102D000074009C466444A5B224B242462100584651
:102D10000135B8472DB2424621005046B8474246D9
:102D200029005846B847424629005046B8474B4606
:102D30005B0899460136019B76B2B342D4DA079B11
:102D400001335AB2059B079202339BB20593039B52
:102D50009342B8D100201C4B1856039B9C466044FC
:102D6000400098E71100527812021A438B1C9146DA
:102D70000693B1E7154C49E7144D41E7019A144811
:102D800001325A4300785218824200DB30E70A4A87
:102D90000A4812880488A24206D00E4D09480088CD
:102DA0008442E7D00B4C31E7084DF7E77C15001063
:102DB00012010010100100100E0100100C01001093
:102DC000A5290000821500100901001065290000E6
:102DD0001101001069290000F0B5DE46454657464E
:102DE0004E46E0B59B46931085B01BB298460091C5
:102DF0000392002A68DD83B2994600239A464B4627
:102E0000D1469A4603274B463D004A46DB171D40F4
:102E10009B0FD2181740FF1A5B464D443FB2AD10CE
:102E20007F00002B45DD53461BB25B109BB2C026D2
:102E3000019306233E41DF1B5346002476B2DB0795
:102E400049D40E9A0023944665442A00454690468C
:102E500042466B43D05C3A4B30401B88384183423A
:102E600021D0C0B2FFF7F0F8364AA3B2127852452B
:102E700019D900998C463449634409789BB2994228
:102E800011D952105343019A0F2094462F4A63449C
:102E900011682F4A9BB212780291C95C1201084056
:102EA00002990243CA54013424B22300A345CFDC63
:102EB000A8464B4601331BB29946534601339BB299
:102EC0009A46039B99459DDB05B03CBC90469946CC
:102ED000A246AB46F0BD0E9A0023944665442A00F4
:102EE0004546904642466B43D05C154B30401B88AC
:102EF000384198421ED0C0B2FFF7A6F8114BA2B2DB
:102F00001B78534516D900998C460F4962440978BD
:102F100092B291420ED95B105343019A0F2094460E
:102F20000A4A634411689BB2CA5C8243084800881D
:102F30000243CA54013424B223005C45D2DBB7E714
:102F40000C0100101001001011010010A815001054
:102F50000E010010F0B5DE4657464E464546E0B538
:102F60008DB0169C0092002900DA1AE19A4DCA1819
:102F70002D780292AA4200DDBDE00BB29C461A00F9
:102F8000002800DABEE0954D009B2E781B180595B1
:102F9000B34200DD0FE1002345100393089307932C
:102FA000761071438E4B49191B685B1802998A424F
:102FB00057DA01210D000540069505B20195009DE7
:102FC000039EA846874F4044861BB946B846B24682
:102FD0000D4081490995049104990978914240DD99
:102FE000069A019D002A00D0A3E0554500DBD4E0FD
:102FF000039A002A45D108E08243023511432DB2DD
:10300000197001340133AA4518DD4046217806883D
:103010001A780811864206D00F20024093460A0013
:103020008243584602430F200140B142E4D10235A9
:103030002DB21A7001340133AA45E6DC079A0099D3
:103040009346059A5C441278521A089952108B469E
:103050005A449B1862460299013212B294468A423F
:10306000BADB0DB03CBC90469946A246AB46F0BDDB
:10307000814302350A432DB21A7001340133AA4547
:103080001DDD484621786278090112110A4306883D
:10309000D2B219781011864206D00F2001408B461B
:1030A00011008143584601430F200240B242DFD154
:1030B00002352DB2197001340133AA45E1DC099AB9
:1030C000002A15D00F21474A2578128829409142BD
:1030D0000ED00F2019780AAAD171D1792D010140A3
:1030E000D171D17907320D43EDB2157012781A7093
:1030F00001340133A2E70AB2EB1894460293002888
:1031000000DB40E7022543001D40009B03959846E5
:103110008044434640424010009303B298460793D0
:103120002E4B00251E78059300230020444408936D
:1031300036E755451BDA1A78217838880E11B042E7
:1031400002D00F20824332430F261A703888013391
:103150000E401A7886421AD00F20090102400A4315
:103160000235D2B22DB21A7001345545E4DB039A10
:10317000002A00D162E71B482278058819781211CD
:10318000AA4202D00F2081431143197056E702353D
:103190002DB201345545CFDBE9E7039A002A8ED1E1
:1031A0004CE7CB180293531059430023641A0022B2
:1031B0009C460021E4E6022745002F4001250540FA
:1031C000A8469B1B5B1043441BB20793331A089518
:1031D000039700934510E3E6110100101001001061
:1031E000A81500100C010010F0B54E464546DE460D
:1031F0005746E0B585B0914680461A000E9B0029DF
:103200006ADB8818824639480078824551DC0AB268
:10321000944614004246002A52DB354A00251078B5
:1032200003924A4642440195824207DD4246121A01
:103230004A4412B201924246821A914641432D4AB3
:10324000414412685118A2452CDD424612B2029246
:10325000264A4F4693464546274847445A461278E1
:10326000A2421FDD029ABA420DDAA846EE1A1D7874
:103270000488AC4200D00D7001339A1912B20131AA
:103280009742F4DC45464C46019A9046039A4344E3
:103290001278121B89186246013212B29446140049
:1032A0005245DBDB05B03CBC90469946A246AB4696
:1032B000F0BD8246924442460CB2A446002AACDAE3
:1032C000504202B2C14401929046094A43441078E8
:1032D000039200229046B1E792464A468A445143FF
:1032E00000225B1A00249446002193E7110100108C
:1032F00010010010A81500100C0100104278017890
:103300009210C910C90252010A4381785D4BC9105D
:103310000A431A80C2784179D210C910D2020A43F6
:103320000179891049010A435A808279017AD210C1
:10333000C910D2020A43C179891049010A439A800F
:10334000427AC17AD210C910D2020A43817A891016
:1033500049010A43DA80027B817BD210C910D20274
:103360000A43417B891049010A431A81C27B417C8F
:10337000D210C910D2020A43017C891049010A43C4
:103380005A81827C017DD210C910D2020A43C17CCD
:10339000891049010A439A81427DC17DD210C9102A
:1033A000D2020A43817D891049010A43DA81027EF3
:1033B000817ED210C910D2020A43417E8910490190
:1033C0000A431A82C27E417FD210C910D2020A4338
:1033D000017F891049010A4320215A82827F415C82
:1033E000D210C910D2020A43C17F891049010A4391
:1033F0009A8221222321825C415CD210C910D20220
:103400000A432221415C891049010A43DA822422BD
:103410002621825C415CD210C910D2020A432521C8
:10342000415C891049010A431A8327222921825CC1
:10343000415CD210C910D2020A432821415C891094
:1034400049010A435A832A222C21825C415CD21012
:10345000C910D2020A432B21415C891049010A4359
:103460009A832D222F21825C415CD210C910D20296
:103470000A432E21415C891049010A43DA83024A3A
:103480001360704788150010701500100200264B5D
:103490001A43920726D1C21CD21A062A22D90268E0
:1034A0001A80120C5A8042689A80120CDA80826864
:1034B0001A81120C5A81C2689A81120CDA8102694F
:1034C0001A82120C5A8242699A82120CDA8282693A
:1034D0001A83120C5A83C2699A83120CDA83134A34
:1034E0001360704702881A8042885A8082889A80C6
:1034F000C288DA8002891A8142895A8182899A8136
:10350000C289DA81028A1A82428A5A82828A9A821D
:10351000C28ADA82028B1A83428B5A83828B9A8305
:10352000C28BDA83DBE7C0468815001070150010E7
:103530001F2370B51C000B4004401B1B1BB25343E0
:103540001B12E3183F244E1145112540C00A344098
:10355000C912091A641B54434A4312128218D043F9
:1035600024122D191BB2C017EC431040DA43E417A4
:10357000D2172C401340C00218436401204380B28C
:1035800070BDC04610B50B490B780133DBB2072B79
:103590000CD80948C25C501114005309074A105C4A
:1035A000074A0B70148001F00BFB10BD7F2007232E
:1035B000E024F5E7AD150010F89B0000009C00002A
:1035C000AE15001010B5084A1378002B01D0013B4E
:1035D000DBB20649CB5C06490B805B111370054AD0
:1035E000D05C01F0EDFA10BDAD150010F89B0000A5
:1035F000AE150010009C000010B5021CFF2800DD75
:10360000FF2213B2DB43DB170A4913400A4A138037
:1036100000200B5E0A88DB43DB1713401AB20B80D5
:103620005311064A1370FF221340054AD05C01F083
:10363000C7FA10BDAE15001014010010AD15001032
:10364000009C000010B501F083FB012001F0D8FAC6
:1036500010BDC0460300C043C0171840064B10B54C
:103660001880064B40111870FF231840044B185C5B
:1036700001F0A6FA10BDC046AE150010AD15001041
:10368000009C0000014B18887047C046AE15001022
:1036900010B50248FCF7EAFF10BDC046B015001097
:1036A0000122014B1A717047E41700100022014BF0
:1036B0001A717047E41700100122014B5A717047CC
:1036C000E41700100022014B5A717047E4170010F4
:1036D0000122014B9A717047E41700100022014B40
:1036E0009A717047E41700100122014B5A7070471D
:1036F000E41700100022014B5A707047E4170010C5
:103700000122014BDA707047E41700100022014BD0
:10371000DA707047E41700100022014B9A7070476E
:10372000E41700100022014B1A707047E4170010D4
:1037300010B5054B9A79002A02D101229A7010BD6A
:10374000FFF720FFFBE7C046E417001010B5054B5C
:103750009A79002A02D101221A7010BDFFF732FFB8
:10376000FBE7C046E417001010B5044802F084FFE0
:103770000122034B1871034B5A6210BDB41500109F
:10378000E4170010004000A010B5044802F074FFD8
:103790000222034B5871034B5A6210BD04160010ED
:1037A000E4170010004000A010B5044802F064FFC8
:1037B0000422034B9871034B5A6210BD541600103B
:1037C000E4170010004000A010B5044802F054FFB8
:1037D0000822034B5870034B5A6210BD9417001017
:1037E000E4170010004000A010B5044802F044FFA8
:1037F0001022034BD870034B5A6210BDA416001060
:10380000E4170010004000A070B5114802F034FF2A
:10381000104CA071104802F02FFFA379C0B22070A5
:10382000002B01D0002806D100220C4B1A70202258
:103830000B4B5A6270BD094D2B78002B04D000232E
:10384000237001332B70F2E7FFF7BCFEF7E7C046A9
:1038500054160010E4170010F4160010ED170010B5
:10386000004000A070B5114802F006FF104CA07196
:10387000104802F001FFA379C0B2A070002B01D064
:10388000002806D100220C4B1A7040220B4B5A62C2
:1038900070BD094D2B78002B04D00023A370013399
:1038A0002B70F2E7FFF76EFEF7E7C04654160010E4
:1038B000E417001044170010ED170010004000A09E
:1038C00010B52E4C2E49200002F0FEFE20002D499E
:1038D00002F0E8FE2C4C2D49200002F0F5FE2000FD
:1038E0002B4902F0DFFE2B4C2B49200002F0ECFEAE
:1038F00020002A4902F0D6FE294C2A49200002F075
:10390000E3FE2000284902F0CDFE284C2849200083
:1039100002F0DAFE2000274902F0C4FE264C2749B7
:10392000200002F0D1FE2000254902F0BBFE254C0C
:103930002549200002F0C8FE2000244902F0B2FE12
:103940000020234903F044F80120224903F040F805
:103950000220214903F03CF80320204903F038F805
:1039600004201F4903F034F805201E4903F030F805
:1039700006201D4903F02CF810BDC046B4150010F8
:10398000AD360000A136000004160010C536000058
:10399000B936000054160010DD360000D1360000A4
:1039A00094170010F5360000E9360000A416001048
:1039B0000D37000001370000F41600102537000015
:1039C0004D37000044170010193700003137000050
:1039D0006937000089370000A9370000C9370000A7
:1039E000E93700000938000065380000014B1879FC
:1039F0007047C046E4170010014B58797047C04625
:103A0000E4170010014B98797047C046E417001086
:103A100070B52648FDF7D4FE254E2649300002F049
:103A200007FE254D254C2A002100300002F0CAFF78
:103A3000234E2449300002F0FBFD2A002100300013
:103A400002F0C0FF204E2149300002F0F1FD2A00B3
:103A50002100300002F0B6FF1D4E1E49300002F07A
:103A6000E7FD2A002100300002F0ACFF1A4E1B498E
:103A7000300002F0DDFD2A002100300002F0A2FF3C
:103A8000174E1849300002F0D3FD2A002100300003
:103A900002F098FF144E1549300002F0C9FD2A00CB
:103AA0003000210002F08EFF70BDC046EC17001000
:103AB000B41500108412010000010010AD65000073
:103AC000041600107008010054160010881401003C
:103AD00094170010941A0100A41600106C0601003F
:103AE000F4160010C4320100441700107C0E0100CF
:103AF000F0B54A4857464E464546DE468046A02326
:103B00008A22E0B504278025444618201B0692012E
:103B10009F5043499246434E434A6D049D505E5028
:103B200018514248002484468020654640015C507C
:103B30005851C046C046843D9850A9465F518025E3
:103B40006D049D503A4D5E50AB4645465E465E5113
:103B500065465C505851C046554698505F51802587
:103B60006D049D5080256D00AB462E4E45465E503F
:103B70005E465E5165465C505851C046C0464D4653
:103B800098505F5180256D049D504546254E5E50EE
:103B90005C5165465C505851C046554698505F513F
:103BA00080256D049D5084256D00AB465E504546D2
:103BB0005E465E5165465C505851C046C0464D4613
:103BC00098505F5180256D049D504546154E5E50BE
:103BD0005C5165465C505851C046554698505F51FF
:103BE00080256D049D5088256D00AA465E5045468F
:103BF00056465E515C5064461851C046C0464C461D
:103C000098501F518024074E64049C5098505E5079
:103C10003CBC90469946A246AB46F0BD88210000C8
:103C2000882000000700F8FF042200008422000022
:103C3000C081000080230B4A9B00D25810B5031CA2
:103C4000642800D96423D8B26421504303F03EFFB6
:103C500081220421034B920098505A688A435A608B
:103C600010BDC04600C00050F0B557464546DE4680
:103C70004E46A0238A22E0B5042580271B06920128
:103C800083B000903C4C9D5092463C493C4A7F0496
:103C90005F5090461A513B4A3B4894468022654605
:103CA00052005A5100221A51802252011A50C04625
:103CB000C04688260425B6015A50B1469D51464655
:103CC0005F5000251E5166469D5100261E511A5018
:103CD000C046564604355A509D5146465F501E51C7
:103CE00084267600B34666465F469F5100261E51E5
:103CF0001A50C046C0464E4680275A5001959D51E5
:103D000046467F045F5000251E5166469D510026A1
:103D10001E511A50C0465646019D5A509D51464666
:103D20005F501E5188267600B246664657469F5120
:103D300000261E511A50C046C04646465A501E51D3
:103D4000009EF600B046664647469F5100268027F3
:103D50001E514C467F041D510C4C5F505A501A5056
:103D6000C046013C5A50002CF9D103B03CBC9046EF
:103D70009946A246AB46F0BD882000000422000010
:103D80000700F8FF8821000084220000409700000F
:103D9000F0B557464E464546DE46A0228A23E0B59A
:103DA0000427802612069B01D75036499A4636488A
:103DB000364B760416508846D150354900258C463E
:103DC00080216446490011518021324C4901D5506F
:103DD0001151C046C046843C1150A146175144467B
:103DE0001650D450644615512A4CD5501151C04636
:103DF00054461150175144461650D4508424640040
:103E0000A34664465E461651224CD5501151C04619
:103E1000C0464C4680261150175144467604165031
:103E2000D450644615511B4CD5501151C0465446D0
:103E30001150175144461650D45088246400A246AD
:103E4000644656461651134CD5501151C046C046D3
:103E500044461150D450644680261551D5504B46E7
:103E60007604D7500B4C0C4B165011501151C046D4
:103E7000013B1150002BF9D13CBC90469946A2461B
:103E8000AB46F0BD0700F8FF0422000088200000C8
:103E900088210000842200004097000080208022BA
:103EA000F8B5DE4657464E464546EC4B12061958C5
:103EB000E0B50A431A5080225968920011435960B4
:103EC000FC210324E6480127435880269B0A9B02D5
:103ED0002343E44C43502168E34B76010B430C2110
:103EE00023606368E1480B436360A123DB00E75074
:103EF000DF4B0A39E150C1239B00E650C02101236A
:103F000089005B4263500C31605004396350D94BD7
:103F10006421A350A358D84D1801C01A400003F0E3
:103F2000D5FD812304229B00E050636892469343B1
:103F30006360A024240667510A2002F01DFDCF4AC9
:103F40000A20A750914602F017FD67510A2002F09F
:103F500013FD8A2351469B01E15080210823002252
:103F600049046151C64F8B46C648C749E051904647
:103F70006350E2514A469C46A650C046C04653464E
:103F8000843A6651A3505B468E2263514346120128
:103F9000E0516250E3514B46E650C0468A225346F8
:103FA00092016651A3505B46102263514346E05193
:103FB0006250E3514B46E650C046C0468822534605
:103FC00092016651A3505B46802263514346120121
:103FD000E0516250E3514B46E650C0468A225346B8
:103FE00092016651A3505B46182263514346E0514B
:103FF0006250E3514B46E650C046C04688225346C5
:1040000092016651A3505B46635143469F4AE0517B
:104010006250E3514B46E650C0468A225346920115
:104020006651A3505B46402263514346E0516250C3
:10403000E3514B46E650C046C046882253469201A3
:104040006651A3505B4663514346914AE05162502A
:10405000E3514B46E650C0468A22534692016651D0
:10406000A3505B46602263514346E0516250E351E6
:104070004B46E650C046C0468822534692016651E0
:10408000A3505B4663514346E0516350E3514B46B6
:10409000E650C046534680326651A3505B467822B4
:1040A00063514346E0516250E3514B46E650C046EF
:1040B000C0468822534692016651A3505B46635125
:1040C0006346E05163504346E3514B46E650C046D9
:1040D000534680326651A3505B46635180235B0098
:1040E000E05163504346E3514B46E650C046C0465C
:1040F0005146843B6651E1505946434661516249FD
:10410000E0516350E3514B46E650C046534666517A
:10411000A3505B46635184235B00E05163504346E8
:10412000E3514B46E650C046C0465146843B66517B
:10413000E1505B46635143465349E0516350E351BC
:104140004B46E650C04653466651A3505B4663510A
:104150008023E05163504346E3514B46E650C0464E
:10416000C0465046843B6651E05058464346605135
:104170004448E0516350E3514B46E650C046534635
:104180006651A3505B4663518823E0516350434618
:10419000E3514B46E650C046C0465246843B66510A
:1041A000E2505B46635180231B02E051635043465B
:1041B000E3514B46E650C0460A20665102F0DCFB54
:1041C0008A2253469201A3505B466351C0232D4877
:1041D0002D495B00E05163504346E3514B46E650A6
:1041E000C046C0465046843B6651E0505846434660
:1041F00060512448E0516350E3514B46E650C046BD
:1042000053466651A3505B466351C4235B00E051A3
:1042100063504346E3514B46E650C046C0465146C4
:10422000843B6651E1505946DB2361511649DB005E
:10423000E0519C4663504346E3514B46E650C0462E
:1042400053466651A3505B46C82263514346520011
:10425000E0516250E3514B46E6501BE000800440C1
:104260000040044000C000500100060001100000A2
:104270000C050000204E00000422000084220000F3
:10428000882000000700F8FF8821000080810000DE
:1042900040400000C046C046882253469201665105
:1042A000A3505B4663514346E0516350E3514B4694
:1042B000E650C046534680326651A3505B46CC223E
:1042C000635143465200E0516250E3514B46E65081
:1042D000C046C0468822534692016651A3505B46B1
:1042E00063514346E0516350E3514B46E650C046AC
:1042F000534680326651A3505B46D02263514346F9
:104300005200E0516250E3514B46E650C046C04671
:104310008822534692016651A3505B46635163461F
:10432000E05163504346E3514B46E650C046534686
:1043300080326651A3505B46D422635143465200FB
:10434000E0516250E3514B46E650C046C0468822D9
:10435000534692016651A3505B4663514346E05178
:104360006350E3514B46E650C04653468032665197
:10437000A3505B46D822635143465200E05162503D
:10438000E3514B46E650C046C04688225346920150
:104390006651A3505B46AF2263514346D200E051C1
:1043A0006250E3514B46E650C0468A225346920182
:1043B0006651A3505B46DC22635143465200E051F4
:1043C0006250E3514B46E650C046C04688225346F1
:1043D00092016651A3505B4663514346E0516350DE
:1043E000E3514B46E650C046534680326651A350D7
:1043F0005B46E022635143465200E0516250E35174
:104400004B46E650C046C04688225346920166514C
:10441000A3505B4663516346E0510A006350414636
:10442000E15149466650C0468A2351469B01665178
:10443000E1505946E423615141465B00E051A350ED
:10444000E15149466650C046C046534684396651DC
:104450006350594661514146E051A150E1514946EE
:104460006650C0460A20665102F086FA8A235146F9
:104470009B01E1505946FF2342466151E248E3491E
:10448000DB00E0516350E2514A469C46A650C046CC
:10449000C0465346843A6651A3505B461822635186
:1044A0004346E0516250E3514B46E650C046524607
:1044B000043B6651E2505A466251A0229200E051FC
:1044C00062504246E2514A46A650C046C046504657
:1044D000843A6651A0505846CD4A6051CA48E051CE
:1044E00062504246E2514A46A650C0465246665184
:1044F000E2505A466251A2229200E0516250424676
:10450000E2514A46A650C046C0465046843A6651DB
:10451000A0505846BF4A6051BB48E05162504246E5
:10452000E2514A46A650C04652466651E2505A46AB
:104530006251A4229200E05162504246E2514A4642
:10454000A650C046C0465146843A6651A1505946CD
:1045500028226151AD49E05162504246E2514A463B
:10456000A650C04652466651E2505A466251A622B3
:104570009200E05162504146E15149466650C046C2
:10458000C0468822514692016651A15059469F4A21
:104590006151A149E051A1504246E2514A46A6501C
:1045A000C04652466651E2505B46A8226351974B83
:1045B0009200E0511900E2504346E3514B46E65069
:1045C000C046C0468822534692016651A3505A46BF
:1045D0006251924AE05162504246E2514A46A65028
:1045E000C046043A6651A3505B46AA226351434633
:1045F0009200E0516250E3514B46E650C046C0463F
:104600005246843B6651E2505B4663511823E051A9
:1046100063504346E3514B460A00E650C0465346BA
:10462000F8326651A350AC225B4692006351E051D0
:1046300062504246E2514A46A650C046C0465346E2
:10464000843A6651A3505A4643466251744AE05137
:104650006250E3514B46E650C0465146043B66511A
:10466000E15059466151E051AE204146674B800010
:10467000E050E15149466650C046C0468820514648
:104680008001665121505946615141465E48E051D2
:104690006448E050E15149466650C0465146F833FF
:1046A0006651E150594658486151E051B0204146A9
:1046B000564B8000E050E15149466650C046C04626
:1046C0008820514680016651215059464E4861511B
:1046D0005149E051E1504146E15149466650C046DA
:1046E000534604396651635059466151B221474BD4
:1046F0008900E051E1504146E15149466650C046CB
:10470000C046534684396651635059466151E05161
:1047100001003E4822504246E2514A46A650C04659
:104720008A2352469B016651E2505A466251B0229A
:10473000D200E15122504246E2514A46A650C046BC
:10474000C0465346843A6651A3505B466351434684
:10475000354AE1512250E3514B46E650C04652469D
:10476000043B6651E2505A4663466251E1510A00E9
:10477000235001004046E05148462650C046C046FE
:1047800053468438665123505B4663514346E25199
:104790006350E3514B46E650C0465046043B6651D9
:1047A000E0505846382360514046E2516350E05192
:1047B00048462650C046C04653468438665123506A
:1047C000584660514046194BE2516350E05148460B
:1047D0002650C046C820665102F0CEF88A235046C3
:1047E0009B01E0505B4663518823074A07495B0001
:1047F000E25163504346E3514B46E650C046C04643
:104800006651FFF7C5FA13E00700F8FF88210000A2
:10481000181000004850000008810000103000000F
:10482000183800003828000008280100B88000006F
:104830003CBC90469946A246AB46F8BDF0B5DE4674
:1048400057464E46454680B29346E0B5DB2874D8BD
:104850008BB2AF2B71D804229246A0238A225446F1
:1048600080251B0692019C508022374C6D041D51FF
:10487000364EA946364D52009D51A846354D5A51E7
:104880000022AC4680259A51334A6D019D50C046A6
:10489000C04688275246BF011D51DA514A461A5177
:1048A00042469A516246C900995000222A499A51BB
:1048B0005D50C046524604391D515A504A461A515D
:1048C000424684219A516246490099500022224969
:1048D0009A515D50C046C04652461D51DA514A4673
:1048E0001A5142469A516246C00098500022080070
:1048F0009A515D50C046524604391D515A504A469D
:104900001A51424688219A51624649009950002224
:104910009A511D50C046C04652461D51DA514A4672
:104920001A5142461D519A515A46D1006246995039
:1049300000229A511D50C0461D513CBC90469946DC
:10494000A246AB46F0BDC04604220000882000000D
:104950000700F8FF8821000084220000F0B54546DA
:10496000DE4657464E46E0B587B01500039210AAC2
:104970001288A84202DD040028000394994202DD57
:104980000C0019002300DC2800D9A5E0B02900D9CB
:10499000A2E0039CDC2C00D9A5E0B02B00D9BDE03F
:1049A000C443E4170440C843C017014009B204914E
:1049B000039901948C4200DD8EE00499D200C90075
:1049C000059104218846802194464904A0228B4603
:1049D000534C120602938A254346AD015351802160
:1049E0005B46504D504F514E5351490000231751D3
:1049F00091518021135199464D4B4901D150C046E8
:104A0000C04651514546843BD5505D461800454B44
:104A1000D550059D175195514D461551444D515155
:104A2000C046D1504346043D53515B463D4D535122
:104A300084235B00175193514B4613513C4BD1508B
:104A4000C046C0465151454615505D46354BD55080
:104A5000019D1751ED0095514D461551344D515161
:104A6000C046D1504346043D53515D462D4BD55071
:104A700088256D00175195514D4615512C4D5151BA
:104A8000C046C0464546D1505B461550254D02985C
:104A90005351049B51511D00834215DA244BB246F9
:104AA000009300262B008146604655461751505111
:104AB000009816511150C0461A4801331BB21150CC
:104AC0009945F1D14B460293019901310BB20399FB
:104AD0000193994200DB7EE707B03CBC90469946C3
:104AE000A246AB46F0BDB02B0CD9C343DB17034045
:104AF0000193CB43DB1719400BB2DC2104930391E4
:104B0000B0235AE7C443E4170440C843C017014028
:104B100009B20491DC21019403914EE7B0233FE7F1
:104B200088200000042200000700F8FF8821000010
:104B300084220000030010B50800190000F03EFDBB
:104B400010BDC0460222164B10B519680A4200D1AA
:104B500010BD1A60134B144A1B78144CD35CDA0155
:104B6000D21A134B120A196880239B00CB58534367
:104B700081221B0A92008B500E4B0F491B7808882C
:104B80000E4A7F335B08138023548023421C92B269
:104B90000A805B009A42DBD100230B80D8E7C04635
:104BA00000400140AD150010089C0000F8170010EF
:104BB000F0170010EE170010F81F0010FA1F001079
:104BC00010B543B20C4C8EB0002B12DB207081214B
:104BD00068460A4A090100F079F922785E216846A0
:104BE00000F00EFA2478684600F008FA20000EB0B3
:104BF00010BD7F232370EAE7EF170010140A0000AE
:104C0000A0221206002804D08021044B8902D15032
:104C100070478021024B8902D150F9E7042200003D
:104C20008422000070B5002857D0802280233349A9
:104C30009B008858324C03438B50324B6268186893
:104C4000002363600133A36001336360A368002B1A
:104C5000FCD16260082263692B491343636102F04F
:104C600035FF1022E0616369802513436361636847
:104C70000F3A13436360C023244CED025B00E55000
:104C80001220234901F0A4FE8023224A25601360EC
:104C9000214A22481360224A1360224A1360224AA2
:104CA0001360224A1360224A1360224A1360F023E1
:104CB000214A1B0611680B431360F0231F4A1B0493
:104CC00011680B431360A02380211B061A58890228
:104CD0000A431A501A4A995070BD1A4C1A492000BA
:104CE00002F0A6FA20000F2102F0CAFB20001749AB
:104CF00002F096FB1E20FEF79DFF96E70080044021
:104D0000004001402C0100102256000000E100E0AC
:104D1000454B0000DC400440D84004400420000023
:104D2000D4400440D04004404C4104404841044039
:104D30004441044040410440042000A0082000A059
:104D400004220000F017001040270200CDCCCC3D1B
:104D500010B50020FFF766FF10BDC046024A136879
:104D6000643313607047C04600200010044B054AAE
:104D700007215A6000229A601960034B1A6070473D
:104D800010E000E0FF3D490000200010054B98684E
:104D9000054B1A68054B1B1A05485B0A5843000C63
:104DA0008018704710E000E000200010FF3D49002F
:104DB000BB02000010B5002001F082FD02F040FEB1
:104DC00010BDC046A023802104201B0689015A582B
:104DD00010B502435A508021294A4901985801438D
:104DE00099508021985849040143012099509958BD
:104DF000014399502349244A585802435A502348A2
:104E0000002102F0DFF90021214802F0DBF9002146
:104E1000204802F0D7F900211F4802F0D3F9002101
:104E20001E4802F0CFF900211D4802F0CBF9002105
:104E30001C4802F0C7F900211B4802F0C3F9002109
:104E40001A4802F0BFF90021194802F0BBF900210D
:104E5000184802F0B7F90021174802F0B3F9002111
:104E6000164802F0AFF90021154802F0ABF9002115
:104E7000144802F0A7F90021134802F0A3F910BD6D
:104E80000420000008200000F8FF070000070200CF
:104E900004090200080B02000C0D0200100F0200B2
:104EA00014110200181302001C1502002017020042
:104EB00024190200281B02002C1D0200301F0200D2
:104EC00034210200382302003C250200F0B5C6461A
:104ED00004000D0000B516000021182202F000FDAC
:104EE000290025002000183501F078FC1822002147
:104EF000280002F0F5FC3100280001F06FFC0121D0
:104F0000280001F0D7FE0421280001F0CDFE012188
:104F1000200001F0CFFE0421200001F0C5FE002298
:104F20003023E2542F3B63630121280001F0C2FECD
:104F30000121200001F0BEFE2368013348D0E36860
:104F400062681A60A36901334DD0A36AE26904253F
:104F50001A60606B01F020FD264E274B3700984603
:104F60000121200001F0A6FE606B01F015FD236811
:104F7000013327D0236962681A60606B01F00CFD71
:104F8000A369013318D0636AE2691A60606B01F0AB
:104F900003FD2368013309D0E3686268013D1A60AC
:104FA000002DDDD1200004BC9046F0BD2422114923
:104FB000114801F005FCEFE7242239000E4801F00A
:104FC000FFFBE0E724223100404601F0F9FBD1E786
:104FD00024220849084801F0F3FBE36862681A607C
:104FE000A3690133B1D124220249034801F0E8FB4F
:104FF000ABE7C046109C0000749C00007047C046A0
:10500000F8B50123DE46574645464E46040099430F
:10501000E0B588460121170001F04CFE606B01F0FD
:10502000BBFCA369013300D19BE1636AE2691A60AA
:105030002368013300D18EE1E36862681A60606B17
:1050400001F0AAFC2368013300D17EE12369626884
:105050001A60606B01F0A0FCA369013300D16EE11E
:10506000A36AE26908251A60606B01F095FC0121D2
:10507000200001F01FFEC74B9946C74BCA469B460E
:105080000126606B013D01F087FCAE4043461E40A7
:105090002368013300D108E1002E00D101E1E3686B
:1050A00062681A60A369013300D1F4E0636AE269BF
:1050B0001A60606B01F070FCA369013300D1DEE07F
:1050C000A36AE2691A60002DDAD12368013300D1A6
:1050D0002FE1E368626801211A60200001F0EAFD17
:1050E0002368013300D11EE1E36862681A60A36996
:1050F000013300D111E1636AE26900211A602000E6
:1051000001F0D8FD0421200001F0CEFD606B01F01C
:1051100043FCA369013300D1F9E0A36AE2691A6094
:105120002368013300D1ECE0636962681B681A42AE
:1051300000D1C4E00121200001F0BCFD954B082501
:105140009846954BC1469A460126013DAE40606B9C
:1051500001F022FC23683E40013300D189E0002E9B
:1051600000D182E0E36862681A60A369013300D16C
:1051700075E0636AE2691A60606B01F00DFCA36977
:10518000013360D0A36AE2691A60002DDCD1236884
:10519000013300D197E0E368626801211A602000C2
:1051A00001F088FD2368013300D1A4E0E368626860
:1051B0001A60A369013300D197E0636AE2690021B4
:1051C0001A60200001F076FD0421200001F06CFD42
:1051D000606B01F0E1FBA369013300D17FE0A36ABA
:1051E000E2691A602368013300D172E06369626882
:1051F0001B681A425FD00121200001F05BFD606B4B
:1052000001F0CAFB2368013300D1BCE02369626866
:105210001A60606B01F0C0FBA369013300D1ACE000
:10522000636AE2691A60606B01F0B6FB23680133C0
:1052300000D19CE0E36862681A603CBC90469946E5
:10524000A246AB46F8BD24225249534801F0B8FAB1
:10525000A36AE2691A60002D00D075E797E724225F
:1052600049464D4801F0ACFA83E7236962681A6049
:105270007BE724224146504601F0A2FA6FE7242240
:105280004449454801F09CFAA36AE2691A60002D7E
:1052900000D0F5E619E7242251463F4801F090FA84
:1052A00004E7236962681A60FCE6242249465846EE
:1052B00001F086FAF0E6606B01F06EFB9BE7606B35
:1052C00001F06AFB36E724223249334801F078FACC
:1052D00061E72C222F49304801F072FA86E7242238
:1052E0002C492D4801F06CFA79E7242229492A48F3
:1052F00001F066FA61E724222649274801F060FAA6
:1053000054E72C222349244801F05AFA0CE72422BE
:105310002049214801F054FAFFE624221D491E4885
:1053200001F04EFAE7E624221A491B4801F048FA38
:10533000DAE624221749184801F042FAC9E6242285
:105340001449154801F03CFA8AE624221149124812
:1053500001F036FA7AE624220E490F4801F030FABD
:105360006AE624220B490C4801F02AFA5DE6242261
:105370000849094801F024FA5CE724220549064857
:1053800001F01EFA4CE724220249034801F018FA02
:105390003CE7C046109C0000749C0000F0B54546F8
:1053A000DE4657464E46E0B5884605008BB072B6DD
:1053B000C0235B0298422FD232236F46060B04AC07
:1053C00004933900564B20006660A6609847009B06
:1053D000002B42D12B055A425341DBB2002B00D0A7
:1053E0007AE0504B9946332304934346A3608023CD
:1053F0005B00E360FA214B4689001868656002F0A3
:1054000065FB474B2061390020009847009B002B2B
:1054100023D162B6002021E0E0239B02984224D2EF
:10542000C0231B269B0298420AD2A023013E9B0266
:10543000984205D2802300269B0298427641183676
:1054400032236F4604AC04933900354B200066606C
:10545000A6609847009B002B5ED001200BB03CBC9F
:1054600090469946A246AB46F0BD32231C266F46B5
:1054700004AC04939B462A4B390020006660A6606A
:105480009A469847009B002BE7D1E4226B045B0C03
:10549000920295429FD1E0233B22FA219B00049285
:1054A0000593214B8900A3601E4B1868994602F0B2
:1054B0000DFB3900E0602000D0473B68002BCCD1C9
:1054C0005B463900236020006660A660D0473B68D9
:1054D000002B00D187E7C0E73423FA210493114B56
:1054E0008900186899466660A66002F0EFFA0C4BD6
:1054F000E060390020009A469847009B002BACD111
:1055000032330493390020006660A660D047009BC8
:10551000002B00D167E7A0E76B045B0C5BE7C0469C
:10552000F11FFF1F2C010010FF0300003E2310B5E8
:105530008AB005936B46DC1C0123FA2108930A4BC1
:10554000069089001868079402F0C0FA099072B6B4
:10555000064B01A905A8984762B6019B002B02D112
:1055600020780AB010BDFEE72C010010F11FFF1FCC
:1055700010B58CB06B46D971FA213D220124073356
:1055800009930B4B08908900186807920A9402F05F
:105590009DFA084B0B905C6072B6074B03A907A8F5
:1055A000984762B6039B002B01D10CB010BDFEE7FB
:1055B0002C01001000400140F11FFF1FF0B54446D0
:1055C0004D46564670B4EEB06E46414C414AA14637
:1055D000414CA0466E250F780F243B0927405B0005
:1055E000C45AE40014604B46D36710C6FC24135120
:1055F000D3677F001351C45BE40014604B46D3674C
:1056000010C6FC241351D36701311351023DE2D17E
:105610006E466E254C4608CE1360D467FC23D450EA
:10562000D467013DD45008CE1360D467FC23D45016
:10563000D467013DD45008CE1360D467FC23D45006
:10564000D467013DD45008CE1360D467FC23D450F6
:10565000D467013DD45008CE1360D467FC23D450E6
:10566000D467013DD45008CE1360D467FC23D450D6
:10567000D467013DD45008CE1360D467FC23D450C6
:10568000D467013DD45008CE1360D467FC23D450B6
:10569000D467013DD45008CE1360D467FC23D450A6
:1056A000D467013DD45008CE1360D467FC23D45096
:1056B000D467013DD450AED16E4601245823A04496
:1056C000984587D16EB070BCA046A946B246F0BDE1
:1056D00000100000882100A00000000010B50A4B57
:1056E000187802F09DFF011C084802F0CDFA084925
:1056F00002F094FCF621890502F090FC02F0ACFA6D
:10570000044B188010BDC046160100100000704206
:105710000044AC460420001010B50248FAF7A6FF7A
:1057200010BDC04608200010F8B543B204000D00BB
:10573000002B68DBA0228823802112069B01D15018
:10574000022235490B781A42FCD0FF22334B3249F2
:105750001A70FB3A0B781A42FCD0304BA0221B780F
:105760008A23802112069B01D15002222A490B78FC
:105770001A42FCD0FF22294B27481A70FB3A0378C3
:105780001A42FCD0FF27264E244B210030001B7804
:1057900000F0ACFF290E300000F0A8FF290C3940C2
:1057A000300000F0A3FF290A3940300000F09EFFCE
:1057B00039003000294000F099FF402C21D0210011
:1057C00048394C1EA1418523494299438731300015
:1057D00000F08CFF0A250224FF2704210E4B0F4EF8
:1057E0001A781442FCD037701A781142FCD0327803
:1057F000D0B252B2002A03DA013DEDB2002DEFD152
:10580000F8BD9521E3E700217720FFF78DFF012800
:10581000F6D87F231C408DE70C00044008000440AC
:10582000EC010010F8B557464E464546DE46E0B559
:105830009946514B80461B7892461B0700D449027B
:105840005120FFF771FF8346002814D10226FF275D
:1058500004254A4B4A494B480C782642FCD0077035
:105860000C782542FCD00278D4B2FF2A21D1013B2A
:105870009BB2002BF0D101239B46A02288238021DC
:1058800012069B01D15002223D490B781A42FCD0EE
:10589000FF223C4B3A491A70FB3A0B781A42FCD073
:1058A000384B58461B783CBC90469946A246AB46BE
:1058B000F8BDFE2CDFD14B46334DED1A5346ED1AA1
:1058C000ADB2002B14D0FF22042194462C4B2D4E58
:1058D000FC3C1A781442FCD0624632701A781142AD
:1058E000FCD032785246013A92B29246002AF0D168
:1058F0004346002B2CD047464B46FE18214B022432
:105900009C46FF23042198461D4AB6B213781C42D8
:10591000FCD063464046187013781942FCD06346A9
:105920001B783B700137BBB29E42EFD10224FF27A8
:105930000421134B134E1A781442FCD037701A7896
:105940001142FCD0013DADB23278002DF3D194E785
:105950000224FF2704210A4A0A4E13781C42FCD075
:10596000377013781942FCD033784B46013B9BB219
:105970009946002BF1D1D9E70920001030750000BD
:105980000C0004400800044002020000294B2A4A8F
:105990001B8870B55C1CA4B2934209D0274E284DD9
:1059A000013C00213000A4B200F0A0FEAC42F7D1CF
:1059B000022224490B781A42FCD0FF22224B2149B3
:1059C0001A70FB3A0B781A42FCD01F231E4D2A781E
:1059D0001340052B16D00120A02288238021120617
:1059E0009B01D150022217490B781A42FCD0FF22AA
:1059F000154B14491A70FB3A0B781A42FCD0124B23
:105A00001B7870BD0220FF260421104C0D4B1A7824
:105A10001042FCD02E701A781142FCD02A78FF2A4E
:105A200004D0002CD7D0013CA4B2F0E76042604122
:105A3000C0B2D1E70A200010FEFF0000EC01001008
:105A4000FFFF00000C00044008000440E8FD0000D7
:105A5000F0B5DE464E46454657468823E0B5A025BC
:105A60008024684E9B012D06EC503000664983B0BF
:105A700000F090FE00220821300000F077FE842321
:105A80009B01EB581C4200D197E064240220FF26C2
:105A900004215E4B5E4D1A781042FCD02E701A78AD
:105AA0001142FCD0013CE4B22A78002CF3D1002151
:105AB0004020FFF739FE050001281ED00120554B7C
:105AC000A0221C708823802112069B01D150022243
:105AD0004E490B781A42FCD0FF224D4B4B491A70AD
