:1000000000800010FD0000001D6400002564000059
:10001000000000000000000000000000C1B6FEEF7C
:100020000000000000000000000000002964000043
:1000300000000000000000002D640000A94C00003A
:10004000216400002164000021640000216400009C
:10005000216400002164000021640000216400008C
:10006000216400002164000021640000216400007C
:10007000216400002164000021640000216400006C
:10008000216400002164000021640000216400005C
:10009000216400002164000021640000216400004C
:1000A000216400002164000021640000216400003C
:1000B00021640000216400002164000000000000B1
:1000C0001499000000010010940000001499000031
:1000D00000000020000000001499000000400020F3
:1000E00000000000980100103418000000000020FB
:1000F000000000000040002000000000F0B5454670
:10010000DE4657464E46E0B55D4A5E4B904683B0AC
:10011000934200D3B1E00722934607329246213240
:10012000914619001C6889685D680C331A0020002C
:1001300000292FD027005E462F4337407E4277416B
:10014000EE1D361BB245B641764201393E4200D122
:100150007FE089457DD28908481C9C4621004708DC
:10016000FF003F192E1B0094019573180C684D6811
:1001700008311C605D60B942F7D101210600009C86
:10018000019D8E43B100634664186D18B04201D0E2
:10019000216829609845C4D83B498A424FD2072339
:1001A0000139891A994313008C4608339C44012372
:1001B00090469A460023424606CA0800002A39D0D3
:1001C0005646551EAC080134A1468C0864423440A2
:1001D000172D4BD9002C3AD0042508C04E46361BAB
:1001E000B146A40009197408E40064180026002729
:1001F000C0C18C42FAD151464C468C43A1008B467B
:10020000290058445944A14514D00C1D0360A24252
:1002100010D904344360A2420CD904348360A24252
:1002200008D90434C360A24204D9143103618A425C
:1002300000D9436108229146C844E045BBD106F08D
:100240001DF9124B002B13D000E000BFFEE7002584
:10025000C4E78908261D890089192E1B05002D6811
:100260008419043025608842F8D193E70021CCE757
:1002700006F0D4FE06F04AF8E8E71A008CE7C0461C
:10028000E4000000C0000000FC00000000000000CE
:1002900010B5064C2378002B07D1054B002B02D05C
:1002A000044800E000BF0123237010BD9801001036
:1002B0000000000014990000044B10B5002B03D07F
:1002C0000349044800E000BF10BDC0460000000024
:1002D0009C01001014990000F0B5DE4657464E46CA
:1002E0004546E0B5E5B001F02FFA0022BB4B1A807D
:1002F000BB4B58249B4610E05B461B681821581CDA
:1003000007F02CF95B460022196000206E230021C3
:10031000009401F0D5FA00280BD101F097F90028DC
:10032000EAD1002065B03CBC90469946A246AB4657
:10033000F0BD0A21052000F037FB002833D1A94B7E
:100340001B680393002B53D05B461B680C2B32DCDD
:10035000A54B1D68002D00D1B7E0A44B0993099B64
:1003600000269A460223994601339846A04F5546E7
:10037000042413E043462100052230003B8005237E
:1003800002F016FF434621003B8005220523300082
:10039000053402F047FD0135542C15D02B78002B85
:1003A000E8D14B46E7E78F4B1B6803935A42534112
:1003B0008C4A1360C3E78D4A8B4B09921A68002A56
:1003C000CDD000221A60CAE710239C46894BE24434
:1003D00005365345CBD1834B1B68002B04D13B80A2
:1003E0005B461B680C2B4FDC322004F089FC7FE756
:1003F0000A21012000F0D8FA002805D07E4A1368AF
:10040000002B01DD013B13600A21032000F0CCFA30
:10041000002805D0784A13680E2B01DC01331360E5
:100420000A21002000F0C0FA002805D0734A1368A2
:10043000002B01DD013B13600A21022000F0B4FA19
:10044000002805D06D4A1368142B01DC01331360BA
:100450000A21062000F0A8FA644B099300282DD148
:100460000A21042000F0A0FA002800D177E7624AB0
:10047000624B1168099A1B6894461B0163445A5CDD
:10048000504242415A546AE705245C4D5A4E28684E
:1004900033686043591C614303230422013002F096
:1004A00087FE01232868316860433B80C918C01863
:1004B00002331A00614302F0B5FC95E7B022002137
:1004C0001800520006F0E4FDCAE701221A6060320B
:1004D000FF3229000CA806F0DBFD444B01221C0072
:1004E0000993222352420692D21810009C4604958A
:1004F00007950B940CAB0AAA0A932A2390460799F6
:100500000CAD5B420E004344A84614270025013180
:10051000079109018844F10FB7426941C9B21A181D
:1005200008910023039649E0039900294DD05178A2
:100530001D0001315170002B00D10EE1591E0591B3
:10054000117C013111741178013111700F2B57D0CA
:10055000069E591C3601B1460CAEB2464F46574472
:100560007E5CB2460126B146CA443E0057467754E7
:10057000039E152E1DD041464646059FC95D01319B
:10058000F1550899002944D000260E27D90F9F4223
:100590007141C9B200293CD0674666460499891862
:1005A000CF5D01378F550F5C01370F540F2D37D0BA
:1005B000591C937C013393740B000132E15C0029D8
:1005C000B2D10F2B2CD0591CF6E71D1EE4D0117CA4
:1005D00001311174591E0591CDE7C046FA1600107D
:1005E000140300102003001018030010B4010010C1
:1005F0000E01001014030010280300102403001043
:10060000039915290CD041464646059FC95D013125
:10061000F155049989180F5C01370F540F2DC7D17C
:10062000049B1034103B0493069B10300133069357
:1006300010239846079BC444162B00D05AE70A9B08
:10064000099C994661340022012349460B98FF34E6
:100650007AE00D78032D00D103704578002D00D08D
:1006600097E04D78032D00D143708578002D00D0A0
:1006700088E08D78032D00D18370C578002D00D0DF
:10068000A2E0CD78032D00D1C3700579002D00D0F4
:1006900093E00D79032D00D103714579002D00D031
:1006A00084E04D79032D00D143718579002D77D1F8
:1006B0008D79032D00D18371C579002D00D0B7E06D
:1006C000CD79032D00D1C371057A002D00D0A8E0AB
:1006D0000D7A032D00D10372457A002D00D099E0E8
:1006E0004D7A032D00D14372857A002D00D08AE027
:1006F0008D7A032D00D18372C57A002D7DD1CD7AFC
:10070000032D00D1C372057B002D70D10D7B032D0D
:1007100000D10373457B002D63D14D7B032D00D1A8
:100720004373857B002D56D18D7B032D00D18373C0
:10073000C57B002D20D1CD7B032D00D1C37310309C
:100740001031844200D10AE60578002D81D00D7861
:10075000023D012D81D902707FE70CADA9460699B3
:10076000090149444D7801354D7003991D00152943
:1007700000D011E714391CE7CD7B023D012DDED9F5
:10078000C273DCE78D78023D012D00D875E78270D9
:1007900073E74D78023D012D00D866E7427064E7AB
:1007A0008D79023D012D87D9827185E74D79023D12
:1007B000012D00D879E7427177E70D79023D012DCF
:1007C00000D86AE7027168E7CD78023D012D00D8B4
:1007D0005BE7C27059E78D7B023D012DA8D982737A
:1007E000A6E74D7B023D012D9BD9427399E70D7B16
:1007F000023D012D8ED902738CE7CD7A023D012D89
:1008000081D9C2727FE78D7A023D012D00D873E74E
:10081000827271E74D7A023D012D00D864E7427281
:1008200062E70D7A023D012D00D855E7027253E7C9
:10083000CD79023D012D00D846E7C27144E7C0469C
:1008400010B5024800F082F910BDC0461C0300102C
:1008500010B50249024805F0A5FE10BD5C2E00004F
:100860002C03001010B503F0F7F810BD474A484BB1
:100870001178002900D06DE01878002804D0FF28F6
:1008800000D16CE0FF311970517800295BD15878A4
:10089000002803D0FF285BD0FF31597091780029E0
:1008A0004AD19878002803D0FF284AD0FF319970A8
:1008B000D178002939D1D878002803D0FF2839D041
:1008C000FF31D9701179002928D11879002803D077
:1008D000FF2828D0FF3119715179002917D1587993
:1008E000002803D0FF2817D0FF3159719279002AD0
:1008F00006D09A790132D2B2FF2A32D09A7170476B
:1009000099790029FBD0FF29F8D0FF22F6E7597921
:100910000131C9B2FF2927D05971E7E719790131AF
:10092000C9B2FF2923D01971D6E7D9780131C9B2EC
:10093000FF291FD0D970C5E799780131C9B2FF29C5
:100940001BD09970B4E759780131C9B2FF2917D08B
:100950005970A3E719780131C9B2FF2913D0197072
:1009600092E702229A71CAE702215971BEE7022179
:100970001971B1E70221D970A4E70221997097E7B4
:10098000022159708AE7022119707DE75C19001075
:1009900030030010034B185C013843425841C0B289
:1009A0007047C0463003001010B50C4B01290CD91C
:1009B000185CFF2807D006F0E7FCC8B201384142B6
:1009C0004841C0B210BD0020FCE71B5CFD220020A6
:1009D000013BDBB29A424041C0B2F3E73003001062
:1009E000002330B51D491E4A08780B705378022445
:1009F000002B02D0012301340B70D578002D01D0DB
:100A000023000C701478002C03D004242343DBB2A1
:100A10000B709478002C03D008242343DBB20B70B6
:100A20001479002C03D010242343DBB20B705479CB
:100A3000002C03D020242343DBB20B709279002AD0
:100A400003D040221343DBB20B701900054A01406A
:100A50009843054B1170187030BDC0462E0300102E
:100A60005C1900102D0300102F030010014B1879A2
:100A70007047C0465C190010014B58787047C0465B
:100A80005C190010014BD8787047C0465C19001003
:100A900030B583B072B600210422254B8024596002
:100AA0001961244BE4001A608E23234A9B00D55819
:100AB0002C43D4508024D55864002C43D4500123B7
:100AC0005367516701310C00536F1C401942FAD132
:100AD0001467516754670122174914004B6F1C407B
:100AE0001A42FAD18E224C644B6C92008C600C67D7
:100AF0004C608B58114D2B4080250193019B2B435B
:100B00000193C823019D1B022B438B50A0238422F9
:100B10001B0692019C500A4A9C500A4A9C500A4B60
:100B20009860001C01688D464068804703B030BD66
:100B3000004000A010E000E000800440FF2500001D
:100B4000042100000821000000ED00E07047C046CD
:100B5000F0B5C64600B58025C0B00E0000F0CAFF53
:100B600000F0D4FFED02AD1B854200D9050000F076
:100B7000B7FF184801F048FF002D24D080235B0008
:100B800000249846144F06E00134FF34380001F089
:100B9000CBFDA54217D980216846490000F07EFFB1
:100BA000FF2802D82B1B43450FD86946301904F0A3
:100BB00037F90028E8D0094801F026FF012040B0AD
:100BC00004BC9046F0BD0020F9E7054801F01CFF89
:100BD0000120F4E7548A0000D48A00007C8A0000D7
:100BE000608A00008021F0B58023C6465D4AC902B4
:100BF00000B5D150012200255B4B5C4C1A705C4B58
:100C000082B01D80FC23DB00238001F07FF80021EF
:100C1000002001F09BF8012001F094FC0095019563
:100C200000F090FE0421534800F0C0FE00286CD074
:100C3000514B524A1968524F524E534D914242D035
:100C4000524B196891423ED0514B196891423AD0AB
:100C5000504B1968914236D0202330005B422380EC
:100C600001F0D2FE009B002B60D0E023019A9B0292
:100C70009A425BD3484B2800238001F055FD0123A5
:100C800000985B420A21238001F0C2FFFC23434805
:100C9000DB00238001F0B8FE03E0FFF7F3FE00283D
:100CA0002FD1FFF7E9FE0028F7D001990098FFF750
:100CB0004FFF002852D13A4801F0A6FE2E4B2F4A92
:100CC00019689142BCD19846364B3800238001F018
:100CD0002BFD01235B42238043460A21586801F023
:100CE00097FF4346009A5B689342C3D34346986894
:100CF000FFF7CEFE2DE0FFF773FEFFF7B7FE0028EB
:100D0000F9D102B004BC9046F0BD00F0F3FE08201B
:100D1000404200F0CDFE0421684600F0BFFE0421F1
:100D200001A800F0BBFE00F0DBFE81E71E4801F0E9
:100D30006BFE1E4801F068FEFC231D48DB0023808B
:100D400001F062FE05E0FFF74BFEFFF78FFE002883
:100D5000D3D1FFF78BFE0028F5D0D2E7154801F07C
:100D600053FEF6E700E100E012010010060100105A
:100D7000EE160010688B0000F4FF03001EAB07B0F6
:100D8000B88B0000708B0000C48B000004FF0300D0
:100D900004FE030004F003001FF8FFFFD88B0000DF
:100DA0001C8C0000FF070000848B00006C93000087
:100DB0009C8B0000008C0000F8B5012001F0C2FB04
:100DC00000224F4B00251A8000F0A0FF4D4C4E4BE7
:100DD0004E48238001F09CFB0123FC274C4E302120
:100DE00033704C4B60201D704B4BFF001D70012574
:100DF000278001F045FF494801F096FC382160202A
:100E000001F03EFF464801F08FFC4021602001F0D8
:100E100037FF444801F088FC4821602001F030FF92
:100E2000414801F081FC6021282001F029FF3F4862
:100E300001F07AFC6D423E48258001F075FC3D488A
:100E4000278001F071FC02233B483370258004F0B9
:100E5000AFF84319042B4BD903F03EFF032485B2AE
:100E60000DE002F09BFE002821D102F08BFE00284D
:100E700035D102F08DFE002823D1002C25D0FFF7BC
:100E8000AFFD7821682001F0FBFE0A21200001F06F
:100E900049FD03F021FFFA239B00EB189842E0D9AB
:100EA00003F01AFF013C85B2DBE7FFF799FD02F082
:100EB00075FE0028F9D1FFF795FE0024D5E7FFF76E
:100EC0008FFD02F065FE0028F9D10123337000F098
:100ED0001DFF002001F036FBF8BDFFF781FD02F099
:100EE00051FE0028F9D102F053FE0028E9D1ECE7C9
:100EF000040003F0F1FE002CE7D085B2BFE7C04646
:100F0000EE1600100601001000F8FFFFC08600007A
:100F100012010010090100100A010010288C0000C5
:100F2000308C0000388C0000408C0000488C0000A1
:100F3000508C0000548C0000A20F0000F0B5DE467B
:100F40004E4645465746E0B51C00E14B89B09B46EE
:100F50001B880500069353110E000593002C00D04A
:100F6000A5E1032B00DCDDE0059B042B00D080E134
:100F70005A46243B1380002C00D080E10123984680
:100F8000D44C37B228B222003900009300F034FF6D
:100F9000ABB21D000393434608352DB22200390041
:100FA0002800009300F028FFB3B21E1F04934346AD
:100FB00036B2220031002800009300F01DFF039B91
:100FC000012510331BB29846220001233900404608
:100FD000009500F011FF01232200310040460095EA
:100FE00000F00AFF049B2200083B1BB299464046D2
:100FF00001234946009500F0FFFE059B032B00D11D
:10100000DFE0039B220018331BB29846390001230E
:101010004046009500F0F0FE0123220031004046DA
:10102000009500F0E9FE0123220049464046009564
:1010300000F0E2FE049B22000C3B1BB29A464046A5
:1010400001235146009500F0D7FE059B042B00D1EB
:10105000DEE0039B220020331BB2984639000123B7
:101060004046009500F0C8FE0123220031004046B2
:10107000009500F0C1FE012322004946404600953C
:1010800000F0BAFE0123220051464046009500F0D0
:10109000B3FE049B2200103B1BB21900079340468D
:1010A0000123009500F0A8FE059B052B00D1DCE094
:1010B00001239846039D220028352DB239002800CF
:1010C000009300F099FE434622003100280000936F
:1010D00000F092FE4346220049462800009300F0AB
:1010E0008BFE4346220051462800009300F084FE08
:1010F0004346220028000799009300F07DFE4346F6
:101100000499220014390093280009B200F074FEFB
:101110005B46069A1A8009B03CBC90469946A246A6
:10112000AB46F0BDFC235A46DB001380059B002B29
:1011300000DDD7E05A46684B664C1380012337B276
:101140002200390028B2009300F056FE5A46624B46
:1011500039001380ABB21D00039301239846083574
:101160002DB222002800009300F046FEB3B21E1FED
:101170000493434636B2220031002800009300F069
:101180003BFE5A46544B039D13800123984610356D
:101190002DB2220039002800009300F02DFE4346B6
:1011A000220031002800009300F026FE049B22005C
:1011B000083B1BB29946434649462800009300F07D
:1011C0001BFE5A46444B039D138001239846183555
:1011D0002DB2220039002800009300F00DFE434696
:1011E000220031002800009300F006FE4346220052
:1011F00049462800009300F0FFFD049B22000C3BB1
:101200001BB29A46434651462800009300F0F4FD75
:101210005A46314B039D13800123984620352DB249
:10122000220039002800009300F0E6FD434622002A
:1012300031002800009300F0DFFD434622004946BC
:101240002800009300F0D8FD4346220051462800B4
:10125000009300F0D1FD049B2200103B19B24346DD
:1012600028000093079100F0C7FD5A461A4B1380DF
:101270001EE75A46194B1380002C00D17EE601F080
:1012800059F90400012001F05DF902F0C7FA3100BC
:1012900002001439681E0A23C9B2C0B201F0FAFC78
:1012A0000F4801F041FA200001F04CF93EE700231D
:1012B0003222009300213233002000F039FD059BDB
:1012C000032B00DD50E6FC235A46DB001380D6E7F3
:1012D000060100108C9200008A52000000F8FFFF07
:1012E000EC8C00000123154C37B20093220039002A
:1012F00028B2984600F080FD059B012B00D125E720
:10130000ABB21D000393434608352DB222003900CD
:1013100028000093012300F06FFDB3B204931E1F59
:10132000434636B20093220001233100280000F02A
:1013300063FD059B022B00DC23E740E68C92000056
:10134000F0B5DE46454657464E46E0B5012085B02D
:1013500001F0F8F80022A64B1A7002F05FFAFA20AA
:10136000000103F025FEA34B85B204001D807F2DF4
:1013700000D826E1FF2002F025FAA80802F040FA82
:10138000680802F03DFA20B202F03AFA00229A4BC5
:101390009A4F64119A483C701A7003F009FE431E7C
:1013A0000400092B00D9974C03F096FC964B0126BC
:1013B00098461B7885B20393002B00D191E0934BA4
:1013C000AA469946924B9B46002C00D189E003F037
:1013D00083FCFA239B00534498426FD8022E78D0A6
:1013E000039B002B00D0A3E08A4D9921302000F010
:1013F000ADFC3B78032B00D894E0F8231B022B8034
:1014000002234A463021A4200093013B00F0F4FC63
:101410003621182000F09AFC7F4801F085F942211E
:10142000182000F093FC3B78032B00D876E07B4833
:1014300001F07AF9FC260223F600794A6021A42003
:101440002E800093013B00F0D7FC6621182000F0AD
:101450007DFC584601F068F97221182000F076FCF6
:1014600002F0DCF97F2801DDF826360238782E807C
:10147000042859D0072802D1062301383B700A21DD
:1014800001F050FA674801F04FF9FC23DB002B8094
:1014900002F0C4F90023020077217020FFF74EFD0F
:1014A00043461B78002B1CD0002C1AD003F014FCF0
:1014B000FA239B005344022698428FD903F00CFC78
:1014C00083B29A46584BE3185A1E9341E41A022EEF
:1014D00086D1FFF785FAFFF7C9F902F053FB002820
:1014E0005FD002F09BF90400FA20000103F060FDD8
:1014F00080B2A04204D0FA20E1B2000103F07AFDEC
:1015000020B202F07DF90021002000F01FFC05B0A0
:101510003CBC90469946A246AB46F0BD434801F01C
:1015200003F987E7374B6AE720235B422B80A6E766
:1015300000F0ECFB0123FC26364D5B4210212020FD
:101540002B8000F003FC3A4801F0EEF899212820A6
:1015500000F0FCFB374801F0E7F8F60036482E8033
:1015600001F0E2F8012335485B422B8001F0DCF802
:10157000582100202E8000F0E9FB314801F044FAA8
:10158000304E300001F040FA300001F03DFA3000FA
:1015900001F03AFA300001F037FA2B4801F034FA42
:1015A00023E70230FFF7F6F900280ED002F0DEF84C
:1015B00043461B78002B94D000230126114C039343
:1015C00005E77F2002F0FEF8D7E60020FFF7E2F9FA
:1015D000002805D143461B78002B00D0F4E680E7B5
:1015E00002F0DCF843461B78002BE5D179E7C046D2
:1015F00009010010261700104503001025170010E0
:10160000A30F0000FFFF00004D030010388D000005
:10161000F08C000006010010048B0000D88C000044
:1016200068920000EC8C00000100FFFFE48C0000D9
:10163000608C0000508B0000748C0000788C0000DF
:10164000848C0000A08C0000BC8C0000014B18783A
:101650007047C0464D030010FC23F0B54746CE4608
:10166000DB009946344B00260025984680B5334C64
:10167000334F83B003F030FB23688342FAD21E302D
:101680002060012D32D0022D17D0002D0AD0FFF797
:10169000EDF9002801D1292DECD903B00CBC9046FE
:1016A0009946F0BD274B00201D8000F03DFBFFF761
:1016B000DDF90028F1D10135DCE74A461E4B6E20EA
:1016C0001A8058231E4A3F365178B6B24908591A33
:1016D00013785B08C01A0123009300F08DFB802370
:1016E000DB009E421BD3FFF7C1F9D6E7FC21F2B223
:1016F000C900002002F010F84346582118806E20DF
:101700007B781C365B08C91A3B783A005B08C01A24
:1017100000950123B6B200F06FFBFE2E04D8FFF750
:10172000A5F90028A6D0B8E7FFF7A0F90028B4D1A2
:10173000002602259EE7C046060100106819001029
:101740005C8D0000EE160010F8B501254C4B002012
:101750001D7000F0F7FE4B4800F0DAFE03F0ACFA23
:1017600003F0DAFA02F078F903F0CEFA1022FF263D
:10177000454B464C1A70464B7F201D60267002F088
:1017800021F87F22434B26701A80FFF76BF8FFF792
:101790006DF800F0D7FA404803F00AFC0400830714
:1017A00068D401252E00264025422ED00027012096
:1017B00000F0C8FE394E378000F0A8FA384C2000FF
:1017C00000F0A6FE012000F0BDFEFC22354BD20049
:1017D000200037801A8000F09BFE0023324F334EEA
:1017E0003B70357002F01AF800B202F009F80020E0
:1017F00000F0A8FE01232E4A2E4813702E4A3B709B
:101800003370137000F084FEF8BDFFF725FF012050
:1018100000F098FE214F3E8000F078FA204C200026
:1018200000F076FE012000F08DFEFC221D4B200012
:10183000D2001A803E8000F06BFE00231A4F1B4E30
:101840003B703570FFF7B8FAFFF77AFD00F02CFE19
:10185000002000F085FA194C2379002BC7D0FFF740
:1018600005F82379002BC2D0FFF700F82379002B6D
:10187000F5D1BCE729008143074803F0BBFB90E7A3
:101880004D030010588000003C030010440300107A
:101890004003001026170010B40F0000EE160010D1
:1018A000C086000006010010090100100A010010A6
:1018B000120100105C8300001301001030030010BF
:1018C00070B5050003F008FA114B12491A780B683D
:1018D000114C1B1A934209D92368002B0BD1280005
:1018E00000F03EFA01230020236003E0236800207B
:1018F000002BF4D070BD1018084A0860136801333B
:10190000136000232360FEF7B1FF0120F2E7C04619
:101910003C0300104803001040030010380300107F
:1019200010B5024800F0B0F910BDC0464C030010DD
:101930007047C04610B50400182105F06BFB20006D
:1019400010BDC046A022802380219B011206D058E2
:101950008900014310B5D1508021D058490001437E
:101960004020D150D1580143D150D158403001438B
:10197000D15003F0AFFD084C2070084804F096F8F1
:1019800007492070074804F0FFFA42424241064BE3
:1019900020701A7010BDC046C003001090030010E4
:1019A0006C930000780300108C03001070B5384E63
:1019B000040033780D00102B09D02000357004F09E
:1019C00033F900280AD008230120337070BD314854
:1019D00004F06CF80028F0D00120F7E72278002A04
:1019E0003BD02D4B1A706278002A39D05A70A278F9
:1019F000002A37D09A70E278002A35D0DA7022793E
:101A0000002A33D01A716279002A31D05A71A27932
:101A1000002A2FD09A71E279002A1CD0DA71227A3A
:101A2000002A29D01A72627A002A27D05A72A27A22
:101A3000002A25D09A72E27A002A23D0DA72227B19
:101A4000002A21D01A73627B002A1FD05A730E22FB
:101A500000219954BAE70722FAE700220E4BF7E774
:101A60000122F5E70222F3E70322F1E70422EFE780
:101A70000522EDE70622EBE70822E9E70922E7E77E
:101A80000A22E5E70B22E3E70C22E1E70D22DFE77C
:101A900004010010900300105003001010B582B034
:101AA0006B469C1D220004F0F3F8208802B010BDA4
:101AB000030010B5084A002806DBD069181804F0A6
:101AC00073F9064B187010BDD16942420020914253
:101AD000F5D35818F3E7C04690030010C003001078
:101AE00010B5002004F060F9014B187010BDC0461D
:101AF000C0030010034B10B5186A04F055F9024BEF
:101B0000187010BD90030010C0030010014BD8697D
:101B10007047C046900300100123812210B5084C85
:101B200082B05B4200932000064B0749520104F04B
:101B300039FB2000054A064904F07AFC02B010BDCA
:101B400060030010180C00002412000000010010B7
:101B500031190000F8B54E46DE4657464546E0B519
:101B6000424B81461B789C46984202DB013B1BB2EC
:101B700099463F4B1B78042B47D0022B3FD1484658
:101B800003213C4A127893465043C4172140091858
:101B9000891089B2384A394892461288008890469E
:101BA000524610804A46002A39DD48466246121ADB
:101BB0009146002A18DD5A46D0084343002B13D023
:101BC000002400222E4D00200E00AF5D26000130C3
:101BD0000131013480B289B2A4B2AF559842F3DB2F
:101BE000013292B24A45EEDB264B5A460021595E3D
:101BF0000020634601F0DCFA534642461A803CBCA2
:101C000090469946A246AB46F8BD4846194A127816
:101C10005043C10F09184910934689B2BAE7644688
:101C2000A2B294464A4690B2A04217D25A465343B3
:101C3000DB1013D000260027114D002430002A5C51
:101C40000800013401360131A4B2B6B289B22A5477
:101C50009C42F3DB0137BFB26745EED34B465A4691
:101C60000021002001F0A4FAC6E7C04611010010CF
:101C700008010010100100100E010010FA160010EB
:101C8000C8030010FE160010134B144A10B50400D0
:101C900013481A6001F078FC0122124B12491A70A5
:101CA000124BDB321A70124B2C3A1A70114B124A3B
:101CB000200013601A7801320A705B780F4A0133F2
:101CC000137011220E4B1A8000220E4B1A800E4BFD
:101CD00004321A7010BDC04620170010C80300104F
:101CE000248A0000F816001024170010F2160010C5
:101CF000F116001058800000F4160010E7160010CE
:101D00000C010010FA1600100801001010B5002098
:101D100002F05CF80023024A1380024A138010BDCF
:101D2000FC160010FE16001010B502F04FF810BDA2
:101D300010B582B004AC2488009402F0C1FE02B059
:101D400010BDC04610B502F05BF910BD024B188003
:101D5000024B19807047C046FC160010FE1600109A
:101D600010B5002804D01C4B1B78002B0DD010BDE3
:101D70001A4B1C6801F088FF194B2000196802F00B
:101D80008BFF154B1B78002BF1D1164B164A197897
:101D900018880F2312780B40012A17D0022A0ED080
:101DA000042A16D1190119430C4B104A186805F082
:101DB0006FF900230E4A13800E4A1380D7E70323DE
:101DC0000B40990019430B011943EDE7FF2100284F
:101DD000EAD11900E8E7C046EC1600102017001001
:101DE000E8160010FA160010080100101F1300007A
:101DF000FC160010FE160010F0B5DE4657464E46A3
:101E00004546E0B58DB0069116A909780191517843
:101E10000291911C12780A910592012B00D1F4E0F5
:101E2000042B06D00DB03CBC90469946A246AB466A
:101E3000F0BD029B002BF5D0002AF3D06B461B8B24
:101E40000F00089307930023C24A01309146C24A0B
:101E5000904682B20B9208999BB209930BB20393FE
:101E60000B0001331BB2049300230B9D00932C0045
:101E700036E0601E03B206936B461C215B5E9A46F9
:101E80004B461B880F2B05D8B4495B00C85AB0429B
:101E900000D177E132005146069802F081FD0F2211
:101EA00039784B460A4041461B8809685200525A0D
:101EB00020B20F2B04D8A9495B00CB5A934202D021
:101EC000514602F06DFD009B059A02331BB20234AD
:101ED000043501370093A4B2ADB29A4200DC41E16F
:101EE00043461B683A789C46614613115B005E5A74
:101EF000019B022BBDD16B1E1BB29A464B461B8821
:101F00000F2B05D895495B00C85AB04200D141E17A
:101F100032005046039902F043FD2BB29B464B46DC
:101F20001B880F2B05D88D495B00CA5AB24200D1DD
:101F30002FE132005846039902F032FD4B461B88D0
:101F40000F2B05D885495B00CA5AB24200D120E167
:101F500032005846049902F023FD4B461B880F2B94
:101F600005D87E495B00CA5AB24200D111E1320065
:101F70005046049902F014FD0F2239784B460A406E
:101F8000414609685200565A1B886A1C12B2924692
:101F90000F2B04D871495B00CB5AB34293D0320067
:101FA0005046039902F0FCFCAB1C1BB29B464B460F
:101FB0001B880F2B05D869495B00CB5AB34200D16F
:101FC00081E732005846039902F0EAFC4B461B8831
:101FD0000F2B05D861495B00CB5AB34200D172E7A1
:101FE00032005846049902F0DBFC4B461B880F2B4D
:101FF00005D85A4A5B00D35AB34200D163E7320096
:102000005046049902F0CCFC5DE7131E00D109E7AD
:102010000733DB100493029B002B00D102E783B24D
:10202000099301339BB208934D4B00269946494BC7
:1020300098460723802233401A410092089AB3B28F
:102040000793531E1BB29A4613B20A9AF61094468F
:1020500076B266449B460024002303964AE06B4612
:102060001E8B4B461A8843466500ADB21B88771914
:102070003FB20F2B04D839495B005B5A934233D0EF
:102080003900504602F08CFC4B461A8843461B88A8
:102090000F2B04D831495B005B5A934224D039009E
:1020A000584602F07DFC4B461A88434601361B8891
:1020B000AD192DB20F2B04D828495B005B5A93420F
:1020C00012D02900504602F06BFC4B461A8843465A
:1020D0001B880F2B04D821495B005B5A934203D025
:1020E0002900584602F05CFC0134029A24B2230015
:1020F000944222DA049A5343039AD35C009A1A4218
:10210000F2D0019B012BAAD1099A079B9446634404
:1021100018B2069B1919124B09B21A880D4B1B886D
:102120000F2BDFD80D4D5B005B5B9342DAD101349E
:10213000029A24B223009442DCDB089B079E023300
:102140009BB201360893059B36B2B34200DD70E7BF
:1021500068E6C0460C010010E816001000170010D9
:1021600006010010089A099B023292B20892079A5F
:102170000133013292B20792029A1BB2934200DA03
:1021800069E64FE60F20024060465200125A20B224
:1021900093E63A780F200240404600685200165AF3
:1021A0006A1C12B29246F7E6F0B54546DE4657463F
:1021B0004E46E0B5B44B8BB01B68019159780500D1
:1021C00088460990F720083944460140481E81415D
:1021D000E01009180C0008911978614301314A4355
:1021E00004329B185A1C1B7805925BB20793002B94
:1021F00000DC46E1A54B089A1F78ABB29A46013342
:1022000006939BB2039353460293059B3900A04E5D
:1022100047461D78022A00D17DE001330593ADB217
:10222000002F62D0039AB846531E1BB29A4613B2CF
:10223000002499460F0027E0022F73D0954B1B789E
:10224000002B00D1B4E04346581E019B9C466B46D0
:1022500008229A5E904B604404921A883388001BCF
:1022600000B20F2B06D85B009B4659468B4BCB5ACE
:10227000934204D0049902F093FB844B1F780134FD
:1022800064B26D08A0452EDDEB07D5D4844B1A88C7
:1022900033889A42F3D0022F00D1ACE07D4909780F
:1022A000002900D192E04146481E01998C466044C5
:1022B000001B01B2049169460820085E83460F2B7B
:1022C00006D85B009C466146744BCB5A9342D6D0ED
:1022D0005946049802F064FB01346C4B64B21F78D9
:1022E0006D08A045D0DC390047466B461A8B039B2E
:1022F000079802339BB20393099B0292D31A5BB2F5
:10230000984200DCAEE0531C0693089A059B1D78AA
:10231000022A00D081E71A005B781B021D43931C40
:1023200005937DE7019B67009C466744BBB204931D
:10233000594B3FB29B461A8833880F2B04D8574914
:102340005B005B5A934253D03900504602F028FBA1
:102350005B461A8833880F2B04D850495B005B5AC0
:10236000934245D03900484602F01AFB5B46049F71
:102370001A88338801373FB20F2B04D847495B00D6
:102380005B5A934234D03900504602F009FB5B4659
:102390001A8833880F2B04D840495B005B5A93425C
:1023A00026D03900484602F0FBFA384B1F7866E722
:1023B0006B460820185E019BE1180BB20493364B64
:1023C0001A8833880F2B00D84DE753E76946082059
:1023D000085E0199611809B28C460F2B05D82F4968
:1023E0005B005B5A934200D149E7614602F0D8FA9C
:1023F000264B1F7843E7019967008C466744B9B2C2
:102400008B463FB20F2B04D824495B005B5A9342A2
:10241000EED03900504602F0C3FA214B1A883388B7
:102420000F2B04D81D495B005B5A9342E0D0390062
:102430005F46484602F0B4FA194B01371A883388D0
:102440003FB20F2B04D815495B005B5A9342CFD0A3
:102450003900504602F0A4FA114B1A8833880F2B2A
:102460009AD99EE70F0000200E4B1856079B9C46FA
:10247000604478430BB03CBC90469946A246AB46BC
:10248000F0BD024B1F78EEE7F416001012010010A9
:102490000C010010F01600100601001000170010CB
:1024A000EE16001009010010134B10B519781888AA
:1024B0000F23124A0B401278012A16D0022A03D0A9
:1024C000042A16D0190005E003230B409900194394
:1024D0000B0119430A4B0B4A186804F0D9FD00237D
:1024E000094A1380094A138010BDFF210028F1D149
:1024F000E8E719011943EDE7FA160010080100108A
:10250000201700101F130000FC160010FE1600100C
:10251000054B064A18600378013313704378044A68
:10252000013313707047C046F416001024170010D2
:10253000E7160010024B1878431E9841C0B270474E
:10254000F81600100A4B002808D001221A70094B17
:10255000DB321A70084B2C3A1A7070471870074B10
:102560001A78044B1A70064B1A78034B1A70F4E76A
:10257000F8160010F2160010F116001010010010ED
:1025800011010010F0B5C64600B55D4D04002A6883
:10259000D378002B35D0602833D9203CE4B2594E93
:1025A00011780023F05E584B1B785B1A98422EDBA3
:1025B00000233380554B1B78002B3DD0544B507873
:1025C00098460021595E534B47001B78DB1B99420C
:1025D00000DD79E0504B1B785BB218184346411878
:1025E000002009B2198092784C4BA21A1B78D2B203
:1025F00092B2002B00D17EE0FF231940FFF7D4FDFB
:1026000015E00E2CCBD84649A300CB589F46404B33
:1026100092780021595E414BA21A1B78D2B292B235
:10262000002B4BD1FF231940184000F087FE202CCF
:1026300059D033881818308004BC9046F0BD314B17
:1026400011781888401A80B21880314B0021595EE9
:1026500093782022D21A314BD2B21B7892B2002B3F
:102660001FD0FF2319401840FFF79EFDE4E700212B
:10267000244B1980264952780023CC5E254B50000C
:102680001B781B1A9C4212DD0020234B1856801821
:102690000028D1D0FFF75EFACEE70022194B1A804E
:1026A000CAE7FF231940184000F048FEC4E70020A5
:1026B000194B1856801800190880BDE7FF231940F0
:1026C0001840FFF771FDB2E7134B1B785BB2181887
:1026D000002800D187E7FFF73DFA43463078002114
:1026E000595E2A687FE70F4B1B785BB2002BA0D0A6
:1026F000401001309DE7FF23194000F01FFE96E7D0
:10270000F4160010FC160010F21600101301001051
:10271000FE160010F11600100A010010F816001045
:10272000FC8C000009010010F0B5D6464F46464625
:10273000C0B504780500002C50D0714B714E9846FE
:10274000714B724F994633680135DA78002A4AD0C6
:10275000602C48D9203CE4B20022B85E4246197889
:102760001278521A904200DA6FE000223A80684AEA
:102770001278002A2FD0674A92460021515E5A787B
:1027800094466046644A40001278121A914200DD75
:102790009AE00020614A10565246604441180020D9
:1027A00009B211809A785E4BA21A1B78D2B292B20B
:1027B000002B00D19FE0FF231940FFF7F5FC202CF0
:1027C00055D14B461B785BB2002B50D03B88401054
:1027D0000130181838802C78002CB4D11CBC9046DD
:1027E0009946A246F0BD0A2C45D008D90D2C24D11B
:1027F0000022464B1A802C78002CA4D1EEE7082C3E
:10280000AAD1424A197810889B78401A80B2108069
:10281000404A0021515E2022D21A414BD2B21B788D
:1028200092B2002B3DD0FF2319401840FFF7BCFCAB
:102830002C78002C00D086E7D0E70E2C00D08BE758
:102840002C78002C00D07EE7C8E7324A0021515E88
:102850009A78334BA21A1B78D2B292B2002B2DD1A8
:10286000FF231940184000F069FD202CA9D03B88B7
:1028700018183880AFE70021244A1180254900222A
:102880008C5E5A78244B50001B781B1A9C420EDD3C
:102890000020224B1856801800289CD0FFF75AF9C8
:1028A00099E7FF231940184000F048FD93E7002006
:1028B0001A4B18568018001908808CE7FF2319401E
:1028C0001840FFF771FCD0E70020144A105660440E
:1028D000002800D166E7FFF73DF953460021595E15
:1028E000336838789A780E4BA21A1B78D2B292B21B
:1028F000002B00D05FE7FF23194000F01FFDB4E775
:10290000F2160010F416001009010010FC16001059
:1029100013010010FE160010F11600100A0100103D
:10292000F8160010F0B5CE46474680B5040089B0D1
:1029300000295BD00A2933D100285FDB5AD001235C
:102940005B426B4400276D46984643462000B946DB
:102950000A210137DE1904F017FD200031700A2129
:1029600004F08CFC26000400092EEED84B46EE182D
:1029700007E03030C0B2FFF705FE731EB5420AD043
:102980001E0030780928F4D93730C0B2FFF7FAFDBD
:10299000731EB542F4D109B00CBC90469946F0BD07
:1029A000002827D001235B42FF276B4400266D4699
:1029B00098460F402000390004F0E6FC4246330000
:1029C00001369155220004009742F3D9EC1807E034
:1029D0003030C0B2FFF7D6FD631EA542DBD01C002D
:1029E00020780928F4D93730C0B2F3E7C0B2FFF736
:1029F000C9FDD0E73020FFF7C5FDCCE72D20FFF75C
:102A0000C1FD64429BE7C046F0B5D6464F464646F8
:102A1000C0B504780500002C50D0744B744E984615
:102A2000744B754F994633680135DA78002A50D0D7
:102A3000602C4ED9203CE4B20022B85E42461978A0
:102A40001278521A904200DA75E000223A806B4AFE
:102A50001278002A2FD06A4A92460021515E5A7895
:102A600094466046674A40001278121A914200DD8F
:102A7000A0E00020644A10565246604441180020ED
:102A800009B211809A78614BA21A1B78D2B292B225
:102A9000002B00D1A5E0FF231940FFF785FB202C78
:102AA0005BD14B461B785BB2002B56D03B88401065
:102AB0000130181838802C78002CB4D10D20FFF785
:102AC00061FD0A20FFF75EFD1CBC90469946A246B8
:102AD000F0BD0A2C45D008D90D2C24D10022464B3C
:102AE0001A802C78002C9ED1E8E7082CA4D1424A09
:102AF000197810889B78401A80B21080404A0021D3
:102B0000515E2022D21A414BD2B21B7892B2002BD6
:102B10003DD0FF2319401840FFF746FB2C78002CCE
:102B200000D080E7CAE70E2C00D085E72C78002C77
:102B300000D078E7C2E7324A0021515E9A78334BE1
:102B4000A21A1B78D2B292B2002B2DD1FF231940CA
:102B5000184000F0F3FB202CA3D03B8818183880D5
:102B6000A9E70021244A1180254900228C5E5A7869
:102B7000244B50001B781B1A9C420EDD0020224B78
:102B800018568018002896D0FEF7E4FF93E7FF233D
:102B90001940184000F0D2FB8DE700201A4B185660
:102BA00080180019088086E7FF2319401840FFF7B6
:102BB000FBFAD0E70020144A10566044002800D1E8
:102BC00060E7FEF7C7FF53460021595E3368387847
:102BD0009A780E4BA21A1B78D2B292B2002B00D078
:102BE00059E7FF23194000F0A9FBB4E7F2160010E3
:102BF000F416001009010010FC160010130100105B
:102C0000FE160010F11600100A010010F816001050
:102C1000F0B5040089B000290AD1C0B2FFF7B2FCB8
:102C20000D20FFF7AFFC0A20FFF7ACFC09B0F0BDA8
:102C3000002820D0FF2600276D460E4020003100DE
:102C400004F0A2FB6A463B00013A0137D15522004D
:102C500004009642F2D9EC1807E03030C0B2FFF71A
:102C600091FC631EA542DBD01C0020780928F4D912
:102C70003730C0B2F3E73020FFF784FCD0E7C0461E
:102C8000024B1880024B19807047C046FC1600109A
:102C9000FE160010F0B5CE46474680B51400384AFF
:102CA00089B01080374A1180002B5BD00A2B33D1BA
:102CB000002C5FDB5AD001235B426B4400276D463A
:102CC000984643462000B9460A210137DE1904F030
:102CD0005BFB200031700A2104F0D0FA26000400CA
:102CE000092EEED84B46EE1807E03030C0B2FFF7A1
:102CF00049FC731EB5420AD01E0030780928F4D969
:102D00003730C0B2FFF73EFC731EB542F4D109B0B4
:102D10000CBC90469946F0BD002C27D0FF271F40E1
:102D200001235B426B4400266D4698462000390023
:102D300004F02AFB43463200013699552300040073
:102D40009F42F3D9AC1807E03030C0B2FFF71AFC4D
:102D5000631EA542DBD01C0020780928F4D9373047
:102D6000C0B2F3E7E0B2FFF70DFCD0E73020FFF789
:102D700009FCCCE72D20FFF705FC64429BE7C04629
:102D8000FC160010FE1600107047C04610B50C4B24
:102D90001B785B104B43411059180A4B89B21B68D2
:102DA0005C18595CC30704D50F2399430A4322706A
:102DB00010BD0F2312010B401A43D2B2F7E7C046F1
:102DC0001001001020170010124B30B51B889A42DA
:102DD00019D0114C85B22378AB4214D90F4C89B26B
:102DE00024788C420FD90F245B1059430C4B4010B0
:102DF0001B68091889B2581822405B5CE90703D5A3
:102E0000A3431A43027030BD1C40120122430270DA
:102E1000F9E7C0460C01001010010010110100106C
:102E200020170010F0B54E46DE4657464546E0B541
:102E300085B00392C34ACB18167802938E4202D80B
:102E40009E4200D86CE1C04B1C780193844200D8AC
:102E50000BE1029B0F008B4200DBAFE082B2944695
:102E600002B2521092B29346B84A9146C20700D4B9
:102E700024E1B74A8A46904661468446380001E01C
:102E8000019A14788C4211D99AB296420ED96410E4
:102E900054434A460F2516685C44A4B2325DAA43E7
:102EA00045462F883A433255A64A16780133834265
:102EB000E6DD6046039B5146C218019B1C785645CF
:102EC00000D828E1A24237D2029B0F008B4201DBDF
:102ED0001F000B0016B295B27610AC46B5B2AB46E9
:102EE0009A4DA946D50700D4C2E03D008846674602
:102EF000594694462A000390BC4217D991489EB285
:102F00000078B04212D948466410744300680C1926
:102F1000A4B2065D0F208643B2468D48068850460F
:102F200006434846006806550198047801339342E9
:102F3000E2DD624641460398844200D98BE0A2421A
:102F400045D2804B1B78994248D2904200DC89E000
:102F500082461300012900D0E8E07D4957468B46A0
:102F60007A4992468946012188460E318C462200D4
:102F700008E06546AC4321431170019A1278013391
:102F80009F421EDB9EB29642F9D26E490978012912
:102F9000F5D91C045210640CA4184D464A462D68FD
:102FA0001268594612192C5D454609783542E0D120
:102FB000654609012C402143C9B2DDE71F000B0023
:102FC0004CE714005246844208D8944206D805B013
:102FD0003CBC90469946A246AB46F0BD594B1B7887
:102FE00002999942F3D2904202DD030010001A00C8
:102FF00057496B468A46554917008946012188463C
:103000000E318C461B8986B2B44218D94D4A1278CB
:103010009A4214D9524664105C4311780204520C4F
:10302000A4184D464A462D681268A4B212192C5DA8
:103030004546354209D06546AC4321431170013005
:10304000B842C4DC019A1478DDE7654609012C40DA
:103050002143C9B2F2E73B4B1B788B42C0D9904267
:1030600000DD75E79246030074E7039BC21829E769
:103070003D0088466746594694462A000390A74279
:1030800018D230489EB20078B04213D9304864104C
:10309000744306780C193001824648460068A4B291
:1030A000065D0F2006405046064348460068065518
:1030B0000198047801339A42E1DA3AE70F228A460E
:1030C0009046390067468446584601E0019A1478D4
:1030D000A74214D29AB2B24211D24D466410544360
:1030E0002D680419A4B22E5D45462E404D46184A5F
:1030F0002D681278120132432A55124A167801338C
:103100009942E3DA6046039B5146C218019B1C7842
:10311000564500D9D6E6029B9E4200D9D2E60BE77F
:10312000039BC218084B1C78019305E789B28946B6
:10313000064990468C4601214A468B4681465046B8
:1031400011E0C046110100101001001020170010FE
:103150000E0100100F218C43264301993E700C781C
:10316000013383421DDC99B2A142F9D20E4D2E7873
:103170009642F5D90D4D64102E78654654431F04D0
:103180007F0C2D68E419A4B22F1965462D682C5DBB
:103190005D460D42DED10F2136010C402643F6B2CA
:1031A000DBE7424648460EE7110100100E01001011
:1031B000F0B5DE4657464E464546E0B5821887B024
:1031C00012B2002800DAA9E0584C2478844201DCCD
:1031D00094426ADDCB181BB200296DDB544C247875
:1031E0008C4201DC9C4260DD824269DA00B214004C
:1031F0000190994268DD0AB219000392CB43E04383
:10320000DB17019AC0170B402040029390424CDA22
:10321000039A0493934200DD0492029B039A009365
:10322000934200DA0092434B07009C469846404C7C
:103230002378029A934202D8039A93422FD93B4DA6
:103240002A78BA422BD983B299467B109BB29A4610
:10325000C3073CD40F239B464B46049E81460597EB
:10326000180000E02A78904213D22178B3B2994234
:103270000FD941465F4652105A4309682E4B5244BB
:1032800092B21B78895C1B0139400B4341460968A7
:103290008B54009B01369E42E4DD4846059F013079
:1032A000019B00B201378342C2D107B03CBC9046BB
:1032B0009946A246AB46F0BD002BF6DB824295DB79
:1032C00004B20192994296DC09B2039396E70F2368
:1032D00056469B46BA46049927004C46814600E074
:1032E0002A78A24212D938788BB298420ED952105D
:1032F0005A43634658461B68B21892B29B5C83439C
:103300000D4800880343604600688354009B0131E8
:103310009942E5DD3C0048465746C0E7002AC4DB39
:10332000CB181BB2002900DB58E7C5E710010010DD
:1033300011010010201700100E010010F0B54E46CC
:103340004546DE465746E0B5844B06001B68F72429
:103350005D788DB0280008382040441EA041EC1054
:103360000019040004901878019544430134624325
:1033700004329B185A1C1B780692794A5BB203935D
:103380001378022B01D001231370002E08DB0029D3
:1033900006DB5843734A80191278904200DAC5E080
:1033A000714A724812880488A24200D1BCE0704D74
:1033B00070480088844200D1B4E06D4C0A9408AC97
:1033C0000B9520716271022B4CD0039B002B34DDD6
:1033D0000023994601339846069B8FB29B46BA4616
:1033E000019F5B461D78049B022B33D001239C4632
:1033F000ADB2E34452460024B24601924346082649
:1034000001992B4009AA08A8D25C091980199B00D0
:103410000134C35809B2504664B298476D08A742B8
:10342000ECDA019B56469A464B4601335BB299460D
:10343000039B013636B24B45D3D100204E4B185674
:10344000039B9C4660440DB03CBC90469946A24606
:10345000AB46F0BD5B465B781B021D4302239C46D6
:10346000E344C7E7039B002B4CDDB3B205938BB25B
:10347000029300230793069A04991378022949D0EE
:103480009BB2994601320692059900260BB29B46E3
:103490000B0001331BB29A464A4601230821134010
:1034A00009AAD25C9B00904608AA5218D758029BE2
:1034B00074009C466444A5B224B24246210058469A
:1034C0000135B8472DB2424621005046B847424622
:1034D00029005846B847424629005046B8474B464F
:1034E0005B0899460136019B76B2B342D4DA079B5A
:1034F00001335AB2059B079202339BB20593039B9B
:103500009342B8D100201C4B1856039B9C46604444
:10351000400098E71100527812021A438B1C914622
:103520000693B1E7154C49E7144D41E7019A144859
:1035300001325A4300785218824200DB30E70A4ACF
:103540000A4812880488A24206D00E4D0948008815
:103550008442E7D00B4C31E7084DF7E7F416001032
:1035600012010010100100100E0100100C010010DB
:10357000C92D0000FA16001009010010892D000065
:10358000110100108D2D0000427801789210C910B1
:10359000C90252010A4381785D4BC9100A431A805F
:1035A000C2784179D210C910D2020A430179891038
:1035B00049010A435A808279017AD210C910D20295
:1035C0000A43C179891049010A439A80427AC17A33
:1035D000D210C910D2020A43817A891049010A43E4
:1035E000DA80027B817BD210C910D2020A43417B70
:1035F000891049010A431A81C27B417CD210C9104B
:10360000D2020A43017C891049010A435A81827C13
:10361000017DD210C910D2020A43C17C8910490130
:103620000A439A81427DC17DD210C910D2020A4359
:10363000817D891049010A43DA81027E817ED210A0
:10364000C910D2020A43417E891049010A431A82F5
:10365000C27E417FD210C910D2020A43017F891075
:1036600049010A4320215A82827F415CD210C9104D
:10367000D2020A43C17F891049010A439A8221225A
:103680002321825C415CD210C910D2020A4322215C
:10369000415C891049010A43DA8224222621825C96
:1036A000415CD210C910D2020A432521415C891025
:1036B00049010A431A8327222921825C415CD210E6
:1036C000C910D2020A432821415C891049010A43EA
:1036D0005A832A222C21825C415CD210C910D2026A
:1036E0000A432B21415C891049010A439A832D2208
:1036F0002F21825C415CD210C910D2020A432E21D4
:10370000415C891049010A43DA83024A1360704719
:1037100000170010E81600101F2370B51C000B40A6
:1037200004401B1B1BB253431B12E3183F244E11D2
:1037300045112540C00A3440C912091A641B54437C
:103740004A4312128218D04324122D191BB2C017FB
:10375000EC431040DA43E417D2172C401340C00268
:1037600018436401204380B270BDC046084A1378F4
:103770000133DBB2072B07D80648C15C08004B09B0
:1037800005490880137070470723E020F8E7C0461A
:10379000251700109492000026170010064A13788F
:1037A000002B01D0013BDBB20449CB5C04490B8008
:1037B0005B1113707047C0462517001094920000EB
:1037C00026170010021CFF2800DDFF2213B2DB4386
:1037D000DB1708491340084A138000200B5E0A8853
:1037E000DB43DB1713401AB20B805311034A1370EB
:1037F0007047C0462617001014010010251700104E
:103800000300C043C0171840024B1880024B401100
:10381000187070472617001025170010014B1888E4
:103820007047C0462617001010B50248FDF78EF904
:1038300010BDC046281700100122014B1A717047B5
:103840005C1900100022014B1A7170475C190010BE
:103850000122014B5A7170475C1900100022014B84
:103860005A7170475C1900100122014B9A71704720
:103870005C1900100022014B9A7170475C1900100E
:103880000122014B5A7070475C1900100022014B55
:103890005A7070475C1900100122014BDA707047B2
:1038A0005C1900100022014BDA7070475C1900109F
:1038B0000022014B9A7070475C1900100022014BE6
:1038C0001A7070475C19001010B5054B9A79002AE0
:1038D00002D101229A7010BDFFF748FFFBE7C046F6
:1038E0005C19001010B5054B9A79002A02D101220B
:1038F0001A7010BDFFF752FFFBE7C0465C190010BD
:1039000010B5044802F0FAFB0122034B1871034B77
:103910005A6210BD2C1700105C190010004000A066
:1039200010B5044802F0EAFB0222034B5871034B26
:103930005A6210BD7C1700105C190010004000A0F6
:1039400010B5044802F0DAFB0422034B9871034BD4
:103950005A6210BDCC1700105C190010004000A086
:1039600010B5044802F0CAFB0822034B5870034B01
:103970005A6210BD0C1900105C190010004000A024
:1039800010B5044802F0BAFB1022034BD870034B69
:103990005A6210BD1C1800105C190010004000A0F5
:1039A00070B5114802F0AAFB104CA071104802F04B
:1039B000A5FBA379C0B22070002B01D0002806D14E
:1039C00000220C4B1A7020220B4B5A6270BD094D1D
:1039D0002B78002B04D00023237001332B70F2E7E7
:1039E000FFF7DCFEF7E7C046CC1700105C190010AB
:1039F0006C18001065190010004000A070B5114847
:103A000002F07CFB104CA071104802F077FBA37908
:103A1000C0B2A070002B01D0002806D100220C4BB0
:103A20001A7040220B4B5A6270BD094D2B78002B47
:103A300004D00023A37001332B70F2E7FFF796FE4A
:103A4000F7E7C046CC1700105C190010BC18001036
:103A500065190010004000A010B52E4C2E49200022
:103A600002F074FB20002D4902F05EFB2C4C2D4926
:103A7000200002F06BFB20002B4902F055FB2B4C81
:103A80002B49200002F062FB20002A4902F04CFB87
:103A9000294C2A49200002F059FB2000284902F055
:103AA00043FB284C2849200002F050FB2000274906
:103AB00002F03AFB264C2749200002F047FB200089
:103AC000254902F031FB254C2549200002F03EFB40
:103AD0002000244902F028FB0020234902F0AEFC1C
:103AE0000120224902F0AAFC0220214902F0A6FC92
:103AF0000320204902F0A2FC04201F4902F09EFC92
:103B000005201E4902F09AFC06201D4902F096FC91
:103B100010BDC0462C170010453800003938000091
:103B20007C1700105D38000051380000CC170010E1
:103B300075380000693800000C1900108D3800003D
:103B4000813800001C180010A538000099380000CA
:103B50006C180010BD380000E5380000BC180010DB
:103B6000B1380000C93800000139000021390000D7
:103B7000413900006139000081390000A13900009D
:103B8000FD390000014B18797047C0465C190010E0
:103B9000014B58797047C0465C190010014B987969
:103BA0007047C0465C19001070B52648FEF76CF8E7
:103BB000254E2649300002F07DFA254D254C2A007D
:103BC0002100300002F034FC234E2449300002F082
:103BD00071FA2A002100300002F02AFC204E21490F
:103BE000300002F067FA2A002100300002F020FCC9
:103BF0001D4E1E49300002F05DFA2A0021003000FF
:103C000002F016FC1A4E1B49300002F053FA2A004B
:103C10002100300002F00CFC174E1849300002F071
:103C200049FA2A002100300002F002FC144E154926
:103C3000300002F03FFA2A003000210002F0F8FBC9
:103C400070BDC046641900102C17001084120100CA
:103C500000010010316000007C17001070080100A6
:103C6000CC170010881401000C190010941A0100E0
:103C70001C1800106C0601006C180010C432010002
:103C8000BC1800107C0E0100F0B54A4857464E465D
:103C90004546DE468046A0238A22E0B504278025DB
:103CA000444618201B0692019F5043499246434EBA
:103CB000434A6D049D505E5018514248002484468A
:103CC0008020654640015C505851C046C046843D46
:103CD0009850A9465F5180256D049D503A4D5E5025
:103CE000AB4645465E465E5165465C505851C046FF
:103CF000554698505F5180256D049D5080256D007C
:103D0000AB462E4E45465E505E465E5165465C5063
:103D10005851C046C0464D4698505F5180256D04AD
:103D20009D504546254E5E505C5165465C5058514D
:103D3000C046554698505F5180256D049D5084259E
:103D40006D00AB465E5045465E465E5165465C5032
:103D50005851C046C0464D4698505F5180256D046D
:103D60009D504546154E5E505C5165465C5058511D
:103D7000C046554698505F5180256D049D5088255A
:103D80006D00AA465E50454656465E515C506446FC
:103D90001851C046C0464C4698501F518024074ECB
:103DA00064049C5098505E503CBC90469946A24694
:103DB000AB46F0BD88210000882000000700F8FF16
:103DC0000422000084220000C0810000F0B55746A4
:103DD0004546DE464E46A0238A22E0B504258027CC
:103DE0001B06920183B000903C4C9D5092463C498A
:103DF0003C4A7F045F5090461A513B4A3B489446E8
:103E00008022654652005A5100221A5180225201E6
:103E10001A50C046C04688260425B6015A50B146FD
:103E20009D5146465F5000251E5166469D51002615
:103E30001E511A50C046564604355A509D514646AA
:103E40005F501E5184267600B34666465F469F51FA
:103E500000261E511A50C046C0464E4680275A5072
:103E600001959D5146467F045F5000251E516646D0
:103E70009D5100261E511A50C0465646019D5A506B
:103E80009D5146465F501E5188267600B2466646D2
:103E900057469F5100261E511A50C046C0464646FE
:103EA0005A501E51009EF600B046664647469F5146
:103EB000002680271E514C467F041D510C4C5F503C
:103EC0005A501A50C046013C5A50002CF9D103B048
:103ED0003CBC90469946A246AB46F0BD8820000007
:103EE000042200000700F8FF88210000842200005F
:103EF00040970000F0B557464E464546DE46A022A4
:103F00008A23E0B50427802612069B01D750364944
:103F10009A463648364B760416508846D150354975
:103F200000258C4680216446490011518021324C85
:103F30004901D5501151C046C046843C1150A1469C
:103F4000175144461650D450644615512A4CD5504A
:103F50001151C04654461150175144461650D45082
:103F600084246400A34664465E461651224CD55014
:103F70001151C046C0464C46802611501751444648
:103F800076041650D450644615511B4CD55011512F
:103F9000C04654461150175144461650D4508824F8
:103FA0006400A246644656461651134CD550115132
:103FB000C046C04644461150D45064468026155130
:103FC000D5504B467604D7500B4C0C4B1650115025
:103FD0001151C046013B1150002BF9D13CBC904619
:103FE0009946A246AB46F0BD0700F8FF0422000048
:103FF00088200000882100008422000040970000F3
:1040000080208022F8B5DE4657464E464546EC4BAA
:1040100012061958E0B50A431A50802259689200D6
:1040200011435960FC210324E648012743588026A8
:104030009B0A9B022343E44C43502168E34B7601E7
:104040000B430C2123606368E1480B436360A123A9
:10405000DB00E750DF4B0A39E150C1239B00E650FB
:10406000C021012389005B4263500C316050043948
:104070006350D94B6421A350A358D84D1801C01ADE
:10408000400003F0FBF8812304229B00E0506368AA
:10409000924693436360A024240667510A2002F0ED
:1040A000ADF9CF4A0A20A750914602F0A7F967510F
:1040B0000A2002F0A3F98A2351469B01E150802196
:1040C0000823002249046151C64F8B46C648C749A0
:1040D000E05190466350E2514A469C46A650C04685
:1040E000C0465346843A6651A3505B468E226351C4
:1040F00043461201E0516250E3514B46E650C04640
:104100008A22534692016651A3505B4610226351A6
:104110004346E0516250E3514B46E650C046C0462C
:104120008822534692016651A3505B468022635118
:1041300043461201E0516250E3514B46E650C046FF
:104140008A22534692016651A3505B46182263515E
:104150004346E0516250E3514B46E650C046C046EC
:104160008822534692016651A3505B4663514346F1
:104170009F4AE0516250E3514B46E650C0468A22C6
:10418000534692016651A3505B4640226351434619
:10419000E0516250E3514B46E650C046C04688228B
:1041A000534692016651A3505B4663514346914A80
:1041B000E0516250E3514B46E650C0468A225346D6
:1041C00092016651A3505B46602263514346E05121
:1041D0006250E3514B46E650C046C04688225346E3
:1041E00092016651A3505B4663514346E0516350D0
:1041F000E3514B46E650C046534680326651A350C9
:104200005B46782263514346E0516250E3514B468E
:10421000E650C046C0468822534692016651A350DC
:104220005B4663516346E05163504346E3514B465E
:10423000E650C046534680326651A3505B466351F8
:1042400080235B00E05163504346E3514B46E65008
:10425000C046C0465146843B6651E15059464346EC
:1042600061516249E0516350E3514B46E650C0460C
:1042700053466651A3505B46635184235B00E05173
:1042800063504346E3514B46E650C046C046514654
:10429000843B6651E1505B46635143465349E051CC
:1042A0006350E3514B46E650C04653466651A35017
:1042B0005B4663518023E05163504346E3514B46D4
:1042C000E650C046C0465046843B6651E0505846D2
:1042D000434660514448E0516350E3514B46E65039
:1042E000C04653466651A3505B4663518823E05154
:1042F00063504346E3514B46E650C046C0465246E3
:10430000843B6651E2505B46635180231B02E051BF
:1043100063504346E3514B46E650C0460A2066517F
:1043200002F06CF88A2253469201A3505B46635117
:10433000C0232D482D495B00E05163504346E351B3
:104340004B46E650C046C0465046843B6651E0505E
:104350005846434660512448E0516350E3514B4670
:10436000E650C04653466651A3505B466351C42392
:104370005B00E05163504346E3514B46E650C04674
:10438000C0465146843B6651E1505946DB2361519A
:104390001649DB00E0519C4663504346E3514B46CF
:1043A000E650C04653466651A3505B46C82263514F
:1043B00043465200E0516250E3514B46E6501BE049
:1043C000008004400040044000C00050010006008E
:1043D000011000000C050000204E00000422000027
:1043E00084220000882000000700F8FF88210000D8
:1043F0008081000040400000C046C04688225346ED
:1044000092016651A3505B4663514346E0516350AD
:10441000E3514B46E650C046534680326651A350A6
:104420005B46CC22635143465200E0516250E35157
:104430004B46E650C046C04688225346920166511C
:10444000A3505B4663514346E0516350E3514B46F2
:10445000E650C046534680326651A3505B46D02298
:10446000635143465200E0516250E3514B46E650DF
:10447000C046C0468822534692016651A3505B460F
:1044800063516346E05163504346E3514B46E65067
:10449000C046534680326651A3505B46D4226351D6
:1044A00043465200E0516250E3514B46E650C0464D
:1044B000C0468822534692016651A3505B46635121
:1044C0004346E0516350E3514B46E650C0465346E5
:1044D00080326651A3505B46D82263514346520056
:1044E000E0516250E3514B46E650C046C046882238
:1044F000534692016651A3505B46AF226351434637
:10450000D200E0516250E3514B46E650C0468A2249
:10451000534692016651A3505B46DC2263514346E9
:104520005200E0516250E3514B46E650C046C0464F
:104530008822534692016651A3505B46635143461D
:10454000E0516350E3514B46E650C046534680323B
:104550006651A3505B46E022635143465200E0514E
:104560006250E3514B46E650C046C046882253464F
:1045700092016651A3505B4663516346E0510A00C5
:1045800063504146E15149466650C0468A23514630
:104590009B016651E1505946E423615141465B005D
:1045A000E051A350E15149466650C046C0465346CB
:1045B000843966516350594661514146E051A150DA
:1045C000E15149466650C0460A20665101F016FF87
:1045D0008A2351469B01E1505946FF2342466151CF
:1045E000E248E349DB00E0516350E2514A469C4611
:1045F000A650C046C0465346843A6651A3505B4617
:10460000182263514346E0516250E3514B46E65055
:10461000C0465246043B6651E2505A466251A022BF
:104620009200E05162504246E2514A46A650C046CE
:10463000C0465046843A6651A0505846CD4A605113
:10464000CA48E05162504246E2514A46A650C0462E
:1046500052466651E2505A466251A2229200E051FF
:1046600062504246E2514A46A650C046C0465046B5
:10467000843A6651A0505846BF4A6051BB48E05149
:1046800062504246E2514A46A650C04652466651E2
:10469000E2505A466251A4229200E05162504246D2
:1046A000E2514A46A650C046C0465146843A665139
:1046B000A150594628226151AD49E051625042460D
:1046C000E2514A46A650C04652466651E2505A460A
:1046D0006251A6229200E05162504146E1514946A2
:1046E0006650C046C0468822514692016651A1508C
:1046F00059469F4A6151A149E051A1504246E251B9
:104700004A46A650C04652466651E2505B46A82231
:104710006351974B9200E0511900E2504346E35138
:104720004B46E650C046C046882253469201665129
:10473000A3505A466251924AE05162504246E251B9
:104740004A46A650C046043A6651A3505B46AA2288
:10475000635143469200E0516250E3514B46E650AC
:10476000C046C0465246843B6651E2505B466351A8
:104770001823E05163504346E3514B460A00E6508C
:10478000C0465346F8326651A350AC225B469200B5
:104790006351E05162504246E2514A46A650C0463B
:1047A000C0465346843A6651A3505A464346625126
:1047B000744AE0516250E3514B46E650C0465146C0
:1047C000043B6651E15059466151E051AE204146EB
:1047D000674B8000E050E15149466650C046C046F4
:1047E0008820514680016651215059466151414609
:1047F0005E48E0516448E050E15149466650C04689
:104800005146F8336651E150594658486151E051DC
:10481000B0204146564B8000E050E1514946665079
:10482000C046C046882051468001665121505946F5
:104830004E4861515149E051E1504146E1514946EC
:104840006650C0465346043966516350594661511B
:10485000B221474B8900E051E1504146E1514946C0
:104860006650C046C0465346843966516350594627
:104870006151E05101003E4822504246E2514A4611
:10488000A650C0468A2352469B016651E2505A46C2
:104890006251B022D200E15122504246E2514A46D2
:1048A000A650C046C0465346843A6651A3505B4664
:1048B00063514346354AE1512250E3514B46E6509D
:1048C000C0465246043B6651E2505A466346625126
:1048D000E1510A00235001004046E051484626506D
:1048E000C046C04653468438665123505B466351E8
:1048F0004346E2516350E3514B46E650C0465046B2
:10490000043B6651E0505846382360514046E2511E
:104910006350E05148462650C046C046534684384E
:1049200066512350584660514046194BE25163503E
:10493000E05148462650C046C820665101F05EFD51
:104940008A2350469B01E0505B4663518823074A07
:1049500007495B00E25163504346E3514B46E65042
:10496000C046C0466651FFF7C5FA13E00700F8FFDE
:104970008821000018100000485000000881000045
:104980001030000018380000382800000828010006
:10499000B88000003CBC90469946A246AB46F8BDA4
:1049A000F0B5DE4657464E46454680B29346E0B5E2
:1049B000DB2874D88BB2AF2B71D804229246A02387
:1049C0008A22544680251B0692019C508022374C37
:1049D0006D041D51364EA946364D52009D51A846D4
:1049E000354D5A510022AC4680259A51334A6D010B
:1049F0009D50C046C04688275246BF011D51DA511E
:104A00004A461A5142469A516246C90099500022BC
:104A10002A499A515D50C046524604391D515A5098
:104A20004A461A51424684219A5162464900995099
:104A3000002222499A515D50C046C04652461D513F
:104A4000DA514A461A5142469A516246C00098507D
:104A5000002208009A515D50C046524604391D514B
:104A60005A504A461A51424688219A516246490094
:104A7000995000229A511D50C046C04652461D51C1
:104A8000DA514A461A5142461D519A515A46D100AE
:104A90006246995000229A511D50C0461D513CBC9F
:104AA00090469946A246AB46F0BDC046042200009F
:104AB000882000000700F8FF882100008422000001
:104AC000F0B54546DE4657464E46E0B587B0150080
:104AD000039210AA1288A84202DD04002800039461
:104AE000994202DD0C0019002300DC2800D9A5E062
:104AF000B02900D9A2E0039CDC2C00D9A5E0B02BA2
:104B000000D9BDE0C443E4170440C843C0170140C6
:104B100009B20491039901948C4200DD8EE004995E
:104B2000D200C90005910421884680219446490499
:104B3000A0228B46534C120602938A254346AD01B0
:104B4000535180215B46504D504F514E53514900B7
:104B50000023175191518021135199464D4B490122
:104B6000D150C046C04651514546843BD5505D4664
:104B70001800454BD550059D175195514D4615517F
:104B8000444D5151C046D1504346043D53515B46BC
:104B90003D4D535184235B00175193514B461351A4
:104BA0003C4BD150C046C0465151454615505D461C
:104BB000354BD550019D1751ED0095514D4615517E
:104BC000344D5151C046D1504346043D53515D468A
:104BD0002D4BD55088256D00175195514D461551D7
:104BE0002C4D5151C046C0464546D1505B461550EC
:104BF000254D02985351049B51511D00834215DAF3
:104C0000244BB246009300262B0081466046554651
:104C100017515051009816511150C0461A4801338F
:104C20001BB211509945F1D14B46029301990131C4
:104C30000BB203990193994200DB7EE707B03CBCBD
:104C400090469946A246AB46F0BDB02B0CD9C34363
:104C5000DB1703400193CB43DB1719400BB2DC2178
:104C600004930391B0235AE7C443E4170440C843B4
:104C7000C017014009B20491DC21019403914EE771
:104C8000B0233FE788200000042200000700F8FF5F
:104C90008821000084220000030010B508001900DC
:104CA00000F0CEF910BDC046024A136864331360A9
:104CB0007047C0466C190010044B054A07215A6022
:104CC00000229A601960034B1A60704710E000E000
:104CD000FF3D49006C190010054B9868054B1A6898
:104CE000054B1B1A05485B0A5843000C8018704797
:104CF00010E000E06C190010FF3D4900BB0200000D
:104D000010B501F07BFB10BD10B5002001F01AFBBF
:104D100002F06EFA10BDC046A023802104201B06BD
:104D200089015A5810B502435A508021294A490135
:104D30009858014399508021985849040143012013
:104D400099509958014399502349244A585802438D
:104D50005A502348002101F06BFF0021214801F047
:104D600067FF0021204801F063FF00211F4801F088
:104D70005FFF00211E4801F05BFF00211D4801F08C
:104D800057FF00211C4801F053FF00211B4801F090
:104D90004FFF00211A4801F04BFF0021194801F094
:104DA00047FF0021184801F043FF0021174801F098
:104DB0003FFF0021164801F03BFF0021154801F09C
:104DC00037FF0021144801F033FF0021134801F0A0
:104DD0002FFF10BD0420000008200000F8FF07008E
:104DE0000007020004090200080B02000C0D02007B
:104DF000100F020014110200181302001C1502000B
:104E00002017020024190200281B02002C1D02009A
:104E1000301F020034210200382302003C2502002A
:104E2000F0B54546DE4657464E46E0B58846050095
:104E30008BB072B6C0235B0298422FD232236F46EA
:104E4000060B04AC04933900564B20006660A66044
:104E50009847009B002B42D12B055A425341DBB2AD
:104E6000002B00D07AE0504B9946332304934346FD
:104E7000A36080235B00E360FA214B468900186839
:104E8000656002F0FBF9474B20613900200098472C
:104E9000009B002B23D162B6002021E0E0239B027F
:104EA000984224D2C0231B269B0298420AD2A023F8
:104EB000013E9B02984205D2802300269B02984225
:104EC0007641183632236F4604AC04933900354BD3
:104ED00020006660A6609847009B002B5ED00120F2
:104EE0000BB03CBC90469946A246AB46F0BD32237F
:104EF0001C266F4604AC04939B462A4B39002000C5
:104F00006660A6609A469847009B002BE7D1E42292
:104F10006B045B0C920295429FD1E0233B22FA2165
:104F20009B0004920593214B8900A3601E4B1868D7
:104F3000994602F0A3F93900E0602000D0473B68B1
:104F4000002BCCD15B463900236020006660A66050
:104F5000D0473B68002B00D187E7C0E73423FA2114
:104F60000493114B8900186899466660A66002F0A8
:104F700085F90C4BE060390020009A469847009B69
:104F8000002BACD132330493390020006660A66058
:104F9000D047009B002B00D167E7A0E76B045B0CB8
:104FA0005BE7C046F11FFF1F2C010010FF0300004C
:104FB0003E2310B58AB005936B46DC1C0123FA2111
:104FC00008930A4B069089001868079402F056F976
:104FD000099072B6064B01A905A8984762B6019BD5
:104FE000002B02D120780AB010BDFEE72C01001082
:104FF000F11FFF1F10B58CB06B46D971FA213D220D
:105000000124073309930B4B089089001868079215
:105010000A9402F033F9084B0B905C6072B6074BB0
:1050200003A907A8984762B6039B002B01D10CB0D7
:1050300010BDFEE72C01001000400140F11FFF1FD2
:10504000F0B544464D46564670B4EEB06E46414CFF
:10505000414AA146414CA0466E250F780F243B09DA
:1050600027405B00C45AE40014604B46D36710C667
:10507000FC241351D3677F001351C45BE400146018
:105080004B46D36710C6FC241351D367013113512B
:10509000023DE2D16E466E254C4608CE1360D467C1
:1050A000FC23D450D467013DD45008CE1360D4679C
:1050B000FC23D450D467013DD45008CE1360D4678C
:1050C000FC23D450D467013DD45008CE1360D4677C
:1050D000FC23D450D467013DD45008CE1360D4676C
:1050E000FC23D450D467013DD45008CE1360D4675C
:1050F000FC23D450D467013DD45008CE1360D4674C
:10510000FC23D450D467013DD45008CE1360D4673B
:10511000FC23D450D467013DD45008CE1360D4672B
:10512000FC23D450D467013DD45008CE1360D4671B
:10513000FC23D450D467013DD450AED16E46012437
:105140005823A044984587D16EB070BCA046A946AC
:10515000B246F0BD00100000882100A00000000051
:1051600010B50A4B187802F01DFF011C084802F028
:105170004DFA084902F014FCF621890502F010FCF2
:1051800002F02CFA044B188010BDC0461601001026
:10519000000070420044AC467019001010B502487F
:1051A000FBF7D4FC10BDC04674190010F8B543B22B
:1051B00004000D00002B68DBA0228823802112064A
:1051C0009B01D150022235490B781A42FCD0FF22B4
:1051D000334B32491A70FB3A0B781A42FCD0304BF1
:1051E000A0221B788A23802112069B01D150022223
:1051F0002A490B781A42FCD0FF22294B27481A7003
:10520000FB3A03781A42FCD0FF27264E244B21009C
:1052100030001B7800F0ACFF290E300000F0A8FF32
:10522000290C3940300000F0A3FF290A3940300032
:1052300000F09EFF39003000294000F099FF402C1B
:1052400021D0210048394C1EA14185234942994370
:105250008731300000F08CFF0A250224FF2704214B
:105260000E4B0F4E1A781442FCD037701A78114248
:10527000FCD03278D0B252B2002A03DA013DEDB24E
:10528000002DEFD1F8BD9521E3E700217720FFF74E
:105290008DFF0128F6D87F231C408DE70C000440C9
:1052A0000800044060030010F8B557464E464546D6
:1052B000DE46E0B59946514B80461B7892461B0767
:1052C00000D449025120FFF771FF8346002814D112
:1052D0000226FF2704254A4B4A494B480C782642B0
:1052E000FCD007700C782542FCD00278D4B2FF2A9B
:1052F00021D1013B9BB2002BF0D101239B46A02280
:105300008823802112069B01D15002223D490B784F
:105310001A42FCD0FF223C4B3A491A70FB3A0B78F8
:105320001A42FCD0384B58461B783CBC90469946F4
:10533000A246AB46F8BDFE2CDFD14B46334DED1AED
:105340005346ED1AADB2002B14D0FF22042194462F
:105350002C4B2D4EFC3C1A781442FCD06246327025
:105360001A781142FCD032785246013A92B29246F3
:10537000002AF0D14346002B2CD047464B46FE185E
:10538000214B02249C46FF23042198461D4AB6B2B5
:1053900013781C42FCD063464046187013781942BB
:1053A000FCD063461B783B700137BBB29E42EFD105
:1053B0000224FF270421134B134E1A781442FCD009
:1053C00037701A781142FCD0013DADB23278002D11
:1053D000F3D194E70224FF2704210A4A0A4E1378E6
:1053E0001C42FCD0377013781942FCD033784B46FE
:1053F000013B9BB29946002BF1D1D9E775190010FA
:10540000307500000C000440080004400202000057
:10541000294B2A4A1B8870B55C1CA4B2934209D060
:10542000274E284D013C00213000A4B200F0A0FE20
:10543000AC42F7D1022224490B781A42FCD0FF2259
:10544000224B21491A70FB3A0B781A42FCD01F23D9
:105450001E4D2A781340052B16D00120A022882348
:10546000802112069B01D150022217490B781A4263
:10547000FCD0FF22154B14491A70FB3A0B781A42E4
:10548000FCD0124B1B7870BD0220FF260421104C6B
:105490000D4B1A781042FCD02E701A781142FCD0B5
:1054A0002A78FF2A04D0002CD7D0013CA4B2F0E720
:1054B00060426041C0B2D1E776190010FEFF0000E3
:1054C00060030010FFFF00000C00044008000440CF
:1054D000E8FD0000F0B5DE464E46454657468823B7
:1054E000E0B5A0258024684E9B012D06EC503000CD
:1054F000664983B000F090FE00220821300000F0E1
:1055000077FE84239B01EB581C4200D197E0642472
:105510000220FF2604215E4B5E4D1A781042FCD01B
:105520002E701A781142FCD0013CE4B22A78002C8B
:10553000F3D100214020FFF739FE050001281ED0DD
:105540000120554BA0221C708823802112069B014C
:10555000D15002224E490B781A42FCD0FF224D4B0B
:105560004B491A70FB3A0B781A42FCD0494B1B7816
:1055700003B03CBC90469946A246AB46F0BDD5214F
:1055800048204900FFF712FE01285BD1414A01ADD6
:105590009046FF222E00AC469146042102AB9B466A
:1055A0003B4B01301A781042FCD042464F461770F0
:1055B0001A781142FCD04246674612783A700122AE
:1055C0009246D444DC45EDD1AB78012BB8D1EB78D1
:1055D000AA2BB5D1314B984605E04346013B9BB21F
:1055E0009846002BACD08021E920C905FFF7DEFDED
:1055F0000028F2D100217A20FFF7D8FD00289FD1A2
:1056000004210223FF2489469C46214A214B177816
:10561000B846674641460F42F9D01C704F46117894
:105620000F42FBD0197831700136B345EFD12B789A
:105630000C245B0600D584E70020083C81E7FFF7D7
:10564000E7FE64E70021E920FFF7B0FD41270128CC
:1056500016D9134E04E0013EB6B2002E00D16FE71A
:1056600000213800FFF7A2FD0028F4D1802150204E
:105670008900FFF79BFD002800D061E72C0060E760
:105680000225E927E5E7C0466003001000366E01F9
:105690000C0004400800044075190010E02E0000C2
:1056A000A8610000F0B5040083B0012820D9314B77
:1056B0001D68EB6883421BD92B78022B2ED0032B5D
:1056C00019D00120012B14D1A3B25A08D2182A4BA9
:1056D00096B2D205D20D760A9A422CD0296901AF32
:1056E000FE3B38007118FF3BFFF7DEFD002836D087
:1056F000012003B0F0BD7F2229690240C4090423C0
:105700009200611801A8FFF7CFFD0028F0D16B4689
:105710006A465B7910791B021843EAE7FF22296980
:105720000240040A02235200611801A8FFF7BCFDE1
:105730000028DDD1EBE72B6901AFF1183800012318
:10574000FFF7B2FD0028D3D1684629690123013152
:10575000002289190530FFF7A7FD0028C8D1787805
:105760003B78000203431811E207C2D41805000D6C
:10577000BFE7C04678190010FF010000FF2270B596
:105780000223520004000D00FFF78EFD00282FD1E8
:105790006278237812021343164A1BB202309342F6
:1057A00000D070BD0223362229002000FFF77CFDC7
:1057B000002807D162782378120213430E4A1BB2E5
:1057C0009342EED00223522229002000FFF76CFD05
:1057D00003000120002BE4D1637820781B021843DA
:1057E000064B00B29C466044431E9841C0B2D8E7C5
:1057F0000320D6E755AAFFFF46410000BABEFFFFCF
:10580000F8B557464E46DE464546E0B50B780600ED
:105810000F00202B03D17B780137202BFBD02F3BAF
:105820005A425341FF180023B3603A78202A00D827
:1058300010E19D4A7368934614680822924620221C
:105840001A705A709A70DA701A715A719A71DA7104
:105850001A725A729A723A78202A00D81BE10820EC
:105860000021844607382F2A05D02E2A00D1B1E026
:105870008C4500D9BCE00022DA720023B1683F18E1
:105880003380012900D1CAE0E3688B4200D8C6E02A
:10589000002900D0C5E02278032A00D1CCE0F160D5
:1058A00061690F23A5689946002431614A46224068
:1058B000202328005201FFF7F7FC002800D0AEE0BB
:1058C0002A78002A1DD050465146EB7A18401942DA
:1058D00023D034880134A4B2002C12D031690029BD
:1058E0000FD04B4623420AD15B46F0681B6801315A
:1058F00098463161002851D19B88A34201D9348058
:10590000D4E773680320DB7A002B00D1B3E03CBC02
:1059100090469946A246AB46F8BD73681978914205
:10592000D7D159786A789142D3D19978AA7891429F
:10593000CFD1D978EA789142CBD119792A7991429D
:10594000C7D159796A799142C3D19979AA7991429B
:10595000BFD1E979DA799142BBD1197A2A7A914299
:10596000B7D1697A5A7A9142B3D1A97A9A7A914297
:10597000AFD1DA7A002ACAD15A461468A168CA7A25
:10598000D20678D5487D0A7D00020243C87E897E12
:105990000002120401430A43B26050E75B78220917
:1059A000013B1A42ABD1FFF77DFE012837D94346B0
:1059B000DB689842A5D25B461A68F060D36802386B
:1059C000023B984243D25178484391694118316172
:1059D00034806BE76246082A00D04CE703329446D5
:1059E0003A5C451C0821EDB2202A0FD928003AE77D
:1059F0001500613D192D01D8203AD2B25A544D1CE0
:105A00003A5CE9B2451CEDB2202AEFD801227F1999
:105A1000DA720023B1683380012900D034E7012015
:105A200075E7F160023B023999420ED2637859431F
:105A3000A3699C46614434E76169F160002900D1A3
:105A40002FE70239023B9942F0D3002129E70021D8
:105A50003161BDE7144A33801268D16800291ED035
:105A60001078032809D0F3605369002033619368EC
:105A700000221A704BE7042049E75369F360002BBA
:105A8000F3D0023B02398B420BD251784B439169E0
:105A90008C466344E9E7012501227F19B8E701201C
:105AA000E5E70023E1E7C04678190010F0B5474666
:105AB000CE46002380B5594F04008DB03B600028CE
:105AC00000D18CE0FFF706FDC30700D580E003AEF0
:105AD00000213000FFF752FE00239846012800D134
