:1000000000800010FD000000C54B0000CD4B00003B
:1000100000000000000000000000000071E7FEEF9B
:10002000000000000000000000000000D14B0000B4
:100030000000000000000000D54B000081370000E8
:10004000C94B0000C94B0000C94B0000C94B000060
:10005000C94B0000C94B0000C94B0000C94B000050
:10006000C94B0000C94B0000C94B0000C94B000040
:10007000C94B0000C94B0000C94B0000C94B000030
:10008000C94B0000C94B000005340000C94B0000FB
:10009000C94B0000C94B0000C94B0000C94B000010
:1000A000C94B0000C94B0000C94B0000C94B000000
:1000B000C94B0000C94B0000C94B00000000000004
:1000C000E8840000000100109C000000E8840000AB
:1000D0000000002000000000E88400000040002034
:1000E00000000000A0010010C43E0000000000203D
:1000F000000000000040002000000000F0B5454670
:10010000DE4657464E46E0B55D4A5E4B904683B0AC
:10011000934200D3B1E00722934607329246213240
:10012000914619001C6889685D680C331A0020002C
:1001300000292FD027005E462F4337407E4277416B
:10014000EE1D361BB245B641764201393E4200D122
:100150007FE089457DD28908481C9C4621004708DC
:10016000FF003F192E1B0094019573180C684D6811
:1001700008311C605D60B942F7D101210600009C86
:10018000019D8E43B100634664186D18B04201D0E2
:10019000216829609845C4D83B498A424FD2072339
:1001A0000139891A994313008C4608339C44012372
:1001B00090469A460023424606CA0800002A39D0D3
:1001C0005646551EAC080134A1468C0864423440A2
:1001D000172D4BD9002C3AD0042508C04E46361BAB
:1001E000B146A40009197408E40064180026002729
:1001F000C0C18C42FAD151464C468C43A1008B467B
:10020000290058445944A14514D00C1D0360A24252
:1002100010D904344360A2420CD904348360A24252
:1002200008D90434C360A24204D9143103618A425C
:1002300000D9436108229146C844E045BBD104F08F
:10024000F1FC124B002B13D000E000BFFEE70025AD
:10025000C4E78908261D890089192E1B05002D6811
:100260008419043025608842F8D193E70021CCE757
:1002700005F006FC04F012FCE8E71A008CE7C04623
:10028000E4000000C0000000FC00000000000000CE
:1002900010B5064C2378002B07D1054B002B02D05C
:1002A000044800E000BF0123237010BDA00100102E
:1002B00000000000E8840000044B10B5002B03D0C0
:1002C0000349044800E000BF10BDC0460000000024
:1002D000A4010010E8840000F0B55746DE464E4603
:1002E0004546E0B5D04C0022A54403AF3B00CF49C2
:1002F00069441A6008339942FBD1802500246D00BF
:10030000E000082200213818013405F0F3FBAC426C
:10031000F6D100F013FBC64801F0EEFD0122C54BFB
:100320001A700623C44A13800C22C44BFA50C44BE3
:10033000023AFA50C34A083BFA50C34BC34A190069
:1003400082310591591DFF31079119008731FF3125
:1003500009918221890059180B91BD4903935918BD
:100360000D91C321890059180F91BA49BA805918C3
:1003700011918221C9005918139144217A52B6492A
:10038000BA81591815914C217A52B449BA82591838
:10039000179154217A52B249BA83591819915C21A4
:1003A000BA84BA85BA86BA877A52C321C900591865
:1003B0001B9164217A52AB4959181D916C217A52D4
:1003C000A94959181F9174217A52A84959182191A5
:1003D0007C217A52822109018C4663442393842331
:1003E000FA5200F037FB002800D103E15823002225
:1003F000009300210020163300F032FB0028F0D0DB
:1004000000F054FA9A4B002000241C5F994B002501
:100410005D5F00F025FA002800D165E1944B944A15
:100420001B88103B1380022000F01AFA002800D12C
:1004300052E18F4B8E4A1B8810331380012000F04D
:100440000FFA002800D13FE18A4B8A4A1B88103BF3
:100450001380032000F004FA002800D129E1854B25
:10046000844A1B8810331BB21380814A0021515EDD
:100470008A1D1611BF2A13D8D81D021194469F2831
:100480000ED8704852006244844692006244925DE5
:10049000002A05D0764B21001C80764B1D802B0056
:1004A0000C1E04DA0022724900240A800021724ADC
:1004B000168832000B3AA24203DC31B20C006C4ABF
:1004C0001180181E03DA002300206A4A13806B4A49
:1004D000128892460E3A824204DC53461BB2180040
:1004E000644A1380664A12785508AC460025AB462C
:1004F000A44507DC6546751BA54200DB00E1961BA1
:1005000031B28B4600255F49A8460C7889466108C0
:10051000814207DC55466E1A864200DBECE0651B23
:100520002BB29846474E0C3604E0574B0C36A84485
:10053000B3421CD034005B4600250C3C9A42F4DDEB
:100540002178C9007858002869D04D462D78454556
:1005500059DC791808794D791B189342E5DA013492
:10056000A642EBD1484B0C36A844B342E2D1072354
:10057000464C00212380304B00201A88444B1A80BF
:100580006E22102300F072FF03230021202023801D
:1005900000F0CAFB3F4800F01DFE354B0020185EFE
:1005A000374B1B785A08904208DB334909888C1A6C
:1005B000A04200DCA9E05B1A181800B22D4B002104
:1005C000595E4B461A785308994208DB2B4C248815
:1005D000E51AA94200DC9AE0121B511809B22E4B11
:1005E00010220093102300F08FFD00F033FA002852
:1005F00000D0FBE60020294B9D443CBC9046994628
:10060000A246AB46F0BD7D1829796D798C46C91894
:100610008A4606D44146CD4242D553469DE7002541
:100620009DE753469BE7C046E4F7FFFF0C08000038
:100630001873000054150010120100100408000087
:10064000080800002C730000F26800001010000081
:100650008A0200008E0300009204000014050000CE
:10066000960500009A0600001C0700009E07000087
:10067000080100100A01001006010010040100101A
:100680001601001017010010B073000014010010D3
:1006900062150010E86800000E7000001C080000E1
:1006A0002A000091614603F081FC1A4B1A785346E8
:1006B00053E70521033000F0DDF8002800D0CEE636
:1006C000154B00229B5ED0E60521012000F0D2F8F8
:1006D000002800D0B8E6BCE60521022000F0CAF8E8
:1006E000002800D0A5E6A9E60521002000F0C2F808
:1006F000002800D092E696E6CB1A1BB2984611E786
:100700006446611A09B28B46FCE610B256E719B28C
:1007100065E7C046160100100A01001010B5024935
:10072000024804F013FB10BD5C2E0000BC01001059
:1007300010B501F023FE10BD474A484B117800293F
:1007400000D06DE01878002804D0FF2800D16CE0BC
:10075000FF311970517800295BD15878002803D0F7
:10076000FF285BD0FF315970917800294AD19878E1
:10077000002803D0FF284AD0FF319970D178002992
:1007800039D1D878002803D0FF2839D0FF31D9706B
:100790001179002928D11879002803D0FF2828D002
:1007A000FF3119715179002917D15879002803D0E8
:1007B000FF2817D0FF3159719279002A06D09A7913
:1007C0000132D2B2FF2A32D09A717047997900294A
:1007D000FBD0FF29F8D0FF22F6E759790131C9B2E1
:1007E000FF2927D05971E7E719790131C9B2FF29EB
:1007F00023D01971D6E7D9780131C9B2FF291FD0AA
:10080000D970C5E799780131C9B2FF291BD0997019
:10081000B4E759780131C9B2FF2917D05970A3E75D
:1008200019780131C9B2FF2913D0197092E7022259
:100830009A71CAE702215971BEE702211971B1E725
:100840000221D970A4E70221997097E7022159701B
:100850008AE7022119707DE7D0170010C00100104F
:10086000034B185C013843425841C0B27047C04640
:10087000C001001010B50C4B01290CD9185CFF28E1
:1008800007D005F0B3FAC8B2013841424841C0B2BE
:1008900010BD0020FCE71B5CFD220020013BDBB209
:1008A0009A424041C0B2F3E7C0010010002330B5C6
:1008B0001D491E4A08780B7053780224002B02D081
:1008C000012301340B70D578002D01D023000C706A
:1008D0001478002C03D004242343DBB20B709478EB
:1008E000002C03D008242343DBB20B701479002CB6
:1008F00003D010242343DBB20B705479002C03D0B7
:1009000020242343DBB20B709279002A03D04022CB
:100910001343DBB20B701900054A01409843054BA5
:100920001170187030BDC046BE010010D017001005
:10093000BD010010BF0100107047C04670B5012412
:10094000354B00201C7000F025FC344800F0CAFB39
:1009500002F01EFF02F048FF01F010FD02F03CFF24
:100960002122FF262E4B2F4D1A702F4B7F201C600B
:100970002E7001F04DFB7F222C4B2E701A80FFF75A
:10098000D7FEFFF7D9FE00F0CBF9294803F018FA9B
:10099000830736D40026012000F0FCFB254D2E8075
:1009A00000F0B0F9244C200000F09CFB012000F086
:1009B000F1FBFC22214BD20020001A8001242E8062
:1009C00000F090FB00231E4E1E4DFF2033702C7054
:1009D00001F01EFBFF2001F0A1FB002000F0DAFB7C
:1009E000194B1A481C701A4B34701C702C7000F094
:1009F00079FB01F08BFB0520FFF732FF002806D1C1
:100A000070BD210081430A4803F0FCF9C2E70020D1
:100A100001F084FBF4E7C046DD010010A473000080
:100A2000CC010010D4010010D0010010941500106A
:100A3000B40F0000561500100C7A00000C010010D5
:100A40000F0100101001001018010010A87600001E
:100A500019010010014B18787047C046DD010010E5
:100A600070B5050001F0FAFA02F0A2FE114B12492E
:100A70001A780B68114C1B1A934209D92368002B72
:100A80000BD1280000F05AF901230020236003E075
:100A900023680020002BF4D070BD1018084A0860AD
:100AA00013680133136000232360FFF745FE012024
:100AB000F2E7C046CC010010D8010010D0010010B0
:100AC000C801001010B5024800F0DAF810BDC046A9
:100AD000DC0100107047C04610B50400182104F076
:100AE000CBFF200010BDC04610B582B06B469C1DE8
:100AF000220003F013FD208802B010BD10B50020C5
:100B000003F098FD014B187010BDC046280200107C
:100B10000123812210B5084C82B05B420093200073
:100B2000064B0749520103F02FFF2000054A0649F2
:100B300004F052F802B010BDE0010010180C0000E3
:100B40002412000000010010D50A0000F8B54E463E
:100B5000DE4657464546E0B5424B81461B789C46EB
:100B6000984202DB013B1BB299463F4B1B78042B9A
:100B700047D0022B3FD1484603213C4A1278934686
:100B80005043C41721400918891089B2384A39489E
:100B90009246128800889046524610804A46002AA3
:100BA00039DD48466246121A9146002A18DD5A4637
:100BB000D0084343002B13D0002400222E4D0020E8
:100BC0000E00AF5D260001300131013480B289B2E0
:100BD000A4B2AF559842F3DB013292B24A45EEDB44
:100BE000264B5A460021595E0020634600F03EFC29
:100BF000534642461A803CBC90469946A246AB46B4
:100C0000F8BD4846194A12785043C10F09184910D7
:100C1000934689B2BAE76446A2B294464A4690B275
:100C2000A04217D25A465343DB1013D000260027A8
:100C3000114D002430002A5C0800013401360131D6
:100C4000A4B2B6B289B22A549C42F3DB0137BFB2D8
:100C50006745EED34B465A460021002000F006FCC3
:100C6000C6E7C046170100100E0100101601001063
:100C700014010010621500103002001066150010FB
:100C8000134B144A10B5040013481A6001F06CF8B5
:100C90000122124B12491A70124BDB321A70124B9E
:100CA0002C3A1A70114B124A200013601A78013244
:100CB0000A705B780F4A0133137011220E4B1A80B1
:100CC00000220E4B1A800E4B04321A7010BDC04623
:100CD0008815001030020010707D000060150010B3
:100CE0008C1500105A15001059150010A47300003F
:100CF0005C1500104F150010120100106215001055
:100D00000E01001010B5002001F0FAFC0023024A89
:100D10001380024A138010BD641500106615001080
:100D200010B501F007FE10BD024B1880024B198070
:100D30007047C046641500106615001010B50028F5
:100D400004D01C4B1B78002B0DD010BD1A4B1C6817
:100D500001F01AFC194B2000196802F04BFB154BEF
:100D60001B78002BF1D1164B164A197818880F23DF
:100D700012780B40012A17D0022A0ED0042A16D16D
:100D8000190119430C4B104A186804F0B3FE0023F4
:100D90000E4A13800E4A1380D7E703230B409900B5
:100DA00019430B011943EDE7FF210028EAD119008F
:100DB000E8E7C046541500108815001050150010C3
:100DC000621500100E0100101F13000064150010C2
:100DD00066150010F0B54546DE4657464E46E0B56E
:100DE000B44B8BB01B680191597805008846099077
:100DF000F720083944460140481E8141E010091897
:100E00000C0008911978614301314A4304329B1860
:100E10005A1C1B7805925BB20793002B00DC46E15D
:100E2000A54B089A1F78ABB29A46013306939BB242
:100E3000039353460293059B3900A04E47461D7805
:100E4000022A00D17DE001330593ADB2002F62D0BC
:100E5000039AB846531E1BB29A4613B20024994611
:100E60000F0027E0022F73D0954B1B78002B00D189
:100E7000B4E04346581E019B9C466B4608229A5E8E
:100E8000904B604404921A883388001B00B20F2BE9
:100E900006D85B009B4659468B4BCB5A934204D0F5
:100EA000049902F017FA844B1F78013464B26D087C
:100EB000A0452EDDEB07D5D4844B1A8833889A429F
:100EC000F3D0022F00D1ACE07D490978002900D190
:100ED00092E04146481E01998C466044001B01B2D5
:100EE000049169460820085E83460F2B06D85B00F4
:100EF0009C466146744BCB5A9342D6D059460498CF
:100F000002F0E8F901346C4B64B21F786D08A0451B
:100F1000D0DC390047466B461A8B039B0798023397
:100F20009BB20393099B0292D31A5BB2984200DCF6
:100F3000AEE0531C0693089A059B1D78022A00D048
:100F400081E71A005B781B021D43931C05937DE724
:100F5000019B67009C466744BBB20493594B3FB268
:100F60009B461A8833880F2B04D857495B005B5A7D
:100F7000934253D03900504602F0ACF95B461A88D0
:100F800033880F2B04D850495B005B5A934245D0FD
:100F90003900484602F09EF95B46049F1A88338860
:100FA00001373FB20F2B04D847495B005B5A93428D
:100FB00034D03900504602F08DF95B461A883388E8
:100FC0000F2B04D840495B005B5A934226D039006E
:100FD000484602F07FF9384B1F7866E76B460820D9
:100FE000185E019BE1180BB20493364B1A883388C4
:100FF0000F2B00D84DE753E769460820085E01999A
:10100000611809B28C460F2B05D82F495B005B5A3B
:10101000934200D149E7614602F05CF9264B1F7804
:1010200043E7019967008C466744B9B28B463FB2EB
:101030000F2B04D824495B005B5A9342EED0390051
:10104000504602F047F9214B1A8833880F2B04D8F9
:101050001D495B005B5A9342E0D039005F46484629
:1010600002F038F9194B01371A8833883FB20F2B39
:1010700004D815495B005B5A9342CFD039005046E3
:1010800002F028F9114B1A8833880F2B9AD99EE762
:101090000F0000200E4B1856079B9C466044784377
:1010A0000BB03CBC90469946A246AB46F0BD024B05
:1010B0001F78EEE75C1500101801001012010010F7
:1010C000581500100C01001068150010561500107E
:1010D0000F0100100F23024A034013807047C046DF
:1010E00014010010054B064A186003780133137091
:1010F0004378044A013313707047C0465C150010F2
:101100008C1500104F150010F0B5C64600B51D0037
:101110005B4207000C00160082B0994213DB1A4BA9
:101120001B7899420FDA534298420CDB174B1B781D
:10113000984208DA164B98461B78022B1BD0042BDA
:101140000ED0082B03D002B004BC9046F0BD089B23
:101150003200009321002B00380000F07BFDF2E705
:10116000089B3200009321002B00380000F028FC7F
:1011700043461B78E5E7089B00932B0000F062FBD9
:1011800043461B78DBE7C04617010010160100102C
:101190000E0100100A4B002808D001221A70094BDA
:1011A000DB321A70084B2C3A1A7070471870074BD4
:1011B0001A78044B1A70064B1A78034B1A70F4E72E
:1011C000601500105A150010591500101601001076
:1011D00017010010F0B5D6464F464646C0B5047814
:1011E0000500002C50D0714B714E9846714B724FD8
:1011F000994633680135DA78002A4AD0602C48D9FC
:10120000203CE4B20022B85E424619781278521AA5
:10121000904200DA6FE000223A80684A1278002A91
:101220002FD0674A92460021515E5A789446604614
:10123000644A40001278121A914200DD9AE00020C0
:10124000614A1056524660444118002009B211808C
:101250009A785E4BA21A1B78D2B292B2002B00D1C0
:101260009FE0FF231940FFF7B5FD202C55D14B46D9
:101270001B785BB2002B50D03B884010013018180F
:1012800038802C78002CB4D11CBC90469946A246DC
:10129000F0BD0A2C45D008D90D2C24D10022464B94
:1012A0001A802C78002CA4D1EEE7082CAAD1424A4F
:1012B000197810889B78401A80B21080404A00212B
:1012C000515E2022D21A414BD2B21B7892B2002B2F
:1012D0003DD0FF2319401840FFF77CFD2C78002CEF
:1012E00000D086E7D0E70E2C00D08BE72C78002CBE
:1012F00000D07EE7C8E7324A0021515E9A78334B2E
:10130000A21A1B78D2B292B2002B2DD1FF23194022
:10131000184000F071F9202CA9D03B8818183880AB
:10132000AFE70021244A1180254900228C5E5A78BB
:10133000244B50001B781B1A9C420EDD0020224BD0
:101340001856801800289CD0FFF700FC99E7FF236F
:101350001940184000F050F993E700201A4B185636
:101360008018001908808CE7FF2319401840FFF708
:1013700031FDD0E70020144A10566044002800D107
:1013800066E7FFF7E3FB53460021595E3368387880
:101390009A780E4BA21A1B78D2B292B2002B00D0D0
:1013A0005FE7FF23194000F027F9B4E75A15001052
:1013B0005C1500100F0100106415001019010010D9
:1013C000661500105915001010010010601500106E
:1013D0007047C04610B50C4B1B785B104B43411057
:1013E00059180A4B89B21B685C18595CC30704D5AD
:1013F0000F2399430A43227010BD0F2312010B40A3
:101400001A43D2B2F7E7C046160100108815001043
:10141000124B30B51B889A4219D0114C85B22378F3
:10142000AB4214D90F4C89B224788C420FD90F24C7
:101430005B1059430C4B40101B68091889B25818AF
:1014400022405B5CE90703D5A3431A43027030BD19
:101450001C40120122430270F9E7C046120100103D
:10146000160100101701001088150010F0B5DE46B7
:1014700057464E464546E0B5821887B012B200285E
:1014800000DAA9E0584C2478844201DC94426ADDF9
:10149000CB181BB200296DDB544C24788C4201DC44
:1014A0009C4260DD824269DA00B2140001909942E8
:1014B00068DD0AB219000392CB43E043DB17019ABF
:1014C000C0170B402040029390424CDA039A0493D9
:1014D000934200DD0492029B039A0093934200DA48
:1014E0000092434B07009C469846404C2378029A52
:1014F000934202D8039A93422FD93B4D2A78BA429D
:101500002BD983B299467B109BB29A46C3073CD431
:101510000F239B464B46049E81460597180000E02A
:101520002A78904213D22178B3B299420FD941461A
:101530005F4652105A4309682E4B524492B21B78B0
:10154000895C1B0139400B43414609688B54009B61
:1015500001369E42E4DD4846059F0130019B00B202
:1015600001378342C2D107B03CBC90469946A2469F
:10157000AB46F0BD002BF6DB824295DB04B2019254
:10158000994296DC09B2039396E70F2356469B4691
:10159000BA46049927004C46814600E02A78A242C8
:1015A00012D938788BB298420ED952105A436346FA
:1015B00058461B68B21892B29B5C83430D48008862
:1015C0000343604600688354009B01319942E5DD86
:1015D0003C0048465746C0E7002AC4DBCB181BB284
:1015E000002900DB58E7C5E71601001017010010BD
:1015F0008815001014010010F0B54E464546DE4631
:101600005746E0B5844B06001B68F7245D788DB023
:10161000280008382040441EA041EC1000190400A6
:1016200004901878019544430134624304329B18B6
:101630005A1C1B780692794A5BB203931378022BEB
:1016400001D001231370002E08DB002906DB58436C
:10165000734A80191278904200DAC5E0714A7248E4
:1016600012880488A24200D1BCE0704D7048008806
:10167000844200D1B4E06D4C0A9408AC0B95207103
:101680006271022B4CD0039B002B34DD0023994662
:1016900001339846069B8FB29B46BA46019F5B4634
:1016A0001D78049B022B33D001239C46ADB2E3444A
:1016B00052460024B24601924346082601992B4027
:1016C00009AA08A8D25C091980199B000134C358E3
:1016D00009B2504664B298476D08A742ECDA019B04
:1016E00056469A464B4601335BB29946039B0136F8
:1016F00036B24B45D3D100204E4B1856039B9C4627
:1017000060440DB03CBC90469946A246AB46F0BD45
:101710005B465B781B021D4302239C46E344C7E7FC
:10172000039B002B4CDDB3B205938BB202930023D5
:101730000793069A04991378022949D09BB29946D7
:1017400001320692059900260BB29B460B0001332D
:101750001BB29A464A4601230821134009AAD25CCB
:101760009B00904608AA5218D758029B74009C46CA
:101770006444A5B224B24246210058460135B84718
:101780002DB2424621005046B847424629005846ED
:10179000B847424629005046B8474B465B08994631
:1017A0000136019B76B2B342D4DA079B01335AB2B9
:1017B000059B079202339BB20593039B9342B8D1DA
:1017C00000201C4B1856039B9C466044400098E741
:1017D0001100527812021A438B1C91460693B1E70E
:1017E000154C49E7144D41E7019A144801325A4318
:1017F00000785218824200DB30E70A4A0A48128811
:101800000488A24206D00E4D094800888442E7D0E1
:101810000B4C31E7084DF7E75C150010180100107C
:101820001601001014010010120100101114000024
:10183000621500100F010010D113000017010010F5
:10184000D5130000F0B5DE46454657464E46E0B596
:101850009B46931085B01BB2984600910392002AD4
:1018600068DD83B2994600239A464B46D1469A4694
:1018700003274B463D004A46DB171D409B0FD218FD
:101880001740FF1A5B464D443FB2AD107F00002B5E
:1018900045DD53461BB25B109BB2C0260193062365
:1018A0003E41DF1B5346002476B2DB0749D40E9A33
:1018B0000023944665442A004546904642466B43C1
:1018C000D05C3A4B30401B883841834221D0C0B2B3
:1018D000FFF700FC364AA3B21278524519D9009995
:1018E0008C463449634409789BB2994211D952100D
:1018F0005343019A0F2094462F4A634411682F4A9C
:101900009BB212780291C95C12010840029902430D
:10191000CA54013424B22300A345CFDCA8464B4669
:1019200001331BB29946534601339BB29A46039B3F
:1019300099459DDB05B03CBC90469946A246AB4616
:10194000F0BD0E9A0023944665442A004546904611
:1019500042466B43D05C154B30401B88384198425F
:101960001ED0C0B2FFF7B6FB114BA2B21B78534595
:1019700016D900998C460F496244097892B2914277
:101980000ED95B105343019A0F2094460A4A6344D0
:1019900011689BB2CA5C8243084800880243CA545B
:1019A000013424B223005C45D2DBB7E712010010FA
:1019B0001601001017010010881500101401001006
:1019C000F0B5DE4657464E464546E0B58DB0169C0E
:1019D0000092002900DA1AE19A4DCA182D78029275
:1019E000AA4200DDBDE00BB29C461A00002800DAD6
:1019F000BEE0954D009B2E781B180595B34200DD87
:101A00000FE1002345100393089307937610714369
:101A10008E4B49191B685B1802998A4257DA0121DB
:101A20000D000540069505B20195009D039EA84650
:101A3000874F4044861BB946B846B2460D4081499F
:101A40000995049104990978914240DD069A019D17
:101A5000002A00D0A3E0554500DBD4E0039A002A19
:101A600045D108E08243023511432DB2197001348B
:101A70000133AA4518DD4046217806881A780811F6
:101A8000864206D00F20024093460A008243584601
:101A900002430F200140B142E4D102352DB21A7049
:101AA00001340133AA45E6DC079A00999346059A6A
:101AB0005C441278521A089952108B465A449B186B
:101AC00062460299013212B294468A42BADB0DB0E4
:101AD0003CBC90469946A246AB46F0BD81430235D8
:101AE0000A432DB21A7001340133AA451DDD484660
:101AF00021786278090112110A430688D2B2197856
:101B00001011864206D00F2001408B461100814300
:101B1000584601430F200240B242DFD102352DB2B8
:101B2000197001340133AA45E1DC099A002A15D065
:101B30000F21474A25781288294091420ED00F2064
:101B400019780AAAD171D1792D010140D171D179C9
:101B500007320D43EDB2157012781A70013401335B
:101B6000A2E70AB2EB1894460293002800DB40E794
:101B7000022543001D40009B039598468044434640
:101B800040424010009303B2984607932E4B002525
:101B90001E780593002300204444089336E75545FA
:101BA0001BDA1A78217838880E11B04202D00F2043
:101BB000824332430F261A70388801330E401A7858
:101BC00086421AD00F20090102400A430235D2B2E0
:101BD0002DB21A7001345545E4DB039A002A00D176
:101BE00062E71B482278058819781211AA4202D0B0
:101BF0000F2081431143197056E702352DB201348D
:101C00005545CFDBE9E7039A002A8ED14CE7CB1884
:101C10000293531059430023641A00229C4600216A
:101C2000E4E6022745002F4001250540A8469B1BFE
:101C30005B1043441BB20793331A08950397009334
:101C40004510E3E61701001016010010881500107A
:101C500012010010F0B54E464546DE465746E0B547
:101C600085B0914680461A000E9B00296ADB8818D1
:101C7000824639480078824551DC0AB29446140005
:101C80004246002A52DB354A0025107803924A4624
:101C900042440195824207DD4246121A4A4412B27A
:101CA00001924246821A914641432D4A41441268AC
:101CB0005118A2452CDD424612B20292264A4F46E6
:101CC00093464546274847445A461278A2421FDDAC
:101CD000029ABA420DDAA846EE1A1D780488AC4280
:101CE00000D00D7001339A1912B201319742F4DC21
:101CF00045464C46019A9046039A43441278121B7B
:101D000089186246013212B2944614005245DBDB58
:101D100005B03CBC90469946A246AB46F0BD824613
:101D2000924442460CB2A446002AACDA504202B2B7
:101D3000C14401929046094A43441078039200221C
:101D40009046B1E792464A468A44514300225B1AC4
:101D500000249446002193E717010010160100109B
:101D60008815001012010010427801789210C910F5
:101D7000C90252010A4381785D4BC9100A431A8097
:101D8000C2784179D210C910D2020A430179891070
:101D900049010A435A808279017AD210C910D202CD
:101DA0000A43C179891049010A439A80427AC17A6B
:101DB000D210C910D2020A43817A891049010A431C
:101DC000DA80027B817BD210C910D2020A43417BA8
:101DD000891049010A431A81C27B417CD210C91083
:101DE000D2020A43017C891049010A435A81827C4C
:101DF000017DD210C910D2020A43C17C8910490169
:101E00000A439A81427DC17DD210C910D2020A4391
:101E1000817D891049010A43DA81027E817ED210D8
:101E2000C910D2020A43417E891049010A431A822D
:101E3000C27E417FD210C910D2020A43017F8910AD
:101E400049010A4320215A82827F415CD210C91085
:101E5000D2020A43C17F891049010A439A82212292
:101E60002321825C415CD210C910D2020A43222194
:101E7000415C891049010A43DA8224222621825CCE
:101E8000415CD210C910D2020A432521415C89105D
:101E900049010A431A8327222921825C415CD2101E
:101EA000C910D2020A432821415C891049010A4322
:101EB0005A832A222C21825C415CD210C910D202A2
:101EC0000A432B21415C891049010A439A832D2240
:101ED0002F21825C415CD210C910D2020A432E210C
:101EE000415C891049010A43DA83024A1360704752
:101EF00068150010501500100200264B1A43920777
:101F000026D1C21CD21A062A22D902681A80120CC3
:101F10005A8042689A80120CDA8082681A81120C08
:101F20005A81C2689A81120CDA8102691A82120CF3
:101F30005A8242699A82120CDA8282691A83120CDE
:101F40005A83C2699A83120CDA83134A136070476A
:101F500002881A8042885A8082889A80C288DA80F1
:101F600002891A8142895A8182899A81C289DA81D9
:101F7000028A1A82428A5A82828A9A82C28ADA82C1
:101F8000028B1A83428B5A83828B9A83C28BDA83A9
:101F9000DBE7C046681500105015001010B50B495E
:101FA0000B780133DBB2072B0CD80948C25C501107
:101FB00014005309074A105C074A0B70148001F0A3
:101FC00011FB10BD7F200723E024F5E78D150010DD
:101FD000A07D0000A87D00009415001010B5084AEF
:101FE0001378002B01D0013BDBB20649CB5C0649DC
:101FF0000B805B111370054AD05C01F0F3FA10BD41
:102000008D150010A07D000094150010A87D000023
:1020100010B5021CFF2800DDFF2213B2DB43DB17E3
:102020000A4913400A4A138000200B5E0A88DB43EA
:10203000DB1713401AB20B805311064A1370FF22AC
:102040001340054AD05C01F0CDFA10BD9415001084
:102050001A0100108D150010A87D000070B5224DEA
:10206000224C2A6823689A4225D02368002B1CD072
:102070002368012B31D0802123680901022B28D04D
:102080001B48FEF731FD8020000184462368194972
:1020900019482B600B68634484461A000B60174B89
:1020A0001B6A634493420FD370BD80211448090119
:1020B000FEF71AFDE7E71048104B84460D491B6AEE
:1020C0000A6863449342EFD200230B60FEF716FDCB
:1020D000EAE70C48FEF708FDD5E780210A48090128
:1020E000FEF702FDCFE7C046F4370010E8370010D6
:1020F000E8270010FC3F001000F8FFFFF801001077
:10210000E82F0010E81F0010E817001010B501F0CC
:1021100031FB012001F086FA10BDC0460300C04328
:10212000C0171840064B10B51880064B40111870A8
:10213000FF231840044B185C01F054FA10BDC04650
:10214000941500108D150010A87D000010B50248F0
:10215000FEF7F2FB10BDC0469C1500100122014B9A
:102160001A717047D01700100022014B1A71704786
:10217000D01700100122014B5A717047D017001080
:102180000022014B5A717047D01700100122014BF9
:102190009A717047D01700100022014B9A71704756
:1021A000D01700100122014B5A707047D017001051
:1021B0000022014B5A707047D01700100122014BCA
:1021C000DA707047D01700100022014BDA707047A8
:1021D000D01700100022014B9A707047D0170010E2
:1021E0000022014B1A707047D017001010B5054B34
:1021F0009A79002A02D101229A7010BDFFF7CEFE13
:10220000FBE7C046D017001010B5054B9A79002A9D
:1022100002D101221A7010BDFFF7E0FEFBE7C046B5
:10222000D017001010B5044802F05AFB0122034BEE
:102230001871034B5A6210BDA0150010D017001082
:10224000004000A010B5044802F04AFB0222034BF4
:102250005871034B5A6210BDF0150010D0170010D2
:10226000004000A010B5044802F03AFB0422034BE2
:102270009871034B5A6210BD40160010D017001021
:10228000004000A010B5044802F02AFB0822034BCE
:102290005870034B5A6210BD80170010D017001001
:1022A000004000A010B5044802F01AFB1022034BB6
:1022B000D870034B5A6210BD90160010D017001052
:1022C000004000A070B5114802F00AFB104CA0714C
:1022D000104802F005FBA379C0B22070002B01D09A
:1022E000002806D100220C4B1A7020220B4B5A6298
:1022F00070BD094D2B78002B04D0002323700133CF
:102300002B70F2E7FFF76AFEF7E7C04640160010B1
:10231000D0170010E0160010D9170010004000A0E0
:1023200070B5114802F0DCFA104CA071104802F0B0
:10233000D7FAA379C0B2A070002B01D0002806D133
:1023400000220C4B1A7040220B4B5A6270BD094D93
:102350002B78002B04D00023A37001332B70F2E7FD
:10236000FFF71CFEF7E7C04640160010D01700101C
:1023700030170010D9170010004000A010B52E4CE7
:102380002E49200002F0D4FA20002D4902F0BEFAB6
:102390002C4C2D49200002F0CBFA20002B4902F0F2
:1023A000B5FA2B4C2B49200002F0C2FA20002A4932
:1023B00002F0ACFA294C2A49200002F0B9FA2000B8
:1023C000284902F0A3FA284C2849200002F0B0FA6C
:1023D0002000274902F09AFA264C2749200002F0F3
:1023E000A7FA2000254902F091FA254C2549200042
:1023F00002F09EFA2000244902F088FA00202349C6
:1024000002F0F0FB0120224902F0ECFB02202149FE
:1024100002F0E8FB0320204902F0E4FB04201F49FE
:1024200002F0E0FB05201E4902F0DCFB06201D49FE
:1024300002F0D8FB10BDC046A015001069210000B5
:102440005D210000F01500108121000075210000C1
:1024500040160010992100008D2100008017001007
:10246000B1210000A521000090160010C921000034
:10247000BD210000E0160010E1210000092200004B
:1024800030170010D5210000ED21000025220000AA
:10249000452200006522000085220000A5220000E0
:1024A000C52200002123000070B52648FEF7E8FB96
:1024B000254E2649300002F0EFF9254D254C2A0023
:1024C0002100300002F088FB234E2449300002F046
:1024D000E3F92A002100300002F07EFB204E214962
:1024E000300002F0D9F92A002100300002F074FB1C
:1024F0001D4E1E49300002F0CFF92A0021003000A5
:1025000002F06AFB1A4E1B49300002F0C5F92A009E
:102510002100300002F060FB174E1849300002F035
:10252000BBF92A002100300002F056FB144E154979
:10253000300002F0B1F92A003000210002F04CFB1B
:1025400070BDC046D8170010A015001084120100FD
:102550000001001015480000F0150010700801007F
:10256000401600108814010080170010941A010012
:10257000901600106C060100E0160010C432010035
:10258000301700107C0E0100F0B54A4857464E4601
:102590004546DE468046A0238A22E0B504278025F2
:1025A000444618201B0692019F5043499246434ED1
:1025B000434A6D049D505E501851424800248446A1
:1025C0008020654640015C505851C046C046843D5D
:1025D0009850A9465F5180256D049D503A4D5E503C
:1025E000AB4645465E465E5165465C505851C04616
:1025F000554698505F5180256D049D5080256D0093
:10260000AB462E4E45465E505E465E5165465C507A
:102610005851C046C0464D4698505F5180256D04C4
:102620009D504546254E5E505C5165465C50585164
:10263000C046554698505F5180256D049D508425B5
:102640006D00AB465E5045465E465E5165465C5049
:102650005851C046C0464D4698505F5180256D0484
:102660009D504546154E5E505C5165465C50585134
:10267000C046554698505F5180256D049D50882571
:102680006D00AA465E50454656465E515C50644613
:102690001851C046C0464C4698501F518024074EE2
:1026A00064049C5098505E503CBC90469946A246AB
:1026B000AB46F0BD88210000882000000700F8FF2D
:1026C0000422000084220000C081000080230B4A05
:1026D0009B00D25810B5031C642800D96423D8B2DB
:1026E0006421504303F0FCFA81220421034B920041
:1026F00098505A688A435A6010BDC04600C00050C6
:10270000F0B557464546DE464E46A0238A22E0B540
:10271000042580271B06920183B000903C4C9D50FD
:1027200092463C493C4A7F045F5090461A513B4ACE
:102730003B4894468022654652005A5100221A5165
:10274000802252011A50C046C04688260425B60190
:102750005A50B1469D5146465F5000251E5166466F
:102760009D5100261E511A50C046564604355A50F7
:102770009D5146465F501E5184267600B3466646FC
:102780005F469F5100261E511A50C046C0464E4615
:1027900080275A5001959D5146467F045F50002581
:1027A0001E5166469D5100261E511A50C04656467F
:1027B000019D5A509D5146465F501E518826760015
:1027C000B246664657469F5100261E511A50C046D3
:1027D000C04646465A501E51009EF600B046664618
:1027E00047469F51002680271E514C467F041D51AD
:1027F0000C4C5F505A501A50C046013C5A50002CA5
:10280000F9D103B03CBC90469946A246AB46F0BD18
:1028100088200000042200000700F8FF8821000043
:102820008422000040970000F0B557464E464546CA
:10283000DE46A0228A23E0B50427802612069B01EB
:10284000D75036499A463648364B76041650884655
:10285000D150354900258C468021644649001151EC
:102860008021324C4901D5501151C046C046843CAC
:102870001150A146175144461650D4506446155184
:102880002A4CD5501151C046544611501751444658
:102890001650D45084246400A34664465E46165104
:1028A000224CD5501151C046C0464C46802611508E
:1028B0001751444676041650D450644615511B4CAB
:1028C000D5501151C0465446115017514446165028
:1028D000D45088246400A246644656461651134CD0
:1028E000D5501151C046C04644461150D45064469C
:1028F00080261551D5504B467604D7500B4C0C4BC7
:10290000165011501151C046013B1150002BF9D106
:102910003CBC90469946A246AB46F0BD0700F8FF86
:10292000042200008820000088210000842200008A
:102930004097000080208022F8B5DE4657464E467C
:102940004546EC4B12061958E0B50A431A5080224E
:102950005968920011435960FC210324E64801277D
:10296000435880269B0A9B022343E44C4350216832
:10297000E34B76010B430C2123606368E1480B4372
:102980006360A123DB00E750DF4B0A39E150C1232C
:102990009B00E650C021012389005B4263500C314B
:1029A000605004396350D94B6421A350A358D84DCB
:1029B0001801C01A400003F093F9812304229B0000
:1029C000E0506368924693436360A02424066751F5
:1029D0000A2002F0DBF8CF4A0A20A750914602F005
:1029E000D5F867510A2002F0D1F88A2351469B019D
:1029F000E15080210823002249046151C64F8B46D3
:102A0000C648C749E05190466350E2514A469C4649
:102A1000A650C046C0465346843A6651A3505B4612
:102A20008E22635143461201E0516250E3514B46FE
:102A3000E650C0468A22534692016651A3505B4637
:102A4000102263514346E0516250E3514B46E65039
:102A5000C046C0468822534692016651A3505B4649
:102A60008022635143461201E0516250E3514B46CC
:102A7000E650C0468A22534692016651A3505B46F7
:102A8000182263514346E0516250E3514B46E650F1
:102A9000C046C0468822534692016651A3505B4609
:102AA000635143469F4AE0516250E3514B46E65022
:102AB000C0468A22534692016651A3505B4640228B
:102AC00063514346E0516250E3514B46E650C046E5
:102AD000C0468822534692016651A3505B4663511B
:102AE0004346914AE0516250E3514B46E650C0469E
:102AF0008A22534692016651A3505B46602263517D
:102B00004346E0516250E3514B46E650C046C04652
:102B10008822534692016651A3505B466351434657
:102B2000E0516350E3514B46E650C0465346803275
:102B30006651A3505B46782263514346E051625090
:102B4000E3514B46E650C046C046882253469201A8
:102B50006651A3505B4663516346E0516350434660
:102B6000E3514B46E650C046534680326651A3506F
:102B70005B46635180235B00E05163504346E35161
:102B80004B46E650C046C0465146843B6651E15034
:102B90005946434661516249E0516350E3514B4607
:102BA000E650C04653466651A3505B4663518423AA
:102BB0005B00E05163504346E3514B46E650C0464C
:102BC000C0465146843B6651E1505B4663514346E3
:102BD0005349E0516350E3514B46E650C0465346DB
:102BE0006651A3505B4663518023E05163504346D6
:102BF000E3514B46E650C046C0465046843B6651C2
:102C0000E0505846434660514448E0516350E35118
:102C10004B46E650C04653466651A3505B4663514F
:102C20008823E05163504346E3514B46E650C0468B
:102C3000C0465246843B6651E2505B466351802356
:102C40001B02E05163504346E3514B46E650C046F9
:102C50000A20665101F09AFF8A2253469201A3503E
:102C60005B466351C0232D482D495B00E051635002
:102C70004346E3514B46E650C046C0465046843B6F
:102C80006651E0505846434660512448E051635035
:102C9000E3514B46E650C04653466651A3505B464F
:102CA0006351C4235B00E05163504346E3514B46FC
:102CB000E650C046C0465146843B6651E1505946F5
:102CC000DB2361511649DB00E0519C4663504346CB
:102CD000E3514B46E650C04653466651A3505B460F
:102CE000C822635143465200E0516250E3514B46C3
:102CF000E6501BE0008004400040044000C000504B
:102D000001000600011000000C050000204E00002C
:102D10000422000084220000882000000700F8FF41
:102D2000882100008081000040400000C046C0466D
:102D30008822534692016651A3505B466351434635
:102D4000E0516350E3514B46E650C0465346803253
:102D50006651A3505B46CC22635143465200E0517A
:102D60006250E3514B46E650C046C0468822534667
:102D700092016651A3505B4663514346E051635054
:102D8000E3514B46E650C046534680326651A3504D
:102D90005B46D022635143465200E0516250E351FA
:102DA0004B46E650C046C0468822534692016651C3
:102DB000A3505B4663516346E05163504346E35181
:102DC0004B46E650C046534680326651A3505B46A0
:102DD000D422635143465200E0516250E3514B46C6
:102DE000E650C046C0468822534692016651A35021
:102DF0005B4663514346E0516350E3514B46E65016
:102E0000C046534680326651A3505B46D822635178
:102E100043465200E0516250E3514B46E650C046F3
:102E2000C0468822534692016651A3505B46AF22AA
:102E300063514346D200E0516250E3514B46E650A5
:102E4000C0468A22534692016651A3505B46DC225B
:102E5000635143465200E0516250E3514B46E65005
:102E6000C046C0468822534692016651A3505B4635
:102E700063514346E0516350E3514B46E650C04630
:102E8000534680326651A3505B46E022635143466D
:102E90005200E0516250E3514B46E650C046C046F6
:102EA0008822534692016651A3505B4663516346A4
:102EB000E0510A0063504146E15149466650C04620
:102EC0008A2351469B016651E1505946E4236151E2
:102ED00041465B00E051A350E15149466650C0466F
:102EE000C046534684396651635059466151414644
:102EF000E051A150E15149466650C0460A20665152
:102F000001F044FE8A2351469B01E1505946FF23BC
:102F100042466151E248E349DB00E0516350E2512F
:102F20004A469C46A650C046C0465346843A66511F
:102F3000A3505B46182263514346E0516250E3516F
:102F40004B46E650C0465246043B6651E2505A4654
:102F50006251A0229200E05162504246E2514A463C
:102F6000A650C046C0465046843A6651A0505846C6
:102F7000CD4A6051CA48E05162504246E2514A4649
:102F8000A650C04652466651E2505A466251A222AD
:102F90009200E05162504246E2514A46A650C04675
:102FA000C0465046843A6651A0505846BF4A6051C8
:102FB000BB48E05162504246E2514A46A650C046E4
:102FC00052466651E2505A466251A4229200E051A4
:102FD00062504246E2514A46A650C046C04651465B
:102FE000843A6651A150594628226151AD49E051B9
:102FF00062504246E2514A46A650C0465246665189
:10300000E2505A466251A6229200E0516250414677
:10301000E15149466650C046C04688225146920159
:103020006651A15059469F4A6151A149E051A150B2
:103030004246E2514A46A650C04652466651E250C8
:103040005B46A8226351974B9200E0511900E25071
:103050004346E3514B46E650C046C046882253469D
:1030600092016651A3505A466251924AE051625011
:103070004246E2514A46A650C046043A6651A35021
:103080005B46AA22635143469200E0516250E351ED
:103090004B46E650C046C0465246843B6651E2501D
:1030A0005B4663511823E05163504346E3514B465E
:1030B0000A00E650C0465346F8326651A350AC228F
:1030C0005B4692006351E05162504246E2514A46EB
:1030D000A650C046C0465346843A6651A3505A464D
:1030E00043466251744AE0516250E3514B46E65008
:1030F000C0465146043B6651E15059466151E0518A
:10310000AE204146674B8000E050E1514946665091
:10311000C046C0468820514680016651215059461C
:10312000615141465E48E0516448E050E1514946F2
:103130006650C0465146F8336651E15059465848EA
:103140006151E051B0204146564B8000E050E151C2
:1031500049466650C046C0468820514680016651A7
:10316000215059464E4861515149E051E150414684
:10317000E15149466650C046534604396651635092
:1031800059466151B221474B8900E051E150414617
:10319000E15149466650C046C0465346843966519F
:1031A000635059466151E05101003E482250424669
:1031B000E2514A46A650C0468A2352469B016651B8
:1031C000E2505A466251B022D200E15122504246AA
:1031D000E2514A46A650C046C0465346843A66511C
:1031E000A3505B4663514346354AE1512250E351B7
:1031F0004B46E650C0465246043B6651E2505A46A2
:1032000063466251E1510A00235001004046E051FB
:1032100048462650C046C04653468438665123501F
:103220005B4663514346E2516350E3514B46E650DF
:10323000C0465046043B6651E05058463823605122
:103240004046E2516350E05148462650C046C046D1
:103250005346843866512350584660514046194BB6
:10326000E2516350E05148462650C046C82066519E
:1032700001F08CFC8A2350469B01E0505B46635171
:103280008823074A07495B00E25163504346E351F4
:103290004B46E650C046C0466651FFF7C5FA13E0FC
:1032A0000700F8FF882100001810000048500000B7
:1032B0000881000010300000183800003828000095
:1032C00008280100B88000003CBC90469946A24600
:1032D000AB46F8BDF0B5DE4657464E46454680B291
:1032E0009346E0B5DB2874D88BB2AF2B71D804229B
:1032F0009246A0238A22544680251B0692019C50A8
:103300008022374C6D041D51364EA946364D520071
:103310009D51A846354D5A510022AC4680259A5100
:10332000334A6D019D50C046C04688275246BF01B2
:103330001D51DA514A461A5142469A516246C90015
:10334000995000222A499A515D50C046524604398C
:103350001D515A504A461A51424684219A5162469A
:1033600049009950002222499A515D50C046C046FA
:1033700052461D51DA514A461A5142469A51624606
:10338000C0009850002208009A515D50C046524635
:1033900004391D515A504A461A51424688219A51C1
:1033A00062464900995000229A511D50C046C046BD
:1033B00052461D51DA514A461A5142461D519A5100
:1033C0005A46D1006246995000229A511D50C0467B
:1033D0001D513CBC90469946A246AB46F0BDC04646
:1033E00004220000882000000700F8FF8821000068
:1033F00084220000030010B50800190000F028FD29
:1034000010BDC04602225C4BF0B519680A4200D1DB
:10341000F0BD1A6001235948594A5A490370096896
:1034200013688B4200D19CE057490978002900D0ED
:1034300081E0591C11601A78544B197801230B4014
:10344000037000D181E05248524C03682568591C32
:1034500001601B78DBB2A94212D34F490D680135D8
:103460000D600D68042D01D100250D6009684B4DDC
:10347000C90249190160802000018446614421602D
:103480009A18803A464B1B785BB2002B65D0FF2A16
:103490005FDDFF220321CB1ADA40FF23D1B21340B4
:1034A0004048414E0170414D3178414C695C4B437D
:1034B00001210F001B0A1F4027703E4F5C100C407B
:1034C0003C703D4F9C100C403C703C4FDC100C405D
:1034D0003C703B4F1C110C403C705C11394F0C4050
:1034E0003C709C112140384CDB1121703749DBB214
:1034F0000B703378E95C364B51431C6880239B008A
:10350000E358090A4B4381211B0A89006350037861
:1035100030499A180888304B304C52081A8022548F
:103520008022431C9BB20B805200934200D06FE775
:1035300000230B806CE72A490C78651C0D70002C69
:1035400011D11A780F239A4376E700299AD07F2366
:1035500096E7D143C9170A409CE7002300210022C7
:103560009EE77F2268E75C1C14601A780023120132
:10357000D2B20B7060E7C04600400140004000102E
:10358000901500109815001096150010E417001003
:10359000EC370010F0370010E8370010E817001083
:1035A0001C010010DA1700108D150010B07D00000E
:1035B0003C0000A03D0000A03E0000A03F0000A095
:1035C000540000A0550000A0560000A0570000A025
:1035D000DC170010F83F0010FA3F0010F837001019
:1035E0008E15001010B543B20C4C8EB0002B12DBC0
:1035F0002070812168460A4A090100F079F9227891
:103600005E21684600F00EFA2478684600F008FA59
:1036100020000EB010BD7F232370EAE7DB170010F7
:10362000140A0000A0221206002804D08021044BB6
:103630008902D15070478021024B8902D150F9E7AD
:10364000042200008422000070B5002858D0802297
:10365000802334499B008858334C03438B50334BB1
:1036600062681868002363600133A36001336360FC
:10367000A368002BFCD162600822FA21636949012A
:103680001343636102F02CFB1022E0616369802523
:103690001343636163680F3A13436360C023244C90
:1036A000ED025B00E5501220224901F09BFA8023D5
:1036B000214A25601360214A21481360214A136082
:1036C000214A1360214A1360214A1360214A136082
:1036D000214A1360F023214A1B0611680B43136033
:1036E000F0231F4A1B0411680B431360A0238021A1
:1036F0001B061A5889020A431A501A4A995070BD7B
:10370000194C1A49200001F09DFE20000F2101F004
:10371000C1FF2000164901F08DFF1E20FEF7D6FFE5
:1037200095E7C0460080044000400140340100108D
:1037300000E100E005340000DC400440D8400440D3
:1037400004200000D4400440D04004404C410440D8
:10375000484104404441044040410440042000A04A
:10376000082000A004220000DC17001040270200FF
:10377000CDCCCC3D10B50020FFF766FF10BDC04694
:10378000024A1368643313607047C0460440001057
:10379000044B054A07215A6000229A601960034BC6
:1037A0001A60704710E000E0FF3D4900044000103F
:1037B000054B9868054B1A68054B1B1A05485B0AB0
:1037C0005843000C8018704710E000E004400010DF
:1037D000FF3D4900BB02000010B5002001F07AF95E
:1037E00002F038FA10BDC046A023802104201B0639
:1037F00089015A5810B502435A508021294A49017B
:103800009858014399508021985849040143012058
:1038100099509958014399502349244A58580243D2
:103820005A502348002101F0D7FD0021214801F022
:10383000D3FD0021204801F0CFFD00211F4801F0F9
:10384000CBFD00211E4801F0C7FD00211D4801F0FD
:10385000C3FD00211C4801F0BFFD00211B4801F001
:10386000BBFD00211A4801F0B7FD0021194801F005
:10387000B3FD0021184801F0AFFD0021174801F009
:10388000ABFD0021164801F0A7FD0021154801F00D
:10389000A3FD0021144801F09FFD0021134801F011
:1038A0009BFD10BD0420000008200000F8FF070069
:1038B0000007020004090200080B02000C0D0200C0
:1038C000100F020014110200181302001C15020050
:1038D0002017020024190200281B02002C1D0200E0
:1038E000301F020034210200382302003C25020070
:1038F000F0B5C64604000D0000B5160000211822E0
:1039000002F0F8F8290025002000183501F070F8C1
:1039100018220021280002F0EDF83100280001F003
:1039200067F80121280001F0CFFA0421280001F0F6
:10393000C5FA0121200001F0C7FA0421200001F09E
:10394000BDFA00223023E2542F3B6363012128009B
:1039500001F0BAFA0121200001F0B6FA2368013320
:1039600048D0E36862681A60A36901334DD0A36A46
:10397000E26904251A60606B01F018F9264E274BA6
:10398000370098460121200001F09EFA606B01F09B
:103990000DF92368013327D0236962681A60606BD0
:1039A00001F004F9A369013318D0636AE2691A606F
:1039B000606B01F0FBF82368013309D0E3686268AB
:1039C000013D1A60002DDDD1200004BC9046F0BD01
:1039D00024221149114800F0FDFFEFE724223900AD
:1039E0000E4800F0F7FFE0E724223100404600F0E7
:1039F000F1FFD1E724220849084800F0EBFFE36813
:103A000062681A60A3690133B1D1242202490348D4
:103A100000F0E0FFABE7C046B87D00001C7E000070
:103A20007047C046F8B50123DE46574645464E4628
:103A300004009943E0B588460121170001F044FADB
:103A4000606B01F0B3F8A369013300D19BE1636AB5
:103A5000E2691A602368013300D18EE1E36862688D
:103A60001A60606B01F0A2F82368013300D17EE197
:103A7000236962681A60606B01F098F8A3690133EA
:103A800000D16EE1A36AE26908251A60606B01F05B
:103A90008DF80121200001F017FAC74B9946C74B5A
:103AA000CA469B460126606B013D01F07FF8AE409F
:103AB00043461E402368013300D108E1002E00D1A7
:103AC00001E1E36862681A60A369013300D1F4E0A0
:103AD000636AE2691A60606B01F068F8A3690133F8
:103AE00000D1DEE0A36AE2691A60002DDAD1236812
:103AF000013300D12FE1E368626801211A602000E0
:103B000001F0E2F92368013300D11EE1E368626845
:103B10001A60A369013300D111E1636AE2690021EF
:103B20001A60200001F0D0F90421200001F0C6F94C
:103B3000606B01F03BF8A369013300D1F9E0A36A9F
:103B4000E2691A602368013300D1ECE063696268BE
:103B50001B681A4200D1C4E00121200001F0B4F931
:103B6000954B08259846954BC1469A460126013D3E
:103B7000AE40606B01F01AF823683E40013300D17B
:103B800089E0002E00D182E0E36862681A60A369D0
:103B9000013300D175E0636AE2691A60606B01F07D
:103BA00005F8A369013360D0A36AE2691A60002DA9
:103BB000DCD12368013300D197E0E368626801211A
:103BC0001A60200001F080F92368013300D1A4E0DD
:103BD000E36862681A60A369013300D197E0636A01
:103BE000E26900211A60200001F06EF90421200032
:103BF00001F064F9606B00F0D9FFA369013300D1D3
:103C00007FE0A36AE2691A602368013300D172E0A1
:103C1000636962681B681A425FD00121200001F0CD
:103C200053F9606B00F0C2FF2368013300D1BCE0A0
:103C3000236962681A60606B00F0B8FFA369013302
:103C400000D1ACE0636AE2691A60606B00F0AEFF1D
:103C50002368013300D19CE0E36862681A603CBCD1
:103C600090469946A246AB46F8BD24225249534895
:103C700000F0B0FEA36AE2691A60002D00D075E77B
:103C800097E7242249464D4800F0A4FE83E72369C4
:103C900062681A607BE724224146504600F09AFE93
:103CA0006FE724224449454800F094FEA36AE26984
:103CB0001A60002D00D0F5E619E7242251463F484E
:103CC00000F088FE04E7236962681A60FCE624229B
:103CD0004946584600F07EFEF0E6606B00F066FF55
:103CE0009BE7606B00F062FF36E7242232493348DD
:103CF00000F070FE61E72C222F49304800F06AFE88
:103D000086E724222C492D4800F064FE79E724221E
:103D100029492A4800F05EFE61E724222649274807
:103D200000F058FE54E72C222349244800F052FEAC
:103D30000CE724222049214800F04CFEFFE6242213
:103D40001D491E4800F046FEE7E624221A491B489A
:103D500000F040FEDAE624221749184800F03AFE47
:103D6000C9E624221449154800F034FE8AE62422CC
:103D70001149124800F02EFE7AE624220E490F481F
:103D800000F028FE6AE624220B490C4800F022FECF
:103D90005DE624220849094800F01CFE5CE7242265
:103DA0000549064800F016FE4CE724220249034864
:103DB00000F010FE3CE7C046B87D00001C7E00000D
:103DC0003E2310B58AB005936B46DC1C0123FA2113
:103DD00008930A4B069089001868079401F080FF49
:103DE000099072B6064B01A905A8984762B6019BD7
:103DF000002B02D120780AB010BDFEE7340100107C
:103E0000F11FFF1F10B58CB06B46D971FA213D220E
:103E10000124073309930B4B089089001868079217
:103E20000A9401F05DFF084B0B905C6072B6074B83
:103E300003A907A8984762B6039B002B01D10CB0D9
:103E400010BDFEE73401001000400140F11FFF1FCC
:103E5000F0B544464D46564670B4EEB06E46414C01
:103E6000414AA146414CA0466E250F780F243B09DC
:103E700027405B00C45AE40014604B46D36710C669
:103E8000FC241351D3677F001351C45BE40014601A
:103E90004B46D36710C6FC241351D367013113512D
:103EA000023DE2D16E466E254C4608CE1360D467C3
:103EB000FC23D450D467013DD45008CE1360D4679E
:103EC000FC23D450D467013DD45008CE1360D4678E
:103ED000FC23D450D467013DD45008CE1360D4677E
:103EE000FC23D450D467013DD45008CE1360D4676E
:103EF000FC23D450D467013DD45008CE1360D4675E
:103F0000FC23D450D467013DD45008CE1360D4674D
:103F1000FC23D450D467013DD45008CE1360D4673D
:103F2000FC23D450D467013DD45008CE1360D4672D
:103F3000FC23D450D467013DD45008CE1360D4671D
:103F4000FC23D450D467013DD450AED16E46012439
:103F50005823A044984587D16EB070BCA046A946AE
:103F6000B246F0BD00100000882100A00000000053
:103F700010B50A4B187802F05DFC011C084801F0EE
:103F80008DFF084902F054F9F621890502F050F935
:103F900001F06CFF044B188010BDC0461D010010DD
:103FA000000070420000FA4508400010F0B5DE46FF
:103FB00057464E464546E0B58DB001900800029147
:103FC000169900920C000200002B00DAE8E080460F
:103FD000002500269844002900DAD9E0009800273F
:103FE00084468C4477490878404505D8C11A8AB27E
:103FF000C90700D597E012B273490978614501D825
:10400000091B0091002D02D001360133013A002A2C
:1040100000D181E0009900297ED001214010444365
:1040200019405B08E318694C8846551E02991C1913
:10403000931E063A92084F430132590852000390EA
:10404000481C0B9106928108002289008B460321AF
:10405000914611329A429B41BC4608908843411CCC
:1040600007900F20490009915B420231B4440A9144
:104070000593634646465910019B5A182300002EAB
:1040800054D0002D3CD0042D00D899E00699267814
:104090008A469244514604910021A2460C001178B0
:1040A0005F78090107400F437FB25F701178864344
:1040B00009110E431E7051789E78090106400E4387
:1040C000F6B29E705178874309110F43049902326A
:1040D0005F70043402339142E1D1210054461778D5
:1040E0005E783F0106403E435E7017781E783F11B0
:1040F00086433E4302311E7001320133A942EED3A2
:1041000001239A46029BD1449A46039BD4449A4683
:10411000009B54444B45ACD10DB03CBC90469946F5
:10412000A246AB46F0BD013A92B264E7002DE7D05B
:10413000019B04319A46434651448C427341211DF0
:104140008A42764105993343194230D01300032146
:10415000234319422BD100235946D658E650043345
:104160009942FAD1079B089E9A468B465244190001
:10417000E318B142C4D01178197009998D42BFD9A2
:10418000517859700A998D42BAD992789A70B7E7E6
:1041900000984F4284468C4461460024009121E7F8
:1041A00001255E421A1890460023354013E700238C
:1041B0000B9ED15CE154190001338E42F9D19FE787
:1041C00000218CE7160100101701001030020010CA
:1041D00010B50248FCF7B0FB10BDC0460C40001003
:1041E000F8B543B204000D00002B68DBA022882341
:1041F000802112069B01D150022235490B781A42C8
:10420000FCD0FF22334B32491A70FB3A0B781A422A
:10421000FCD0304BA0221B788A23802112069B0100
:10422000D15002222A490B781A42FCD0FF22294B96
:1042300027481A70FB3A03781A42FCD0FF27264E13
:10424000244B210030001B7800F084FB290E300045
:1042500000F080FB290C3940300000F07BFB290A7C
:104260003940300000F076FB39003000294000F082
:1042700071FB402C21D0210048394C1EA1418523DF
:10428000494299438731300000F064FB0A2502243B
:10429000FF2704210E4B0F4E1A781442FCD03770C2
:1042A0001A781142FCD03278D0B252B2002A03DA26
:1042B000013DEDB2002DEFD1F8BD9521E3E70021DE
:1042C0007720FFF78DFF0128F6D87F231C408DE76C
:1042D0000C00044008000440E0010010F8B5574607
:1042E0004E464546DE46E0B59946514B80461B7822
:1042F00092461B0700D449025120FFF771FF834605
:10430000002814D10226FF2704254A4B4A494B486E
:104310000C782642FCD007700C782542FCD002783D
:10432000D4B2FF2A21D1013B9BB2002BF0D1012353
:104330009B46A0228823802112069B01D150022295
:104340003D490B781A42FCD0FF223C4B3A491A7087
:10435000FB3A0B781A42FCD0384B58461B783CBCD1
:1043600090469946A246AB46F8BDFE2CDFD14B469F
:10437000334DED1A5346ED1AADB2002B14D0FF2287
:10438000042194462C4B2D4EFC3C1A781442FCD050
:10439000624632701A781142FCD032785246013AA5
:1043A00092B29246002AF0D14346002B2CD04746C9
:1043B0004B46FE18214B02249C46FF2304219846BD
:1043C0001D4AB6B213781C42FCD0634640461870B2
:1043D00013781942FCD063461B783B700137BBB29F
:1043E0009E42EFD10224FF270421134B134E1A786B
:1043F0001442FCD037701A781142FCD0013DADB2A6
:104400003278002DF3D194E70224FF2704210A4AD1
:104410000A4E13781C42FCD0377013781942FCD036
:1044200033784B46013B9BB29946002BF1D1D9E73B
:104430000D400010307500000C00044008000440DE
:1044400002020000F0B5040083B0012820D9314BEE
:104450001D68EB6883421BD92B78022B2ED0032BCF
:1044600019D00120012B14D1A3B25A08D2182A4B1B
:1044700096B2D205D20D760A9A422CD0296901AFA4
:10448000FE3B38007118FF3BFFF728FF002836D0AD
:10449000012003B0F0BD7F2229690240C409042332
:1044A0009200611801A8FFF719FF0028F0D16B46B0
:1044B0006A465B7910791B021843EAE7FF222969F3
:1044C0000240040A02235200611801A8FFF706FF08
:1044D0000028DDD1EBE72B6901AFF118380001238B
:1044E000FFF7FCFE0028D3D168462969012301317A
:1044F000002289190530FFF7F1FE0028C8D178782D
:104500003B78000203431811E207C2D41805000DDE
:10451000BFE7C04610400010FF010000F0B545465F
:10452000DE4657464E46424BE0B59B461E6800238A
:1045300082460D00904683B01380002E00D174E0B7
:1045400001221100B378194001911A426AD0F7692B
:10455000336ADB1B9D425FD8D146002D22D0FA057D
:1045600023D0F16A8023D20D9B009B1A9BB21C1CA6
:10457000AB4200D92C1C5346A4B2002B4AD048466B
:104580002300FFF7ABFE00283AD1F3692D1BE71893
:1045900043461B88A144E4184346ADB2F7611C8032
:1045A000002DDCD1002301932CE07178780A01F012
:1045B0001DFC002915D05B461A68B06AD368023822
:1045C000023B98421CD25178484391694018002818
:1045D00016D0F178F7694B1C0918F370F162FA05EF
:1045E000C0E7002F1AD1706A012809D90023F3709F
:1045F0005B461A68B062D3680238023B9842E2D345
:104600000023B370019803B03CBC90469946A24683
:10461000AB46F0BD0020B3E79DB29DE7B06AFFF75F
:1046200011FFE1E705230193ECE706230193E9E796
:1046300010400010F0B54E46DE4657464546E0B500
:10464000724B83B01C689946002C00D1D3E0012244
:104650001100A37819408A461A4200D195E0236AD6
:10466000984683422AD80023E769E3614346002B3A
:1046700009D100239A46504603B03CBC9046994667
:10468000A246AB46F0BD66787602002F6AD1474657
:10469000656AA562BE4200D3B5E0012D0BD9B846CC
:1046A0002700FB68AB4206D93B78022B4DD0032B89
:1046B00029D0012B0AD00023A370DCE70023804619
:1046C000E769E3614346002BDDD1D2E7AAB2530884
:1046D000D21891B24B0A9B464D4BD205D20D9A424D
:1046E00056D03969FE3B5944FF3B01A8FFF7F6FD60
:1046F0000028E0D16B465A791B7912021343EA076E
:104700007CD51D1110E07F2239692A40ED09042370
:104710009200691801A8FFF7E1FD0028CBD16B4694
:104720005D7919792D020D43012DC4D9E368AB429F
:10473000C1D9E269A5629319E36143469B1B9E427E
:104740003CD24A4698461768ABE7FF2239692A40AF
:104750002D0A02235200691801A8FFF7BFFD0028A7
:10476000A9D1DCE73100581E01F0BAFA013F05007B
:104770003100380001F0B4FA854288D343467042D4
:104780000740E761A56ADF1B84E705239A4672E7C5
:104790003B6901A85B4419000123FFF79FFD002836
:1047A00089D1684639690123013100225944053015
:1047B000FFF794FD002800D07DE79BE74746904631
:1047C0004A461168B8444246E261CA68023D023A6C
:1047D000954200D36FE74A7855438A69AD18002D9A
:1047E00000D168E75A0AD1B2DB050AD00131551968
:1047F000E170E5623DE706239A463CE71B051D0D87
:1048000092E7E17035E721003B00DCE71040001043
:10481000FF01000010B50400034B083303601C3097
:1048200000F082FD200010BD347E000010B50400B1
:10483000054B083303601C3000F076FD200050214A
:1048400001F01AF9200010BD347E000010B50129D6
:104850000CD0022909D1C36C002B12D0826B002A24
:1048600003D0010010003C31984710BD436B002B72
:104870000CD0026A002AF8D00100100024319847B9
:10488000F3E7836B002BF0D09847EEE7036A002B29
:10489000EBD09847E9E7C04670B5050004000E4B21
:1048A0000E00083308C528001822002101F022F963
:1048B000002320003100094AE36123626363A3639C
:1048C000E3641C30230000F09FFC2800310000F05E
:1048D0008FF8200070BDC046347E00004D480000B7
:1048E000436810B50400013306D0A369A0681B68B3
:1048F0001840431E984110BD2C220249024800F086
:1049000069F8F2E7B87D00001C7E000010B50029B0
:1049100008D0002301624363012201211C3000F012
:1049200017FD10BD002201211C3000F011FDF8E739
:1049300010B5002908D000238163C364012202213D
:104940001C3000F005FD10BD002202211C3000F0DB
:10495000FFFCF8E7F8B50B4F04003B680D00061D9F
:1049600098420AD00269C1680023300000F08CFF31
:104970003000616900F0BEFF3C602900300000F0AB
:10498000F3FFF8BD1440001030B504000F480825AF
:104990000830206000206060207220610C4883B0E5
:1049A00060610698E560251D0090280000F0DEFE9D
:1049B000002328002269E16800F066FF2800616991
:1049C00000F098FF200003B030BDC046447E0000D8
:1049D00040420F0010B513000A000100014800F02A
:1049E00003F810BD587E00000FB404B07047C046F5
:1049F00070B50C00050000F005FA631C07D000211B
:104A0000280000F061FA0121280000F057FA70BD7B
:104A100010B50400431C03D108E09C4207D00C31C0
:104A20000B685A1CF9D10648FFF7DEFF10BD2000C5
:104A3000896800F0B3FC0021200000F0CDFCF5E710
:104A40008C7E000010B5884203D0431C08D04B1C5C
:104A500000D110BD0348FFF7C7FF01204042F8E72F
:104A60000800F6E7A07E000010B5431C03D10AE061
:104A7000984209D00C310B685A1CF9D10448FFF751
:104A8000B3FF0120404210BD4868431CFBD1F5E74D
:104A9000B47E00007047C0467047C04610B5FFF7AF
:104AA000FBFFFFF7F7FFFBF717FC10BD0300074AFA
:104AB0001068C318EFF308818B4201D2136070476E
:104AC0000C220120024B40421A60F8E7200100103E
:104AD00060400010124B10B51B680400002B02D080
:104AE0009847002808D00F4B1B68002B14D098471C
:104AF000002C00D003C410BD0B4B1B68002B00D052
:104B000098470A4B1B68002BEDD0002000219847E6
:104B1000044B1B68002BEAD100200021E8E7C046C7
:104B2000280100102C010010240100103001001099
:104B3000036870B5DB68050098476B685B680DE03B
:104B40001C682B685B689847241A002C0CDC6A6888
:104B500051688B6853601268002A0CD1002BEFD18A
:104B60002B689B68984770BD6B685B6818682B68FA
:104B70001B699847F7E748689047DEE710B5024899
:104B8000FFF7D6FF10BDC046D47E000070B505000B
:104B900000F026FF06006C01641BA4006419E40009
:104BA00000F01EFF801B8442FAD870BD70B505006E
:104BB00000F016FF040000F013FF001BA842FAD318
:104BC00070BDC0467047C0467047C0467047C0467B
:104BD0007047C0467047C0460020704710B500F0CF
:104BE0007FFF10BD0D4A70B5946892682300002ABB
:104BF0000FD180230A4D5B05F0263606B446E21835
:104C00006244126804C3AB42F6D18023034A5B05B9
:104C1000936010308000C15070BDC04600ED00E0D0
:104C2000C000001080218022424B5202585870B5BB
:104C300002435A502322F0209A603F4A7F39115094
:104C400004301150002145301962FF301A583B4C96
:104C500084B0224020240192019AA2430192C822EA
:104C6000019C120222431A500091009B344A934245
:104C700006D8C046009B01330093009B9342F8D9AD
:104C8000012200212B4B1A645A6459645A64013181
:104C90005A6C1142FCD08E22802592009958274EE2
:104CA000232031400391039929430391C821039C98
:104CB00009020C439C50986098583040029002982A
:104CC000A84302900298014399500121194AD368E0
:104CD0001942FCD0032313670023516753675167C0
:104CE0000121144B5A6F1142FCD08E229967920019
:104CF0009858144C204098509858134C2040985085
:104D000000229964D964DA64D9640121094AD36C18
:104D10001942FCD0232301211361064A5369194229
:104D2000FCD0C0230020D050D0500833D15004B064
:104D300070BDC0460080044000400440FF250000D4
:104D4000C3090000FFFBFFFFFFFEFFFF70B50C0073
:104D5000234E05003100200082B0FFF785FEC0B26F
:104D60002870FF2836D020003100FFF751FE1D4B80
:104D700080229C468E20E405E40D64442368800074
:104D800093432360184B194C19582140102401916A
:104D90000199A1430191C821019C090221431950A5
:104DA00080219858890101439950114B1149186885
:104DB00000F096FF8022431EFF200F491840D205C5
:104DC000104308600B68180010401342FAD10860C5
:104DD00002B070BD352209490948FFF7FBFDC2E763
:104DE0006C7F00000040044000800440FF2500006C
:104DF0003401001020A1070000C00140F07E000037
:104E0000547F000070B505000C0001604B1C25D0DC
:104E10001D4B1A68002A07D11C4901321A607F32E3
:104E200088581B4B03438B500121002C17D12000C5
:104E300000F0B4FA0123A204D20E934024146B6054
:104E4000144BA400E318EB60134BE3182B61134BD6
:104E5000E3186B61124B9C466444AC6070BD114B0F
:104E60009C42E4D0104B9C42E1D0104B9C42DED0DF
:104E70000F4B9C42DBD00F4B9C42D8D00E4BE1181D
:104E80004B425941D3E7C046204000100080044007
:104E900040000100002200A0802200A0002100A00C
:104EA000002000A0281400002C160000301800007C
:104EB000341A0000381C0000C4E1FFFF10B5006880
:104EC00000F08AFA10BDC046036870B504000D00FA
:104ED00001330FD0002D07D0012D04D1A2686168E5
:104EE00013680B43136070BDA268616813688B433D
:104EF0001360F8E7432202490248FFF76BFDE9E738
:104F0000088000001C7E000070B54025134C636AC9
:104F10001D4222D0124EB06900281ED023681D42C7
:104F20001BD163681D4207D0E3691D4204D00D4BBD
:104F300001211B689847E5614025084C23691D4203
:104F400008D0236A1D4205D0064B0221B0691B68B8
:104F5000984725624022014B5A6270BD004000A074
:104F6000244000104440001070B58025134C636A43
:104F70001D4222D0124EF06900281ED023681D4227
:104F80001BD163681D4207D0E3691D4204D00D4B5D
:104F900001211B689847E5618025084C23691D4263
:104FA00008D0236A1D4205D0064B0221F0691B6818
:104FB000984725628022014B5A6270BD004000A0D4
:104FC000244000104440001070B50125134C636A62
:104FD0001D4222D0124E306800281ED023681D4288
:104FE0001BD163681D4207D0E3691D4204D00D4BFD
:104FF00001211B689847E5610125084C23691D4282
:1050000008D0236A1D4205D0064B022130681B6878
:10501000984725620122014B5A6270BD004000A0F2
:10502000244000104440001070B50225134C636A00
:105030001D4222D0124E706800281ED023681D42E7
:105040001BD163681D4207D0E3691D4204D00D4B9C
:1050500001211B689847E5610225084C23691D4220
:1050600008D0236A1D4205D0064B022170681B68D8
:10507000984725620222014B5A6270BD004000A091
:10508000244000104440001070B50425134C636A9E
:105090001D4222D0124EB06800281ED023681D4247
:1050A0001BD163681D4207D0E3691D4204D00D4B3C
:1050B00001211B689847E5610425084C23691D42BE
:1050C00008D0236A1D4205D0064B0221B0681B6838
:1050D000984725620422014B5A6270BD004000A02F
:1050E000244000104440001070B50825134C636A3A
:1050F0001D4222D0124EF06800281ED023681D42A7
:105100001BD163681D4207D0E3691D4204D00D4BDB
:1051100001211B689847E5610825084C23691D4259
:1051200008D0236A1D4205D0064B0221F0681B6897
:10513000984725620822014B5A6270BD004000A0CA
:10514000244000104440001070B51025134C636AD1
:105150001D4222D0124E306900281ED023681D4205
:105160001BD163681D4207D0E3691D4204D00D4B7B
:1051700001211B689847E5611025084C23691D42F1
:1051800008D0236A1D4205D0064B022130691B68F6
:10519000984725621022014B5A6270BD004000A062
:1051A000244000104440001070B52025134C636A61
:1051B0001D4222D0124E706900281ED023681D4265
:1051C0001BD163681D4207D0E3691D4204D00D4B1B
:1051D00001211B689847E5612025084C23691D4281
:1051E00008D0236A1D4205D0064B022170691B6856
:1051F000984725622022014B5A6270BD004000A0F2
:105200002440001044400010F8B5DE4657464E4694
:10521000454604003D48E0B581421ADC3C48026046
:105220003C4A106800281CD0506800285FD0906865
:1052300000285ED0D06800285DD0106900285CD0BE
:10524000506900285BD0906900285AD0D0690028A6
:1052500059D0012040423CBC90469946A246AB46FC
:10526000F8BD00208700D35180222B4B20609C4644
:105270009D582A4B06002B436546AB508B03613A81
:10528000491293460A4092469B0F5A00D218D20008
:105290005E365244B60072518122920090466246B8
:1052A0004546012652594146914632004D468240BC
:1052B0002A4365466A50A022120694468022350091
:1052C000514692019B00634494468D4061469A5832
:1052D00040B2AA435D465A50114BF958FFF782FC81
:1052E000236800201D40AE400E4B1E60B3E7012036
:1052F000B8E70220B6E70320B4E70420B2E70520B0
:10530000B0E70620AEE70730ACE7C0461311020055
:105310004440001024400010008004408000090038
:105320007C80000000E100E0002110B50468064B1D
:10533000A200D15001228121A24004488900435893
:105340009343435010BDC0462440001000800440E9
:105350000123006830B583400F480468234200D120
:1053600043620D48DD4304689C430460012909D071
:10537000002A03D103691D40056130BD0269134352
:105380000361FAE7002A03D0426813434360F4E75D
:1053900043681D404560F0E7004000A070B5040080
:1053A0000D00431C0BD0094BE4059C460723E40D7C
:1053B0006444216899432B401943216070BD152234
:1053C00003490448FFF706FBEDE7C04600400440F0
:1053D0009C8000006880000070B504000D00431C34
:1053E0001BD081231B01984210D0124B98420DD044
:1053F000114BE4059C46E40D6444042D07D01823AA
:105400002168ED0099432B400B43236070BD80233E
:105410002268DB0013432360F8E71D220749084890
:10542000FFF7D8FA044BE4059C46E40D6444042DD0
:10543000E5D1ECE7140A0000004004409C80000025
:1054400068800000F8B5CE4647460E0080B5684F2C
:10545000040039003000FFF707FBC3B20500FF2B43
:1054600000D1B1E00122634B98461B781A4200D16B
:10547000AEE059100A4200D1B2E05F48FFF7B4FA3B
:105480000021802243468C46520091461B78023A06
:10549000FF3A0B4341460B706346626080222360F3
:1054A000564B99588C468021604609060143995015
:1054B00049465A6830000A435A603900FFF7A8FA93
:1054C00024684F4B2268FF2013430C22236063683B
:1054D00028401343636007280AD84A4B80001B58B2
:1054E0009F46A0230122DB00E250474B0132E250ED
:1054F000C12380229B005201E2500123C02280265A
:1055000081275B4241499200A3500C32A150043ADA
:10551000A350B600BF00A559E3593D4998463D4BFD
:105520000135186800F0DCFB42463B4B4343501CFE
:105530005843013BA351854221D8290000F0D0FBFC
:1055400004220138E05163689343636080239B0029
:10555000E058013001F06EF9002100F069FE00F022
:1055600085FC002812D0812304229B000138E050E2
:105570006368934363600CBC90469946F8BD0C2267
:1055800063681343636000232365DFE70C226368CD
:10559000134363602065EEE7A2230122DB00E250A3
:1055A0001E4B0132E250A3E7A1230122DB00E250AF
:1055B0001B4B0132E2509BE7A3230122DB00E250A8
:1055C000184B0132E25093E71748FFF70DFA49E70D
:1055D00080221649920091468C460022012158E70C
:1055E00080221349D20091468C460122022150E7C5
:1055F0004C810000484000101881000000800440E9
:10560000010006002C8100000405000001100000CC
:1056100040420F0034010010204E0000140500002D
:105620000C0500001C050000FC80000000C00050BC
:1056300000E0005070B50C1C05680021201C00F033
:10564000EDFB002824D1FE21201C890500F0FAFB87
:10565000002801D0FE24A40580239B00E8580130D7
:1056600001F0E8F8211C00F0E3FD00F0FFFB00284A
:1056700008D0812304229B000138E8506B689343D3
:105680006B6070BD0C226B6813436B602865F8E794
:105690000024E1E7F8B5CE464746812380B5802750
:1056A00005680C00BF009B00EE599846EB58124964
:1056B0009946124B0136186800F012FB21004B4648
:1056C0004143581C48430139E951B0420DD33100E0
:1056D00000F006FB434604220138E8506B68934310
:1056E0006B600CBC90469946F8BD0C226B68134366
:1056F0006B6000232B65F4E740420F00340100107B
:1057000080218023094ADB05505803430120535070
:10571000074B1A6802431A6000229A601A680A430B
:105720001A601A6882431A607047C04600800440BD
:1057300000400240024B18680006C00F7047C04688
:1057400000400240014B0021986870470040024031
:1057500010B58024044B1968A143196098601A6839
:1057600022431A6010BDC04600400240F0B5DE463C
:1057700057464E464546E0B50E001C00394B85B0F5
:1057800019000090300015009B46FFF76DF9364B6D
:105790000190190028009A46FFF766F9334B8046BE
:1057A000190020009946FFF75FF9314F0290390048
:1057B0000E98FFF759F9414603900198FFF742F917
:1057C000039980460298FFF73DF901004046FFF734
:1057D00039F9009B1860431C3BD0264B98422AD0D5
:1057E000254B98420DD180218022244BD20258585B
:1057F00002435A509C227F3999505A6803310A4318
:105800005A6059463000FFF703F951462800FFF768
:10581000FFF849462000FFF7FBF80E9B013303D049
:1058200039000E98FFF7F4F805B03CBC9046994655
:10583000A246AB46F0BD80218022104B1201585881
:1058400002435A5094227F3999505A680A435A6049
:10585000D7E70B4848220B49FFF7BCF8009B1868B4
:10586000BBE7C046D0820000948200000C83000099
:105870005483000000000440008005400080044084
:1058800018820000B8810000F8B50E0002211D004A
:10589000036814005A6807008A435A60321F0C2AB2
:1058A00001D9032C1AD81A68E101120C1004FF2246
:1058B0000A404021013E64010C403243224302432E
:1058C0001A605A6833398A43002D01D009390A43D6
:1058D00002215A605A680A435A60F8BD652203499A
:1058E0000348FFF777F83B68DDE7C046B881000062
:1058F0002C8200000222F0B5C646056800B56B6830
:105900000E0093436B60154B02241F6880235B00DD
:10591000984602E0023444451BD02100380000F0D4
:10592000DFF943083100181800F0DAF9FF28F1D840
:105930002C612B680A4A0138134002222B602B6825
:105940000002184328606B6813436B6004BC9046E8
:10595000F0BD0448FFF748F8F8E7C04634010010EE
:10596000FF0000FF6C82000003680220DA6810422A
:10597000FCD099600421DA681142FCD09868704725
:1059800070B5104B1A78002A1BD101251D70802399
:105990000D4980328858DB0003438B500B4B0C4C75
:1059A000186802230B49636000F09AF90138E0603F
:1059B000094913206560FFF715F98022074B120390
:1059C0001A6070BD4940001000800440340100108E
:1059D0000080014040420F007D4B000000E100E0EC
:1059E00070B5124B1A78002A02D0114B986870BD1E
:1059F00001251D7080230F4980328858DB00034346
:105A00008B500D4B0A4C186802230C49636000F060
:105A100067F90138E0600A4913206560FFF7E2F892
:105A20008022084B12031A60DFE7C046494000108D
:105A300000800140008004403401001040420F000B
:105A40007D4B000000E100E00121034B98615A69A1
:105A50000A435A617047C046008001400121024A52
:105A600053698B4353617047008001400122014B11
:105A70001A6070470080014010B5FFF7AFF810BD05
:105A800070B500260C4D0D4C641BA410A64209D124
:105A9000002602F00DFD0A4D0A4C641BA410A6421C
:105AA00005D170BDB300EB5898470136EEE7B3005F
:105AB000EB5898470136F2E7BC840000BC84000034
:105AC000BC840000DC8400007047704710B5034BB5
:105AD0000100186800F060F810BDC04638010010E1
