:1000000000800010FD000000D5650000DD650000E7
:1000100000000000000000000000000051B3FEEFEF
:10002000000000000000000000000000E16500008A
:100030000000000000000000E5650000D95000004D
:10004000D9650000D9650000D9650000D9650000B8
:10005000D9650000D9650000D9650000D9650000A8
:10006000D9650000D9650000D9650000D965000098
:10007000D9650000D9650000D9650000D965000088
:10008000D9650000D96500005D4D0000D96500000C
:10009000D9650000D9650000D9650000D965000068
:1000A000D9650000D9650000D9650000D965000058
:1000B000D9650000D9650000D96500000000000086
:1000C000D86701000001001064010000D86701003A
:1000D0000000002000000000D86701000040002060
:1000E00000000000680200102C4200000000002008
:1000F000000000000040002000000000F0B5454670
:10010000DE4657464E46E0B55D4A5E4B904683B0AC
:10011000934200D3B1E00722934607329246213240
:10012000914619001C6889685D680C331A0020002C
:1001300000292FD027005E462F4337407E4277416B
:10014000EE1D361BB245B641764201393E4200D122
:100150007FE089457DD28908481C9C4621004708DC
:10016000FF003F192E1B0094019573180C684D6811
:1001700008311C605D60B942F7D101210600009C86
:10018000019D8E43B100634664186D18B04201D0E2
:10019000216829609845C4D83B498A424FD2072339
:1001A0000139891A994313008C4608339C44012372
:1001B00090469A460023424606CA0800002A39D0D3
:1001C0005646551EAC080134A1468C0864423440A2
:1001D000172D4BD9002C3AD0042508C04E46361BAB
:1001E000B146A40009197408E40064180026002729
:1001F000C0C18C42FAD151464C468C43A1008B467B
:10020000290058445944A14514D00C1D0360A24252
:1002100010D904344360A2420CD904348360A24252
:1002200008D90434C360A24204D9143103618A425C
:1002300000D9436108229146C844E045BBD106F08D
:10024000FDF9124B002B13D000E000BFFEE70025A4
:10025000C4E78908261D890089192E1B05002D6811
:100260008419043025608842F8D193E70021CCE757
:1002700007F03CFA06F012F9E8E71A008CE7C046EE
:10028000E4000000C0000000FC00000000000000CE
:1002900010B5064C2378002B07D1054B002B02D05C
:1002A000044800E000BF0123237010BD6802001065
:1002B00000000000D8670100044B10B5002B03D0EC
:1002C0000349044800E000BF10BDC0460000000024
:1002D0006C020010D867010010B50400C068002847
:1002E00001D006F087F9200010BDC04670B58568C2
:1002F0000400002D05D028002D6806F07BF9002DA4
:10030000F9D1636800219A00206807F050FA0023B1
:10031000E360A360230020681833984201D006F000
:1003200069F9200070BDC046F0B5DE465746454627
:100330004E46E0B5964C9748A54402F06FF908ABDD
:100340009C4611AF3D003B000022934961441A6076
:1003500008339942FBD1802600247600E000082271
:1003600000213818013407F022FAB442F6D18B4844
:1003700003F06EFA07238A4A390013801022894B52
:10038000D8312B602A716A71083582338D42F8D1D9
:1003900001210EA801F01EF80E9B83491B688348BB
:1003A00003931B68824C9A7812010A80DA7881499B
:1003B00012010A8019780A0102805A7810012080FF
:1003C00098687D4BF9507D4BFA50083BF85004F08B
:1003D0009BFE7B4A030094466344089300230793E3
:1003E00001F0D4FD002800D1A8E158230022009399
:1003F00000210020163301F0CFFD051EF0D06A4B1E
:10040000052100241C5F6B4B00229B5E9A46039BD8
:10041000187901F011FD002806D0634B624A1B8851
:10042000103B138000230793039B0521187A01F0EA
:1004300003FD002806D05C4B5B4A1B8810331380F9
:1004400000230793039B0521987901F0F5FC002810
:1004500006D0584B574A1B88103B13800023079344
:10046000039B0521987A01F0E7FC002806D0514B48
:10047000504A1B881033138000230793039B0521E8
:10048000187B01F0D9FC43425841079E039B404230
:1004900005210640987B01F0CFFC43425841039B65
:1004A000404205210640187C01F0C6FC43425841F9
:1004B0003D4940420640079600268E5F002E00DA36
:1004C00070E13A4B1B881A000F3AB24200DD54E14A
:1004D000242203998A5C920700D44EE10125012170
:1004E000039E0435300000F0F7FE03041B0E9A460D
:1004F0000BAA10802C4AC4B2B446148052462D4B2D
:10050000AD0065441A806B68284803931B68284D2A
:1005100019780A0102805A789B68100128802648C1
:10052000395026497A5080221201BB500020254ABA
:10053000049011784A08944208DB1C480088851A08
:10054000AC4200DC5AE1091A0AB2049200201E4AA9
:100550008146117893464A08924508DB1448008882
:10056000841AA24500DC44E1091A0AB29146002B24
:1005700068D0124ABA580592002A63D00E4ABA5877
:100580000692002A5ED01D0000239A4626E0C0464F
:10059000ACF7FFFFA859010024080000C043010088
:1005A000DA01001076C20000D0010010CE01001068
:1005B000CC010010D201001004080000080800005F
:1005C000C0D40100DE010010DF01001001239C46B1
:1005D000059BE24445469144534533D00699002299
:1005E0008846BE4B049E1B78A844B342EEDD2C78AF
:1005F000E4003859002800D1BDE05A4612789145F0
:100600000FDA3A1911798C46F1420AD449465279E7
:10061000CA4206D433000091614605F073F9AF4B2E
:100620001B783C192279B61862799E42CEDA0135E0
:100630004545DAD101239C46059BE2444546914459
:100640005345CBD1A64BA74E98464246A64B022116
:100650001B882A2013800823338001F001FE04F058
:1006600053FD089B181A00D528E104F04DFDFA212E
:10067000089B8900181A07F0D3FD3C21040007F0FD
:10068000B5FE0D00601A3C2107F0CAFD2B000200E8
:1006900096490CA807F070FB0CA802F081F8944B67
:1006A0000020185E8D4B1B785A08904208DB914958
:1006B00009888C1AA04200DCAEE05B1A181800B260
:1006C0008D4B0021595E5B461B785A08914208DB2E
:1006D0008A4C2488A51AA94200DC9BE01B1B5918F0
:1006E00009B2874B10220093102301F0F3FF079B00
:1006F000002B00D174E6052303243380774B0021BF
:100700001A780020182302F05DFB744B00211A7840
:1007100000201823348002F08FF90221022001F01A
:100720009FFD4246704B09981B883480138002F06D
:1007300037F801F02BFC002800D056E600260E9872
:100740000F9D85420AD004002068002802D028218D
:1007500006F09EFE0434A542F6D10E98002801D082
:1007600005F048FF3000674B9D443CBC90469946DD
:10077000A246AB46F0BD002259E75F4A0021525E17
:100780000492002A3EDB5D4A0498128811000F395A
:10079000814210DC24210398415C49070BD50225D6
:1007A00002219DE62423039AD35C1B0700D488E62C
:1007B0000325032194E6002E06DBB34204DB049BF1
:1007C000002B01DB9A4229DA07F048FA032107F0EF
:1007D0000DFE022903D84C4B8900CB580993524691
:1007E000434B07951C80444B1A8080231B01FB5808
:1007F0009CE65146521A12B29146B8E6141B22B238
:100800000492A3E6242203998A5CD207BBD5002573
:10081000002165E611B264E710B251E73B4AB31D0F
:10082000BA581B1193424BD23948049938580731B2
:100830000911814244D24A43802109017958CB18D9
:100840009B5C18000593334B98465B6819009B46E8
:1008500007F0E2FC43461B688A00D358069198468D
:10086000002B32D01B681A7991465A464946A34656
:10087000B14614000E000CE01D68002D24D02E7926
:1008800021003000984607F0C7FC069B8B421BD125
:100890002B00059AB242EFD142464E465C46002AF2
:1008A00013D0002B11D0059B042B00D146E78023E9
:1008B000049A1B0192463400FB5837E601263EE7B6
:1008C000002300200593BEE75C465246084B2600F5
:1008D0001C80094B04921A80E5E7C046DE01001037
:1008E00092190010DC010010DA01001094AC000035
:1008F000D0010010CE010010D2010010CC01001078
:100900009ACB00005408000004AF00000408000067
:10091000080800008C030010F0B5C64600B5254855
:1009200082B002F095FF07230621234A234D13804E
:10093000234A00241180234A1380234BEF18234BB2
:100940009846582601F022FB00282FD06E23002263
:1009500000210020009601F01FFB0028F2D00521A5
:10096000042001F069FA431E984124180B2C1DDC69
:100970000521062001F060FA002817D10022072C7B
:1009800000DD134A52190021002001F059FE3A00FF
:100990000021002001F054FE0221022001F060FC41
:1009A0004246A300985801F0FBFECAE702B004BC1F
:1009B0009046F0BDD8430100DA010010B0D100002C
:1009C000DC01001092190010D42500000401001071
:1009D000EA120000F0B5DE464E4645465746E0B501
:1009E00083B004F091FB07F015F901F043FA2D48AC
:1009F00001F014FE2C4B58259A462C4B2C4E994650
:100A00002C4B98462C4B9B461027504602F020FF5B
:100A1000378008E06E23002200210020009501F0BD
:100A2000BBFA002831D101F0B1FA0028F2D1FFF76A
:100A300073FFFFF779FC0400484602F009FF062225
:100A4000414607230A801D4A338013801C4B033420
:100A50005C431C4B9C46644401F098FA0028D4D0B7
:100A60006E23002200210020009501F095FA002855
:100A7000F2D000210020220001F0E2FD0521042037
:100A800001F0DAF90028E7D0BEE7002100205A463D
:100A900001F0D6FD0521042001F0CEF90028C2D0D6
:100AA000C5E7C046A85901002C430100D843010006
:100AB000DA010010DC01001010AF000092190010E4
:100AC000EA120000B0D10000F0B557464E46454648
:100AD000DE46E0B5150018229446844462468BB089
:100AE000079202600122426000228260C26042617D
:100AF0008261103294460E008444FE2162468905CC
:100B0000016107000592A91B994200D219000598BE
:100B100006F0C8FC7B6804009946834215D2012880
:100B200000D1EDE080239B05984200D3F3E08300E1
:100B30009946180005F05AFD4A460021804606F005
:100B400036FE4346A1463B607C60AE4266D03B68C1
:100B5000B24602936B1E049308239C46BC44634632
:100B6000BB46069353461B7849461800984607F043
:100B700053FB029A8B00D5580C000393002D1ED016
:100B80002B681F790BE01E68002E18D03779494674
:100B900038001D0007F040FB8C4210D13300B845EF
:100BA000F1D1002D0BD0002B09D0049B534534D03C
:100BB0005B465B68994601239C46E244D2E70820E5
:100BC00005F014FD0023036053461B785A46037159
:100BD000012300935B4608ACDB68060052682000E6
:100BE000059906F09BFC2378002B1FD15B461B6800
:100BF0000293029A039B944663441C001B68002BDB
:100C00006BD01B68336023681E605B465A46DB6806
:100C10000133D360049B5345CAD15F4638000BB003
:100C20003CBC90469946A246AB46F0BD6768012F92
:100C30006BD080239B059F426DD2BC00200005F045
:100C4000D5FC22000021029006F0B1FD5B46002297
:100C50009D689A60002D27D00023B1461E0005E054
:100C6000126822601B681C60002D1CD02C0039000B
:100C7000207907F0D1FA029A8B00944663441A68EF
:100C80002D68002AECD15A46926822605A46946038
:100C9000069A1A602368002B30D06346B600F450E1
:100CA0000E00002DE2D14E465B461868079B83423A
:100CB00001D005F09FFC5B46029A5F601A60390024
:100CC000404607F0A9FA029A8B0094460393039BCF
:100CD00063441C001B68002B93D15B465A469B68FB
:100CE00096603360002B06D01879516807F094FAAB
:100CF000029B8900CE50069B236086E70E00B3E777
:100D00000023BB61079B98461BE75B4600229A6164
:100D1000079B02939AE706F0BFFBC04670B5624B93
:100D20008EB06A4634210C93042352181370352276
:100D300008AB05930BAB049307AB03930AAB5B4D76
:100D4000029309AB019306AB00936A4400230CA9FC
:100D50002800FFF7B9FE564C28002200554905F03F
:100D600043FC6A46544B554E1386554B082201935B
:100D7000544B0A21009330000C9B00F05BF9524D5C
:100D800022002900300005F02FFC504E504B0A2263
:100D900000930C214F4B300000F0D8F822002900BE
:100DA000300005F021FC4C4E4C4B0A2200930C21E4
:100DB0004B4B300000F0CAF822002900300005F04B
:100DC00013FC484E484B0C2200930E21474B300039
:100DD00000F0BCF822002900300005F005FC444E6C
:100DE000444B062200930821434B300000F0AEF83C
:100DF00022002900300005F0F7FB404E404B062250
:100E0000009308213F4B300000F0A0F82200290099
:100E1000300005F0E9FB3C4E3C4B0C2200931021C6
:100E20003B4B300000F092F822002900300005F022
:100E3000DBFB384E384B062200930821374B30003D
:100E400000F084F822002900300005F0CDFB344E7C
:100E5000344B062200930821334B300000F076F823
:100E600022002900300005F0BFFB304E304B082235
:100E700000930A212F4B300000F068F8220029006F
:100E8000300005F0B1FB2C4E2C4B062200930A21BA
:100E90002B4B300000F05AF822002900300005F0FA
:100EA000A3FB0EB070BDC046000201038C0300100E
:100EB00000010010ED020000060300009C0200107B
:100EC00070430100FC430100D902000084020010BD
:100ED000FCC10000F8430100B4020010004401000E
:100EE0004C430100CC020010784401005043010043
:100EF000E40200102045010054430100FC020010F0
:100F000050450100584301001403001080450100C2
:100F10005C4301002C0300104046010060430100C7
:100F20004403001070460100644301005C0300109C
:100F3000A04601006843010074030010F046010060
:100F40006C430100831C032018407047F0B5DE4657
:100F500057464E464546E0B587B04360109B059026
:100F6000836000230191009201704270C3600361AD
:100F70004361002944D02E4B5A681B689346029364
:100F8000002303930493039A109B944663449A4668
:100F9000009B0026002B2BD053461B785946180087
:100FA000994607F039F9029A8B009C58002C17D00B
:100FB000236888461A7915000BE01F68002F0FD0B0
:100FC0003D79594628001C0007F026F9884507D1CD
:100FD0003B00A945F1D1002C02D02368002B17D18A
:100FE000019B01369C46009BF6B2E244B342D3D14A
:100FF000039B019A01330393DBB204939A42C2D854
:10100000059807B03CBC90469946A246AB46F0BD59
:10101000059B049ADE709A70009BB342F0D8039B44
:10102000019A01330393DBB204939A42ABD8E7E70A
:10103000B004001030B5040085B003AD2B80099BCF
:101040000093089BFFF782FF20002B88638005B088
:1010500030BDC04682B002291BD010D8002922D052
:10106000027801AB013A12011A70426852781201FB
:101070005A7018785B781B02184302B07047032936
:1010800018D1002201AB1A704268D27812015A704E
:10109000EFE7426801AB927812011A704278013A88
:1010A00012015A70E5E7426801AB127859701201DB
:1010B0001A70DEE7002201AB1A80DAE770B55F4BE9
:1010C0008EB00C93042335220CA90B7108AB059349
:1010D0000BAB049307AB03930AAB594D029309ABD7
:1010E000019306AB00936A4400232800FFF7ECFC51
:1010F000544C28002200544905F076FA534E544BC4
:10110000082200930A213000524BFFF71FFF524D77
:10111000524B220029007380300005F065FA504ED2
:10112000504B0A2200930C214F4B3000FFF70EFF6B
:1011300022002900300005F057FA4C4E4C4B0A2291
:1011400000930C214B4B3000FFF700FF22002900D9
:10115000300005F049FA484E484B0C2200930E210E
:10116000474B3000FFF7F2FE22002900300005F067
:101170003BFA444E444B062200930821434B300077
:10118000FFF7E4FE22002900300005F02DFA404E62
:10119000404B0622009308213F4B3000FFF7D6FE5C
:1011A00022002900300005F01FFA3C4E3C4B0C2277
:1011B000009310213B4B3000FFF7C8FE22002900AE
:1011C000300005F011FA384E384B06220093082102
:1011D000374B3000FFF7BAFE22002900300005F03F
:1011E00003FA344E344B062200930821334B30006F
:1011F000FFF7ACFE22002900300005F0F5F9304E73
:10120000304B082200930A212F4B3000FFF79EFE3F
:1012100022002900300005F0E7F92C4E2C4B062265
:1012200000930A212B4B3000FFF790FE220029008B
:10123000300005F0D9F90EB070BDC04600020103C0
:10124000B004001000010010ED020000C003001007
:10125000C84701001C480100D90200000603000035
:10126000A80300102C47010018480100D803001003
:1012700020480100A4470100F00300109848010035
:10128000A84701000804001040490100AC470100D4
:101290002004001070490100B0470100380400101C
:1012A000A0490100B447010050040010604A010049
:1012B000B847010068040010904A0100BC470100D3
:1012C00080040010C04A0100C047010098040010CB
:1012D000104B0100C447010010B50B1D9B00C01846
:1012E000436882B008001C68FFF72CFE0100200054
:1012F000FFF7B0FEFF2213000340000A1040000277
:10130000184302B010BDC046F8B55746DE464E46FB
:1013100045460368E0B5476893462B4A9946FB1A51
:1013200005008A469B10934242D0002B3BD05900C7
:101330008B422FD953464A469C1A244B9846404626
:1013400005F054F9060080445B461B683351002CBD
:1013500004DD22004946300006F016FA53460434F4
:101360003419FF1A002F04DD3A005146200006F020
:101370000BFA4B46E419002B02D0484605F03AF927
:1013800043462E606C60AB603CBC90469946A246DA
:10139000AB46F8BD534648461C1A00290BD1002322
:1013A00000269846D0E74A4604238C1A9846C6E79A
:1013B000074806F074F880239B05994200D311007A
:1013C0008B009846BBE7C046FFFFFF1FFCFFFF7F77
:1013D0004C4B0100F0B5DE4657464E4645460024CC
:1013E000E0B505008FB004604460846028208B461F
:1013F00005F0FCF8FC4B062603602423C4549A46EF
:1014000080235B0243609946F84FF94BC7608360C5
:1014100006820A902820984605F0E8F8F54B69689E
:1014200003605346C4544B46436043468360AB68F5
:10143000C76006820B90994200D1FFE20A9A04C16C
:101440006960994200D1F4E20B9B08C169605B4678
:10145000002B00D153E2012B00D048E2282005F0F8
:10146000C5F8E54B80212424060003600023DF4FEC
:10147000490203554160F7600627DD483782B060B6
:10148000282005F0B3F8DD4A802102609146002251
:101490000300490202554160D44AD548DA60986099
:1014A0001F822820039305F0A1F80022D44B824626
:1014B00003600300025580204002CD495860CB48AC
:1014C0009960D8601F82282005F090F80300CD486D
:1014D0000022186080201A55C449C54A400258604D
:1014E0009A60D9601F822820099305F07FF80200D6
:1014F000C548802110600020490210555160BC4849
:10150000BA499060D16017822820049205F06EF8E5
:10151000BE4B802102000360002049021055B44BED
:101520005160B2499360D16017822830089205F06B
:101530005DF8B5498046020001600020105580200A
:101540004002AA495060AA48D160906017822820C2
:1015500005F04CF8AB49802301600021A44A0155F5
:10156000A2495B0243608260C1600782019028202B
:1015700005F03CF8494601600021802301559C4A52
:101580009A495B0243608260C1600782069028200E
:1015900005F02CF89E4B01000360002080230855C5
:1015A000934A92485B024B608A60C8600F82282091
:1015B000029105F01BF8944A8023814601000260E5
:1015C00000205B0208558A4A4B60884B8A60CB60DA
:1015D0000F82283005F00AF88E4B010003600020CE
:1015E00080220855814B824852024A608860CB6055
:1015F0000F822820079104F0F9FF874B80220360B7
:101600000023520203554260794A07828260082211
:101610000A9F764B0590C3603E623B5D03201343F7
:101620003B55FFF78FFC031D9B00F3185F605F467F
:101630008740335D03993B4304273B43F16102201C
:101640003355FFF77FFC0399031D8C469B006344D1
:101650005E605B4683401A000B5D032013430B550D
:10166000534608223362335D13433355FFF76AFC58
:10167000031D9B0053445E605E4686403200564622
:10168000335D099E1343524656610122504613436F
:1016900003550020FFF756FCB4465246031D9B003D
:1016A00063445A605B4683401A00335D0220134353
:1016B000335553465246089EDE611B5D3B4313552E
:1016C000FFF740FCB4465246031D9B0063445A603A
:1016D0005B4683401A00335D30001343049A089040
:1016E000B2610226334303550120FFF72BFC049916
:1016F000031D8C46089A9B0063445A605B468340F6
:101700001A000B5D002013430B5543460122039939
:1017100059611B5D134342461355FFF713FC0399B0
:1017200042468C46031D9B0063445A605B468340DF
:101730001A000B5D0320134342460B55019B1362B5
:10174000135D0822134342461355FFF7FBFB019933
:1017500042468C46031D9B0063445A605A468240B1
:101760000B5D0120134342460B55029B9361135DB1
:1017700033431355FFF7E6FB029942468C46031D9F
:101780009B0063445A605B4683401A000B5D022055
:1017900013430B55019A069BD361135D3B431355CD
:1017A000FFF7D0FB0699031D8C46019A9B0063440A
:1017B0005A605B4683401A0008000B5D049913438E
:1017C0003B43C16103550220FFF7BCFB0499031D95
:1017D0008C46069A9B0063445A605B4683401A001D
:1017E0000B5D01201AE0C046E4040010040005006F
:1017F00002000300CC0400105C050010FC04001083
:1018000014050010740500108C050010440500102C
:101810002C050010BC050010A405001013430B5547
:101820004B4602998B610B5D33430B55FFF78AFBE7
:10183000031D02999B004B4459605B4683401A008C
:101840004B461B5D079913434A4633439161012080
:101850001355FFF777FB07994A468C46031D9B00FB
:1018600063445A605B4683401A000B5D01201343BA
:101870000A0005990343516100201355FFF762FBED
:101880000599031D8C46079A9B0063445A605A468B
:1018900082400B5D484613430B550B9B9846D8611D
:1018A0001B5D02201F4343461F55FFF74BFB474676
:1018B0005A46031D9B004B445F604B46824048469E
:1018C0001B5D0B9F1343059A0355BA613B5D0120D5
:1018D0001E433E55FFF736FB5946059A8140944614
:1018E000031D9B0063445F60135D1943115528007D
:1018F0000FB03CBC90469946A246AB46F0BD06F000
:10190000ADF90B2106F072FDCB00664E5B1A5B0051
:101910002820F41804F06AFE634B5A46036024231F
:10192000C25480235B024360604B8360604BC360A2
:1019300006230382A30700D088E02368436063681E
:101940008360A368C360A38903820C9006F086F9C4
:101950000B2106F04BFD2820CC00641A04F046FE53
:10196000544B002203602423C25480235B02436053
:101970004E4B640083604E4B3419C36006230382D0
:10198000A30772D12368436063688360A368C36060
:10199000A38903826B68A9680D908B4200D179E01E
:1019A0000C9A04C36B608B426ED00D9A04C36B60BB
:1019B000242408220A9E0D9F03203762335D1343BF
:1019C0003355FFF7BFFA031D9B00FB185E6001262D
:1019D000320082403B5D022013433B550D9B0422A5
:1019E00098460C9FDF611B5D134342461355FFF77A
:1019F000A9FA4246031D9B00FB185A603200824040
:101A00003B5D002013433B550D9B012298460B9FE5
:101A10005F611B5D134342461355FFF793FA42463D
:101A20008640031D9B00FB185A603B5D1E433E55DC
:101A30005DE728000BAAFFF767FC08E519002800FE
:101A40000AAAFFF761FC6968AB68FAE4238883801F
:101A50006388C380A3880381E388438123898381CA
:101A60006389C381A38903826FE7238883806388A6
:101A7000C380A3880381E3884381238983816389A9
:101A8000C381A389038285E7190028000DAAFFF707
:101A90003BFC8DE728000CAAFFF736FC6B68A968B1
:101AA00081E7C046544C0100FC0400100200030012
:101AB000040005001405001070B5624B8EB06A4634
:101AC00034210C93042352181370352208AB05936C
:101AD0000BAB049307AB03930AAB5B4D029309ABCB
:101AE000019306AB00936A4400230CA92800FEF77B
:101AF000EBFF564C28002200554904F075FD6A465C
:101B0000544B554E1386554B08220193544B0A21D2
:101B1000009330000C9BFFF78DFA524D22002900F4
:101B2000300004F061FD504E504B0A2200930C210E
:101B30004F4B3000FFF70AFA22002900300004F072
:101B400053FD4C4E4C4B0A2200930C214B4B300062
:101B5000FFF7FCF922002900300004F045FD484E53
:101B6000484B0C2200930E21474B3000FFF7EEF953
:101B700022002900300004F037FD444E444B062279
:101B800000930821434B3000FFF7E0F922002900C1
:101B9000300004F029FD404E404B062200930821FE
:101BA0003F4B3000FFF7D2F922002900300004F04B
:101BB0001BFD3C4E3C4B0C22009310213B4B300054
:101BC000FFF7C4F922002900300004F00DFD384E63
:101BD000384B062200930821374B3000FFF7B6F947
:101BE00022002900300004F0FFFC344E344B062262
:101BF00000930821334B3000FFF7A8F92200290099
:101C0000300004F0F1FC304E304B082200930A21E2
:101C10002F4B3000FFF79AF922002900300004F022
:101C2000E3FC2C4E2C4B062200930A212B4B300058
:101C3000FFF78CF922002900300004F0D5FC0EB02B
:101C400070BDC04600020103D40500100001001061
:101C5000ED02000006030000E4040010044C010043
:101C6000AC4C0100D9020000CC040010684B01000C
:101C7000A84C0100FC040010B04C0100E04B010036
:101C800014050010284D0100E44B01002C05001044
:101C9000D04D0100E84B010044050010004E01004A
:101CA000EC4B01005C050010304E0100F04B0100D0
:101CB00074050010F04E0100F44B01008C0500107B
:101CC000204F0100F84B0100A4050010504F010007
:101CD000FC4B0100BC050010A04F0100004C0100AE
:101CE00010B50249024804F03DFD10BD5C2E000015
:101CF000F005001010B501F0EDFF10BD474A484B4C
:101D00001178002900D06DE01878002804D0FF2851
:101D100000D16CE0FF311970517800295BD15878FF
:101D2000002803D0FF285BD0FF315970917800293B
:101D30004AD19878002803D0FF284AD0FF31997003
:101D4000D178002939D1D878002803D0FF2839D09C
:101D5000FF31D9701179002928D11879002803D0D2
:101D6000FF2828D0FF3119715179002917D15879EE
:101D7000002803D0FF2817D0FF3159719279002A2B
:101D800006D09A790132D2B2FF2A32D09A717047C6
:101D900099790029FBD0FF29F8D0FF22F6E759797D
:101DA0000131C9B2FF2927D05971E7E7197901310B
:101DB000C9B2FF2923D01971D6E7D9780131C9B248
:101DC000FF291FD0D970C5E799780131C9B2FF2921
:101DD0001BD09970B4E759780131C9B2FF2917D0E7
:101DE0005970A3E719780131C9B2FF2913D01970CE
:101DF00092E702229A71CAE702215971BEE70221D5
:101E00001971B1E70221D970A4E70221997097E70F
:101E1000022159708AE7022119707DE7001C001029
:101E2000F4050010034B185C013843425841C0B21E
:101E30007047C046F405001010B50C4B01290CD9B1
:101E4000185CFF2807D006F0E7F9C8B20138414214
:101E50004841C0B210BD0020FCE71B5CFD22002001
:101E6000013BDBB29A424041C0B2F3E7F4050010F7
:101E70007047C04670B50124354B00201C7000F03F
:101E80006FFC344800F0CAFB03F02EF903F058F958
:101E900001F020FF03F04CF92122FF262E4B2F4D9D
:101EA0001A702F4B7F201C602E7001F05DFD7F2289
:101EB0002C4B2E701A80FFF71DFFFFF71FFF00F05D
:101EC000CBF9294803F028FC830736D400260120EB
:101ED00000F046FC254D2E8000F0B0F9244C200087
:101EE00000F09CFB012000F03BFCFC22214BD200C7
:101EF00020001A8001242E8000F090FB00231E4E4B
:101F00001E4DFF2033702C7001F02EFDFF2001F0DC
:101F1000B1FD002000F024FC194B1A481C701A4B2C
:101F200034701C702C7000F079FB01F09BFD0520D3
:101F3000FFF778FF002806D170BD210081430A48D1
:101F400003F00CFCC2E7002001F094FDF4E7C0466A
:101F500011060010DC4F01000006001008060010FA
:101F600004060010C4190010B40F000086190010F8
:101F700044560100D4010010D7010010D801001010
:101F8000E0010010E0520100E1010010014B18785F
:101F90007047C0461106001070B5050001F00AFD3B
:101FA00003F0B2F8114B12491A780B68114C1B1A46
:101FB000934209D92368002B0BD1280000F05AF96D
:101FC00001230020236003E023680020002BF4D0CD
:101FD00070BD1018084A08601368013313600023AD
:101FE0002360FFF78BFE0120F2E7C04600060010D9
:101FF0000C06001004060010FC05001010B5024885
:1020000000F0DAF810BDC046100600107047C04658
:1020100010B50400182105F03BFA200010BDC046A1
:1020200010B582B06B469C1D220003F023FF208870
:1020300002B010BD10B5002003F0A8FF014B1870CE
:1020400010BDC0465C0600100123812210B5084C6B
:1020500082B05B4200932000064B0749520104F016
:102060003FF92000054A064904F0BEFA02B010BD4F
:1020700014060010180C00002412000000010010CB
:102080000D200000F8B54E46DE4657464546E0B501
:10209000424B81461B789C46984202DB013B1BB2B7
:1020A00099463F4B1B78042B47D0022B3FD1484623
:1020B00003213C4A127893465043C4172140091823
:1020C000891089B2384A3948924612880088904669
:1020D000524610804A46002A39DD48466246121AA6
:1020E0009146002A18DD5A46D0084343002B13D0EE
:1020F000002400222E4D00200E00AF5D260001308E
:102100000131013480B289B2A4B2AF559842F3DBF9
:10211000013292B24A45EEDB264B5A460021595E07
:102120000020634600F04EFE534642461A803CBCF7
:1021300090469946A246AB46F8BD4846194A1278E1
:102140005043C10F09184910934689B2BAE7644653
:10215000A2B294464A4690B2A04217D25A4653437E
:10216000DB1013D000260027114D002430002A5C1C
:102170000800013401360131A4B2B6B289B22A5442
:102180009C42F3DB0137BFB26745EED34B465A465C
:102190000021002000F016FEC6E7C046DF01001057
:1021A000D6010010DE010010DC01001092190010B1
:1021B0006006001096190010134B144A10B5040065
:1021C00013481A6001F07CFA0122124B12491A706E
:1021D000124BDB321A70124B2C3A1A70114B124A06
:1021E000200013601A7801320A705B780F4A0133BD
:1021F000137011220E4B1A8000220E4B1A800E4BC8
:1022000004321A7010BDC046B819001060060010E4
:102210008C5B010090190010BC1900108A19001085
:1022200089190010DC4F01008C1900107F19001073
:10223000DA01001092190010D601001010B500202C
:1022400001F00AFF0023024A1380024A138010BDE6
:10225000941900109619001010B502F017F810BD6F
:10226000024B1880024B19807047C0469419001029
:102270009619001010B5002804D01C4B1B78002BB9
:102280000DD010BD1A4B1C6801F02AFE194B20001E
:10229000196802F05BFD154B1B78002BF1D1164B32
:1022A000164A197818880F2312780B40012A17D084
:1022B000022A0ED0042A16D1190119430C4B104AD8
:1022C000186805F074FA00230E4A13800E4A138032
:1022D000D7E703230B40990019430B011943EDE79E
:1022E000FF210028EAD11900E8E7C0468419001050
:1022F000B81900108019001092190010D6010010B2
:102300001F1300009419001096190010F0B54546EF
:10231000DE4657464E46E0B5B44B8BB01B68019184
:102320005978050088460990F7200839444601404D
:10233000481E8141E01009180C000891197861438A
:1023400001314A4304329B185A1C1B7805925BB238
:102350000793002B00DC46E1A54B089A1F78ABB22F
:102360009A46013306939BB2039353460293059B0F
:102370003900A04E47461D78022A00D17DE0013386
:102380000593ADB2002F62D0039AB846531E1BB21C
:102390009A4613B2002499460F0027E0022F73D00B
:1023A000954B1B78002B00D1B4E04346581E019B8F
:1023B0009C466B4608229A5E904B604404921A88B1
:1023C0003388001B00B20F2B06D85B009B46594692
:1023D0008B4BCB5A934204D0049902F027FC844BD8
:1023E0001F78013464B26D08A0452EDDEB07D5D40B
:1023F000844B1A8833889A42F3D0022F00D1ACE084
:102400007D490978002900D192E04146481E019992
:102410008C466044001B01B2049169460820085EA6
:1024200083460F2B06D85B009C466146744BCB5A03
:102430009342D6D05946049802F0F8FB01346C4B15
:1024400064B21F786D08A045D0DC390047466B4662
:102450001A8B039B079802339BB20393099B02924A
:10246000D31A5BB2984200DCAEE0531C0693089A84
:10247000059B1D78022A00D081E71A005B781B02B9
:102480001D43931C05937DE7019B67009C466744B1
:10249000BBB20493594B3FB29B461A8833880F2B2B
:1024A00004D857495B005B5A934253D039005046D9
:1024B00002F0BCFB5B461A8833880F2B04D85049C6
:1024C0005B005B5A934245D03900484602F0AEFBB0
:1024D0005B46049F1A88338801373FB20F2B04D81C
:1024E00047495B005B5A934234D03900504602F0B2
:1024F0009DFB5B461A8833880F2B04D840495B004C
:102500005B5A934226D03900484602F08FFB384B85
:102510001F7866E76B460820185E019BE1180BB236
:102520000493364B1A8833880F2B00D84DE753E7B6
:1025300069460820085E0199611809B28C460F2B84
:1025400005D82F495B005B5A934200D149E76146A9
:1025500002F06CFB264B1F7843E7019967008C461D
:102560006744B9B28B463FB20F2B04D824495B00B5
:102570005B5A9342EED03900504602F057FB214B94
:102580001A8833880F2B04D81D495B005B5A93428D
:10259000E0D039005F46484602F048FB194B01374E
:1025A0001A8833883FB20F2B04D815495B005B5A59
:1025B0009342CFD03900504602F038FB114B1A88B5
:1025C00033880F2B9AD99EE70F0000200E4B185628
:1025D000079B9C46604478430BB03CBC90469946B0
:1025E000A246AB46F0BD024B1F78EEE78C190010F7
:1025F000E0010010DA01001088190010D401001069
:102600009819001086190010D70100100F23024AF4
:10261000034013807047C046DC010010054B064A9A
:1026200018600378013313704378044A0133137040
:102630007047C0468C190010BC1900107F1900109B
:10264000F0B54746CE4680B55678070073420D0078
:1026500083B0994216DB1C4B1B78994212DA14782E
:10266000634298420EDB194B1B7898420ADA931C9E
:102670009846174B99461B78022B1CD0042B0FD081
:10268000082B04D003B00CBC90469946F0BD4346DD
:102690002200009329003300380000F087FFF1E7A3
:1026A00043462200009329003300380000F034FE36
:1026B0004B461B78E4E7434622000093330000F0CA
:1026C0006DFD4B461B78D9E7DF010010DE010010DD
:1026D000D6010010F0B5C64600B51D005B420700EC
:1026E0000C00160082B0994213DB1A4B1B789942FA
:1026F0000FDA534298420CDB174B1B78984208DAEA
:10270000164B98461B78022B1BD0042B0ED0082B9F
:1027100003D002B004BC9046F0BD089B3200009389
:1027200021002B00380000F041FFF2E7089B320047
:10273000009321002B00380000F0EEFD43461B788B
:10274000E5E7089B00932B0000F028FD43461B782B
:10275000DBE7C046DF010010DE010010D6010010EB
:102760000A4B002808D001221A70094BDB321A707C
:10277000084B2C3A1A7070471870074B1A78044BA4
:102780001A70064B1A78034B1A70F4E79019001070
:102790008A19001089190010DE010010DF010010F5
:1027A000F0B5D6464F464646C0B504780500002C25
:1027B00050D0714B714E9846714B724F99463368A9
:1027C0000135DA78002A4AD0602C48D9203CE4B29E
:1027D0000022B85E424619781278521A904200DA06
:1027E0006FE000223A80684A1278002A2FD0674AA8
:1027F00092460021515E5A7894466046644A4000F1
:102800001278121A914200DD9AE00020614A1056B7
:10281000524660444118002009B211809A785E4BFC
:10282000A21A1B78D2B292B2002B00D19FE0FF23F4
:102830001940FFF76BFD202C55D14B461B785BB23E
:10284000002B50D03B8840100130181838802C786D
:10285000002CB4D11CBC90469946A246F0BD0A2C6F
:1028600045D008D90D2C24D10022464B1A802C7853
:10287000002CA4D1EEE7082CAAD1424A197810887E
:102880009B78401A80B21080404A0021515E20227D
:10289000D21A414BD2B21B7892B2002B3DD0FF230B
:1028A00019401840FFF732FD2C78002C00D086E745
:1028B000D0E70E2C00D08BE72C78002C00D07EE7E0
:1028C000C8E7324A0021515E9A78334BA21A1B782E
:1028D000D2B292B2002B2DD1FF231940184000F044
:1028E00037FB202CA9D03B8818183880AFE700218F
:1028F000244A1180254900228C5E5A78244B5000CE
:102900001B781B1A9C420EDD0020224B18568018A3
:1029100000289CD0FFF7B6FB99E7FF231940184029
:1029200000F016FB93E700201A4B18568018001988
:1029300008808CE7FF2319401840FFF7E7FCD0E739
:102940000020144A10566044002800D166E7FFF7C3
:1029500099FB53460021595E336838789A780E4BBC
:10296000A21A1B78D2B292B2002B00D05FE7FF23ED
:10297000194000F0EDFAB4E78A1900108C19001024
:10298000D701001094190010E101001096190010F1
:1029900089190010D8010010901900107047C04626
:1029A00010B50C4B1B785B104B43411059180A4B68
:1029B00089B21B685C18595CC30704D50F2399437F
:1029C0000A43227010BD0F2312010B401A43D2B2EA
:1029D000F7E7C046DE010010B8190010124B30B501
:1029E0001B889A4219D0114C85B22378AB4214D976
:1029F0000F4C89B224788C420FD90F245B105943B5
:102A00000C4B40101B68091889B2581822405B5CB7
:102A1000E90703D5A3431A43027030BD1C401201DD
:102A200022430270F9E7C046DA010010DE0100100F
:102A3000DF010010B8190010F0B54E46DE465746CB
:102A40004546E0B585B00392C34ACB181678029389
:102A50008E4202D89E4200D86CE1C04B1C78019394
:102A6000844200D80BE1029B0F008B4200DBAFE0F9
:102A700082B2944602B2521092B29346B84A91463C
:102A8000C20700D424E1B74A8A469046614684468C
:102A9000380001E0019A14788C4211D99AB296421A
:102AA0000ED9641054434A460F2516685C44A4B2FC
:102AB000325DAA4345462F883A433255A64A1678D6
:102AC00001338342E6DD6046039B5146C218019BF9
:102AD0001C78564500D828E1A24237D2029B0F004D
:102AE0008B4201DB1F000B0016B295B27610AC468C
:102AF000B5B2AB469A4DA946D50700D4C2E03D0019
:102B000088466746594694462A000390BC4217D926
:102B100091489EB20078B04212D94846641074437E
:102B200000680C19A4B2065D0F208643B2468D489A
:102B300006885046064348460068065501980478C2
:102B400001339342E2DD624641460398844200D954
:102B50008BE0A24245D2804B1B78994248D29042EA
:102B600000DC89E082461300012900D0E8E07D49BD
:102B700057468B467A4992468946012188460E314E
:102B80008C46220008E06546AC4321431170019A4F
:102B9000127801339F421EDB9EB29642F9D26E49F3
:102BA00009780129F5D91C045210640CA4184D466B
:102BB0004A462D681268594612192C5D4546097817
:102BC0003542E0D1654609012C402143C9B2DDE719
:102BD0001F000B004CE714005246844208D8944270
:102BE00006D805B03CBC90469946A246AB46F0BD1F
:102BF000594B1B7802999942F3D2904202DD0300AF
:102C000010001A0057496B468A46554917008946F5
:102C1000012188460E318C461B8986B2B44218D9F0
:102C20004D4A12789A4214D9524664105C43117886
:102C30000204520CA4184D464A462D681268A4B2EC
:102C400012192C5D4546354209D06546AC432143F7
:102C500011700130B842C4DC019A1478DDE7654692
:102C600009012C402143C9B2F2E73B4B1B788B4250
:102C7000C0D9904200DD75E79246030074E7039BDC
:102C8000C21829E73D0088466746594694462A00FF
:102C90000390A74218D230489EB20078B04213D9B0
:102CA00030486410744306780C1930018246484657
:102CB0000068A4B2065D0F20064050460643484611
:102CC000006806550198047801339A42E1DA3AE740
:102CD0000F228A469046390067468446584601E0EE
:102CE000019A1478A74214D29AB2B24211D24D4638
:102CF000641054432D680419A4B22E5D45462E403D
:102D00004D46184A2D681278120132432A55124A4C
:102D1000167801339942E3DA6046039B5146C218A4
:102D2000019B1C78564500D9D6E6029B9E4200D9ED
:102D3000D2E60BE7039BC218084B1C78019305E70A
:102D400089B28946064990468C4601214A468B46FF
:102D50008146504611E0C046DF010010DE01001040
:102D6000B8190010DC0100100F218C432643019993
:102D70003E700C78013383421DDC99B2A142F9D236
:102D80000E4D2E789642F5D90D4D64102E7865467D
:102D900054431F047F0C2D68E419A4B22F19654613
:102DA0002D682C5D5D460D42DED10F2136010C40B1
:102DB0002643F6B2DBE7424648460EE7DF01001045
:102DC000DC010010F0B5DE4657464E464546E0B5FC
:102DD000821887B012B2002800DAA9E0584C247893
:102DE000844201DC94426ADDCB181BB200296DDB02
:102DF000544C24788C4201DC9C4260DD824269DACA
:102E000000B214000190994268DD0AB219000392E1
:102E1000CB43E043DB17019AC0170B4020400293DD
:102E200090424CDA039A0493934200DD0492029B91
:102E3000039A0093934200DA0092434B07009C46AA
:102E40009846404C2378029A934202D8039A9342C0
:102E50002FD93B4D2A78BA422BD983B299467B10A1
:102E60009BB29A46C3073CD40F239B464B46049E15
:102E700081460597180000E02A78904213D2217805
:102E8000B3B299420FD941465F4652105A4309687E
:102E90002E4B524492B21B78895C1B0139400B4384
:102EA000414609688B54009B01369E42E4DD48464A
:102EB000059F0130019B00B201378342C2D107B0A8
:102EC0003CBC90469946A246AB46F0BD002BF6DBD3
:102ED000824295DB04B20192994296DC09B20393D7
:102EE00096E70F2356469B46BA46049927004C4660
:102EF000814600E02A78A24212D938788BB29842F3
:102F00000ED952105A43634658461B68B21892B203
:102F10009B5C83430D4800880343604600688354EC
:102F2000009B01319942E5DD3C0048465746C0E729
:102F3000002AC4DBCB181BB2002900DB58E7C5E729
:102F4000DE010010DF010010B8190010DC010010D4
:102F5000F0B54E464546DE465746E0B5844B060082
:102F60001B68F7245D788DB0280008382040441E87
:102F7000A041EC1000190400049018780195444316
:102F80000134624304329B185A1C1B780692794A1A
:102F90005BB203931378022B01D001231370002E30
:102FA00008DB002906DB5843734A801912789042E7
:102FB00000DAC5E0714A724812880488A24200D142
:102FC000BCE0704D70480088844200D1B4E06D4C84
:102FD0000A9408AC0B9520716271022B4CD0039BB4
:102FE000002B34DD0023994601339846069B8FB2AF
:102FF0009B46BA46019F5B461D78049B022B33D04B
:1030000001239C46ADB2E34452460024B2460192ED
:103010004346082601992B4009AA08A8D25C091941
:1030200080199B000134C35809B2504664B29847D6
:103030006D08A742ECDA019B56469A464B4601338F
:103040005BB29946039B013636B24B45D3D1002083
:103050004E4B1856039B9C4660440DB03CBC9046BA
:103060009946A246AB46F0BD5B465B781B021D430A
:1030700002239C46E344C7E7039B002B4CDDB3B21D
:1030800005938BB2029300230793069A0499137851
:10309000022949D09BB29946013206920599002631
:1030A0000BB29B460B0001331BB29A464A460123E2
:1030B0000821134009AAD25C9B00904608AA521826
:1030C000D758029B74009C466444A5B224B2424681
:1030D000210058460135B8472DB2424621005046DE
:1030E000B847424629005846B8474246290050464C
:1030F000B8474B465B0899460136019B76B2B3420E
:10310000D4DA079B01335AB2059B079202339BB274
:103110000593039B9342B8D100201C4B1856039B88
:103120009C466044400098E71100527812021A430E
:103130008B1C91460693B1E7154C49E7144D41E7C6
:10314000019A144801325A4300785218824200DB37
:1031500030E70A4A0A4812880488A24206D00E4D77
:10316000094800888442E7D00B4C31E7084DF7E767
:103170008C190010E0010010DE010010DC010010CD
:10318000DA010010DD29000092190010D7010010AB
:103190009D290000DF010010A1290000F0B5DE46E6
:1031A000454657464E46E0B59B46931085B01BB248
:1031B000984600910392002A68DD83B29946002365
:1031C0009A464B46D1469A4603274B463D004A460F
:1031D000DB171D409B0FD2181740FF1A5B464D446A
:1031E0003FB2AD107F00002B45DD53461BB25B1094
:1031F0009BB2C026019306233E41DF1B53460024A9
:1032000076B2DB0749D40E9A0023944665442A001F
:103210004546904642466B43D05C3A4B30401B8853
:103220003841834221D0C0B2FFF7F0F9364AA3B249
:103230001278524519D900998C463449634409786B
:103240009BB2994211D952105343019A0F209446D0
:103250002F4A634411682F4A9BB212780291C95CCD
:103260001201084002990243CA54013424B22300D7
:10327000A345CFDCA8464B4601331BB299465346C3
:1032800001339BB29A46039B99459DDB05B03CBC3C
:1032900090469946A246AB46F0BD0E9A002394464E
:1032A00065442A004546904642466B43D05C154B28
:1032B00030401B88384198421ED0C0B2FFF7A6F9B3
:1032C000114BA2B21B78534516D900998C460F4971
:1032D0006244097892B291420ED95B105343019A2D
:1032E0000F2094460A4A634411689BB2CA5C824329
:1032F000084800880243CA54013424B223005C45C4
:10330000D2DBB7E7DA010010DE010010DF010010A8
:10331000B8190010DC010010F0B5DE4657464E46E5
:103320004546E0B58DB0169C0092002900DA1AE1FE
:103330009A4DCA182D780292AA4200DDBDE00BB268
:103340009C461A00002800DABEE0954D009B2E78BE
:103350001B180595B34200DD0FE1002345100393D0
:1033600008930793761071438E4B49191B685B18BD
:1033700002998A4257DA01210D000540069505B2EF
:103380000195009D039EA846874F4044861BB94681
:10339000B846B2460D4081490995049104990978CF
:1033A000914240DD069A019D002A00D0A3E05545D8
:1033B00000DBD4E0039A002A45D108E082430235BD
:1033C00011432DB2197001340133AA4518DD40466E
:1033D000217806881A780811864206D00F2002400C
:1033E00093460A008243584602430F200140B142EF
:1033F000E4D102352DB21A7001340133AA45E6DC5E
:10340000079A00999346059A5C441278521A0899D3
:1034100052108B465A449B1862460299013212B2EE
:1034200094468A42BADB0DB03CBC90469946A2460F
:10343000AB46F0BD814302350A432DB21A70013408
:103440000133AA451DDD4846217862780901121131
:103450000A430688D2B219781011864206D00F208E
:1034600001408B4611008143584601430F20024022
:10347000B242DFD102352DB2197001340133AA45B1
:10348000E1DC099A002A15D00F21474A25781288D5
:10349000294091420ED00F2019780AAAD171D17912
:1034A0002D010140D171D17907320D43EDB2157074
:1034B00012781A7001340133A2E70AB2EB1894466D
:1034C0000293002800DB40E7022543001D40009BDB
:1034D000039598468044434640424010009303B20F
:1034E000984607932E4B00251E7805930023002055
:1034F0004444089336E755451BDA1A782178388812
:103500000E11B04202D00F20824332430F261A70B0
:10351000388801330E401A7886421AD00F200901EC
:1035200002400A430235D2B22DB21A700134554519
:10353000E4DB039A002A00D162E71B482278058861
:1035400019781211AA4202D00F2081431143197039
:1035500056E702352DB201345545CFDBE9E7039A32
:10356000002A8ED14CE7CB18029353105943002305
:10357000641A00229C460021E4E6022745002F4001
:1035800001250540A8469B1B5B1043441BB20793D3
:10359000331A0895039700934510E3E6DF01001006
:1035A000DE010010B8190010DA010010F0B54E4627
:1035B0004546DE465746E0B585B0914680461A003E
:1035C0000E9B00296ADB88188246394800788245BC
:1035D00051DC0AB2944614004246002A52DB354AB6
:1035E0000025107803924A4642440195824207DD45
:1035F0004246121A4A4412B201924246821A914637
:1036000041432D4A414412685118A2452CDD4246DF
:1036100012B20292264A4F469346454627484744EF
:103620005A461278A2421FDD029ABA420DDAA84623
:10363000EE1A1D780488AC4200D00D7001339A193F
:1036400012B201319742F4DC45464C46019A90464D
:10365000039A43441278121B89186246013212B24F
:10366000944614005245DBDB05B03CBC90469946BD
:10367000A246AB46F0BD8246924442460CB2A446F6
:10368000002AACDA504202B2C14401929046094A83
:1036900043441078039200229046B1E792464A468E
:1036A0008A44514300225B1A00249446002193E788
:1036B000DF010010DE010010B8190010DA0100105F
:1036C000427801789210C910C90252010A438178E8
:1036D0005D4BC9100A431A80C2784179D210C910D3
:1036E000D2020A430179891049010A435A8082793A
:1036F000017AD210C910D2020A43C1798910490156
:103700000A439A80427AC17AD210C910D2020A437F
:10371000817A891049010A43DA80027B817BD210C9
:10372000C910D2020A43417B891049010A431A8118
:10373000C27B417CD210C910D2020A43017C89109D
:1037400049010A435A81827C017DD210C910D202FC
:103750000A43C17C891049010A439A81427DC17D97
:10376000D210C910D2020A43817D891049010A434F
:10377000DA81027E817ED210C910D2020A43417ED4
:10378000891049010A431A82C27E417FD210C910B2
:10379000D2020A43017F891049010A4320215A823B
:1037A000827F415CD210C910D2020A43C17F8910C6
:1037B00049010A439A8221222321825C415CD21072
:1037C000C910D2020A432221415C891049010A43EF
:1037D000DA8224222621825C415CD210C910D202F6
:1037E0000A432521415C891049010A431A83272293
:1037F0002921825C415CD210C910D2020A432821DF
:10380000415C891049010A435A832A222C21825C97
:10381000415CD210C910D2020A432B21415C8910AD
:1038200049010A439A832D222F21825C415CD210E8
:10383000C910D2020A432E21415C891049010A4372
:10384000DA83024A1360704798190010801900103B
:103850000200264B1A43920726D1C21CD21A062A0E
:1038600022D902681A80120C5A8042689A80120C7F
:10387000DA8082681A81120C5A81C2689A81120C0D
:10388000DA8102691A82120C5A8242699A82120CF7
:10389000DA8282691A83120C5A83C2699A83120CE3
:1038A000DA83134A1360704702881A8042885A806C
:1038B00082889A80C288DA8002891A8142895A8174
:1038C00082899A81C289DA81028A1A82428A5A825C
:1038D000828A9A82C28ADA82028B1A83428B5A8344
:1038E000828B9A83C28BDA83DBE7C046981900107B
:1038F0008019001010B50B490B780133DBB2072B90
:103900000CD80948C25C501114005309074A105CD6
:10391000074A0B70148001F011FB10BD7F200723B4
:10392000E024F5E7BD190010BC5B0100C45B010099
:10393000C419001010B5084A1378002B01D0013BC0
:10394000DBB20649CB5C06490B805B111370054A5C
:10395000D05C01F0F3FA10BDBD190010BC5B010092
:10396000C4190010C45B010010B5021CFF2800DD63
:10397000FF2213B2DB43DB170A4913400A4A1380C4
:1039800000200B5E0A88DB43DB1713401AB20B8062
:103990005311064A1370FF221340054AD05C01F010
:1039A000CDFA10BDC4190010E2010010BD190010BD
:1039B000C45B010070B5224D224C2A6823689A42EC
:1039C00025D02368002B1CD02368012B31D0802107
:1039D00023680901022B28D01B48FEF721FB802019
:1039E000000184462368194919482B600B68634419
:1039F00084461A000B60174B1B6A634493420FD333
:103A000070BD802114480901FEF70AFBE7E7104862
:103A1000104B84460D491B6A0A6863449342EFD2F7
:103A200000230B60FEF706FBEAE70C48FEF7F8FA06
:103A3000D5E780210A480901FEF7F2FACFE7C04630
:103A4000243C0010183C0010182C00102C440010CE
:103A500000F8FFFF2C060010183400101824001086
:103A6000181C001010B501F031FB012001F086FA9E
:103A700010BDC0460300C043C0171840064B10B528
:103A80001880064B40111870FF231840044B185C37
:103A900001F054FA10BDC046C4190010BD19001041
:103AA000C45B010010B50248FEF7E2F910BDC04644
:103AB000CC1900100122014B1A717047001C001034
:103AC0000022014B1A717047001C00100122014BAB
:103AD0005A717047001C00100022014B5A71704748
:103AE000001C00100122014B9A717047001C00104D
:103AF0000022014B9A717047001C00100122014BFB
:103B00005A707047001C00100022014B5A70704719
:103B1000001C00100122014BDA707047001C0010DD
:103B20000022014BDA707047001C00100022014B8C
:103B30009A707047001C00100022014B1A707047E9
:103B4000001C001010B5054B9A79002A02D1012201
:103B50009A7010BDFFF7CEFEFBE7C046001C0010B8
:103B600010B5054B9A79002A02D101221A7010BDB6
:103B7000FFF7E0FEFBE7C046001C001010B504484C
:103B800002F05AFB0122034B1871034B5A6210BD1D
:103B9000D0190010001C0010004000A010B504480F
:103BA00002F04AFB0222034B5871034B5A6210BDCC
:103BB000201A0010001C0010004000A010B504489E
:103BC00002F03AFB0422034B9871034B5A6210BD7A
:103BD000701A0010001C0010004000A010B504482E
:103BE00002F02AFB0822034B5870034B5A6210BDA7
:103BF000B01B0010001C0010004000A010B50448CD
:103C000002F01AFB1022034BD870034B5A6210BD0E
:103C1000C01A0010001C0010004000A070B5114830
:103C200002F00AFB104CA071104802F005FBA379CA
:103C3000C0B22070002B01D0002806D100220C4B0E
:103C40001A7020220B4B5A6270BD094D2B78002B45
:103C500004D00023237001332B70F2E7FFF76AFED4
:103C6000F7E7C046701A0010001C0010101B00106F
:103C7000091C0010004000A070B5114802F0DCFAE9
:103C8000104CA071104802F0D7FAA379C0B2A0700E
:103C9000002B01D0002806D100220C4B1A704022C4
:103CA0000B4B5A6270BD094D2B78002B04D00023BA
:103CB000A37001332B70F2E7FFF71CFEF7E7C04655
:103CC000701A0010001C0010601B0010091C00106E
:103CD000004000A010B52E4C2E49200002F0D4FA6E
:103CE00020002D4902F0BEFA2C4C2D49200002F094
:103CF000CBFA20002B4902F0B5FA2B4C2B492000BF
:103D000002F0C2FA20002A4902F0ACFA294C2A49F2
:103D1000200002F0B9FA2000284902F0A3FA284C4A
:103D20002849200002F0B0FA2000274902F09AFA50
:103D3000264C2749200002F0A7FA2000254902F06E
:103D400091FA254C2549200002F09EFA20002449D2
:103D500002F088FA0020234902F050FC0120224999
:103D600002F04CFC0220214902F048FC03202049CB
:103D700002F044FC04201F4902F040FC05201E49CB
:103D800002F03CFC06201D4902F038FC10BDC04684
:103D9000D0190010C13A0000B53A0000201A0010F6
:103DA000D93A0000CD3A0000701A0010F13A000034
:103DB000E53A0000B01B0010093B0000FD3A00008E
:103DC000C01A0010213B0000153B0000101B001022
:103DD000393B0000613B0000601B00102D3B0000E0
:103DE000453B00007D3B00009D3B0000BD3B0000CB
:103DF000DD3B0000FD3B00001D3C0000793C000065
:103E000070B52648FEF7D8F9254E2649300002F055
:103E1000EFF9254D254C2A002100300002F0E4FB8B
:103E2000234E2449300002F0E3F92A00210030003B
:103E300002F0DAFB204E2149300002F0D9F92A00C5
:103E40002100300002F0D0FB1D4E1E49300002F070
:103E5000CFF92A002100300002F0C6FB1A4E1B49A0
:103E6000300002F0C5F92A002100300002F0BCFB4E
:103E7000174E1849300002F0BBF92A00210030002B
:103E800002F0B2FB144E1549300002F0B1F92A00DD
:103E90003000210002F0A8FB70BDC046081C0010D5
:103EA000D019001084120100000100106D610000A3
:103EB000201A001070080100701A00108814010008
:103EC000B01B0010941A0100C01A00106C0601000B
:103ED000101B0010C4320100601B00107C0E01009A
:103EE000F0B54A4857464E464546DE468046A02332
:103EF0008A22E0B504278025444618201B0692013B
:103F00009F5043499246434E434A6D049D505E5034
:103F100018514248002484468020654640015C5088
:103F20005851C046C046843D9850A9465F518025EF
:103F30006D049D503A4D5E50AB4645465E465E511F
:103F400065465C505851C046554698505F51802593
:103F50006D049D5080256D00AB462E4E45465E504B
:103F60005E465E5165465C505851C046C0464D465F
:103F700098505F5180256D049D504546254E5E50FA
:103F80005C5165465C505851C046554698505F514B
:103F900080256D049D5084256D00AB465E504546DE
:103FA0005E465E5165465C505851C046C0464D461F
:103FB00098505F5180256D049D504546154E5E50CA
:103FC0005C5165465C505851C046554698505F510B
:103FD00080256D049D5088256D00AA465E5045469B
:103FE00056465E515C5064461851C046C0464C4629
:103FF00098501F518024074E64049C5098505E5086
:104000003CBC90469946A246AB46F0BD88210000D4
:10401000882000000700F8FF04220000842200002E
:10402000C081000080230B4A9B00D25810B5031CAE
:10403000642800D96423D8B26421504304F066F8A0
:1040400081220421034B920098505A688A435A6097
:1040500010BDC04600C00050F0B557464546DE468C
:104060004E46A0238A22E0B5042580271B06920134
:1040700083B000903C4C9D5092463C493C4A7F04A2
:104080005F5090461A513B4A3B4894468022654611
:1040900052005A5100221A51802252011A50C04631
:1040A000C04688260425B6015A50B1469D51464661
:1040B0005F5000251E5166469D5100261E511A5024
:1040C000C046564604355A509D5146465F501E51D3
:1040D00084267600B34666465F469F5100261E51F1
:1040E0001A50C046C0464E4680275A5001959D51F1
:1040F00046467F045F5000251E5166469D510026AE
:104100001E511A50C0465646019D5A509D51464672
:104110005F501E5188267600B246664657469F512C
:1041200000261E511A50C046C04646465A501E51DF
:10413000009EF600B046664647469F5100268027FF
:104140001E514C467F041D510C4C5F505A501A5062
:10415000C046013C5A50002CF9D103B03CBC9046FB
:104160009946A246AB46F0BD88200000042200001C
:104170000700F8FF8821000084220000409700001B
:10418000F0B557464E464546DE46A0228A23E0B5A6
:104190000427802612069B01D75036499A46364896
:1041A000364B760416508846D150354900258C464A
:1041B00080216446490011518021324C4901D5507B
:1041C0001151C046C046843C1150A1461751444687
:1041D0001650D450644615512A4CD5501151C04642
:1041E00054461150175144461650D450842464004C
:1041F000A34664465E461651224CD5501151C04626
:10420000C0464C468026115017514446760416503D
:10421000D450644615511B4CD5501151C0465446DC
:104220001150175144461650D45088246400A246B9
:10423000644656461651134CD5501151C046C046DF
:1042400044461150D450644680261551D5504B46F3
:104250007604D7500B4C0C4B165011501151C046E0
:10426000013B1150002BF9D13CBC90469946A24627
:10427000AB46F0BD0700F8FF0422000088200000D4
:1042800088210000842200004097000080208022C6
:10429000F8B5DE4657464E464546EC4B12061958D1
:1042A000E0B50A431A5080225968920011435960C0
:1042B000FC210324E6480127435880269B0A9B02E1
:1042C0002343E44C43502168E34B76010B430C211C
:1042D00023606368E1480B436360A123DB00E75080
:1042E000DF4B0A39E150C1239B00E650C021012376
:1042F00089005B4263500C31605004396350D94BE4
:104300006421A350A358D84D1801C01A400003F0EF
:10431000FDFE812304229B00E05063689246934394
:104320006360A024240667510A2002F037F9CF4ABF
:104330000A20A750914602F031F967510A2002F095
:104340002DF98A2351469B01E15080210823002248
:1043500049046151C64F8B46C648C749E051904653
:104360006350E2514A469C46A650C046C04653465A
:10437000843A6651A3505B468E2263514346120134
:10438000E0516250E3514B46E650C0468A22534604
:1043900092016651A3505B46102263514346E0519F
:1043A0006250E3514B46E650C046C0468822534611
:1043B00092016651A3505B4680226351434612012D
:1043C000E0516250E3514B46E650C0468A225346C4
:1043D00092016651A3505B46182263514346E05157
:1043E0006250E3514B46E650C046C04688225346D1
:1043F00092016651A3505B46635143469F4AE05188
:104400006250E3514B46E650C0468A225346920121
:104410006651A3505B46402263514346E0516250CF
:10442000E3514B46E650C046C046882253469201AF
:104430006651A3505B4663514346914AE051625036
:10444000E3514B46E650C0468A22534692016651DC
:10445000A3505B46602263514346E0516250E351F2
:104460004B46E650C046C0468822534692016651EC
:10447000A3505B4663514346E0516350E3514B46C2
:10448000E650C046534680326651A3505B467822C0
:1044900063514346E0516250E3514B46E650C046FB
:1044A000C0468822534692016651A3505B46635131
:1044B0006346E05163504346E3514B46E650C046E5
:1044C000534680326651A3505B46635180235B00A4
:1044D000E05163504346E3514B46E650C046C04668
:1044E0005146843B6651E150594643466151624909
:1044F000E0516350E3514B46E650C0465346665187
:10450000A3505B46635184235B00E05163504346F4
:10451000E3514B46E650C046C0465146843B665187
:10452000E1505B46635143465349E0516350E351C8
:104530004B46E650C04653466651A3505B46635116
:104540008023E05163504346E3514B46E650C0465A
:10455000C0465046843B6651E05058464346605141
:104560004448E0516350E3514B46E650C046534641
:104570006651A3505B4663518823E0516350434624
:10458000E3514B46E650C046C0465246843B665116
:10459000E2505B46635180231B02E0516350434667
:1045A000E3514B46E650C0460A20665101F0F6FF43
:1045B0008A2253469201A3505B466351C0232D4883
:1045C0002D495B00E05163504346E3514B46E650B2
:1045D000C046C0465046843B6651E050584643466C
:1045E00060512448E0516350E3514B46E650C046C9
:1045F00053466651A3505B466351C4235B00E051B0
:1046000063504346E3514B46E650C046C0465146D0
:10461000843B6651E1505946DB2361511649DB006A
:10462000E0519C4663504346E3514B46E650C0463A
:1046300053466651A3505B46C8226351434652001D
:10464000E0516250E3514B46E6501BE000800440CD
:104650000040044000C000500100060001100000AE
:104660000C050000204E00000422000084220000FF
:10467000882000000700F8FF8821000080810000EA
:1046800040400000C046C046882253469201665111
:10469000A3505B4663514346E0516350E3514B46A0
:1046A000E650C046534680326651A3505B46CC224A
:1046B000635143465200E0516250E3514B46E6508D
:1046C000C046C0468822534692016651A3505B46BD
:1046D00063514346E0516350E3514B46E650C046B8
:1046E000534680326651A3505B46D0226351434605
:1046F0005200E0516250E3514B46E650C046C0467E
:104700008822534692016651A3505B46635163462B
:10471000E05163504346E3514B46E650C046534692
:1047200080326651A3505B46D42263514346520007
:10473000E0516250E3514B46E650C046C0468822E5
:10474000534692016651A3505B4663514346E05184
:104750006350E3514B46E650C046534680326651A3
:10476000A3505B46D822635143465200E051625049
:10477000E3514B46E650C046C0468822534692015C
:104780006651A3505B46AF2263514346D200E051CD
:104790006250E3514B46E650C0468A22534692018E
:1047A0006651A3505B46DC22635143465200E05100
:1047B0006250E3514B46E650C046C04688225346FD
:1047C00092016651A3505B4663514346E0516350EA
:1047D000E3514B46E650C046534680326651A350E3
:1047E0005B46E022635143465200E0516250E35180
:1047F0004B46E650C046C046882253469201665159
:10480000A3505B4663516346E0510A006350414642
:10481000E15149466650C0468A2351469B01665184
:10482000E1505946E423615141465B00E051A350F9
:10483000E15149466650C046C046534684396651E8
:104840006350594661514146E051A150E1514946FA
:104850006650C0460A20665101F0A0FE8A235146E8
:104860009B01E1505946FF2342466151E248E3492A
:10487000DB00E0516350E2514A469C46A650C046D8
:10488000C0465346843A6651A3505B461822635192
:104890004346E0516250E3514B46E650C046524613
:1048A000043B6651E2505A466251A0229200E05108
:1048B00062504246E2514A46A650C046C046504663
:1048C000843A6651A0505846CD4A6051CA48E051DA
:1048D00062504246E2514A46A650C0465246665190
:1048E000E2505A466251A2229200E0516250424682
:1048F000E2514A46A650C046C0465046843A6651E8
:10490000A0505846BF4A6051BB48E05162504246F1
:10491000E2514A46A650C04652466651E2505A46B7
:104920006251A4229200E05162504246E2514A464E
:10493000A650C046C0465146843A6651A1505946D9
:1049400028226151AD49E05162504246E2514A4647
:10495000A650C04652466651E2505A466251A622BF
:104960009200E05162504146E15149466650C046CE
:10497000C0468822514692016651A15059469F4A2D
:104980006151A149E051A1504246E2514A46A65028
:10499000C04652466651E2505B46A8226351974B8F
:1049A0009200E0511900E2504346E3514B46E65075
:1049B000C046C0468822534692016651A3505A46CB
:1049C0006251924AE05162504246E2514A46A65034
:1049D000C046043A6651A3505B46AA22635143463F
:1049E0009200E0516250E3514B46E650C046C0464B
:1049F0005246843B6651E2505B4663511823E051B6
:104A000063504346E3514B460A00E650C0465346C6
:104A1000F8326651A350AC225B4692006351E051DC
:104A200062504246E2514A46A650C046C0465346EE
:104A3000843A6651A3505A4643466251744AE05143
:104A40006250E3514B46E650C0465146043B665126
:104A5000E15059466151E051AE204146674B80001C
:104A6000E050E15149466650C046C0468820514654
:104A70008001665121505946615141465E48E051DE
:104A80006448E050E15149466650C0465146F8330B
:104A90006651E150594658486151E051B0204146B5
:104AA000564B8000E050E15149466650C046C04632
:104AB0008820514680016651215059464E48615127
:104AC0005149E051E1504146E15149466650C046E6
:104AD000534604396651635059466151B221474BE0
:104AE0008900E051E1504146E15149466650C046D7
:104AF000C046534684396651635059466151E0516E
:104B000001003E4822504246E2514A46A650C04665
:104B10008A2352469B016651E2505A466251B022A6
:104B2000D200E15122504246E2514A46A650C046C8
:104B3000C0465346843A6651A3505B466351434690
:104B4000354AE1512250E3514B46E650C0465246A9
:104B5000043B6651E2505A4663466251E1510A00F5
:104B6000235001004046E05148462650C046C0460A
:104B700053468438665123505B4663514346E251A5
:104B80006350E3514B46E650C0465046043B6651E5
:104B9000E0505846382360514046E2516350E0519E
:104BA00048462650C046C046534684386651235076
:104BB000584660514046194BE2516350E051484617
:104BC0002650C046C820665101F0E8FC8A235046B2
:104BD0009B01E0505B4663518823074A07495B000D
:104BE000E25163504346E3514B46E650C046C0464F
:104BF0006651FFF7C5FA13E00700F8FF88210000AF
:104C0000181000004850000008810000103000001B
:104C1000183800003828000008280100B88000007B
:104C20003CBC90469946A246AB46F8BDF0B5DE4680
:104C300057464E46454680B29346E0B5DB2874D8C9
:104C40008BB2AF2B71D804229246A0238A225446FD
:104C500080251B0692019C508022374C6D041D510B
:104C6000364EA946364D52009D51A846354D5A51F3
:104C70000022AC4680259A51334A6D019D50C046B2
:104C8000C04688275246BF011D51DA514A461A5183
:104C900042469A516246C900995000222A499A51C7
:104CA0005D50C046524604391D515A504A461A5169
:104CB000424684219A516246490099500022224975
:104CC0009A515D50C046C04652461D51DA514A467F
:104CD0001A5142469A516246C0009850002208007C
:104CE0009A515D50C046524604391D515A504A46A9
:104CF0001A51424688219A51624649009950002231
:104D00009A511D50C046C04652461D51DA514A467E
:104D10001A5142461D519A515A46D1006246995045
:104D200000229A511D50C0461D513CBC90469946E8
:104D3000A246AB46F0BDC046042200008820000019
:104D40000700F8FF8821000084220000030010B54E
:104D50000800190000F028FD10BDC04602225C4B7F
:104D6000F0B519680A4200D1F0BD1A600123594814
:104D7000594A5A490370096813688B4200D19CE074
:104D800057490978002900D081E0591C11601A7830
:104D9000544B197801230B40037000D181E0524835
:104DA000524C03682568591C01601B78DBB2A9428C
:104DB00012D34F490D6801350D600D68042D01D1E6
:104DC00000250D6009684B4DC9024919016080201A
:104DD00000018446614421609A18803A464B1B7852
:104DE0005BB2002B65D0FF2A5FDDFF220321CB1AC7
:104DF000DA40FF23D1B213404048414E0170414D8B
:104E00003178414C695C4B4301210F001B0A1F4064
:104E100027703E4F5C100C403C703D4F9C100C4086
:104E20003C703C4FDC100C403C703B4F1C110C4064
:104E30003C705C11394F0C403C709C112140384C47
:104E4000DB1121703749DBB20B703378E95C364BEC
:104E500051431C6880239B00E358090A4B4381217E
:104E60001B0A89006350037830499A180888304B30
:104E7000304C52081A8022548022431C9BB20B8073
:104E80005200934200D06FE700230B806CE72A4961
:104E90000C78651C0D70002C11D11A780F239A43E1
:104EA00076E700299AD07F2396E7D143C9170A40B5
:104EB0009CE70023002100229EE77F2268E75C1C1C
:104EC00014601A7800231201D2B20B7060E7C0465A
:104ED0000040014030440010C0190010C8190010F3
:104EE000C6190010141C00101C3C0010203C0010BF
:104EF000183C0010181C0010E40100100A1C0010DF
:104F0000BD190010CC5B01003C0000A03D0000A0DA
:104F10003E0000A03F0000A0540000A0550000A0EB
:104F2000560000A0570000A00C1C001028440010E0
:104F30002A440010283C0010BE19001010B543B2DE
:104F40000C4C8EB0002B12DB2070812168460A4A7F
:104F5000090100F079F922785E21684600F00EFA26
:104F60002478684600F008FA20000EB010BD7F23B8
:104F70002370EAE70B1C0010140A0000A02212069E
:104F8000002804D08021044B8902D1507047802131
:104F9000024B8902D150F9E704220000842200006C
:104FA00070B5002858D08022802334499B0088584F
:104FB000334C03438B50334B6268186800236360A3
:104FC0000133A36001336360A368002BFCD16260EE
:104FD0000822FA21636949011343636103F096F8DB
:104FE0001022E061636980251343636163680F3AAF
:104FF00013436360C023244CED025B00E550122094
:10500000224901F0FBFA8023214A25601360214ADE
:1050100021481360214A1360214A1360214A13601A
:10502000214A1360214A1360214A1360F023214A68
:105030001B0611680B431360F0231F4A1B04116801
:105040000B431360A02380211B061A5889020A43D0
:105050001A501A4A995070BD194C1A49200001F093
:10506000FDFE20000F2102F021F82000164901F07A
:10507000EDFF1E20FEF7D6FF95E7C04600800440F6
:1050800000400140FC01001000E100E05D4D000027
:10509000DC400440D840044004200000D4400440D8
:1050A000D04004404C410440484104404441044045
:1050B00040410440042000A0082000A00422000079
:1050C0000C1C001040270200CDCCCC3D10B50020B8
:1050D000FFF766FF10BDC046024A136864331360D1
:1050E0007047C04634440010044B054A07215A60FB
:1050F00000229A601960034B1A60704710E000E0CC
:10510000FF3D490034440010054B9868054B1A6870
:10511000054B1B1A05485B0A5843000C8018704762
:1051200010E000E034440010FF3D4900BB020000E5
:1051300010B5002001F0D6F902F06CFD10BDC0469C
:10514000A023802104201B0689015A5810B5024370
:105150005A508021294A4901985801439950802189
:105160009858490401430120995099580143995096
:105170002349244A585802435A502348002101F039
:1051800037FE0021214801F033FE0021204801F0C4
:105190002FFE00211F4801F02BFE00211E4801F0C8
:1051A00027FE00211D4801F023FE00211C4801F0CC
:1051B0001FFE00211B4801F01BFE00211A4801F0D0
:1051C00017FE0021194801F013FE0021184801F0D4
:1051D0000FFE0021174801F00BFE0021164801F0D8
:1051E00007FE0021154801F003FE0021144801F0DC
:1051F000FFFD0021134801F0FBFD10BD042000005D
:1052000008200000F8FF0700000702000409020060
:10521000080B02000C0D0200100F02001411020016
:10522000181302001C1502002017020024190200A6
:10523000281B02002C1D0200301F02003421020036
:10524000382302003C250200F0B5C64604000D00DC
:1052500000B516000021182202F0A9FA2900250045
:105260002000183501F0A2F818220021280002F0D1
:105270009EFA3100280001F099F80121280001F080
:105280002FFB0421280001F025FB0121200001F063
:1052900027FB0421200001F01DFB00223023E254F3
:1052A0002F3B63630121280001F01AFB012120003C
:1052B00001F016FB2368013348D0E36862681A6086
:1052C000A36901334DD0A36AE26904251A60606BBB
:1052D00001F074F9264E274B370098460121200033
:1052E00001F0FEFA606B01F069F92368013327D001
:1052F000236962681A60606B01F060F9A369013389
:1053000018D0636AE2691A60606B01F057F923688C
:10531000013309D0E3686268013D1A60002DDDD1D8
:10532000200004BC9046F0BD24221149114800F031
:10533000FDFFEFE7242239000E4800F0F7FFE0E719
:1053400024223100404600F0F1FFD1E72422084931
:10535000084800F0EBFFE36862681A60A369013354
:10536000B1D124220249034800F0E0FFABE7C04678
:10537000D45B0100385C01007047C046F8B50123DA
:10538000DE46574645464E4604009943E0B58846FA
:105390000121170001F0A4FA606B01F00FF9A36975
:1053A000013300D19BE1636AE2691A60236801332B
:1053B00000D18EE1E36862681A60606B01F0FEF86C
:1053C0002368013300D17EE1236962681A60606B53
:1053D00001F0F4F8A369013300D16EE1A36AE26938
:1053E00008251A60606B01F0E9F80121200001F046
:1053F00077FAC74B9946C74BCA469B460126606B56
:10540000013D01F0DBF8AE4043461E402368013306
:1054100000D108E1002E00D101E1E36862681A6062
:10542000A369013300D1F4E0636AE2691A60606B3A
:1054300001F0C4F8A369013300D1DEE0A36AE26998
:105440001A60002DDAD12368013300D12FE1E3681F
:10545000626801211A60200001F042FA23680133DA
:1054600000D11EE1E36862681A60A369013300D1CC
:1054700011E1636AE26900211A60200001F030FA4C
:105480000421200001F026FA606B01F097F8A3696F
:10549000013300D1F9E0A36AE2691A60236801339D
:1054A00000D1ECE0636962681B681A4200D1C4E075
:1054B0000121200001F014FA954B08259846954BE0
:1054C000C1469A460126013DAE40606B01F076F878
:1054D00023683E40013300D189E0002E00D182E0F4
:1054E000E36862681A60A369013300D175E0636AFA
:1054F000E2691A60606B01F061F8A369013360D062
:10550000A36AE2691A60002DDCD12368013300D15F
:1055100097E0E368626801211A60200001F0E0F979
:105520002368013300D1A4E0E36862681A60A369CC
:10553000013300D197E0636AE26900211A6020001C
:1055400001F0CEF90421200001F0C4F9606B01F0F4
:1055500035F8A369013300D17FE0A36AE2691A60DC
:105560002368013300D172E0636962681B681A42E4
:105570005FD00121200001F0B3F9606B01F01EF84B
:105580002368013300D1BCE0236962681A60606B54
:1055900001F014F8A369013300D1ACE0636AE26959
:1055A0001A60606B01F00AF82368013300D19CE0B7
:1055B000E36862681A603CBC90469946A246AB46D6
:1055C000F8BD24225249534800F0B0FEA36AE269B4
:1055D0001A60002D00D075E797E7242249464D4810
:1055E00000F0A4FE83E7236962681A607BE7242247
:1055F0004146504600F09AFE6FE724224449454850
:1056000000F094FEA36AE2691A60002D00D0F5E66E
:1056100019E7242251463F4800F088FE04E7236939
:1056200062681A60FCE624224946584600F07EFE75
:10563000F0E6606B00F0C2FF9BE7606B00F0BEFF1E
:1056400036E724223249334800F070FE61E72C220D
:105650002F49304800F06AFE86E724222C492D4865
:1056600000F064FE79E7242229492A4800F05EFE12
:1056700061E724222649274800F058FE54E72C22EF
:105680002349244800F052FE0CE7242220492148F7
:1056900000F04CFEFFE624221D491E4800F046FEA5
:1056A000E7E624221A491B4800F040FEDAE62422ED
:1056B0001749184800F03AFEC9E624221449154853
:1056C00000F034FE8AE624221149124800F02EFE32
:1056D0007AE624220E490F4800F028FE6AE62422CA
:1056E0000B490C4800F022FE5DE6242208490948D7
:1056F00000F01CFE5CE724220549064800F016FE77
:105700004CE724220249034800F010FE3CE7C04663
:10571000D45B0100385C01003E2310B58AB00593CC
:105720006B46DC1C0123FA2108930A4B0690890082
:105730001868079402F0EAFC099072B6064B01A9BA
:1057400005A8984762B6019B002B02D120780AB0C9
:1057500010BDFEE7FC010010F11FFF1F10B58CB05B
:105760006B46D971FA213D220124073309930B4B73
:1057700008908900186807920A9402F0C7FC084B49
:105780000B905C6072B6074B03A907A8984762B6F6
:10579000039B002B01D10CB010BDFEE7FC010010F3
:1057A00000400140F11FFF1FF0B544464D465646EC
:1057B00070B4EEB06E46414C414AA146414CA04601
:1057C0006E250F780F243B0927405B00C45AE40084
:1057D00014604B46D36710C6FC241351D3677F0077
:1057E0001351C45BE40014604B46D36710C6FC241D
:1057F0001351D36701311351023DE2D16E466E253C
:105800004C4608CE1360D467FC23D450D467013DC6
:10581000D45008CE1360D467FC23D450D467013D24
:10582000D45008CE1360D467FC23D450D467013D14
:10583000D45008CE1360D467FC23D450D467013D04
:10584000D45008CE1360D467FC23D450D467013DF4
:10585000D45008CE1360D467FC23D450D467013DE4
:10586000D45008CE1360D467FC23D450D467013DD4
:10587000D45008CE1360D467FC23D450D467013DC4
:10588000D45008CE1360D467FC23D450D467013DB4
:10589000D45008CE1360D467FC23D450D467013DA4
:1058A000D450AED16E4601245823A044984587D1E8
:1058B0006EB070BCA046A946B246F0BD0010000014
:1058C000882100A00000000010B50A4B187803F0F2
:1058D00035FB011C084802F065FE084903F02CF86E
:1058E000F621890503F028F802F026FE044B188003
:1058F00010BDC046E5010010000070420000FA45EE
:1059000038440010F0B5DE4657464E464546E0B5F1
:105910008DB0019008000291169900920C000200CF
:10592000002B00DAE8E08046002500269844002994
:1059300000DAD9E00098002784468C44774908783B
:10594000404505D8C11A8AB2C90700D597E012B2FE
:1059500073490978614501D8091B0091002D02D0D7
:1059600001360133013A002A00D181E00099002973
:105970007ED001214010444319405B08E318694C74
:105980008846551E02991C19931E063A92084F43E9
:105990000132590852000390481C0B91069281086D
:1059A000002289008B460321914611329A429B4185
:1059B000BC4608908843411C07900F20490009917C
:1059C0005B420231B4440A9105936346464659103E
:1059D000019B5A182300002E54D0002D3CD0042DDA
:1059E00000D899E0069926788A4692445146049157
:1059F0000021A2460C0011785F78090107400F438F
:105A00007FB25F701178864309110E431E70517882
:105A10009E78090106400E43F6B29E705178874386
:105A200009110F43049902325F700434023391422A
:105A3000E1D12100544617785E783F0106403E438D
:105A40005E7017781E783F1186433E4302311E7008
:105A500001320133A942EED301239A46029BD1447D
:105A60009A46039BD4449A46009B54444B45ACD180
:105A70000DB03CBC90469946A246AB46F0BD013AFB
:105A800092B264E7002DE7D0019B04319A46434669
:105A900051448C427341211D8A427641059933431A
:105AA000194230D013000321234319422BD1002384
:105AB0005946D658E65004339942FAD1079B089EBE
:105AC0009A468B4652441900E318B142C4D011786B
:105AD000197009998D42BFD9517859700A998D4230
