:1000000000800010FD000000297100003171000027
:10001000000000000000000000000000A99CFEEFAE
:10002000000000000000000000000000357100002A
:100030000000000000000000397100002D5C00008D
:100040002D7100002D7100002D7100002D71000038
:100050002D7100002D7100002D7100002D71000028
:100060002D7100002D7100002D7100002D71000018
:100070002D7100002D7100002D7100002D71000008
:100080002D7100002D710000B15800002D7100008D
:100090002D7100002D7100002D7100002D710000E8
:1000A0002D7100002D7100002D7100002D710000D8
:1000B0002D7100002D7100002D7100000000000066
:1000C0002C73010000010010640100002C7301007A
:1000D00000000020000000002C7301000040002000
:1000E00000000000680200102C4200000000002008
:1000F000000000000040002000000000F0B5454670
:10010000DE4657464E46E0B55D4A5E4B904683B0AC
:10011000934200D3B1E00722934607329246213240
:10012000914619001C6889685D680C331A0020002C
:1001300000292FD027005E462F4337407E4277416B
:10014000EE1D361BB245B641764201393E4200D122
:100150007FE089457DD28908481C9C4621004708DC
:10016000FF003F192E1B0094019573180C684D6811
:1001700008311C605D60B942F7D101210600009C86
:10018000019D8E43B100634664186D18B04201D0E2
:10019000216829609845C4D83B498A424FD2072339
:1001A0000139891A994313008C4608339C44012372
:1001B00090469A460023424606CA0800002A39D0D3
:1001C0005646551EAC080134A1468C0864423440A2
:1001D000172D4BD9002C3AD0042508C04E46361BAB
:1001E000B146A40009197408E40064180026002729
:1001F000C0C18C42FAD151464C468C43A1008B467B
:10020000290058445944A14514D00C1D0360A24252
:1002100010D904344360A2420CD904348360A24252
:1002200008D90434C360A24204D9143103618A425C
:1002300000D9436108229146C844E045BBD106F08D
:10024000A7FF124B002B13D000E000BFFEE70025F4
:10025000C4E78908261D890089192E1B05002D6811
:100260008419043025608842F8D193E70021CCE757
:1002700007F0E6FF06F0BCFEE8E71A008CE7C04690
:10028000E4000000C0000000FC00000000000000CE
:1002900010B5064C2378002B07D1054B002B02D05C
:1002A000044800E000BF0123237010BD6802001065
:1002B000000000002C730100044B10B5002B03D08C
:1002C0000349044800E000BF10BDC0460000000024
:1002D0006C0200102C73010010B50400C0680028E7
:1002E00001D006F031FF200010BDC04670B5856812
:1002F0000400002D05D028002D6806F025FF002DF4
:10030000F9D1636800219A00206807F0FAFF002302
:10031000E360A360230020681833984201D006F000
:1003200013FF200070BDC046F0B5DE465746454677
:100330004E46E0B5994C9A48A54402F019FF08AB27
:100340009C4611AF3D003B000022964961441A6073
:1003500008339942FBD1802600247600E000082271
:1003600000213818013407F0CCFFB442F6D18E4892
:1003700004F018F807238D4A3900138010228C4BA3
:10038000D8312B602A716A71083582338D42F8D1D9
:10039000022000F0BFFF01000EA801F02BF80E9B19
:1003A00084491B68844803931B68844C9A78120123
:1003B0000A80DA78824912010A8019780A010280DB
:1003C0005A781001208098687E4BF9507E4BFA5085
:1003D000083BF85005F042FC7C4A03009446634415
:1003E00008930023079302F07BFB002800D1ABE1C8
:1003F00058230022009300210020163302F076FBE0
:10040000051EF0D06B4B052100241C5F6C4B0022B5
:100410009B5E9A46039B187902F0B8FA002806D032
:10042000644B644A1B88103B138000230793039B93
:100430000521187A02F0AAFA002806D05D4B5D4A21
:100440001B881033138000230793039B05219879A1
:1004500002F09CFA002806D0594B594A1B88103BE1
:10046000138000230793039B0521987A02F08EFAEC
:10047000002806D0524B524A1B88103313800023A9
:100480000793039B0521187B02F080FA43425841F1
:10049000079E039B404205210640987B02F076FAB6
:1004A00043425841039B404205210640187C02F01C
:1004B0006DFA434258413F494042064007960026A4
:1004C0008E5F002E00DA73E13B4B1B881A000F3A57
:1004D000B24200DD57E1242203998A5C920700D4DE
:1004E00051E101250121039E0435300000F0FAFEA0
:1004F00003041B0E9A460BAA10802E4AC4B2B446BF
:10050000148052462E4BAD0065441A806B682A4811
:1005100003931B68294D19780A0102805A789B6859
:10052000100128802748395027497A50802212012B
:10053000BB5003220020264904900A80254A1178E6
:100540004A08944208DB1C480088851AAC4200DC4B
:100550005AE1091A0AB2049200201F4A8146117812
:1005600093464A08924508DB14480088841AA2453D
:1005700000DC44E1091A0AB29146002B6AD0124A03
:10058000BA580592002A65D00E4ABA580692002A37
:1005900060D01D0000239A4628E0C046ACF7FFFF5C
:1005A000FC64010024080000144F0100DA0100106F
:1005B000CACD0000D0010010CE010010CC01001007
:1005C000D20100100408000008080000C0D4010097
:1005D00092190010DE010010DF01001001239C467B
:1005E000059BE24445469144534533D00699002289
:1005F0008846BD4B049E1B78A844B342EEDD2C78A0
:10060000E4003859002800D1BBE05A4612789145E1
:100610000FDA3A1911798C46F1420AD449465279D7
:10062000CA4206D433000091614605F015FFAE4B77
:100630001B783C192279B61862799E42CEDA0135D0
:100640004545DAD101239C46059BE2444546914449
:100650005345CBD1A54BA64A1B88A64E1380082331
:1006600002212A20338002F0A5FB05F0F7FA089B4F
:10067000181A00D528E105F0F1FAFA21089B890043
:10068000181A08F077FB3C21040008F059FC0D0013
:10069000601A3C2108F06EFB2B00020096490CA862
:1006A00008F014F90CA802F025FE944B0020185E07
:1006B0008D4B1B785A08904208DB914909888C1AA7
:1006C000A04200DCAEE05B1A181800B28D4B00218E
:1006D000595E5B461B785A08914208DB8A4C248895
:1006E000A51AA94200DC9BE01B1B591809B2874BD5
:1006F00010220093102302F097FD079B002B00D1DE
:1007000071E6052303243380774B00211A780020FB
:10071000182303F001F9744B00211A7800201823E4
:10072000348002F033FF0221022002F043FB6F4BC2
:100730006F4A1B8809981380348002F0DBFD02F0B9
:10074000CFF9002800D053E600260E980F9D854271
:100750000AD004002068002802D0282107F042FCBB
:100760000434A542F6D10E98002801D006F0ECFC26
:100770003000674B9D443CBC90469946A246AB4630
:10078000F0BD00225BE75F4A0021525E0492002A1E
:100790003EDB5D4A0498128811000F39814210DC5B
:1007A00024210398415C49070BD5022502219AE6D2
:1007B0002423039AD35C1B0700D485E60325032179
:1007C00091E6002E06DBB34204DB049B002B01DB29
:1007D0009A4229DA07F0ECFF032108F0B1FB022965
:1007E00003D84C4B8900CB5809935246434B07958D
:1007F0001C80444B1A8080231B01FB5899E651460C
:10080000521A12B29146B8E6141B22B20492A3E621
:10081000242203998A5CD207BBD50025002162E619
:1008200011B264E710B251E73B4AB31DBA581B112D
:1008300093424BD239480499385807310911814203
:1008400044D24A43802109017958CB189B5C180097
:100850000593334B98465B6819009B4608F086FA6F
:1008600043461B688A00D35806919846002B32D025
:100870001B681A7991465A464946A346B146140068
:100880000E000CE01D68002D24D02E7921003000D0
:10089000984608F06BFA069B8B421BD12B00059AF9
:1008A000B242EFD142464E465C46002A13D0002B9E
:1008B00011D0059B042B00D146E78023049A1B012D
:1008C00092463400FB5834E601263EE70023002020
:1008D0000593BEE75C465246084B26001C80094B38
:1008E00004921A80E5E7C046DE010010DA0100102C
:1008F00092190010DC010010E8B70000D0010010D0
:10090000CE010010D2010010CC010010EED6000084
:100910005408000058BA000004080000080800004D
:100920008C030010F0B5C64600B5254882B003F030
:1009300039FD07230621234A234D1380234A00242F
:100940001180234A1380234BEF18234B98465826D7
:1009500002F0C6F800282FD06E23002200210020CC
:10096000009602F0C3F80028F2D00521042002F01E
:100970000DF8431E984124180B2C1DDC0521062080
:1009800002F004F8002817D10022072C00DD134ADA
:1009900052190021002002F0FDFB3A000021002046
:1009A00002F0F8FB0221022002F004FA4246A30002
:1009B000985802F09FFCCAE702B004BC9046F0BD14
:1009C0002C4F0100DA01001004DD0000DC010010F2
:1009D00092190010D425000004010010EA12000052
:1009E000F0B5DE464E4645465746E0B583B005F0C5
:1009F00035F907F0B9FE01F0E7FF2D4802F0B8FB2A
:100A00002C4B58259A462C4B2C4E99462C4B9846ED
:100A10002C4B9B461027504603F0C4FC378008E05F
:100A20006E23002200210020009502F05FF80028CC
:100A300031D102F055F80028F2D1FFF773FFFFF72C
:100A400073FC0400484603F0ADFC06224146072330
:100A50000A801D4A338013801C4B03345C431C4BBB
:100A60009C46644402F03CF80028D4D06E23002257
:100A700000210020009502F039F80028F2D0002172
:100A80000020220002F086FB0521042001F07EFFF9
:100A90000028E7D0BEE7002100205A4602F07AFB8A
:100AA0000521042001F072FF0028C2D0C5E7C0462E
:100AB000FC640100804E01002C4F0100DA0100109F
:100AC000DC01001064BA000092190010EA12000064
:100AD00004DD0000F0B557464E464546DE46E0B51B
:100AE000150018229446844462468BB00792026037
:100AF0000122426000228260C26042618261103243
:100B000094460E008444FE21624689050161070077
:100B10000592A91B994200D21900059807F06CFABA
:100B20007B6804009946834215D2012800D1EDE08C
:100B300080239B05984200D3F3E083009946180078
:100B400006F0FEFA4A460021804607F0DAFB4346EB
:100B5000A1463B607C60AE4266D03B68B2460293E1
:100B60006B1E049308239C46BC446346BB46069315
:100B700053461B7849461800984608F0F7F8029A41
:100B80008B00D5580C000393002D1ED02B681F79C5
:100B90000BE01E68002E18D03779494638001D003A
:100BA00008F0E4F88C4210D13300B845F1D1002DA3
:100BB0000BD0002B09D0049B534534D05B465B68B7
:100BC000994601239C46E244D2E7082006F0B8FA91
:100BD0000023036053461B785A4603710123009398
:100BE0005B4608ACDB68060052682000059907F0F8
:100BF0003FFA2378002B1FD15B461B680293029AB1
:100C0000039B944663441C001B68002B6BD01B683D
:100C1000336023681E605B465A46DB680133D3604D
:100C2000049B5345CAD15F4638000BB03CBC90468C
:100C30009946A246AB46F0BD6768012F6BD0802372
:100C40009B059F426DD2BC00200006F079FA22007D
:100C50000021029007F055FB5B4600229D689A60D8
:100C6000002D27D00023B1461E0005E01268226047
:100C70001B681C60002D1CD02C003900207908F066
:100C800075F8029A8B00944663441A682D68002A0E
:100C9000ECD15A46926822605A469460069A1A60CD
:100CA0002368002B30D06346B600F4500E00002DB0
:100CB000E2D14E465B461868079B834201D006F09E
:100CC00043FA5B46029A5F601A603900404608F0BA
:100CD0004DF8029A8B0094460393039B63441C00D7
:100CE0001B68002B93D15B465A469B689660336025
:100CF000002B06D01879516808F038F8029B89005B
:100D0000CE50069B236086E70E00B3E70023BB614D
:100D1000079B98461BE75B4600229A61079B02935C
:100D20009AE707F063F9C04670B5624B8EB06A4629
:100D300034210C93042352181370352208AB059309
:100D40000BAB049307AB03930AAB5B4D029309AB68
:100D5000019306AB00936A4400230CA92800FFF717
:100D6000B9FE564C28002200554906F0E7F96A46BC
:100D7000544B554E1386554B08220193544B0A2170
:100D8000009330000C9B00F05BF9524D22002900CB
:100D9000300006F0D3F9504E504B0A2200930C213C
:100DA0004F4B300000F0D8F822002900300006F048
:100DB000C5F94C4E4C4B0A2200930C214B4B300092
:100DC00000F0CAF822002900300006F0B7F9484EBA
:100DD000484B0C2200930E21474B300000F0BCF82A
:100DE00022002900300006F0A9F9444E444B0622A7
:100DF00000930821434B300000F0AEF82200290098
:100E0000300006F09BF9404E404B0622009308212B
:100E10003F4B300000F0A0F822002900300006F01F
:100E20008DF93C4E3C4B0C22009310213B4B300083
:100E300000F092F822002900300006F07FF9384EC9
:100E4000384B062200930821374B300000F084F81D
:100E500022002900300006F071F9344E344B06228E
:100E600000930821334B300000F076F8220029006F
:100E7000300006F063F9304E304B082200930A210F
:100E80002F4B300000F068F822002900300006F0F7
:100E900055F92C4E2C4B062200930A212B4B300087
:100EA00000F05AF822002900300006F047F90EB091
:100EB00070BDC046000201038C0300100001001049
:100EC000ED020000060300009C020010C44E010069
:100ED000504F0100D90200008402001050CD0000E4
:100EE0004C4F0100B4020010544F0100A04E01000D
:100EF000CC020010CC4F0100A44E0100E40200100F
:100F000074500100A84E0100FC020010A450010022
:100F1000AC4E010014030010D4500100B04E01008B
:100F20002C03001094510100B44E01004403001042
:100F3000C4510100B84E01005C030010F4510100DF
:100F4000BC4E01007403001044520100C04E010069
:100F5000831C032018407047F0B5DE4657464E46C6
:100F60004546E0B587B04360109B05908360002341
:100F70000191009201704270C360036143610029D6
:100F800044D02E4B5A681B68934602930023039368
:100F90000493039A109B944663449A46009B002650
:100FA000002B2BD053461B7859461800994607F062
:100FB000DDFE029A8B009C58002C17D023688846CF
:100FC0001A7915000BE01F68002F0FD03D795946A4
:100FD00028001C0007F0CAFE884507D13B00A94540
:100FE000F1D1002C02D02368002B17D1019B0136D0
:100FF0009C46009BF6B2E244B342D3D1039B019AD4
:1010000001330393DBB204939A42C2D8059807B028
:101010003CBC90469946A246AB46F0BD059B049A5F
:10102000DE709A70009BB342F0D8039B019A0133A3
:101030000393DBB204939A42ABD8E7E7B004001005
:1010400030B5040085B003AD2B80099B0093089B4D
:10105000FFF782FF20002B88638005B030BDC046BB
:1010600082B002291BD010D8002922D0027801AB0F
:10107000013A12011A704268527812015A701878B7
:101080005B781B02184302B07047032918D1002275
:1010900001AB1A704268D27812015A70EFE74268C9
:1010A00001AB927812011A704278013A12015A701B
:1010B000E5E7426801AB1278597012011A70DEE759
:1010C000002201AB1A80DAE770B55F4B8EB00C934B
:1010D000042335220CA90B7108AB05930BAB0493C9
:1010E00007AB03930AAB594D029309AB019306ABCF
:1010F00000936A4400232800FFF7ECFC544C2800BE
:101100002200544906F01AF8534E544B082200931B
:101110000A213000524BFFF71FFF524D524B220065
:1011200029007380300006F009F8504E504B0A2217
:1011300000930C214F4B3000FFF70EFF22002900D7
:10114000300005F0FBFF4C4E4C4B0A2200930C2163
:101150004B4B3000FFF700FF22002900300005F064
:10116000EDFF484E484B0C2200930E21474B3000B8
:10117000FFF7F2FE22002900300005F0DFFF444EA9
:10118000444B062200930821434B3000FFF7E4FE56
:1011900022002900300005F0D1FF404E404B0622CE
:1011A000009308213F4B3000FFF7D6FE22002900B4
:1011B000300005F0C3FF3C4E3C4B0C220093102145
:1011C0003B4B3000FFF7C8FE22002900300005F03D
:1011D000B5FF384E384B062200930821374B3000BC
:1011E000FFF7BAFE22002900300005F0A7FF344EB9
:1011F000344B062200930821334B3000FFF7ACFE3E
:1012000022002900300005F099FF304E304B0822B3
:1012100000930A212F4B3000FFF79EFE2200290089
:10122000300005F08BFF2C4E2C4B062200930A2138
:101230002B4B3000FFF790FE22002900300005F014
:101240007DFF0EB070BDC04600020103B004001067
:1012500000010010ED020000C00300101C5301004B
:1012600070530100D902000006030000A80300101B
:10127000805201006C530100D80300107453010028
:10128000F8520100F0030010EC530100FC52010081
:1012900008040010945401000053010020040010C1
:1012A000C45401000453010038040010F454010038
:1012B0000853010050040010B45501000C53010004
:1012C00068040010E4550100105301008004001070
:1012D00014560100145301009804001064560100D4
:1012E0001853010010B50B1D9B00C018436882B055
:1012F00008001C68FFF72CFE01002000FFF7B0FE7D
:10130000FF2213000340000A10400002184302B0FD
:1013100010BDC04610B5040007F04AFA210007F0DE
:101320000FFE080010BDC046F8B55746DE464E46D3
:1013300045460368E0B5476893462B4A9946FB1A31
:1013400005008A469B10934242D0002B3BD05900A7
:101350008B422FD953464A469C1A244B9846404606
:1013600005F0EEFE060080445B461B683351002CFE
:1013700004DD22004946300006F0B0FF5346043435
:101380003419FF1A002F04DD3A005146200006F000
:10139000A5FF4B46E419002B02D0484605F0D4FEC9
:1013A00043462E606C60AB603CBC90469946A246BA
:1013B000AB46F8BD534648461C1A00290BD1002302
:1013C00000269846D0E74A4604238C1A9846C6E77A
:1013D000074806F00EFE80239B05994200D31100BA
:1013E0008B009846BBE7C046FFFFFF1FFCFFFF7F57
:1013F000A0560100F0B5DE4657464E46454600244D
:10140000E0B58FB0046044600290846028200E0034
:1014100005F096FEF84B062503602423C4549A4633
:1014200080235B0243609946F44FF54BC7608360AD
:1014300005820C902820984605F082FEF14B029A16
:1014400003605346C4544B464360434691688360EF
:101450005368C76005820D908B4201D101F017F8E7
:101460000C9801C353608B4201D101F01BF80D9A17
:1014700004C3029A5360002E01D100F0EEFB012E4E
:1014800000D0E2E307F094F9DF4D0621019507F063
:1014900057FDAC46CC00641A28206400644405F073
:1014A0004FFEDA4B002203602423C25480235B02E8
:1014B0004360D34B03908360D04BC3600623038209
:1014C000A30701D000F021FF2368436063688360B5
:1014D000A368C360A389038207F06AF9062107F0B5
:1014E0002FFD019BCC009C46641A282064006444B4
:1014F00005F026FEC64B002203602423C25480233D
:101500005B024360BE4B05008360BC4BC360062397
:101510000382A30701D000F008FF236843606368DB
:101520008360A368C360A3890382282005F008FEB6
:10153000B84A06260260242292460022934652466A
:1015400059468154802252029146AC4F4260AC4AC7
:10155000C760826006829046079007F029F906214D
:1015600007F0EEFC019BCC009C46641A2820640026
:10157000644405F0E5FD52465946A74B09900360C7
:1015800081544A4642604246C76082600682A20792
:1015900001D000F0DAFE2268A3684260C36062688E
:1015A000A3898260038207F003F9062107F0C8FCD3
:1015B000019BCC009C46641A28206400644405F01A
:1015C000BFFD964B002203602423C25480235B029C
:1015D00043608B4B04908360884BC3600623038277
:1015E000A30701D000F0C2FE2368436063688360F4
:1015F000A368C360A389038207F0DAF8062107F025
:101600009FFC019BCC009C46641A28206400644423
:1016100005F096FD824B002203602423C2548023F0
:101620005B024360764B05908360744BC360062376
:101630000382A30701D000F0A9FE2368436063681A
:101640008360A368C360A389038207F0B1F8062111
:1016500007F076FC019BCC009C46641A28206400AD
:10166000644405F06DFD6F4B002203600893242352
:10167000C25480235B024360614B834683605F4BAF
:10168000C36006230382A30701D000F08FFE226807
:10169000A389426062688260A2680382C26007F028
:1016A00087F8062107F04CFC019BCC009C46641A8D
:1016B00028206400644405F043FD594B0022036078
:1016C0002423C25480235B0243604D4B0A90836005
:1016D0004A4BC36006230382A30701D000F076FEC5
:1016E0002368436063688360A368C360A38903823F
:1016F00007F05EF8062107F023FC019BCC009C4616
:10170000641A28206400644405F01AFD3F4B00224F
:1017100003602423C25480235B024360384B06904D
:101720008360364BC36006230382A30701D000F019
:101730005DFE2368436063688360A368C360A38918
:10174000038207F035F8062107F0FAFB019BCC0075
:101750009C46641A28206400644405F0F1FC324B76
:10176000002203602423C25480235B024360244B85
:1017700007008360214BC36006230382A30701D0C7
:1017800000F044FE2368436063688360A368C3601D
:10179000A389038207F00CF8062107F0D1FB019B17
:1017A000CC009C46641A28206400644405F0C8FC00
:1017B000174B002203602423C25480235B02436042
:1017C0000F4B060083600D4BC36006230382A30703
:1017D00001D000F02BFE2368436063688360A36838
:1017E000C360A3890382282005F0AAFC094A0021CE
:1017F00002602422030019E0E40400100400050044
:1018000002000300CC040010A857010014050010CA
:101810005C0500104405001074050010A4050010BC
:10182000BC0500108C0500102C0500108154464AA0
:101830000B908020DA6092460622444C40029C6065
:101840001A825860914606F0B3FF062107F078FB34
:10185000019ACC009446641A28206400644405F080
:101860006FFC3B4B0021036024230200C1548046DF
:101870008020364B40029360506043465246DA6007
:101880004A461A82A30701D000F0E0FD43462268D1
:101890005A6062689A60A268DA604246A38913823D
:1018A00006F086FF062107F04BFB019BCC009C460F
:1018B000641A28206400644405F042FC254A24236D
:1018C00002600022C25480235B0243601F4B8146AA
:1018D00083601D4BC36006230382A30701D000F081
:1018E000C6FD2268A389426062688260A2680382A2
:1018F000C26006F05DFF062107F022FB019BCC00D1
:101900009C46641A28206400644405F019FC089A77
:10191000242302600022C25480235B0243600B4BED
:1019200082468360084BC36006230382A30701D06D
:1019300000F0DBFC2268A389426062688260A268D2
:101940000382C26008E0C0460400050002000300F4
:101950005C050010BC050010242408200C9A039993
:101960001162135D0192034313550538FFF7F0FA36
:101970000399031D8C46019A9B0063445A6001221F
:1019800082400B5D00201343012213434D610B5530
:10199000FFF7DEFA031D03999B00EB185960012342
:1019A00083401A002B5D022013432B555B46042213
:1019B000CB610B5D13430B55FFF7CAFA031D039967
:1019C0009B005B445960012383401A005B465946E3
:1019D00008201B5D13430B55079929622B5D0343B8
:1019E0002B550538FFF7B4FA0799031D8C469B0069
:1019F00063445D60012383401A000B5D01201343A3
:101A000002220B55059BAB612B5D13432B55FFF752
:101A10009FFA0599031D8C469B0063445D6001237A
:101A200083401A000B5D079D134301220B55099952
:101A3000002069612B5D13432B55FFF789FA099943
:101A4000031D8C469B0063445D60012383401A00A4
:101A50000B5D049D1343022213438D6101200B553E
:101A60000D00FFF775FA0499031D8C469B00634433
:101A70005D60012383401A0004200B5D059D134324
:101A80000343CD6102380B55FFF762FAAC46031DE4
:101A900004999B0063445960012383401A002B5D25
:101AA000594613432B555B4602220A9D01209D6136
:101AB0001B5D13430B55FFF74BFAAC465946031D0C
:101AC0009B0063445960012383401A002B5D0F6221
:101AD00013432B550B5D08210B43594603200B552F
:101AE000FFF736FA5946031D9B00FB185960012386
:101AF00083401A003B5D06991343012269613B55FF
:101B00002B5D002013432B55FFF722FA0699031D86
:101B10008C469B0063445D60012383401A000225CC
:101B20000B5D012013432B438E610B55FFF710FA19
:101B300001228240031D06999B00F3185960082179
:101B4000335D3E62134333553B5D03200B433B55EE
:101B5000FFF7FEF901228240031D9B00F3185F602E
:101B6000335D0420134333554B46FB613B5D034318
:101B70003B550238FFF7ECF90122031D9B004B4453
:101B80005F604B468240494604201B5D0B9F134318
:101B90000B55F761335D034333550238FFF7D8F92E
:101BA0000122BC468240031D9B0063445E603B5D96
:101BB0000120134342462B43BA613B55FFF7C8F956
:101BC0000122031D9B0043445F60434682401B5D2E
:101BD0004946134342462B43916101201355FFF7B9
:101BE000B7F94246031D9B004B445A6001224B4605
:101BF00082401B5D042013434A4613554346524618
:101C0000DA6142461B5D2E00034313550238FFF78D
:101C10009FF94246031D9B0053445A6001225346DC
:101C200082401B5D0D9D1343524633439561012055
:101C30001355FFF78DF95246031D9B00EB185A60B0
:101C4000012383402A5D13432B5502980FB03CBCFF
:101C500090469946A246AB46F0BD06F0A9FDF44C6D
:101C60000621019407F06CF9A446CD006D1A2820D6
:101C70006D00654405F064FAEE4B04000360242314
:101C8000C65480235B024360EB4B8360EB4BC36025
:101C900006230382AB0701D000F069FC2B68436088
:101CA0006B688360AB68C360AB89038206F080FD1C
:101CB000062107F045F9019BCD009C466D1A2820AE
:101CC0006D00654405F03CFADD4B002203602423DF
:101CD000C25480235B024360D74B03908360D74B91
:101CE000C36006230382AB0701D000F030FC2B68F1
:101CF00043606B688360AB68C360AB890382282054
:101D000005F01EFACF4B0626036024239A460023D3
:101D10009B4653465946C15480235B029946C74FA0
:101D20004360C54BC760836006829846069006F004
:101D30003FFD062107F004F9019BCD009C466D1A7A
:101D400028206D00654405F0FBF9BF4A5946026042
:101D5000524681544A464260424604908260C760BF
:101D60000682AA0701D000F0E2FB2A68AB68426055
:101D7000C3606A68AB898260038206F019FD0621A0
:101D800007F0DEF8019BCD009C466D1A28206D00FF
:101D9000654405F0D5F9AD4B002203600893242378
:101DA000C25480235B024360A34B82468360A34BF3
:101DB000C36006230382AB0701D000F0A8FB2A68AA
:101DC000AB8942606A688260AA680382C26006F0DA
:101DD000EFFC062107F0B4F8019BCD009C466D1A7C
:101DE00028206D00654405F0ABF9994B0022036093
:101DF0002423C25480235B0243608F4B834683605D
:101E00008E4BC36006230382AB0701D000F0EEFBCC
:101E10002A68AB8942606A688260AA680382C260ED
:101E200006F0C6FC062107F08BF8019BCD009C460E
:101E30006D1A28206D00654405F082F9089B002288
:101E400003602423C25480235B0243607A4B060064
:101E500083607A4BC36006230382AB0701D000F096
:101E6000B5FB2B6843606B688360AB68C360AB896C
:101E7000038206F09DFC062107F062F8019BCD006D
:101E80009C466D1A28206D00654405F059F96E4A8C
:101E9000242302600022C25480235B024360664B0D
:101EA00080468360654BC36006230382AB0701D085
:101EB00000F07CFB2A68AB8942606A688260AA688D
:101EC0000382C26006F074FC062107F039F8019B1A
:101ED000CD009C466D1A28206D00654405F030F950
:101EE000574B002203602423C25480235B024360CB
:101EF000514B07908360514BC36006230382AB07AD
:101F000000D044E32B6843606B688360AB68C360B8
:101F1000AB89038206F04CFC062107F011F8019B07
:101F2000CD009C466D1A28206D00654405F008F927
:101F3000484B002203602423C25480235B02436089
:101F40003D4B814683603D4BC36006230382AB0754
:101F500000D0CDE22A68AB8942606A688260AA68D4
:101F60000382C26006F024FC062106F0E9FF019B13
:101F7000CD009C466D1A28206D00654405F0E0F800
:101F8000089B002203602423C25480235B02436029
:101F9000294B07008360294BC36006230382AB07EC
:101FA00000D096E22B6843606B688360AB68C360C7
:101FB000AB890382282005F0C3F824220021264B98
:101FC000059003600300815480201B4D06319D6005
:101FD0001A4D4002DD601982586006F0E9FB0621C7
:101FE00006F0AEFF019BCD009C466D1A28206D00C7
:101FF000654405F0A5F824220021184B01900360E8
:102000000300815480200C4A40029A600B4A06313A
:102010005860DA601982AA0700D04AE22A685A603A
:102020006A689A601A00AB68D360AB89138217E0C4
:10203000A85701005C050010020003000400050021
:10204000FC04001014050010740500108C0500102D
:10205000440500102C050010BC050010A40500105C
:10206000242508210C9A03201462535D08920B4327
:102070005355FEF76DFF031D089A9B00E3185A6045
:1020800001228240635D0399134304221343E161FB
:1020900002206355FEF75CFF0399031D8C469B00ED
:1020A00063445C60012383401A0008204B5D1343A6
:1020B0004B5506992162635D034363550538FEF76E
:1020C00047FF0699031D8C469B0063445C60012317
:1020D00083401A004B5D0498134301221343486167
:1020E0004B5500200C00FEF733FF049A031D944665
:1020F0009B0063445C600123834060461A00435D9B
:10210000134343555B460422E361635D022013439E
:102110006355FEF71DFF031D9B005B445C600123BC
:1021200083405C461A0050465B465B5DA06102241A
:1021300058461343234343550120FEF709FF5946F0
:10214000031D9B0053445960012383401A005346EA
:1021500050465B5D03991343012271614355735DE2
:10216000002013437355FEF7F3FE0399031D8C46BD
:102170009B0063445E60012383401A004B5D08208E
:1021800013434B5543463362735D03437355053820
:10219000FEF7DEFE031D9B0043445E600123834087
:1021A0001A00434641465B5D012013434B554B46A5
:1021B000B361735D23437355FEF7CAFE031D9B0095
:1021C0004B445E60012383401A004B4649465B5DE9
:1021D000079E13434B55434604224146DE615B5D37
:1021E000022013434B55FEF7B3FEB4464146031D90
:1021F0009B0063445960012383401A00735D51467C
:10220000134304221343F16102207355FEF7A0FE2D
:10221000031D9B0053445E60012383401A00534614
:1022200051465B5D012013434B554B4649469F6128
:102230005B5D23434B55FEF78BFE4946031D9B0018
:10224000FB185960012383401A007B5D059E1343F0
:102250002343BE6101207B55FEF77AFEB446031D81
:102260009B0063445F60012383401A00012031001A
:10227000735D019E134303434E6100204B5505914E
:10228000FEF766FEB446031D05999B006344596042
:10229000012383401A00735D019613430422735592
:1022A0000D9E0220F761735D13437355FEF750FED8
:1022B00001228240031D9B00FB185E607B5D0D9E2A
:1022C00013437B55019F0120B761735D1C43745517
:1022D000FEF73EFEBC46031D9B0063445E60012387
:1022E00083407A5D13437B55AFE423888380638802
:1022F000C380A3880381E388438123898381638921
:10230000C381A3890382FFF727FB23888380638827
:10231000C380A3880381E388438123898381638900
:10232000C381A3890382FFF7D7F82388838063885A
:10233000C380A3880381E3884381238983816389E0
:10234000C381A3890382FFF7F0F8099A2388938059
:102350006388D380A3881381E38853812389938181
:102360006389D381A3891382FFF71DF923888380B2
:102370006388C380A3880381E388438123898381A1
:102380006389C381A3890382FFF736F92388838099
:102390006388C380A3880381E38843812389838181
:1023A0006389C381A3890382FFF74FF92388838060
:1023B0006388C380A3880381E38843812389838161
:1023C0006389C381A3890382FFF769F92388838026
:1023D0006388C380A3880381E38843812389838141
:1023E0006389C381A3890382FFF782F923888380ED
:1023F0006388C380A3880381E38843812389838121
:102400006389C381A3890382FFF79BF923888380B3
:102410006388C380A3880381E38843812389838100
:102420006389C381A3890382FFF7B4F9238883807A
:102430006388C380A3880381E388438123898381E0
:102440006389C381A3890382FFF7CDF942462388BC
:1024500093806388D380A3881381E3885381238981
:1024600093816389D381A3891382FFF719FA2388A3
:1024700083806388C380A3880381E38843812389A1
:1024800083816389C381A3890382FFF732FA140031
:102490000CAA2000FEF748FF6368A1688B4201D0B8
:1024A000FEF7E5FF190002980DAAFEF73DFFFEF7C3
:1024B000E2FF019A2B8893806B88D380AB881381CD
:1024C000EB8853812B8993816B89D381AB891382EC
:1024D000C6E52B8883806B88C380AB880381EB883B
:1024E00043812B8983816B89C381AB89038261E539
:1024F0002B8883806B88C380AB880381EB88438102
:102500002B8983816B89C381AB8903822AE52B8860
:1025100083806B88C380AB880381EB8843812B89E0
:1025200083816B89C381AB890382FFF750FC2B88C1
:1025300083806B88C380AB880381EB8843812B89C0
:1025400083816B89C381AB890382FFF716FC2B88DB
:1025500083806B88C380AB880381EB8843812B89A0
:1025600083816B89C381AB890382FFF7C8FB2B880A
:1025700083806B88C380AB880381EB8843812B8980
:1025800083816B89C381AB890382FFF78FFB2B8823
:1025900083806B88C380AB880381EB8843812B8960
:1025A00083816B89C381AB890382B3E42B888380E9
:1025B0006B88C380AB880381EB8843812B8983813F
:1025C0006B89C381AB890382FFF77CFC2B888380F6
:1025D0006B88C380AB880381EB8843812B8983811F
:1025E0006B89C381AB890382FFF743FC2B8883800F
:1025F0006B88C380AB880381EB8843812B898381FF
:102600006B89C381AB890382FFF70AFC70B5624B0B
:102610008EB06A4634210C9304235218137035226D
:1026200008AB05930BAB049307AB03930AAB5B4D6D
:10263000029309AB019306AB00936A4400230CA9F3
:102640002800FEF747FA564C28002200554904F0AE
:1026500075FD6A46544B554E1386554B082201931F
:10266000544B0A21009330000C9BFEF7E9FC524DBD
:1026700022002900300004F061FD504E504B0A2228
:1026800000930C214F4B3000FEF766FC220029001E
:10269000300004F053FD4C4E4C4B0A2200930C21A9
:1026A0004B4B3000FEF758FC22002900300004F0AC
:1026B00045FD484E484B0C2200930E21474B3000FD
:1026C000FEF74AFC22002900300004F037FD444E9A
:1026D000444B062200930821434B3000FEF73CFC9C
:1026E00022002900300004F029FD404E404B062214
:1026F000009308213F4B3000FEF72EFC22002900FA
:10270000300004F01BFD3C4E3C4B0C22009310218A
:102710003B4B3000FEF720FC22002900300004F083
:102720000DFD384E384B062200930821374B300000
:10273000FEF712FC22002900300004F0FFFC344EAA
:10274000344B062200930821334B3000FEF704FC83
:1027500022002900300004F0F1FC304E304B0822FA
:1027600000930A212F4B3000FEF7F6FB22002900D0
:10277000300004F0E3FC2C4E2C4B062200930A217F
:102780002B4B3000FEF7E8FB22002900300004F05C
:10279000D5FC0EB070BDC04600020103D405001088
:1027A00000010010ED02000006030000E404001028
:1027B0005857010000580100D9020000CC04001055
:1027C000BC560100FC570100FC0400100458010035
:1027D00034570100140500107C58010038570100DF
:1027E0002C050010245901003C570100440500103D
:1027F00054590100405701005C0500108459010044
:102800004457010074050010445A01004857010064
:102810008C050010745A01004C570100A4050010EB
:10282000A45A010050570100BC050010F45A0100E1
:102830005457010010B50249024804F03DFD10BD97
:102840005C2E0000F005001010B501F0EDFF10BD8A
:10285000474A484B1178002900D06DE018780028CD
:1028600004D0FF2800D16CE0FF31197051780029A5
:102870005BD15878002803D0FF285BD0FF31597016
:10288000917800294AD19878002803D0FF284AD0AF
:10289000FF319970D178002939D1D878002803D038
:1028A000FF2839D0FF31D9701179002928D1187942
:1028B000002803D0FF2828D0FF3119715179002951
:1028C00017D15879002803D0FF2817D0FF3159714C
:1028D0009279002A06D09A790132D2B2FF2A32D0F8
:1028E0009A71704799790029FBD0FF29F8D0FF220F
:1028F000F6E759790131C9B2FF2927D05971E7E7C5
:1029000019790131C9B2FF2923D01971D6E7D978D5
:102910000131C9B2FF291FD0D970C5E799780131BB
:10292000C9B2FF291BD09970B4E759780131C9B2F7
:10293000FF2917D05970A3E719780131C9B2FF29CF
:1029400013D0197092E702229A71CAE702215971D5
:10295000BEE702211971B1E70221D970A4E7022173
:10296000997097E7022159708AE7022119707DE773
:10297000001C0010F4050010034B185C01384342A2
:102980005841C0B27047C046F405001010B50C4B5A
:1029900001290CD9185CFF2807D006F0E7F9C8B266
:1029A000013841424841C0B210BD0020FCE71B5C29
:1029B000FD220020013BDBB29A424041C0B2F3E766
:1029C000F40500107047C04670B50124354B002057
:1029D0001C7000F06FFC344800F0CAFB03F02EF9C5
:1029E00003F058F901F020FF03F04CF92122FF26F3
:1029F0002E4B2F4D1A702F4B7F201C602E7001F034
:102A00005DFD7F222C4B2E701A80FFF71DFFFFF714
:102A10001FFF00F0CBF9294803F028FC830736D4C8
:102A20000026012000F046FC254D2E8000F0B0F974
:102A3000244C200000F09CFB012000F03BFCFC2219
:102A4000214BD20020001A8001242E8000F090FB40
:102A500000231E4E1E4DFF2033702C7001F02EFD02
:102A6000FF2001F0B1FD002000F024FC194B1A48B2
:102A70001C701A4B34701C702C7000F079FB01F044
:102A80009BFD0520FFF778FF002806D170BD2100CF
:102A900081430A4803F00CFCC2E7002001F094FDDA
:102AA000F4E7C04611060010305B0100000600107C
:102AB0000806001004060010C4190010B40F00002E
:102AC0008619001098610100D4010010D701001090
:102AD000D8010010E0010010345E0100E101001097
:102AE000014B18787047C0461106001070B50500FC
:102AF00001F00AFD03F0B2F8114B12491A780B6885
:102B0000114C1B1A934209D92368002B0BD12800C2
:102B100000F05AF901230020236003E0236800201D
:102B2000002BF4D070BD1018084A086013680133F8
:102B3000136000232360FFF78BFE0120F2E7C046FD
:102B4000000600100C06001004060010FC05001022
:102B500010B5024800F0DAF810BDC04610060010AB
:102B60007047C04610B50400182105F03BFA20005C
:102B700010BDC04610B582B06B469C1D220003F00C
:102B800023FF208802B010BD10B5002003F0A8FF7D
:102B9000014B187010BDC0465C0600100123812255
:102BA00010B5084C82B05B4200932000064B0749E9
:102BB000520104F03FF92000054A064904F0BEFA2C
:102BC00002B010BD14060010180C00002412000002
:102BD00000010010612B0000F8B54E46DE46574656
:102BE0004546E0B5424B81461B789C46984202DB45
:102BF000013B1BB299463F4B1B78042B47D0022B5D
:102C00003FD1484603213C4A127893465043C417AB
:102C100021400918891089B2384A394892461288E9
:102C200000889046524610804A46002A39DD4846C0
:102C30006246121A9146002A18DD5A46D0084343CC
:102C4000002B13D0002400222E4D00200E00AF5D7B
:102C5000260001300131013480B289B2A4B2AF55EF
:102C60009842F3DB013292B24A45EEDB264B5A46DC
:102C70000021595E0020634600F04EFE5346424656
:102C80001A803CBC90469946A246AB46F8BD4846E1
:102C9000194A12785043C10F09184910934689B256
:102CA000BAE76446A2B294464A4690B2A04217D20E
:102CB0005A465343DB1013D000260027114D002441
:102CC00030002A5C0800013401360131A4B2B6B2EA
:102CD00089B22A549C42F3DB0137BFB26745EED379
:102CE0004B465A460021002000F016FEC6E7C046BB
:102CF000DF010010D6010010DE010010DC01001021
:102D0000921900106006001096190010134B144A17
:102D100010B5040013481A6001F07CFA0122124B2E
:102D200012491A70124BDB321A70124B2C3A1A707D
:102D3000114B124A200013601A7801320A705B7836
:102D40000F4A0133137011220E4B1A8000220E4BD2
:102D50001A800E4B04321A7010BDC046B81900100C
:102D600060060010E066010090190010BC19001008
:102D70008A19001089190010305B01008C190010AD
:102D80007F190010DA01001092190010D60100100E
:102D900010B5002001F00AFF0023024A1380024A06
:102DA000138010BD941900109619001010B502F090
:102DB00017F810BD024B1880024B19807047C046AF
:102DC000941900109619001010B5002804D01C4B5F
:102DD0001B78002B0DD010BD1A4B1C6801F02AFE89
:102DE000194B2000196802F05BFD154B1B78002B76
:102DF000F1D1164B164A197818880F2312780B4018
:102E0000012A17D0022A0ED0042A16D1190119431B
:102E10000C4B104A186805F074FA00230E4A138010
:102E20000E4A1380D7E703230B40990019430B0187
:102E30001943EDE7FF210028EAD11900E8E7C04671
:102E400084190010B8190010801900109219001090
:102E5000D60100101F1300009419001096190010DD
:102E6000F0B54546DE4657464E46E0B5B44B8BB00E
:102E70001B6801915978050088460990F7200839A8
:102E800044460140481E8141E01009180C00089199
:102E90001978614301314A4304329B185A1C1B784C
:102EA00005925BB20793002B00DC46E1A54B089A24
:102EB0001F78ABB29A46013306939BB203935346F5
:102EC0000293059B3900A04E47461D78022A00D187
:102ED0007DE001330593ADB2002F62D0039AB8466E
:102EE000531E1BB29A4613B2002499460F0027E0E6
:102EF000022F73D0954B1B78002B00D1B4E04346D2
:102F0000581E019B9C466B4608229A5E904B60447B
:102F100004921A883388001B00B20F2B06D85B007E
:102F20009B4659468B4BCB5A934204D0049902F0EE
:102F300027FC844B1F78013464B26D08A0452EDD58
:102F4000EB07D5D4844B1A8833889A42F3D0022FEA
:102F500000D1ACE07D490978002900D192E04146DA
:102F6000481E01998C466044001B01B204916946D9
:102F70000820085E83460F2B06D85B009C466146FE
:102F8000744BCB5A9342D6D05946049802F0F8FBC2
:102F900001346C4B64B21F786D08A045D0DC390059
:102FA00047466B461A8B039B079802339BB20393E9
:102FB000099B0292D31A5BB2984200DCAEE0531C2C
:102FC0000693089A059B1D78022A00D081E71A0013
:102FD0005B781B021D43931C05937DE7019B6700F3
:102FE0009C466744BBB20493594B3FB29B461A8838
:102FF00033880F2B04D857495B005B5A934253D058
:103000003900504602F0BCFB5B461A8833880F2B10
:1030100004D850495B005B5A934245D0390048467A
:1030200002F0AEFB5B46049F1A88338801373FB23B
:103030000F2B04D847495B005B5A934234D03900C8
:10304000504602F09DFB5B461A8833880F2B04D84C
:1030500040495B005B5A934226D03900484602F053
:103060008FFB384B1F7866E76B460820185E019B84
:10307000E1180BB20493364B1A8833880F2B00D813
:103080004DE753E769460820085E0199611809B2C7
:103090008C460F2B05D82F495B005B5A934200D119
:1030A00049E7614602F06CFB264B1F7843E7019924
:1030B00067008C466744B9B28B463FB20F2B04D8E9
:1030C00024495B005B5A9342EED03900504602F02F
:1030D00057FB214B1A8833880F2B04D81D495B00FE
:1030E0005B5A9342E0D039005F46484602F048FB05
:1030F000194B01371A8833883FB20F2B04D8154972
:103100005B005B5A9342CFD03900504602F038FB47
:10311000114B1A8833880F2B9AD99EE70F00002095
:103120000E4B1856079B9C46604478430BB03CBC42
:1031300090469946A246AB46F0BD024B1F78EEE79B
:103140008C190010E0010010DA010010881900103D
:10315000D40100109819001086190010D701001032
:103160000F23024A034013807047C046DC01001061
:10317000054B064A18600378013313704378044AFC
:10318000013313707047C0468C190010BC19001031
:103190007F190010F0B54746CE4680B55678070037
:1031A00073420D0083B0994216DB1C4B1B78994289
:1031B00012DA1478634298420EDB194B1B7898425E
:1031C0000ADA931C9846174B99461B78022B1CD0A1
:1031D000042B0FD0082B04D003B00CBC90469946AA
:1031E000F0BD43462200009329003300380000F070
:1031F00087FFF1E74346220000932900330038009F
:1032000000F034FE4B461B78E4E74346220000936F
:10321000330000F06DFD4B461B78D9E7DF0100104D
:10322000DE010010D6010010F0B5C64600B51D0045
:103230005B4207000C00160082B0994213DB1A4B68
:103240001B7899420FDA534298420CDB174B1B78DC
:10325000984208DA164B98461B78022B1BD0042B99
:103260000ED0082B03D002B004BC9046F0BD089BE2
:103270003200009321002B00380000F041FFF2E7FC
:10328000089B3200009321002B00380000F0EEFD77
:1032900043461B78E5E7089B00932B0000F028FDD0
:1032A00043461B78DBE7C046DF010010DE0100105B
:1032B000D60100100A4B002808D001221A70094BD1
:1032C000DB321A70084B2C3A1A7070471870074B93
:1032D0001A78044B1A70064B1A78034B1A70F4E7ED
:1032E000901900108A19001089190010DE010010D1
:1032F000DF010010F0B5D6464F464646C0B504780B
:103300000500002C50D0714B714E9846714B724F96
:10331000994633680135DA78002A4AD0602C48D9BA
:10332000203CE4B20022B85E424619781278521A64
:10333000904200DA6FE000223A80684A1278002A50
:103340002FD0674A92460021515E5A7894466046D3
:10335000644A40001278121A914200DD9AE000207F
:10336000614A1056524660444118002009B211804B
:103370009A785E4BA21A1B78D2B292B2002B00D17F
:103380009FE0FF231940FFF76BFD202C55D14B46E2
:103390001B785BB2002B50D03B88401001301818CE
:1033A00038802C78002CB4D11CBC90469946A2469B
:1033B000F0BD0A2C45D008D90D2C24D10022464B53
:1033C0001A802C78002CA4D1EEE7082CAAD1424A0E
:1033D000197810889B78401A80B21080404A0021EA
:1033E000515E2022D21A414BD2B21B7892B2002BEE
:1033F0003DD0FF2319401840FFF732FD2C78002CF8
:1034000000D086E7D0E70E2C00D08BE72C78002C7C
:1034100000D07EE7C8E7324A0021515E9A78334BEC
:10342000A21A1B78D2B292B2002B2DD1FF231940E1
:10343000184000F037FB202CA9D03B8818183880A2
:10344000AFE70021244A1180254900228C5E5A787A
:10345000244B50001B781B1A9C420EDD0020224B8F
:103460001856801800289CD0FFF7B6FB99E7FF2379
:103470001940184000F016FB93E700201A4B18562D
:103480008018001908808CE7FF2319401840FFF7C7
:10349000E7FCD0E70020144A10566044002800D111
:1034A00066E7FFF799FB53460021595E3368387889
:1034B0009A780E4BA21A1B78D2B292B2002B00D08F
:1034C0005FE7FF23194000F0EDFAB4E78A19001016
:1034D0008C190010D701001094190010E1010010A0
:1034E0009619001089190010D801001090190010C9
:1034F0007047C04610B50C4B1B785B104B43411016
:1035000059180A4B89B21B685C18595CC30704D56B
:103510000F2399430A43227010BD0F2312010B4061
:103520001A43D2B2F7E7C046DE010010B819001006
:10353000124B30B51B889A4219D0114C85B22378B2
:10354000AB4214D90F4C89B224788C420FD90F2486
:103550005B1059430C4B40101B68091889B258186E
:1035600022405B5CE90703D5A3431A43027030BDD8
:103570001C40120122430270F9E7C046DA01001034
:10358000DE010010DF010010B8190010F0B54E4642
:10359000DE4657464546E0B585B00392C34ACB1890
:1035A000167802938E4202D89E4200D86CE1C04B3E
:1035B0001C780193844200D80BE1029B0F008B42E0
:1035C00000DBAFE082B2944602B2521092B2934650
:1035D000B84A9146C20700D424E1B74A8A469046C9
:1035E00061468446380001E0019A14788C4211D972
:1035F0009AB296420ED9641054434A460F25166873
:103600005C44A4B2325DAA4345462F883A43325502
:10361000A64A167801338342E6DD6046039B514695
:10362000C218019B1C78564500D828E1A24237D227
:10363000029B0F008B4201DB1F000B0016B295B2FC
:103640007610AC46B5B2AB469A4DA946D50700D424
:10365000C2E03D0088466746594694462A000390DA
:10366000BC4217D991489EB20078B04212D9484660
:103670006410744300680C19A4B2065D0F208643E1
:10368000B2468D48068850460643484600680655AF
:103690000198047801339342E2DD62464146039883
:1036A000844200D98BE0A24245D2804B1B789942DC
:1036B00048D2904200DC89E082461300012900D004
:1036C000E8E07D4957468B467A4992468946012172
:1036D00088460E318C46220008E06546AC43214303
:1036E0001170019A127801339F421EDB9EB29642FE
:1036F000F9D26E4909780129F5D91C045210640CDD
:10370000A4184D464A462D681268594612192C5D78
:10371000454609783542E0D1654609012C402143F0
:10372000C9B2DDE71F000B004CE71400524684428B
:1037300008D8944206D805B03CBC90469946A246AB
:10374000AB46F0BD594B1B7802999942F3D2904297
:1037500002DD030010001A0057496B468A4655499E
:1037600017008946012188460E318C461B8986B296
:10377000B44218D94D4A12789A4214D9524664106C
:103780005C4311780204520CA4184D464A462D6839
:103790001268A4B212192C5D4546354209D065461F
:1037A000AC43214311700130B842C4DC019A147853
:1037B000DDE7654609012C402143C9B2F2E73B4BE6
:1037C0001B788B42C0D9904200DD75E7924603001A
:1037D00074E7039BC21829E73D00884667465946AF
:1037E00094462A000390A74218D230489EB200782F
:1037F000B04213D930486410744306780C19300174
:10380000824648460068A4B2065D0F200640504636
:1038100006434846006806550198047801339A42E9
:10382000E1DA3AE70F228A46904639006746844635
:10383000584601E0019A1478A74214D29AB2B242D3
:1038400011D24D46641054432D680419A4B22E5D64
:1038500045462E404D46184A2D68127812013243D3
:103860002A55124A167801339942E3DA6046039BDF
:103870005146C218019B1C78564500D9D6E6029BDA
:103880009E4200D9D2E60BE7039BC218084B1C7876
:10389000019305E789B28946064990468C46012185
:1038A0004A468B468146504611E0C046DF01001073
:1038B000DE010010B8190010DC0100100F218C434C
:1038C000264301993E700C78013383421DDC99B286
:1038D000A142F9D20E4D2E789642F5D90D4D6410C5
:1038E0002E78654654431F047F0C2D68E419A4B25A
:1038F0002F1965462D682C5D5D460D42DED10F21E6
:1039000036010C402643F6B2DBE7424648460EE756
:10391000DF010010DC010010F0B5DE4657464E46D0
:103920004546E0B5821887B012B2002800DAA9E057
:10393000584C2478844201DC94426ADDCB181BB2D7
:1039400000296DDB544C24788C4201DC9C4260DD04
:10395000824269DA00B214000190994268DD0AB22D
:1039600019000392CB43E043DB17019AC0170B40C9
:103970002040029390424CDA039A0493934200DD74
:103980000492029B039A0093934200DA0092434B05
:1039900007009C469846404C2378029A934202D8EE
:1039A000039A93422FD93B4D2A78BA422BD983B23E
:1039B00099467B109BB29A46C3073CD40F239B4683
:1039C0004B46049E81460597180000E02A789042F5
:1039D00013D22178B3B299420FD941465F465210B3
:1039E0005A4309682E4B524492B21B78895C1B01E2
:1039F00039400B43414609688B54009B01369E4277
:103A0000E4DD4846059F0130019B00B20137834247
:103A1000C2D107B03CBC90469946A246AB46F0BD29
:103A2000002BF6DB824295DB04B20192994296DCD0
:103A300009B2039396E70F2356469B46BA4604996C
:103A400027004C46814600E02A78A24212D93878F5
:103A50008BB298420ED952105A43634658461B689F
:103A6000B21892B29B5C83430D48008803436046C2
:103A700000688354009B01319942E5DD3C004846D3
:103A80005746C0E7002AC4DBCB181BB2002900DB75
:103A900058E7C5E7DE010010DF010010B81900107B
:103AA000DC010010F0B54E464546DE465746E0B50F
:103AB000844B06001B68F7245D788DB02800083819
:103AC0002040441EA041EC10001904000490187816
:103AD000019544430134624304329B185A1C1B78FD
:103AE0000692794A5BB203931378022B01D001232B
:103AF0001370002E08DB002906DB5843734A801937
:103B00001278904200DAC5E0714A7248128804883F
:103B1000A24200D1BCE0704D70480088844200D1C0
:103B2000B4E06D4C0A9408AC0B9520716271022BC5
:103B30004CD0039B002B34DD00239946013398467B
:103B4000069B8FB29B46BA46019F5B461D78049B3D
:103B5000022B33D001239C46ADB2E34452460024ED
:103B6000B24601924346082601992B4009AA08A8AB
:103B7000D25C091980199B000134C35809B2504620
:103B800064B298476D08A742ECDA019B56469A4604
:103B90004B4601335BB29946039B013636B24B4527
:103BA000D3D100204E4B1856039B9C4660440DB069
:103BB0003CBC90469946A246AB46F0BD5B465B785E
:103BC0001B021D4302239C46E344C7E7039B002BD3
:103BD0004CDDB3B205938BB2029300230793069A90
:103BE00004991378022949D09BB299460132069272
:103BF000059900260BB29B460B0001331BB29A4677
:103C00004A4601230821134009AAD25C9B00904632
:103C100008AA5218D758029B74009C466444A5B267
:103C200024B24246210058460135B8472DB24246DB
:103C300021005046B847424629005846B8474246F8
:103C400029005046B8474B465B0899460136019B10
:103C500076B2B342D4DA079B01335AB2059B07927E
:103C600002339BB20593039B9342B8D100201C4BB7
:103C70001856039B9C466044400098E71100527818
:103C800012021A438B1C91460693B1E7154C49E783
:103C9000144D41E7019A144801325A4300785218F2
:103CA000824200DB30E70A4A0A4812880488A242AE
:103CB00006D00E4D094800888442E7D00B4C31E70E
:103CC000084DF7E78C190010E0010010DE0100102C
:103CD000DC010010DA0100103135000092190010EB
:103CE000D7010010F1340000DF010010F5340000AE
:103CF000F0B5DE46454657464E46E0B59B46931026
:103D000085B01BB2984600910392002A68DD83B209
:103D1000994600239A464B46D1469A4603274B467E
:103D20003D004A46DB171D409B0FD2181740FF1A73
:103D30005B464D443FB2AD107F00002B45DD53463E
:103D40001BB25B109BB2C026019306233E41DF1BD2
:103D50005346002476B2DB0749D40E9A00239446DA
:103D600065442A004546904642466B43D05C3A4B38
:103D700030401B883841834221D0C0B2FFF7F0F9B0
:103D8000364AA3B21278524519D900998C46344963
:103D9000634409789BB2994211D952105343019A56
:103DA0000F2094462F4A634411682F4A9BB2127821
:103DB0000291C95C1201084002990243CA540134BD
:103DC00024B22300A345CFDCA8464B4601331BB2E7
:103DD0009946534601339BB29A46039B99459DDB16
:103DE00005B03CBC90469946A246AB46F0BD0E9A43
:103DF0000023944665442A004546904642466B435C
:103E0000D05C154B30401B88384198421ED0C0B260
:103E1000FFF7A6F9114BA2B21B78534516D90099AA
:103E20008C460F496244097892B291420ED95B10D8
:103E30005343019A0F2094460A4A634411689BB287
:103E4000CA5C8243084800880243CA54013424B241
:103E500023005C45D2DBB7E7DA010010DE01001079
:103E6000DF010010B8190010DC010010F0B5DE46CB
:103E700057464E464546E0B58DB0169C0092002947
:103E800000DA1AE19A4DCA182D780292AA4200DD92
:103E9000BDE00BB29C461A00002800DABEE0954D4A
:103EA000009B2E781B180595B34200DD0FE100231F
:103EB0004510039308930793761071438E4B49196D
:103EC0001B685B1802998A4257DA01210D000540F0
:103ED000069505B20195009D039EA846874F404474
:103EE000861BB946B846B2460D40814909950491F2
:103EF00004990978914240DD069A019D002A00D07C
:103F0000A3E0554500DBD4E0039A002A45D108E040
:103F10008243023511432DB2197001340133AA4591
:103F200018DD4046217806881A780811864206D0A6
:103F30000F20024093460A008243584602430F2056
:103F40000140B142E4D102352DB21A70013401337F
:103F5000AA45E6DC079A00999346059A5C441278D4
:103F6000521A089952108B465A449B18624602997D
:103F7000013212B294468A42BADB0DB03CBC904684
:103F80009946A246AB46F0BD814302350A432DB2A5
:103F90001A7001340133AA451DDD48462178627844
:103FA000090112110A430688D2B21978101186420B
:103FB00006D00F2001408B46110081435846014333
:103FC0000F200240B242DFD102352DB21970013408
:103FD0000133AA45E1DC099A002A15D00F21474A8E
:103FE00025781288294091420ED00F2019780AAA0C
:103FF000D171D1792D010140D171D17907320D43B1
:10400000EDB2157012781A7001340133A2E70AB2CA
:10401000EB1894460293002800DB40E7022543009A
:104020001D40009B03959846804443464042401003
:10403000009303B2984607932E4B00251E780593F4
:10404000002300204444089336E755451BDA1A78CC
:10405000217838880E11B04202D00F2082433243BB
:104060000F261A70388801330E401A7886421AD00B
:104070000F20090102400A430235D2B22DB21A7054
:1040800001345545E4DB039A002A00D162E71B485E
:104090002278058819781211AA4202D00F20814394
:1040A0001143197056E702352DB201345545CFDB67
:1040B000E9E7039A002A8ED14CE7CB1802935310FC
:1040C00059430023641A00229C460021E4E602279B
:1040D00045002F4001250540A8469B1B5B1043442B
:1040E0001BB20793331A0895039700934510E3E634
:1040F000DF010010DE010010B8190010DA01001015
:10410000F0B54E464546DE465746E0B585B0914689
:1041100080461A000E9B00296ADB881882463948BF
:104120000078824551DC0AB2944614004246002AC7
:1041300052DB354A0025107803924A4642440195E5
:10414000824207DD4246121A4A4412B201924246A6
:10415000821A914641432D4A414412685118A245A2
:104160002CDD424612B20292264A4F4693464546FD
:10417000274847445A461278A2421FDD029ABA42A3
:104180000DDAA846EE1A1D780488AC4200D00D70F6
:1041900001339A1912B201319742F4DC45464C467C
:1041A000019A9046039A43441278121B891862467A
:1041B000013212B2944614005245DBDB05B03CBC20
:1041C00090469946A246AB46F0BD8246924442468E
:1041D0000CB2A446002AACDA504202B2C1440192A9
:1041E0009046094A43441078039200229046B1E772
:1041F00092464A468A44514300225B1A0024944660
:10420000002193E7DF010010DE010010B819001053
:10421000DA010010427801789210C910C9025201E7
:104220000A4381785D4BC9100A431A80C2784179EC
:10423000D210C910D2020A430179891049010A43F8
:104240005A808279017AD210C910D2020A43C17908
:10425000891049010A439A80427AC17AD210C91062
:10426000D2020A43817A891049010A43DA80027B2B
:10427000817BD210C910D2020A43417B89104901C7
:104280000A431A81C27B417CD210C910D2020A4370
:10429000017C891049010A435A81827C017DD21038
:1042A000C910D2020A43C17C891049010A439A818C
:1042B000427DC17DD210C910D2020A43817D89108E
:1042C00049010A43DA81027E817ED210C910D202EE
:1042D0000A43417E891049010A431A82C27E417F06
:1042E000D210C910D2020A43017F891049010A4342
:1042F00020215A82827F415CD210C910D2020A4327
:10430000C17F891049010A439A8221222321825CBC
:10431000415CD210C910D2020A432221415C8910AB
:1043200049010A43DA8224222621825C415CD210B0
:10433000C910D2020A432521415C891049010A4370
:104340001A8327222921825C415CD210C910D20233
:104350000A432821415C891049010A435A832A22D1
:104360002C21825C415CD210C910D2020A432B215D
:10437000415C891049010A439A832D222F21825CD6
:10438000415CD210C910D2020A432E21415C89102F
:1043900049010A43DA83024A1360704798190010F2
:1043A000801900100200264B1A43920726D1C21C26
:1043B000D21A062A22D902681A80120C5A80426840
:1043C0009A80120CDA8082681A81120C5A81C268B3
:1043D0009A81120CDA8102691A82120C5A8242699D
:1043E0009A82120CDA8282691A83120C5A83C26989
:1043F0009A83120CDA83134A1360704702881A807A
:1044000042885A8082889A80C288DA8002891A811A
:1044100042895A8182899A81C289DA81028A1A8202
:10442000428A5A82828A9A82C28ADA82028B1A83EA
:10443000428B5A83828B9A83C28BDA83DBE7C04636
:10444000981900108019001010B50B490B78013332
:10445000DBB2072B0CD80948C25C50111400530979
:10446000074A105C074A0B70148001F011FB10BD65
:104470007F200723E024F5E7BD1900101067010035
:1044800018670100C419001010B5084A1378002BF2
:1044900001D0013BDBB20649CB5C06490B805B11C6
:1044A0001370054AD05C01F0F3FA10BDBD1900107D
:1044B00010670100C41900101867010010B5021C34
:1044C000FF2800DDFF2213B2DB43DB170A4913404C
:1044D0000A4A138000200B5E0A88DB43DB17134077
:1044E0001AB20B805311064A1370FF221340054A7B
:1044F000D05C01F0CDFA10BDC4190010E20100102B
:10450000BD1900101867010070B5224D224C2A68B1
:1045100023689A4225D02368002B1CD02368012BE6
:1045200031D0802123680901022B28D01B48FEF7D7
:1045300021FB8020000184462368194919482B601B
:104540000B68634484461A000B60174B1B6A634474
:1045500093420FD370BD802114480901FEF70AFB76
:10456000E7E71048104B84460D491B6A0A6863440C
:104570009342EFD200230B60FEF706FBEAE70C48FC
:10458000FEF7F8FAD5E780210A480901FEF7F2FAAA
:10459000CFE7C046243C0010183C0010182C001037
:1045A0002C44001000F8FFFF2C06001018340010F7
:1045B00018240010181C001010B501F031FB012068
:1045C00001F086FA10BDC0460300C043C017184072
:1045D000064B10B51880064B40111870FF23184089
:1045E000044B185C01F054FA10BDC046C419001009
:1045F000BD1900101867010010B50248FEF7E2F976
:1046000010BDC046CC1900100122014B1A71704731
:10461000001C00100022014B1A717047001C001092
:104620000122014B5A717047001C00100022014BFF
:104630005A717047001C00100122014B9A7170479B
:10464000001C00100022014B9A717047001C0010E2
:104650000122014B5A707047001C00100022014BD0
:104660005A707047001C00100122014BDA7070472D
:10467000001C00100022014BDA707047001C001073
:104680000022014B9A707047001C00100022014B61
:104690001A707047001C001010B5054B9A79002A5B
:1046A00002D101229A7010BDFFF7CEFEFBE7C04693
:1046B000001C001010B5054B9A79002A02D1012286
:1046C0001A7010BDFFF7E0FEFBE7C046001C0010AB
:1046D00010B5044802F05AFB0122034B1871034B3A
:1046E0005A6210BDD0190010001C0010004000A03C
:1046F00010B5044802F04AFB0222034B5871034BE9
:104700005A6210BD201A0010001C0010004000A0CA
:1047100010B5044802F03AFB0422034B9871034B96
:104720005A6210BD701A0010001C0010004000A05A
:1047300010B5044802F02AFB0822034B5870034BC3
:104740005A6210BDB01B0010001C0010004000A0F9
:1047500010B5044802F01AFB1022034BD870034B2B
:104760005A6210BDC01A0010001C0010004000A0CA
:1047700070B5114802F00AFB104CA071104802F00D
:1047800005FBA379C0B22070002B01D0002806D110
:1047900000220C4B1A7020220B4B5A6270BD094D3F
:1047A0002B78002B04D00023237001332B70F2E709
:1047B000FFF76AFEF7E7C046701A0010001C0010F1
:1047C000101B0010091C0010004000A070B511481B
:1047D00002F0DCFA104CA071104802F0D7FAA3796D
:1047E000C0B2A070002B01D0002806D100220C4BD3
:1047F0001A7040220B4B5A6270BD094D2B78002B6A
:1048000004D00023A37001332B70F2E7FFF71CFEE6
:10481000F7E7C046701A0010001C0010601B001063
:10482000091C0010004000A010B52E4C2E4920009D
:1048300002F0D4FA20002D4902F0BEFA2C4C2D498A
:10484000200002F0CBFA20002B4902F0B5FA2B4CE5
:104850002B49200002F0C2FA20002A4902F0ACFAEB
:10486000294C2A49200002F0B9FA2000284902F018
:10487000A3FA284C2849200002F0B0FA200027496A
:1048800002F09AFA264C2749200002F0A7FA2000ED
:10489000254902F091FA254C2549200002F09EFAA4
:1048A0002000244902F088FA0020234902F050FC3D
:1048B0000120224902F04CFC0220214902F048FC70
:1048C0000320204902F044FC04201F4902F040FC70
:1048D00005201E4902F03CFC06201D4902F038FC70
:1048E00010BDC046D0190010154600000946000052
:1048F000201A00102D46000021460000701A0010FA
:104900004546000039460000B01B00105D4600001F
:1049100051460000C01A00107546000069460000AC
:10492000101B00108D460000B5460000601B0010F3
:104930008146000099460000D1460000F146000083
:104940001147000031470000514700007147000047
:10495000CD47000070B52648FEF7D8F9254E264908
:10496000300002F0EFF9254D254C2A0021003000DF
:1049700002F0E4FB234E2449300002F0E3F92A0060
:104980002100300002F0DAFB204E2149300002F015
:10499000D9F92A002100300002F0D0FB1D4E1E493B
:1049A000300002F0CFF92A002100300002F0C6FBEF
:1049B0001A4E1B49300002F0C5F92A0021003000D0
:1049C00002F0BCFB174E1849300002F0BBF92A0078
:1049D0002100300002F0B2FB144E1549300002F005
:1049E000B1F92A003000210002F0A8FB70BDC046DA
:1049F000081C0010D01900108412010000010010E2
:104A0000C16C0000201A001070080100701A00101C
:104A100088140100B01B0010941A0100C01A001085
:104A20006C060100101B0010C4320100601B001056
:104A30007C0E0100F0B54A4857464E464546DE46D4
:104A40008046A0238A22E0B504278025444618200A
:104A50001B0692019F5043499246434E434A6D04C0
:104A60009D505E501851424800248446802065467F
:104A700040015C505851C046C046843D9850A946FC
:104A80005F5180256D049D503A4D5E50AB464546C2
:104A90005E465E5165465C505851C046554698503A
:104AA0005F5180256D049D5080256D00AB462E4ED4
:104AB00045465E505E465E5165465C505851C04664
:104AC000C0464D4698505F5180256D049D50454627
:104AD000254E5E505C5165465C505851C046554667
:104AE00098505F5180256D049D5084256D00AB4624
:104AF0005E5045465E465E5165465C505851C04624
:104B0000C0464D4698505F5180256D049D504546E6
:104B1000154E5E505C5165465C505851C046554636
:104B200098505F5180256D049D5088256D00AA46E0
:104B30005E50454656465E515C5064461851C0462C
:104B4000C0464C4698501F518024074E64049C5028
:104B500098505E503CBC90469946A246AB46F0BD8C
:104B600088210000882000000700F8FF04220000D0
:104B700084220000C081000080230B4A9B00D25891
:104B800010B5031C642800D96423D8B264215043B3
:104B900004F066F881220421034B920098505A6871
:104BA0008A435A6010BDC04600C00050F0B5574659
:104BB0004546DE464E46A0238A22E0B504258027DE
:104BC0001B06920183B000903C4C9D5092463C499C
:104BD0003C4A7F045F5090461A513B4A3B489446FA
:104BE0008022654652005A5100221A5180225201F9
:104BF0001A50C046C04688260425B6015A50B14610
:104C00009D5146465F5000251E5166469D51002627
:104C10001E511A50C046564604355A509D514646BC
:104C20005F501E5184267600B34666465F469F510C
:104C300000261E511A50C046C0464E4680275A5084
:104C400001959D5146467F045F5000251E516646E2
:104C50009D5100261E511A50C0465646019D5A507D
:104C60009D5146465F501E5188267600B2466646E4
:104C700057469F5100261E511A50C046C046464610
:104C80005A501E51009EF600B046664647469F5158
:104C9000002680271E514C467F041D510C4C5F504E
:104CA0005A501A50C046013C5A50002CF9D103B05A
:104CB0003CBC90469946A246AB46F0BD8820000019
:104CC000042200000700F8FF882100008422000071
:104CD00040970000F0B557464E464546DE46A022B6
:104CE0008A23E0B50427802612069B01D750364957
:104CF0009A463648364B760416508846D150354988
:104D000000258C4680216446490011518021324C97
:104D10004901D5501151C046C046843C1150A146AE
:104D2000175144461650D450644615512A4CD5505C
:104D30001151C04654461150175144461650D45094
:104D400084246400A34664465E461651224CD55026
:104D50001151C046C0464C4680261150175144465A
:104D600076041650D450644615511B4CD550115141
:104D7000C04654461150175144461650D45088240A
:104D80006400A246644656461651134CD550115144
:104D9000C046C04644461150D45064468026155142
:104DA000D5504B467604D7500B4C0C4B1650115037
:104DB0001151C046013B1150002BF9D13CBC90462B
:104DC0009946A246AB46F0BD0700F8FF042200005A
:104DD0008820000088210000842200004097000005
:104DE00080208022F8B5DE4657464E464546EC4BBD
:104DF00012061958E0B50A431A50802259689200E9
:104E000011435960FC210324E648012743588026BA
:104E10009B0A9B022343E44C43502168E34B7601F9
:104E20000B430C2123606368E1480B436360A123BB
:104E3000DB00E750DF4B0A39E150C1239B00E6500D
:104E4000C021012389005B4263500C31605004395A
:104E50006350D94B6421A350A358D84D1801C01AF0
:104E6000400003F0FDFE812304229B00E0506368B4
:104E7000924693436360A024240667510A2002F0FF
:104E800037F9CF4A0A20A750914602F031F967510D
:104E90000A2002F02DF98A2351469B01E15080211E
:104EA0000823002249046151C64F8B46C648C749B2
:104EB000E05190466350E2514A469C46A650C04697
:104EC000C0465346843A6651A3505B468E226351D6
:104ED00043461201E0516250E3514B46E650C04652
:104EE0008A22534692016651A3505B4610226351B9
:104EF0004346E0516250E3514B46E650C046C0463F
:104F00008822534692016651A3505B46802263512A
:104F100043461201E0516250E3514B46E650C04611
:104F20008A22534692016651A3505B461822635170
:104F30004346E0516250E3514B46E650C046C046FE
:104F40008822534692016651A3505B466351434603
:104F50009F4AE0516250E3514B46E650C0468A22D8
:104F6000534692016651A3505B464022635143462B
:104F7000E0516250E3514B46E650C046C04688229D
:104F8000534692016651A3505B4663514346914A92
:104F9000E0516250E3514B46E650C0468A225346E8
:104FA00092016651A3505B46602263514346E05133
:104FB0006250E3514B46E650C046C04688225346F5
:104FC00092016651A3505B4663514346E0516350E2
:104FD000E3514B46E650C046534680326651A350DB
:104FE0005B46782263514346E0516250E3514B46A1
:104FF000E650C046C0468822534692016651A350EF
:105000005B4663516346E05163504346E3514B4670
:10501000E650C046534680326651A3505B4663510A
:1050200080235B00E05163504346E3514B46E6501A
:10503000C046C0465146843B6651E15059464346FE
:1050400061516249E0516350E3514B46E650C0461E
:1050500053466651A3505B46635184235B00E05185
:1050600063504346E3514B46E650C046C046514666
:10507000843B6651E1505B46635143465349E051DE
:105080006350E3514B46E650C04653466651A35029
:105090005B4663518023E05163504346E3514B46E6
:1050A000E650C046C0465046843B6651E0505846E4
:1050B000434660514448E0516350E3514B46E6504B
:1050C000C04653466651A3505B4663518823E05166
:1050D00063504346E3514B46E650C046C0465246F5
:1050E000843B6651E2505B46635180231B02E051D2
:1050F00063504346E3514B46E650C0460A20665192
:1051000001F0F6FF8A2253469201A3505B46635199
:10511000C0232D482D495B00E05163504346E351C5
:105120004B46E650C046C0465046843B6651E05070
:105130005846434660512448E0516350E3514B4682
:10514000E650C04653466651A3505B466351C423A4
:105150005B00E05163504346E3514B46E650C04686
:10516000C0465146843B6651E1505946DB236151AC
:105170001649DB00E0519C4663504346E3514B46E1
:10518000E650C04653466651A3505B46C822635161
:1051900043465200E0516250E3514B46E6501BE05B
:1051A000008004400040044000C0005001000600A0
:1051B000011000000C050000204E00000422000039
:1051C00084220000882000000700F8FF88210000EA
:1051D0008081000040400000C046C04688225346FF
:1051E00092016651A3505B4663514346E0516350C0
:1051F000E3514B46E650C046534680326651A350B9
:105200005B46CC22635143465200E0516250E35169
:105210004B46E650C046C04688225346920166512E
:10522000A3505B4663514346E0516350E3514B4604
:10523000E650C046534680326651A3505B46D022AA
:10524000635143465200E0516250E3514B46E650F1
:10525000C046C0468822534692016651A3505B4621
:1052600063516346E05163504346E3514B46E65079
:10527000C046534680326651A3505B46D4226351E8
:1052800043465200E0516250E3514B46E650C0465F
:10529000C0468822534692016651A3505B46635133
:1052A0004346E0516350E3514B46E650C0465346F7
:1052B00080326651A3505B46D82263514346520068
:1052C000E0516250E3514B46E650C046C04688224A
:1052D000534692016651A3505B46AF226351434649
:1052E000D200E0516250E3514B46E650C0468A225C
:1052F000534692016651A3505B46DC2263514346FC
:105300005200E0516250E3514B46E650C046C04661
:105310008822534692016651A3505B46635143462F
:10532000E0516350E3514B46E650C046534680324D
:105330006651A3505B46E022635143465200E05160
:105340006250E3514B46E650C046C0468822534661
:1053500092016651A3505B4663516346E0510A00D7
:1053600063504146E15149466650C0468A23514642
:105370009B016651E1505946E423615141465B006F
:10538000E051A350E15149466650C046C0465346DD
:10539000843966516350594661514146E051A150EC
:1053A000E15149466650C0460A20665101F0A0FE10
:1053B0008A2351469B01E1505946FF2342466151E1
:1053C000E248E349DB00E0516350E2514A469C4623
:1053D000A650C046C0465346843A6651A3505B4629
:1053E000182263514346E0516250E3514B46E65068
:1053F000C0465246043B6651E2505A466251A022D2
:105400009200E05162504246E2514A46A650C046E0
:10541000C0465046843A6651A0505846CD4A605125
:10542000CA48E05162504246E2514A46A650C04640
:1054300052466651E2505A466251A2229200E05111
:1054400062504246E2514A46A650C046C0465046C7
:10545000843A6651A0505846BF4A6051BB48E0515B
:1054600062504246E2514A46A650C04652466651F4
:10547000E2505A466251A4229200E05162504246E4
:10548000E2514A46A650C046C0465146843A66514B
:10549000A150594628226151AD49E051625042461F
:1054A000E2514A46A650C04652466651E2505A461C
:1054B0006251A6229200E05162504146E1514946B4
:1054C0006650C046C0468822514692016651A1509E
:1054D00059469F4A6151A149E051A1504246E251CB
:1054E0004A46A650C04652466651E2505B46A82244
:1054F0006351974B9200E0511900E2504346E3514B
:105500004B46E650C046C04688225346920166513B
:10551000A3505A466251924AE05162504246E251CB
:105520004A46A650C046043A6651A3505B46AA229A
:10553000635143469200E0516250E3514B46E650BE
:10554000C046C0465246843B6651E2505B466351BA
:105550001823E05163504346E3514B460A00E6509E
:10556000C0465346F8326651A350AC225B469200C7
:105570006351E05162504246E2514A46A650C0464D
:10558000C0465346843A6651A3505A464346625138
:10559000744AE0516250E3514B46E650C0465146D2
:1055A000043B6651E15059466151E051AE204146FD
:1055B000674B8000E050E15149466650C046C04606
:1055C000882051468001665121505946615141461B
:1055D0005E48E0516448E050E15149466650C0469B
:1055E0005146F8336651E150594658486151E051EF
:1055F000B0204146564B8000E050E151494666508C
:10560000C046C04688205146800166512150594607
:105610004E4861515149E051E1504146E1514946FE
:105620006650C0465346043966516350594661512D
:10563000B221474B8900E051E1504146E1514946D2
:105640006650C046C0465346843966516350594639
:105650006151E05101003E4822504246E2514A4623
:10566000A650C0468A2352469B016651E2505A46D4
:105670006251B022D200E15122504246E2514A46E4
:10568000A650C046C0465346843A6651A3505B4676
:1056900063514346354AE1512250E3514B46E650AF
:1056A000C0465246043B6651E2505A466346625138
:1056B000E1510A00235001004046E051484626507F
:1056C000C046C04653468438665123505B466351FA
:1056D0004346E2516350E3514B46E650C0465046C4
:1056E000043B6651E0505846382360514046E25131
:1056F0006350E05148462650C046C0465346843861
:1057000066512350584660514046194BE251635050
:10571000E05148462650C046C820665101F0E8FCDA
:105720008A2350469B01E0505B4663518823074A19
:1057300007495B00E25163504346E3514B46E65054
:10574000C046C0466651FFF7C5FA13E00700F8FFF0
:105750008821000018100000485000000881000057
:105760001030000018380000382800000828010018
:10577000B88000003CBC90469946A246AB46F8BDB6
:10578000F0B5DE4657464E46454680B29346E0B5F4
:10579000DB2874D88BB2AF2B71D804229246A02399
:1057A0008A22544680251B0692019C508022374C49
:1057B0006D041D51364EA946364D52009D51A846E6
:1057C000354D5A510022AC4680259A51334A6D011D
:1057D0009D50C046C04688275246BF011D51DA5130
:1057E0004A461A5142469A516246C90099500022CF
:1057F0002A499A515D50C046524604391D515A50AB
:105800004A461A51424684219A51624649009950AB
:10581000002222499A515D50C046C04652461D5151
:10582000DA514A461A5142469A516246C00098508F
:10583000002208009A515D50C046524604391D515D
:105840005A504A461A51424688219A5162464900A6
:10585000995000229A511D50C046C04652461D51D3
:10586000DA514A461A5142461D519A515A46D100C0
:105870006246995000229A511D50C0461D513CBCB1
:1058800090469946A246AB46F0BDC04604220000B1
:10589000882000000700F8FF882100008422000013
:1058A000030010B50800190000F028FD10BDC04627
:1058B00002225C4BF0B519680A4200D1F0BD1A60B3
:1058C00001235948594A5A490370096813688B42A1
:1058D00000D19CE057490978002900D081E0591C8B
:1058E00011601A78544B197801230B40037000D1D2
:1058F00081E05248524C03682568591C01601B78AE
:10590000DBB2A94212D34F490D6801350D600D6815
:10591000042D01D100250D6009684B4DC9024919BC
:105920000160802000018446614421609A18803A19
:10593000464B1B785BB2002B65D0FF2A5FDDFF2250
:105940000321CB1ADA40FF23D1B213404048414E25
:105950000170414D3178414C695C4B4301210F008E
:105960001B0A1F4027703E4F5C100C403C703D4F9F
:105970009C100C403C703C4FDC100C403C703B4F8A
:105980001C110C403C705C11394F0C403C709C1158
:105990002140384CDB1121703749DBB20B70337872
:1059A000E95C364B51431C6880239B00E358090A8D
:1059B0004B4381211B0A89006350037830499A18B0
:1059C0000888304B304C52081A8022548022431CE5
:1059D0009BB20B805200934200D06FE700230B80F4
:1059E0006CE72A490C78651C0D70002C11D11A78CF
:1059F0000F239A4376E700299AD07F2396E7D14375
:105A0000C9170A409CE70023002100229EE77F225D
:105A100068E75C1C14601A7800231201D2B20B7084
:105A200060E7C0460040014030440010C01900103B
:105A3000C8190010C6190010141C00101C3C0010DE
:105A4000203C0010183C0010181C0010E40100104D
:105A50000A1C0010BD190010206701003C0000A0C6
:105A60003D0000A03E0000A03F0000A0540000A0A8
:105A7000550000A0560000A0570000A00C1C00100C
:105A8000284400102A440010283C0010BE190010C1
:105A900010B543B20C4C8EB0002B12DB207081216C
:105AA00068460A4A090100F079F922785E216846C1
:105AB00000F00EFA2478684600F008FA20000EB0D4
:105AC00010BD7F232370EAE70B1C0010140A0000AE
:105AD000A0221206002804D08021044B8902D15054
