:1000000000800010FD000000059900000D9900001F
:10001000000000000000000000000000F14CFEEFB6
:100020000000000000000000000000001199000026
:10003000000000000000000015990000D5790000C4
:100040000999000009990000099900000999000028
:100050000999000009990000099900000999000018
:100060000999000009990000099900000999000008
:1000700009990000099900000999000009990000F8
:1000800009990000099900005976000009990000BB
:1000900009990000099900000999000009990000D8
:1000A00009990000099900000999000009990000C8
:1000B000099900000999000009990000000000005A
:1000C000BC8B010000010010BC100000BC8B0100C3
:1000D0000000002000000000BC8B01000040002058
:1000E00000000000C01100101040000000000020BF
:1000F000000000000040002000000000F0B5454670
:10010000DE4657464E46E0B55D4A5E4B904683B0AC
:10011000934200D3B1E00722934607329246213240
:10012000914619001C6889685D680C331A0020002C
:1001300000292FD027005E462F4337407E4277416B
:10014000EE1D361BB245B641764201393E4200D122
:100150007FE089457DD28908481C9C4621004708DC
:10016000FF003F192E1B0094019573180C684D6811
:1001700008311C605D60B942F7D101210600009C86
:10018000019D8E43B100634664186D18B04201D0E2
:10019000216829609845C4D83B498A424FD2072339
:1001A0000139891A994313008C4608339C44012372
:1001B00090469A460023424606CA0800002A39D0D3
:1001C0005646551EAC080134A1468C0864423440A2
:1001D000172D4BD9002C3AD0042508C04E46361BAB
:1001E000B146A40009197408E40064180026002729
:1001F000C0C18C42FAD151464C468C43A1008B467B
:10020000290058445944A14514D00C1D0360A24252
:1002100010D904344360A2420CD904348360A24252
:1002200008D90434C360A24204D9143103618A425C
:1002300000D9436108229146C844E045BBD109F08A
:1002400095FB124B002B13D000E000BFFEE700250A
:10025000C4E78908261D890089192E1B05002D6811
:100260008419043025608842F8D193E70021CCE757
:100270000AF0D8FB09F0AAFAE8E71A008CE7C046B2
:10028000E4000000C0000000FC00000000000000CE
:1002900010B5064C2378002B07D1054B002B02D05C
:1002A000044800E000BF0123237010BDC0110010FE
:1002B00000000000BC8B0100044B10B5002B03D0E4
:1002C0000349044800E000BF10BDC0460000000024
:1002D000C4110010BC8B010070B585680400002DAE
:1002E00005D028002D6809F01DFB002DF9D16368A9
:1002F00000219A0020680AF0F6FB0023E360A36067
:10030000230020681833984201D009F00BFB20002D
:1003100070BDC046F0B557464E464546DE46E0B590
:10032000150018229446844462468BB007920260FE
:100330000122426000228260C2604261826110320A
:1003400094460E008444FE2162468905016107003F
:100350000592A91B994200D2190005980AF03AFAB1
:100360007B6804009946834215D2012800D1EDE054
:1003700080239B05984200D3F3E083009946180040
:1003800009F0CCFA4A46002180460AF0ACFB43460D
:10039000A1463B607C60AE4266D03B68B2460293A9
:1003A0006B1E049308239C46BC446346BB460693DD
:1003B00053461B784946180098460BF0C9F8029A34
:1003C0008B00D5580C000393002D1ED02B681F798D
:1003D0000BE01E68002E18D03779494638001D0002
:1003E0000BF0B6F88C4210D13300B845F1D1002D96
:1003F0000BD0002B09D0049B534534D05B465B687F
:10040000994601239C46E244D2E7082009F086FA87
:100410000023036053461B785A460371012300935F
:100420005B4608ACDB6806005268200005990AF0BC
:100430000DFA2378002B1FD15B461B680293029AAA
:10044000039B944663441C001B68002B6BD01B6805
:10045000336023681E605B465A46DB680133D36015
:10046000049B5345CAD15F4638000BB03CBC904654
:100470009946A246AB46F0BD6768012F6BD080233A
:100480009B059F426DD2BC00200009F047FA220074
:10049000002102900AF027FB5B4600229D689A60CB
:1004A000002D27D00023B1461E0005E0126822600F
:1004B0001B681C60002D1CD02C00390020790BF02B
:1004C00047F8029A8B00944663441A682D68002A04
:1004D000ECD15A46926822605A469460069A1A6095
:1004E0002368002B30D06346B600F4500E00002D78
:1004F000E2D14E465B461868079B834201D009F063
:1005000011FA5B46029A5F601A60390040460BF0B0
:100510001FF8029A8B0094460393039B63441C00CC
:100520001B68002B93D15B465A469B6896603360EC
:10053000002B06D0187951680BF00AF8029B89004D
:10054000CE50069B236086E70E00B3E70023BB6115
:10055000079B98461BE75B4600229A61079B029324
:100560009AE70AF031F9C04610B5104B8EB00C93E3
:10057000042335220CA90B7108AB05930BAB049334
:1005800007AB03930AAB0A4C029309AB019306AB8A
:1005900000936A4400232000FFF7BCFE2000054AB8
:1005A000054909F0B9F90EB010BDC04600020103BB
:1005B000DC11001000010010D902000010B5040089
:1005C000C068002801D009F0ADF9200010BDC04678
:1005D000831C032018407047F0B5DE4657464E4650
:1005E0004546E0B587B04360109B059083600023CB
:1005F0000291009201704270C360036143610393F2
:100600000493002942D0009B002B37D0039A2B4B38
:1006100094465B6800269B46284B1B680193109B01
:1006200063449A4653461B785946180099460AF087
:100630008FFF019A8B009C58002C17D023688846A6
:100640001A7915000BE01F68002F0FD03D7959462D
:1006500028001C000AF07CFF884507D13B00A94513
:10066000F1D1002C02D02368002B17D1029B013658
:100670009C46009BF6B2E244B342D3D1039B029A5C
:1006800001330393DBB204939A42BCD8059807B0B8
:100690003CBC90469946A246AB46F0BD059B049AE9
:1006A000DE709A70009BB342F0D8039B029A01332C
:1006B0000393DBB204939A42A5D8E7E7DC1100105C
:1006C00082B0022918D00ED800291DD0027801ABC3
:1006D000013A1A70426852785A7018785B781B0297
:1006E000184302B07047032914D1002201AB1A70DD
:1006F0004268D2785A70F0E7426801AB92781A707B
:100700004278013A5A70E8E7426801AB12785970B2
:100710001A70E2E7002201AB1A80DEE770B5514B98
:10072000514E82B0009308220A2130004F4BFFF750
:1007300053FF06234E4D4F4CB370033B2A0021005C
:10074000F370300009F0E8F84B4E4C4B0A2200934E
:100750000C214B4B3000FFF73FFF2A0021003000F7
:1007600009F0DAF8474E484B0A2200930C21474B18
:100770003000FFF731FF2A002100300009F0CCF8EB
:10078000434E444B0C2200930E21434B3000FFF7A5
:1007900023FF2A002100300009F0BEF83F4E404BF5
:1007A0000622009308213F4B3000FFF715FF2A0077
:1007B0002100300009F0B0F83B4E3C4B062200937C
:1007C00008213B4B3000FFF707FF2A0021003000D3
:1007D00009F0A2F8374E384B0C2200931021374B0A
:1007E0003000FFF7F9FE2A002100300009F094F8EC
:1007F000334E344B062200930821334B3000FFF771
:10080000EBFE2A002100300009F086F82F4E304B15
:100810000622009308212F4B3000FFF7DDFE2A004F
:100820002100300009F078F82B4E2C4B0822009361
:100830000A212B4B3000FFF7CFFE2A0021003000A9
:1008400009F06AF8274E284B062200930A21274B0D
:100850003000FFF7C1FE2A002100300009F05CF8EB
:1008600002B070BD68E00000D0120010BCE00000D3
:1008700000010010BD050000E8120010CCDF0000F0
:10088000B8E00000F8110010C0E0000044E00000F3
:100890001012001038E1000048E00000281200109B
:1008A000E0E100004CE000004012001010E2000007
:1008B00050E000005812001040E2000054E0000038
:1008C0007012001000E3000058E0000088120010D1
:1008D00030E300005CE00000A012001060E30000C4
:1008E00060E00000B8120010B0E3000064E0000017
:1008F00010B50B1D9B00C018436882B008001C682F
:10090000FFF766FE01002000FFF7DAFEFF2213006A
:100910000340000A10400002184302B010BDC04658
:1009200010B504000AF036FB21000AF0FBFE0800B7
:1009300010BDC046F8B55746DE464E4645460368EC
:10094000E0B5476893462B4A9946FB1A05008A464C
:100950009B10934242D0002B3BD059008B422FD9A1
:1009600053464A469C1A244B9846404608F0D6FF08
:10097000060080445B461B683351002C04DD2200D6
:10098000494630000AF09CF8534604343419FF1AE3
:10099000002F04DD3A00514620000AF091F84B4642
:1009A000E419002B02D0484608F0BCFF43462E60F5
:1009B0006C60AB603CBC90469946A246AB46F8BD25
:1009C000534648461C1A00290BD10023002698469E
:1009D000D0E74A4604238C1A9846C6E7074809F030
:1009E000F6FE80239B05994200D311008B009846A8
:1009F000BBE7C046FFFFFF1FFCFFFF7FECE30000EB
:100A0000F0B5DE4657464E464546E0B500258DB06A
:100A1000834605604560856028200C0008F07EFF55
:100A2000214B062603602423C5549A4680235B028B
:100A3000436099461D4F1E4BC760836006820A9033
:100A40002820984608F06AFF1A4B5A46036053461E
:100A5000C5544B464360434683605B4691685B6880
:100A6000C76006820B908B4201D100F09AFE0A9A71
:100A700004C35A4653608B4201D100F08BFE0B9A9F
:100A800004C35A465360012C16D0022C00D133E324
:100A9000002C00D1F3E258460DB03CBC904699467C
:100AA000A246AB46F0BDC046D012001004000500BF
:100AB00002000300E81200100AF06CFAC24D062191
:100AC00000950AF02FFEAC46CC00641A2820640082
:100AD000644408F023FFBD4B002203602423070079
:100AE000C254A30701D000F0EDFE236843606368A1
:100AF0008360A368C360A38903820AF04BFA0621CE
:100B00000AF010FE009BCC009C46641A282064006A
:100B1000644408F003FFAE4B00220360994624238F
:100B20000190C254A30701D000F0ECFE236843609B
:100B300063688360A368C360A3890382282008F0E8
:100B4000EDFEA44B242503600023435598468023E3
:100B50005B024360A04B05908360A04BC3600623FB
:100B600003820AF017FA06210AF0DCFD009BCC0094
:100B70009C46641A28206400644408F0CFFE424674
:100B8000974E049006604255A20701D000F0AAFEDD
:100B9000636822688360A3684260C360A38903829C
:100BA0000AF0F8F906210AF0BDFD009BCC009C4636
:100BB000641A28206400644408F0B0FE894B0022C7
:100BC0000360069324238246C254A30701D000F099
:100BD000D9FE2268A389426062688260A2680382AB
:100BE000C2600AF0D7F906210AF09CFD009BCC00F8
:100BF0009C46641A28206400644408F08FFE7A4BF7
:100C00000022036024230290C254A30701D000F005
:100C1000A9FE2368436063688360A368C360A389F7
:100C200003820AF0B7F906210AF07CFD009BCC0094
:100C30009C46641A28206400644408F06FFE069BFA
:100C40000022036024230500C254A30701D000F052
:100C500079FE2368436063688360A368C360A389E7
:100C600003820AF097F906210AF05CFD009BCC0094
:100C70009C46641A28206400644408F04FFE242334
:100C8000002206608046C254A30701D000F04AFE4D
:100C90002268A389426062688260A2680382C2609F
:100CA0000AF078F906210AF03DFD009BCC009C4635
:100CB000641A28206400644408F030FE4B46002289
:100CC000036024230790C254A30701D000F0DCFE88
:100CD0002368436063688360A368C360A389038259
:100CE0000AF058F906210AF01DFD009BCC009C4635
:100CF000641A28206400644408F010FE3B4B002274
:100D0000036024238146C254A30701D000F0ACFE47
:100D10002268A389426062688260A2680382C2601E
:100D20000AF038F906210AF0FDFC009BCC009C4635
:100D3000641A28206400644408F0F0FD069B002239
:100D4000036024230600C254A30701D000F07CFEF8
:100D50002368436063688360A368C360A3890382D8
:100D6000282008F0DBFD224B002103602423C1541E
:100D700080235B024360184B03908360174BC36072
:100D8000062303820AF006F906210AF0CBFC00983C
:100D9000CC008446641A28206400644408F0BEFD38
:100DA00024220021134B009003608154A20701D03C
:100DB00000F039FE636822688360A3684260C36004
:100DC000A389038218E0C04608E40000581200100E
:100DD000F8110010101200100200030004000500BA
:100DE000701200108812001040120010281200101B
:100DF000B8120010A0120010242408210A9A03201F
:100E00001762135D06920B431355FFF7E1FB031DB9
:100E1000069A9B00FB185A60012282403B5D0199B3
:100E2000134304221343F96102203B55FFF7D0FB23
:100E30000199031D8C469B0063445F60012383403E
:100E40001A0008200B5D13430B55059939623B5D71
:100E500003433B550538FFF7BBFB0599031D8C4643
:100E60009B0063445F60012383401A000B5D04987C
:100E700013430122134348610B5500200F00FFF775
:100E8000A7FB0499031D8C469B0063445F6001230C
:100E900083401A000B5D0220134304220B55029B72
:100EA000FB613B5D13433B55FFF792FB0299031D2A
:100EB0008C469B0063445F600123834057461A00C1
:100EC0000B5D8F61022713433B430B550120FFF756
:100ED0007FFB031D029A9B0053445A600123834009
:100EE0001A00534650461B5D019913430122696164
:100EF00003552B5D002013432B55FFF769FB019928
:100F0000031D8C469B0063445D60012383401A00EF
:100F10000B5D082013430B5543462B622B5D0343A7
:100F20002B550538FFF754FB031D9B0043445D60C0
:100F3000012383401A00434641461B5D01201343B1
:100F40000B554B46AB612B5D3B432B55FFF740FBED
:100F5000031D9B004B445D60012383401A004B46F8
:100F600049461B5D079D13430B55434604224146EA
:100F7000DD611B5D022013430B55FFF729FBAC46D7
:100F80004146031D9B0063445960012383401A00BE
:100F90002B5D5146134304221343E96102202B5574
:100FA000FFF716FB031D9B0053445D600123834044
:100FB0001A00534651461B5D012013430B554B4607
:100FC00049469E611B5D3B430B55FFF701FB4946BC
:100FD000031D9B00F3185960012383401A00335D01
:100FE000039D13433B43B56101203355FFF7F0FAEE
:100FF000AC46031D9B0063445E60012383401A00DE
:10100000012029002B5D009D134303434D61002007
:101010000B550391FFF7DCFAAC46031D03999B00C7
:1010200063445960012383401A002B5D00951343EC
:1010300004222B550B9D0220EE612B5D13432B5593
:10104000FFF7C6FA01228240031D9B00F3185D6082
:10105000335D0B9D13433355009E0120AE612B5D24
:101060001F432F55FFF7B4FAB446031D9B0063449A
:101070005D6001238340325D134333550BE5282027
:1010800008F04CFC194B2426036080235B02845536
:101090004360174B08228360164B0A9CC3600623EB
:1010A00003822062A35D05001343A3550320FFF7CD
:1010B0008FFA031D9B00EB185C6001242200824024
:1010C000AB5D0B9F13430422AB55FD61BB5D02205A
:1010D0001343BB55FFF77CFA8440031D9B00EB18BC
:1010E0005F60AB5D1C43AC55D5E4C04610120010E8
:1010F000020003000400050009F04CFFDE4D06214C
:1011000000950AF00FFBAC46CC00641A282064005E
:10111000644408F003FCD94B002203609846242362
:101120000190C254A30701D000F06DFC2368436016
:1011300063688360A368C360A389038209F02AFF00
:1011400006210AF0EFFA009BCC009C46641A282086
:101150006400644408F0E2FBC94B002203602423CE
:101160000700C254A30701D000F03DFC2368436090
:1011700063688360A368C360A3890382282008F0A2
:10118000CDFBC04B242503609946802300265B02DB
:1011900046554360BC4B05908360BC4BC36006233F
:1011A000038209F0F7FE06210AF0BCFA009BCC008E
:1011B0009C46641A28206400644408F0AFFBB44BDA
:1011C000079003604655A20701D000F0FBFB63685F
:1011D00022688360A3684260C360A389038209F028
:1011E000D9FE06210AF09EFA009BCC009C46641AA8
:1011F00028206400644408F091FBA64B00220360A1
:1012000024230290C254A30701D000F0CBFB236833
:10121000436063688360A368C360A389038209F0A5
:10122000B9FE06210AF07EFA009BCC009C46641AA7
:1012300028206400644408F071FB974B002203608F
:1012400024230390C254A30700D01DE32368436006
:1012500063688360A368C360A389038209F09AFE70
:1012600006210AF05FFA009BCC009C46641A2820F5
:101270006400644408F052FB884B0022036006932C
:1012800024238246C254A30700D0EEE22268A38939
:10129000426062688260A2680382C26009F07AFEDE
:1012A00006210AF03FFA009BCC009C46641A2820D5
:1012B0006400644408F032FB774B0022036024236F
:1012C0000890C254A30700D0C0E22368436063685B
:1012D0008360A368C360A389038209F05BFE0621D3
:1012E0000AF020FA009BCC009C46641A2820640077
:1012F000644408F013FB4346002203602423049057
:10130000C254A30700D092E22368436063688360FD
:10131000A368C360A389038209F03CFE06210AF09A
:1013200001FA009BCC009C46641A282064006444A7
:1013300008F0F4FA5A4B0022036024230600C2543A
:10134000A30700D064E22368436063688360A368F6
:10135000C360A389038209F01DFE06210AF0E2F9A9
:10136000009BCC009C46641A28206400644408F06A
:10137000D5FA434B0022036024230500C254A3077F
:1013800000D036E22368436063688360A368C3606B
:10139000A3890382282008F0C1FA4A462423026068
:1013A0000022C25480235B024360374B9146836026
:1013B000364B0990C3600623038209F0EBFD06213A
:1013C0000AF0B0F9009ACC009446641A2820640010
:1013D000644408F0A3FA2A49242301604946804660
:1013E000C154A30700D0F5E12268A3894260626876
:1013F0008260A2680382C26009F0CCFD06210AF077
:1014000091F9009BCC009C46641A28206400644437
:1014100008F084FA204A2423026000228146C25444
:10142000A30700D0C7E12268A38942606268826096
:10143000A2680382C26009F0ADFD06210AF072F9CC
:10144000009BCC009C46641A28206400644408F089
:1014500065FA069B0022036024230090C254A30770
:1014600000D020E22368436063688360A368C360A0
:10147000A389038216E0C04608E4000010120010A1
:101480005812001040120010020003000400050072
:1014900070120010A0120010B81200108812001074
:1014A00028120010242408200A9A01991162135D61
:1014B0000692034313550538FFF78AF80199031D77
:1014C0008C46069A9B0063445A60012282400B5D61
:1014D00000201343012213434F610B55FFF778F8A7
:1014E000031D01999B00FB185960012383401A00DA
:1014F0003B5D022013433B5553460422CB610B5DF9
:1015000013430B55FFF764F8031D01999B005344E7
:101510005960012383401A005346514608201B5D41
:1015200013430B55059939623B5D03433B55053821
:10153000FFF74EF80599031D8C469B0063445F60DE
:10154000012383401A000B5D0120134302220B5537
:10155000039BBB613B5D13433B55FFF739F8039990
:10156000031D8C469B0063445F60012383401A0087
:101570000B5D059F134301220B55079900207961EC
:101580003B5D13433B55FFF723F80799031D8C463A
:101590009B0063445F60012383401A000B5D029F40
:1015A0001343022213438F6101200B550F00FFF7F5
:1015B0000FF80299031D8C469B0063445F60012372
:1015C00083401A0004200B5D039F13430343CF6144
:1015D00002380B55FEF7FCFFBC46031D02999B0029
:1015E00063445960012383401A003B5D5146134315
:1015F0003B5553460222089F01209F611B5D134308
:101600000B55FEF7E5FFBC465146031D9B006344A6
:101610005960012383401A003B5D0E6213433B5522
:101620000B5D08210B43514603200B55FEF7D0FFFD
:101630005146031D9B00F3185960012383401A0093
:10164000335D049913430122796133553B5D0020DA
:1016500013433B55FEF7BCFF0499031D8C469B00CA
:1016600063445F60012383401A0002270B5D012061
:1016700013433B438D610B55FEF7AAFF01228240C5
:10168000031D04999B00EB18596008212B5D3562FE
:1016900013432B55335D03200B433355FEF798FF5F
:1016A00001228240031D9B00EB185E602B5D04202D
:1016B00013432B554B46F361335D034333550238D7
:1016C000FEF786FF0122031D9B004B445E604B46E4
:1016D0008240494604201B5D099E1343EE610B5571
:1016E0002B5D03432B550238FEF772FF0122B446EF
:1016F0008240031D9B0063445D60335D0120134302
:1017000042463B43B2613355FEF762FF0122031D9F
:101710009B0043445E60434682401B5D4946134341
:1017200042463B43916101201355FEF751FF42466B
:10173000031D9B004B445A6001224B4682401B5DB7
:10174000042013434A46135543464246009EDE6139
:101750001B5D034313550238FEF73AFFB446424679
:10176000031D9B0063445A6001228240335D0B9D40
:1017700013433B43B56101203355FEF729FF031D99
:101780009B00EB185E60012383402A5D13432B55B9
:10179000FFF781F9190058460BAAFFF7CBF8FFF7BE
:1017A00072F90AAA5846FFF7C5F85B465A465B68C5
:1017B0009168FFF760F9238883806388C380A388DA
:1017C0000381E3884381238983816389C381A3895A
:1017D000038230E6238883806388C380A3880381E3
:1017E000E3884381238983816389C381A389038239
:1017F00002E6238883806388C380A3880381E3880B
:101800004381238983816389C381A3890382C1E5DD
:10181000238883806388C380A3880381E38843810E
:10182000238983816389C381A389038293E5238804
:1018300083806388C380A3880381E38843812389ED
:1018400083816389C381A389038265E523888380BB
:101850006388C380A3880381E388438123898381CC
:101860006389C381A389038237E5238883806388E2
:10187000C380A3880381E3884381238983816389AB
:10188000C381A389038209E5238883806388C38099
:10189000A3880381E3884381238983816389C3818A
:1018A000A3890382DAE4238883806388C380A388C2
:1018B0000381E3884381238983816389C381A38969
:1018C0000382EFE5238883806388C380A388038134
:1018D000E3884381238983816389C381A389038248
:1018E000FFF70BF9238883806388C380A388038173
:1018F000E3884381238983816389C381A389038228
:10190000FFF74EF9238883806388C380A38803810F
:10191000E3884381238983816389C381A389038207
:10192000FFF70CF9238883806388C380A388038131
:10193000E3884381238983816389C381A3890382E7
:10194000FFF7AEF9238883806388C380A38803816F
:10195000E3884381238983816389C381A3890382C7
:10196000FFF77FF9238883806388C380A38803817E
:10197000E3884381238983816389C381A3890382A7
:10198000FFF74FF9238883806388C380A38803818E
:10199000E3884381238983816389C381A389038287
:1019A000FFF71FF9238883806388C380A38803819E
:1019B000E3884381238983816389C381A389038267
:1019C000FFF72DFC079A238893806388D380A38830
:1019D0001381E3885381238993816389D381A38908
:1019E0001382FFF7FCFB238883806388C380A3886E
:1019F0000381E3884381238983816389C381A38928
:101A00000382FFF7BBFB238883806388C380A3889E
:101A10000381E3884381238983816389C381A38907
:101A20000382FFF78BFB009A238893806388D3801F
:101A3000A3881381E3885381238993816389D381A8
:101A4000A3891382FFF7D8F9238883806388C38032
:101A5000A3880381E3884381238983816389C381C8
:101A6000A3890382FFF77CF9238883806388C3807E
:101A7000A3880381E3884381238983816389C381A8
:101A8000A3890382FFF74CF9238883806388C3808E
:101A9000A3880381E3884381238983816389C38188
:101AA000A3890382FFF71CF9F0B5DE465746454689
:101AB0004E46E0B5A94CAA48A54402F065FB08AB28
:101AC0009C4611AF3D003B000022A64961441A60CC
:101AD00008338B42FBD1802600247600E0000822E8
:101AE00000213818013408F0FEFFB442F6D19E48B8
:101AF00004F0FEF901229D4B39001A7007239C4A1D
:101B0000D831138010229B4B2B602A716A710835E3
:101B100082338D42F8D10220FEF702FF411C0EA84D
:101B2000FEF76EFF0E9B944A1B68944805931B6852
:101B3000934C99781180DA7809010280914812015A
:101B40000180914991480A8019780A0102805A78E7
:101B50001001208098688E4BF9508E4BFA50083B4C
:101B6000F85005F04FFF8C4A0300944663440893F5
:101B7000022307930023069301F08EFB002800D177
:101B8000E9E158230022009300210020163301F0E0
:101B9000C9FC051EF0D0784B042100229B5E9946BB
:101BA000764B00229B5E9A46059B187900F022FD39
:101BB000002809D0704B00229B5E724A0021515EC2
:101BC0001A01914200D171E2059B0421187A00F0BC
:101BD00011FD002809D0684B00229B5E694A002154
:101BE000515E1A01914200D168E2059B0421987967
:101BF00000F000FD002809D0604B00229B5E624A85
:101C00000021515E1A01914200D15FE2059B04213F
:101C1000987A00F0EFFC00280FD0584B00229B5E12
:101C2000594A0021515E1A01914206D1534A0133AB
:101C300013800223079300230693059E0421307B23
:101C400000F0D8FC43425841069C40420421044025
:101C5000B07B00F0CFFC4342584140420440042195
:101C6000307C00F0C7FC43425841434B40420440A3
:101C70000020185E0694002800DAB1E1434B1B886F
:101C80001B09834200DD88E1242205998A5C9207C2
:101C900000D482E1012501243A4B000100229B5E21
:101CA000181A08F0BAFE072800DC35E2354B334C31
:101CB0000021595E304B080000269E5F324B002504
:101CC000645F00229A5E80231B01FB5836012401C9
:101CD000B04200DB7BE12B48043109B201800800EF
:101CE000A24200DB6BE1284C043212B222800324B2
:101CF0002A4D2C8000252A4C02952478A0466408A1
:101D0000844209DC214D2D882E1B864200DBB9E17F
:101D100041464D1B29B202910020224981460C7890
:101D20008B466108914208DC15480088451A9542A7
:101D300000DBABE1201A02B29146002B70D0154AAD
:101D4000BA580392002A6BD0114ABA580492002A5A
:101D500066D01D0000239A462EE0C046ACF7FFFF78
:101D6000507501002408000040100010BC2600102F
:101D70003411001006010010261100102A11001065
:101D80002011001024110010281100102211001041
:101D90000408000008080000C0D40100CA26001092
:101DA000381100103911001001239C46039BE244B6
:101DB000454691449A4533D0049900228846C74B42
:101DC000029E1B78A8449E42EEDA2C78E400385933
:101DD000002800D1DCE05A46127891450FDA3A1912
:101DE00011798C46F1420AD449465279CA4206D446
:101DF00033000091614606F0CBFAB84B1B783C19D2
:101E00002279B61862799E42CEDA01354545DAD19B
:101E100001239C46039BE244454691449A45CBD11D
:101E2000AF4BB04A1B8802211380AF4B2A20984643
:101E300008234246138001F0BDFD05F0E3FD089B39
:101E4000181A00D516E205F0DDFDFA21089B89007D
:101E5000181A09F081FB3C21040009F063FC601AA8
:101E60000D003C2109F078FB2B0002009F490CA8D3
:101E700009F01EF90CA802F00FFB9D4B079A9E5625
:101E80009C4B00241C5F954BA2461B785A08944239
:101E900008DB99480088851AAC4200DC04E11B1A73
:101EA0001C1924B2954B00255D5F5B461B7828000A
:101EB0005A0895420ADB924909888C46891A8D4254
:101EC00000DCEFE062469B1A5D192DB2079BDB0731
:101ED00000D5BCE08B4B00229B5E1B01C01A08F0B2
:101EE0009CFD002800D05AE1B2019219079B864E52
:101EF0005200290020009219012B00D1A4E002F029
:101F000055F9069B002B00D136E605234246138087
:101F1000724B00211A780020182303F001F80324E3
:101F200043461C806D4B00211A780020182302F0D4
:101F300031FE0221022001F03DFD43461C80684B2A
:101F4000684A1B880998138002F0A6FA01F0A4F9E8
:101F5000002800D015E600260E980F9D85420AD075
:101F600004002068002802D0282108F029FC04344D
:101F7000A542F6D10E98002801D007F0D3FC30001E
:101F8000624B9D443CBC90469946A246AB46F0BD90
:101F900000223AE7584B1B881B095A4A0024145F59
:101FA000002C77DB564A12881209A24222DC242137
:101FB000059E715C49071DD5022502246CE6A242EC
:101FC00000DC94E64D4C043A12B222808FE6B04217
:101FD00000DC85E64748043909B2018008007FE645
:101FE0002423F35C1B07D5D50325032454E6444A78
:101FF00012881209002806DB984204DA002C02DB62
:10200000A24200DDE8E008F0C5FF032109F08AFBE9
:10201000022903D83E4B8900CB5809934A463D4BD1
:1020200054461A805246374B24011A80314B06958C
:102030000021595E4B461E01304B080000229A5E7B
:1020400080231B01FB5843E602F0FAF859E7314BB5
:102050000020185E53460001181A08F0DEFC002824
:1020600000D141E7234B00229B5E2A4A0020105EEC
:102070000001181A08F0D1FC082800DCFCE0023648
:1020800076B231E7611A09B2029145E68A1A12B2B4
:10209000914652E6242205998A5CD207A7D50025ED
:1020A0000024F9E515B211E714B2FBE6194A013B29
:1020B00013800323079300230693BEE5154A0133DB
:1020C00013800123079300230693B6E50D4A013BD5
:1020D0001380002307930693AFE5C0463811001024
:1020E00034110010CA260010361100105CE4000004
:1020F000D8E6000024110010221100102811001051
:10210000201100102A1100100401001054080000D2
:10211000CCE60000261100106B4B00229B5E6B4A40
:102120000020105E0001181A08F077FC072800DD77
:10213000BCE5059B210018009846FEF7D9FB0BABC8
:102140001880061C624B3404C6B21E805F4B240EFE
:102150001C80604B310119805B4B22011A802B1DC2
:102160009B0043445B685C4D05931B680E00187828
:10217000140081460001288058789B680501AC4610
:1021800080466046554D28804D4655483D50404656
:10219000544D7851802000013B50080098E54A4B8F
:1021A00000229B5E494A0020105E0001181A08F0C8
:1021B00034FC082800DD62E7434B0020185E434BE7
:1021C00000229B5E1B01C01A08F027FC072800DDD7
:1021D0008AE6013676B287E6414B0601FB582401B8
:1021E00098424ED23F49221179588A4249D25343EC
:1021F00080221201BA581018C35C180002933A4D9D
:102200006B6819009B4609F0A3F92B688A00D35824
:1022100004910393002B45D01B6821001A7988464E
:10222000140032005E4693460CE01D68002D39D044
:102230002C7931002000039309F08AF9049B8B422A
:1022400030D12B00029AA242EFD1039A44465E4657
:10225000002A27D0002B25D0029B042B15D01D4B24
:102260000021595E184B080000229A5E80231B0152
:10227000FB582DE501266FE6164B0020185E144B27
:102280009EE7002300200293B9E7124B0021595E1C
:102290000D4B080000229A5EB1420DD080231B0135
:1022A000FB5815E54A460A4B1A805246074B140163
:1022B0001A804B461E01CFE7A24200D14BE6802395
:1022C0001B01FB580CE5C046281100102A11001014
:1022D00026110010241100102211001020110010EE
:1022E0000408000008080000DC110010F0B5C64624
:1022F00000B5254882B003F0FBFD07230621234AE1
:10230000234D1380234A00241180234A1380234B3A
:10231000EF18234B9846582600F0BEFF00282FD018
:102320006E23002200210020009601F0FBF8002817
:10233000F2D00521042000F05DF9431E98412418D5
:102340000B2C1DDC0521062000F054F9002817D1C4
:102350000022072C00DD134A52190021002001F051
:1023600025FF3A000021002001F020FF0221022079
:1023700001F020FB4246A300985802F08DF8CAE70E
:1023800002B004BC9046F0BD646B01003411001033
:10239000C8F9000036110010CA260010D42500002C
:1023A00058100010EA120000F0B5DE464E464546D1
:1023B0005746E0B583B005F025FB08F0C7FD00F0F7
:1023C000E9FF2D4801F0E0FE2C4B58259A462C4B96
:1023D0002C4E99462C4B98462C4B9B46102750462A
:1023E00003F086FD378008E06E23002200210020E4
:1023F000009501F097F8002831D100F04DFF00283A
:10240000F2D1FFF773FFFFF74FFB0400484603F0DC
:102410006FFD0622414607230A801D4A3380138040
:102420001C4B03345C431C4B9C46644400F034FF5B
:102430000028D4D06E23002200210020009501F056
:1024400071F80028F2D000210020220001F0AEFE39
:102450000521042000F0CEF80028E7D0BEE70021D7
:1024600000205A4601F0A2FE0521042000F0C2F827
:102470000028C2D0C5E7C04650750100446B01007A
:10248000646B01003411001036110010DCE600000E
:10249000CA260010EA120000C8F9000010B502496F
:1024A000024807F0F7FA10BD5C2E00000013001080
:1024B00010B503F08FFF10BD474A484B1178002933
:1024C00000D06DE01878002804D0FF2800D16CE01F
:1024D000FF311970517800295BD15878002803D05A
:1024E000FF285BD0FF315970917800294AD1987844
:1024F000002803D0FF284AD0FF319970D1780029F5
:1025000039D1D878002803D0FF2839D0FF31D970CD
:102510001179002928D11879002803D0FF2828D064
:10252000FF3119715179002917D15879002803D04A
:10253000FF2817D0FF3159719279002A06D09A7975
:102540000132D2B2FF2A32D09A71704799790029AC
:10255000FBD0FF29F8D0FF22F6E759790131C9B243
:10256000FF2927D05971E7E719790131C9B2FF294D
:1025700023D01971D6E7D9780131C9B2FF291FD00C
:10258000D970C5E799780131C9B2FF291BD099707C
:10259000B4E759780131C9B2FF2917D05970A3E7C0
:1025A00019780131C9B2FF2913D0197092E70222BC
:1025B0009A71CAE702215971BEE702211971B1E788
:1025C0000221D970A4E70221997097E7022159707E
:1025D0008AE7022119707DE73829001004130010E2
:1025E000034B185C013843425841C0B27047C046A3
:1025F0000413001010B50C4B01290CD9185CFF28EE
:1026000007D008F0A5FFC8B2013841424841C0B226
:1026100010BD0020FCE71B5CFD220020013BDBB26B
:102620009A424041C0B2F3E704130010002330B5D2
:102630001D491E4A08780B7053780224002B02D0E3
:10264000012301340B70D578002D01D023000C70CC
:102650001478002C03D004242343DBB20B7094784D
:10266000002C03D008242343DBB20B701479002C18
:1026700003D010242343DBB20B705479002C03D019
:1026800020242343DBB20B709279002A03D040222E
:102690001343DBB20B701900054A01409843054B08
:1026A0001170187030BDC046021300103829001098
:1026B0000113001003130010014B18797047C04636
:1026C00038290010014B58787047C046382900104F
:1026D000014BD8787047C0463829001030B583B018
:1026E00072B600210422254B802459601961244BC5
:1026F000E4001A608E23234A9B00D5582C43D45003
:102700008024D55864002C43D4500123536751676B
:1027100001310C00536F1C401942FAD11467516704
:1027200054670122174914004B6F1C401A42FAD11A
:102730008E224C644B6C92008C600C674C608B5802
:10274000114D2B4080250193019B2B430193C823FE
:10275000019D1B022B438B50A02384221B06920158
:102760009C500A4A9C500A4A9C500A4B9860001C94
:1027700001688D464068804703B030BD004000A02E
:1027800010E000E000800440FF250000042100006C
:102790000821000000ED00E07047C046F0B5C646D5
:1027A00000B58025C0B00E0000F0D8FF00F0E2FFB9
:1027B000ED02AD1B854200D9050000F0C5FF1848A9
:1027C00001F0DAFF002D24D080235B00002498461E
:1027D000144F06E00134FF34380001F05DFEA542DD
:1027E00017D980216846490000F08CFFFF2802D8E5
:1027F0002B1B43450FD86946301905F00BFC002808
:10280000E8D0094801F0B8FF012040B004BC904670
:10281000F0BD0020F9E7054801F0AEFF0120F4E724
:102820006477010058E500008C77010070770100A3
:102830008021F0B58023C6465D4AC90200B5D1505B
:10284000012200255B4B5C4C1A705C4B82B01D80F2
:10285000FC23DB00238001F08DF80021002001F033
:10286000A9F8012001F026FD0095019500F09EFEDB
:102870000421534800F0CEFE00286CD0514B524A40
:102880001968524F524E534D914242D0524B1968E3
:1028900091423ED0514B196891423AD0504B196841
:1028A000914236D0202330005B42238001F064FF48
:1028B000009B002B60D0E023019A9B029A425BD3DD
:1028C000484B2800238001F0E7FD012300985B427C
:1028D0000A21238002F054F8FC234348DB002380C4
:1028E00001F04AFF03E0FFF7F3FE00282FD1FFF7C6
:1028F000E9FE0028F7D001990098FFF74FFF002864
:1029000052D13A4801F038FF2E4B2F4A19689142B4
:10291000BCD19846364B3800238001F0BDFD012321
:102920005B42238043460A21586802F029F8434657
:10293000009A5B689342C3D343469868FFF7CEFE84
:102940002DE0FFF773FEFFF7B7FE0028F9D102B0C4
:1029500004BC9046F0BD00F001FF0820404200F0AA
:10296000DBFE0421684600F0CDFE042101A800F042
:10297000C9FE00F0E9FE81E71E4801F0FDFE1E4899
:1029800001F0FAFEFC231D48DB00238001F0F4FE79
:1029900005E0FFF74BFEFFF78FFE0028D3D1FFF7CE
:1029A0008BFE0028F5D0D2E7154801F0E5FEF6E7EA
:1029B00000E100E03A1100102E110010BE260010B8
:1029C00078780100F4FF03001EAB07B0C87801005F
:1029D00080780100D478010004FF030004FE0300A6
:1029E00004F003001FF8FFFFE87801002C790100D4
:1029F000FF070000947801008C800100AC78010092
:102A000010790100F8B5012001F054FC00224F4B71
:102A100000251A8000F0AEFF4D4C4E4B4E482380EF
:102A200001F0B2FB0123FC274C4E302133704C4B9C
:102A300060201D704B4BFF001D700125278001F0A9
:102A4000D7FF494801F028FD3821602001F0D0FF70
:102A5000464801F021FD4021602001F0C9FF4448B3
:102A600001F01AFD4821602001F0C2FF414801F049
:102A700013FD6021282001F0BBFF3F4801F00CFD51
:102A80006D423E48258001F007FD3D48278001F05A
:102A900003FD02233B483370258005F083FB431977
:102AA000042B4BD904F0AEFF032485B20DE003F0F4
:102AB00033FD002821D103F023FD002835D103F098
:102AC00025FD002823D1002C25D0FFF7AFFD78216C
:102AD000682001F08DFF0A21200001F0DBFD04F0E9
:102AE00091FFFA239B00EB189842E0D904F08AFF8B
:102AF000013C85B2DBE7FFF799FD03F00DFD0028EF
:102B0000F9D1FFF795FE0024D5E7FFF78FFD03F01D
:102B1000FDFC0028F9D10123337000F02BFF0020C9
:102B200001F0C8FBF8BDFFF781FD03F0E9FC0028C8
:102B3000F9D103F0EBFC0028E9D1ECE7040004F044
:102B400061FF002CE7D085B2BFE7C046BE2600106B
:102B50002E11001000F8FFFFEC7101003A11001077
:102B60003111001032110010387901004079010054
:102B7000487901005079010058790100607901001D
:102B800064790100A20F0000F0B5DE464E464546CE
:102B90005746E0B51C00E14B89B09B461B880500F9
:102BA000069353110E000593002C00D0A5E1032BD2
:102BB00000DCDDE0059B042B00D080E15A46243B7D
:102BC0001380002C00D080E101239846D44C37B20A
:102BD00028B222003900009300F042FFABB21D0082
:102BE0000393434608352DB2220039002800009394
:102BF00000F036FFB3B21E1F0493434636B22200E4
:102C000031002800009300F02BFF039B01251033B7
:102C10001BB298462200012339004046009500F07F
:102C20001FFF0123220031004046009500F018FFED
:102C3000049B2200083B1BB29946404601234946AB
:102C4000009500F00DFF059B032B00D1DFE0039BF7
:102C5000220018331BB298463900012340460095E4
:102C600000F0FEFE0123220031004046009500F0F6
:102C7000F7FE0123220049464046009500F0F0FE91
:102C8000049B22000C3B1BB29A464046012351464E
:102C9000009500F0E5FE059B042B00D1DEE0039BD0
:102CA000220020331BB2984639000123404600958C
:102CB00000F0D6FE0123220031004046009500F0CE
:102CC000CFFE0123220049464046009500F0C8FE91
:102CD0000123220051464046009500F0C1FE049BAE
:102CE0002200103B1BB219000793404601230095B8
:102CF00000F0B6FE059B052B00D1DCE001239846D1
:102D0000039D220028352DB239002800009300F0E1
:102D1000A7FE4346220031002800009300F0A0FEE9
:102D20004346220049462800009300F099FE43469E
:102D3000220051462800009300F092FE43462200F4
:102D400028000799009300F08BFE43460499220067
:102D500014390093280009B200F082FE5B46069AFF
:102D60001A8009B03CBC90469946A246AB46F0BDDD
:102D7000FC235A46DB001380059B002B00DDD7E0C7
:102D80005A46684B664C1380012337B22200390043
:102D900028B2009300F064FE5A46624B390013805B
:102DA000ABB21D0003930123984608352DB22200D3
:102DB0002800009300F054FEB3B21E1F0493434654
:102DC00036B2220031002800009300F049FE5A4636
:102DD000544B039D13800123984610352DB22200D9
:102DE00039002800009300F03BFE434622003100EA
:102DF0002800009300F034FE049B2200083B1BB225
:102E00009946434649462800009300F029FE5A4659
:102E1000444B039D13800123984618352DB22200A0
:102E200039002800009300F01BFE434622003100C9
:102E30002800009300F014FE434622004946280073
:102E4000009300F00DFE049B22000C3B1BB29A463F
:102E5000434651462800009300F002FE5A46314B8B
:102E6000039D13800123984620352DB2220039009E
:102E70002800009300F0F4FD4346220031002800B2
:102E8000009300F0EDFD43462200494628000093E0
:102E900000F0E6FD4346220051462800009300F072
:102EA000DFFD049B2200103B19B24346280000932B
:102EB000079100F0D5FD5A461A4B13801EE75A467B
:102EC000194B1380002C00D17EE601F0EBF90400D1
:102ED000012001F0EFF903F05FF93100020014392D
:102EE000681E0A23C9B2C0B201F08CFD0F4801F080
:102EF000D3FA200001F0DEF93EE7002332220093EE
:102F000000213233002000F047FD059B032B00DD3C
:102F100050E6FC235A46DB001380D6E72E11001042
:102F20009C7F01008A52000000F8FFFFFC7901003D
:102F30000123154C37B200932200390028B298467D
:102F400000F08EFD059B012B00D125E7ABB21D00E3
:102F50000393434608352DB2220039002800009320
:102F6000012300F07DFDB3B204931E1F434636B229
:102F70000093220001233100280000F071FD059B21
:102F8000022B00DC23E740E69C7F0100F0B5DE4623
:102F9000454657464E46E0B5012085B001F08AF916
:102FA0000022A64B1A7003F0F7F8FA20000105F092
:102FB000F9F8A34B85B204001D807F2D00D826E1CF
:102FC000FF2003F04BF8A80803F0CEF8680803F0E0
:102FD000CBF820B203F0C8F800229A4B9A4F641144
:102FE0009A483C701A7005F0DDF8431E0400092B66
:102FF00000D9974C04F006FD964B012698461B78A5
:1030000085B20393002B00D191E0934BAA469946D9
:10301000924B9B46002C00D189E004F0F3FCFA238C
:103020009B00534498426FD8022E78D0039B002B0C
:1030300000D0A3E08A4D9921302000F0BBFC3B7802
:10304000032B00D894E0F8231B022B8002234A466E
:103050003021A4200093013B00F002FD362118200E
:1030600000F0A8FC7F4801F017FA4221182000F078
:10307000A1FC3B78032B00D876E07B4801F00CFAEA
:10308000FC260223F600794A6021A4202E800093BA
:10309000013B00F0E5FC6621182000F08BFC58464F
:1030A00001F0FAF97221182000F084FC03F074F8A2
:1030B0007F2801DDF826360238782E80042859D082
:1030C000072802D1062301383B700A2101F0E2FAF9
:1030D000674801F0E1F9FC23DB002B8003F05CF88A
:1030E0000023020077217020FFF74EFD43461B7836
:1030F000002B1CD0002C1AD004F084FCFA239B0077
:103100005344022698428FD904F07CFC83B29A463D
:10311000584BE3185A1E9341E41A022E86D1FFF74A
:1031200085FAFFF7C9F903F0EBF900285FD003F047
:1031300033F80400FA20000105F034F880B2A04210
:1031400004D0FA20E1B2000105F04EF820B203F0FD
:103150000BF80021002000F02DFC05B03CBC90468F
:103160009946A246AB46F0BD434801F095F987E782
:10317000374B6AE720235B422B80A6E700F0FAFB7F
:103180000123FC26364D5B42102120202B8000F0CD
:1031900011FC3A4801F080F99921282000F00AFC3E
:1031A000374801F079F9F60036482E8001F074F9BD
:1031B000012335485B422B8001F06EF95821002035
:1031C0002E8000F0F7FB314801F0D6FA304E300087
:1031D00001F0D2FA300001F0CFFA300001F0CCFA61
:1031E000300001F0C9FA2B4801F0C6FA23E702309B
:1031F000FFF7F6F900280ED002F0F6FE43461B78E2
:10320000002B94D000230126114C039305E77F2067
:1032100002F024FFD7E60020FFF7E2F9002805D1ED
:1032200043461B78002B00D0F4E680E702F0FCFE5A
:1032300043461B78002BE5D179E7C04631110010D9
:10324000FC26001019130010F5260010A30F000033
:10325000FFFF000021130010487A0100007A0100EE
:103260002E11001014780100E8790100787F010028
:10327000FC7901000100FFFFF47901007079010081
:103280006078010084790100887901009479010057
:10329000B0790100CC790100014B18787047C04625
:1032A00021130010FC23F0B54746CE46DB009946BB
:1032B000344B00260025984680B5334C334F83B0FD
:1032C00004F0A0FB23688342FAD21E302060012D57
:1032D00032D0022D17D0002D0AD0FFF7EDF90028CB
:1032E00001D1292DECD903B00CBC90469946F0BD14
:1032F000274B00201D8000F04BFBFFF7DDF9002875
:10330000F1D10135DCE74A461E4B6E201A80582366
:103310001E4A3F365178B6B24908591A13785B08ED
:10332000C01A0123009300F09BFB8023DB009E4228
:103330001BD3FFF7C1F9D6E7FC21F2B2C900002088
:1033400002F028FE4346582118806E207B781C36F8
:103350005B08C91A3B783A005B08C01A0095012344
:10336000B6B200F07DFBFE2E04D8FFF7A5F90028C9
:10337000A6D0B8E7FFF7A0F90028B4D100260225AF
:103380009EE7C0462E1100106C5100106C7A0100AF
:10339000BE260010F8B50125524B00201D7000F02C
:1033A00089FF514800F0F0FE04F01CFB04F046FBDE
:1033B00003F010F804F03AFB2122FF264B4B4C4C53
:1033C0001A704C4B7F201D60267002F047FE7F2252
:1033D000494B26701A80FFF76BF8FFF76DF800F085
:1033E000E5FA464804F0DEFE0400830700D573E0EA
:1033F00001252E002640254235D00027012000F06F
:1034000059FF3F4E378000F0B5FA3E4C200000F0E7
:10341000BBFE012000F04EFFFC223B4BD2002000FF
:1034200037801A8000F0B0FE0023384F384E3B70D2
:10343000357002F0B1FE00B202F096FE002000F0FE
:1034400039FF0123334A34481370344A3B703370D8
:10345000137000F099FE02F07FFE0520FFF7C0F820
:10346000002835D1F8BDFFF71DFF012000F022FF35
:10347000234F3E8000F07EFA224C200000F084FEB4
:10348000012000F017FFFC221F4B2000D2001A8001
:103490003E8000F079FE00231C4F1D4E3B703570BE
:1034A000FFF7B0FAFFF772FD00F032FE002000F0E7
:1034B0008BFA1B4C2379002BC0D0FEF7FDFF23793C
:1034C000002BBBD0FEF7F8FF2379002BF5D1B5E731
:1034D000002002F049FEC5E729008143074804F0B7
:1034E00083FE85E721130010846B01001013001088
:1034F0001813001014130010FC260010B40F000065
:10350000BE260010EC7101002E11001031110010C8
:10351000321100103A110010886E01003B110010AA
:103520000413001070B5050002F0BEFD04F06AFA45
:10353000114B12491A780B68114C1B1A934209D986
:103540002368002B0BD1280000F03EFA0123002055
:10355000236003E023680020002BF4D070BD101816
:10356000084A086013680133136000232360FEF7E4
:10357000A3FF0120F2E7C046101300101C13001037
:10358000141300100C13001010B5024800F0B0F92D
:1035900010BDC046201300107047C04610B504008F
:1035A000182107F00DF9200010BDC046A02280238D
:1035B00080219B011206D0588900014310B5D150DB
:1035C0008021D058490001434020D150D1580143B7
:1035D000D150D15840300143D15005F087F9084C03
:1035E0002070084805F06EFC07492070074805F078
:1035F000D7FE42424241064B20701A7010BDC046B1
:1036000094130010641300108C8001004C13001000
:103610006013001070B5384E040033780D00102B85
:1036200009D02000357005F00BFD00280AD00823D2
:103630000120337070BD314805F044FC0028F0D003
:103640000120F7E72278002A3BD02D4B1A706278D0
:10365000002A39D05A70A278002A37D09A70E278BE
:10366000002A35D0DA702279002A33D01A716279B3
:10367000002A31D05A71A279002A2FD09A71E279AA
:10368000002A1CD0DA71227A002A29D01A72627AB2
:10369000002A27D05A72A27A002A25D09A72E27A9A
:1036A000002A23D0DA72227B002A21D01A73627B8F
:1036B000002A1FD05A730E2200219954BAE707221C
:1036C000FAE700220E4BF7E70122F5E70222F3E7C3
:1036D0000322F1E70422EFE70522EDE70622EBE7FC
:1036E0000822E9E70922E7E70A22E5E70B22E3E7F8
:1036F0000C22E1E70D22DFE72C110010641300100B
:103700002413001010B582B06B469C1D220005F0FA
:10371000CBFC208802B010BD030010B5084A002879
:1037200006DBD069181805F04BFD064B187010BD6C
:10373000D169424200209142F5D35818F3E7C046C0
:10374000641300109413001010B5002005F038FD2C
:10375000014B187010BDC04694130010034B10B5F8
:10376000186A05F02DFD024B187010BD641300108F
:1037700094130010014BD8697047C04664130010C1
:103780000123812210B5084C82B05B4200932000D7
:10379000064B0749520105F011FF2000054A064972
:1037A00006F0BAF802B010BD34130010180C000077
:1037B000241200000001001099350000F8B54E46B3
:1037C000DE4657464546E0B5424B81461B789C464F
:1037D000984202DB013B1BB299463F4B1B78042BFE
:1037E00047D0022B3FD1484603213C4A12789346EA
:1037F0005043C41721400918891089B2384A394802
:103800009246128800889046524610804A46002A06
:1038100039DD48466246121A9146002A18DD5A469A
:10382000D0084343002B13D0002400222E4D00204B
:103830000E00AF5D260001300131013480B289B243
:10384000A4B2AF559842F3DB013292B24A45EEDBA7
:10385000264B5A460021595E0020634601F060FB6A
:10386000534642461A803CBC90469946A246AB4617
:10387000F8BD4846194A12785043C10F091849103B
:10388000934689B2BAE76446A2B294464A4690B2D9
:10389000A04217D25A465343DB1013D0002600270C
:1038A000114D002430002A5C08000134013601313A
:1038B000A4B2B6B289B22A549C42F3DB0137BFB23C
:1038C0006745EED34B465A460021002001F028FB05
:1038D000C6E7C04639110010301100103811001031
:1038E00036110010CA26001098130010CE260010C2
:1038F000134B144A10B5040013481A6002F030FA52
:103900000122124B12491A70124BDB321A70124B01
:103910002C3A1A70114B124A200013601A780132A7
:103920000A705B780F4A0133137011220E4B1A8014
:1039300000220E4B1A800E4B04321A7010BDC04686
:10394000F02600109813001034770100C8260010EC
:10395000F4260010C2260010C1260010846B01005E
:10396000C4260010B726001034110010CA2600101B
:103970003011001010B5002002F000FF0023024AB1
:103980001380024A138010BDCC260010CE260010F2
:1039900010B502F0F3FE10BD10B582B004AC24885F
:1039A000009403F065FD02B010BDC04610B502F0F2
:1039B000FFFF10BD024B1880024B19807047C046B4
:1039C000CC260010CE26001010B5002804D01C4BC9
:1039D0001B78002B0DD010BD1A4B1C6802F012FE94
:1039E000194B2000196803F02FFE154B1B78002B94
:1039F000F1D1164B164A197818880F2312780B400C
:103A0000012A17D0022A0ED0042A16D1190119430F
:103A10000C4B104A186807F066F800230E4A138012
:103A20000E4A1380D7E703230B40990019430B017B
:103A30001943EDE7FF210028EAD11900E8E7C04665
:103A4000BC260010F0260010B8260010CA26001070
:103A5000301100101F130000CC260010CE260010DD
:103A6000F0B5DE4657464E464546E0B58DB0069168
:103A700016A90978019151780291911C12780A9146
:103A80000592012B00D1F4E0042B06D00DB03CBC14
:103A900090469946A246AB46F0BD029B002BF5D05E
:103AA000002AF3D06B461B8B0F000893079300236B
:103AB000C24A01309146C24A904682B20B9208999E
:103AC0009BB209930BB203930B0001331BB2049317
:103AD00000230B9D00932C0036E0601E03B206937A
:103AE0006B461C215B5E9A464B461B880F2B05D804
:103AF000B4495B00C85AB04200D177E13200514668
:103B0000069803F025FC0F2239784B460A404146BF
:103B10001B8809685200525A20B20F2B04D8A949B9
:103B20005B00CB5A934202D0514603F011FC009B3C
:103B3000059A02331BB20234043501370093A4B254
:103B4000ADB29A4200DC41E143461B683A789C469C
:103B5000614613115B005E5A019B022BBDD16B1EA7
:103B60001BB29A464B461B880F2B05D895495B0024
:103B7000C85AB04200D141E132005046039903F0E7
:103B8000E7FB2BB29B464B461B880F2B05D88D4974
:103B90005B00CA5AB24200D12FE132005846039965
:103BA00003F0D6FB4B461B880F2B05D885495B00DD
:103BB000CA5AB24200D120E132005846049903F0BB
:103BC000C7FB4B461B880F2B05D87E495B00CA5AA2
:103BD000B24200D111E132005046049903F0B8FB23
:103BE0000F2239784B460A40414609685200565A1E
:103BF0001B886A1C12B292460F2B04D871495B00D5
:103C0000CB5AB34293D032005046039903F0A0FB45
:103C1000AB1C1BB29B464B461B880F2B05D8694932
:103C20005B00CB5AB34200D181E73200584603997A
:103C300003F08EFB4B461B880F2B05D861495B00B8
:103C4000CB5AB34200D172E732005846049903F0D0
:103C50007FFB4B461B880F2B05D85A4A5B00D35A73
:103C6000B34200D163E732005046049903F070FB81
:103C70005DE7131E00D109E70733DB100493029BB5
:103C8000002B00D102E783B2099301339BB2089362
:103C90004D4B00269946494B9846072380223340D6
:103CA0001A410092089AB3B20793531E1BB29A4668
:103CB00013B20A9AF610944676B266449B460024E4
:103CC000002303964AE06B461E8B4B461A884346F8
:103CD0006500ADB21B8877193FB20F2B04D8394964
:103CE0005B005B5A934233D03900504603F030FBFF
:103CF0004B461A8843461B880F2B04D831495B007A
:103D00005B5A934224D03900584603F021FB4B46BE
:103D10001A88434601361B88AD192DB20F2B04D8E3
:103D200028495B005B5A934212D02900504603F0A9
:103D30000FFB4B461A8843461B880F2B04D821499A
:103D40005B005B5A934203D02900584603F000FB06
:103D50000134029A24B22300944222DA049A534393
:103D6000039AD35C009A1A42F2D0019B012BAAD18C
:103D7000099A079B9446634418B2069B1919124B83
:103D800009B21A880D4B1B880F2BDFD80D4D5B0035
:103D90005B5B9342DAD10134029A24B2230094424D
:103DA000DCDB089B079E02339BB201360893059B20
:103DB00036B2B34200DD70E768E6C0463411001049
:103DC000B8260010D02600102E110010089A099B6A
:103DD000023292B20892079A0133013292B20792EC
:103DE000029A1BB2934200DA69E64FE60F200240C6
:103DF00060465200125A20B293E63A780F200240F1
:103E0000404600685200165A6A1C12B29246F7E603
:103E1000F0B54546DE4657464E46E0B5B44B8BB04E
:103E20001B6801915978050088460990F7200839E8
:103E300044460140481E8141E01009180C000891D9
:103E40001978614301314A4304329B185A1C1B788C
:103E500005925BB20793002B00DC46E1A54B089A64
:103E60001F78ABB29A46013306939BB20393534635
:103E70000293059B3900A04E47461D78022A00D1C7
:103E80007DE001330593ADB2002F62D0039AB846AE
:103E9000531E1BB29A4613B2002499460F0027E026
:103EA000022F73D0954B1B78002B00D1B4E0434612
:103EB000581E019B9C466B4608229A5E904B6044BC
:103EC00004921A883388001B00B20F2B06D85B00BF
:103ED0009B4659468B4BCB5A934204D0049903F02E
:103EE00037FA844B1F78013464B26D08A0452EDD8B
:103EF000EB07D5D4844B1A8833889A42F3D0022F2B
:103F000000D1ACE07D490978002900D192E041461A
:103F1000481E01998C466044001B01B20491694619
:103F20000820085E83460F2B06D85B009C4661463E
:103F3000744BCB5A9342D6D05946049803F008FAF2
:103F400001346C4B64B21F786D08A045D0DC390099
:103F500047466B461A8B039B079802339BB2039329
:103F6000099B0292D31A5BB2984200DCAEE0531C6C
:103F70000693089A059B1D78022A00D081E71A0053
:103F80005B781B021D43931C05937DE7019B670033
:103F90009C466744BBB20493594B3FB29B461A8878
:103FA00033880F2B04D857495B005B5A934253D098
:103FB0003900504603F0CCF95B461A8833880F2B42
:103FC00004D850495B005B5A934245D039004846BB
:103FD00003F0BEF95B46049F1A88338801373FB26D
:103FE0000F2B04D847495B005B5A934234D0390009
:103FF000504603F0ADF95B461A8833880F2B04D87E
:1040000040495B005B5A934226D03900484603F092
:104010009FF9384B1F7866E76B460820185E019BB6
:10402000E1180BB20493364B1A8833880F2B00D853
:104030004DE753E769460820085E0199611809B207
:104040008C460F2B05D82F495B005B5A934200D159
:1040500049E7614603F07CF9264B1F7843E7019955
:1040600067008C466744B9B28B463FB20F2B04D829
:1040700024495B005B5A9342EED03900504603F06E
:1040800067F9214B1A8833880F2B04D81D495B0030
:104090005B5A9342E0D039005F46484603F058F936
:1040A000194B01371A8833883FB20F2B04D81549B2
:1040B0005B005B5A9342CFD03900504603F048F979
:1040C000114B1A8833880F2B9AD99EE70F000020D6
:1040D0000E4B1856079B9C46604478430BB03CBC83
:1040E00090469946A246AB46F0BD024B1F78EEE7DC
:1040F000C42600103A11001034110010C026001020
:104100002E110010D0260010BE2600103111001014
:10411000134B10B5197818880F23124A0B401278E8
:10412000012A16D0022A03D0042A16D0190005E06D
:1041300003230B40990019430B0119430A4B0B4A07
:10414000186806F0D0FC0023094A1380094A13803E
:1041500010BDFF210028F1D1E8E719011943EDE76F
:10416000CA26001030110010F02600101F130000A6
:10417000CC260010CE2600100F23024A03401380E5
:104180007047C04636110010054B064A1860037888
:10419000013313704378044A013313707047C046EB
:1041A000C4260010F4260010B7260010F0B54746CC
:1041B000CE4680B55678070073420D0083B0994211
:1041C00016DB1C4B1B78994212DA14786342984232
:1041D0000EDB194B1B7898420ADA931C9846174B52
:1041E00099461B78022B1CD0042B0FD0082B04D02F
:1041F00003B00CBC90469946F0BD434622000093A4
:1042000029003300380001F07FFAF1E7434622002D
:10421000009329003300380001F02CF94B461B783D
:10422000E4E7434622000093330001F065F84B4673
:104230001B78D9E739110010381100103011001027
:1042400030B5537883B05C42A14214DB124C247821
:10425000A14210DC14786542A8420CDB0F4D2D788A
:10426000A84208DC0E4D02322D78022D0AD0042D12
:104270000DD0082D01D003B030BD0092220001F016
:10428000E5FCF8E70092220001F0C8FAF3E700929B
:10429000220001F083FBEEE7391100103811001005
:1042A00030110010024B1878431E9841C0B270477D
:1042B000C82600100A4B002808D001221A70094BAA
:1042C000DB321A70084B2C3A1A7070471870074B83
:1042D0001A78044B1A70064B1A78034B1A70F4E7DD
:1042E000C8260010C2260010C12600103811001088
:1042F00039110010F0B5C64600B55D4D04002A68BE
:10430000D378002B35D0602833D9203CE4B2594E05
:1043100011780023F05E584B1B785B1A98422EDB15
:1043200000233380554B1B78002B3DD0544B5078E5
:1043300098460021595E534B47001B78DB1B99427E
:1043400000DD79E0504B1B785BB2181843464118EA
:10435000002009B2198092784C4BA21A1B78D2B275
:1043600092B2002B00D17EE0FF231940FFF750FDF1
:1043700015E00E2CCBD84649A300CB589F46404BA6
:1043800092780021595E414BA21A1B78D2B292B2A8
:10439000002B4BD1FF231940184000F087FE202C42
:1043A00059D033881818308004BC9046F0BD314B8A
:1043B00011781888401A80B21880314B0021595E5C
:1043C00093782022D21A314BD2B21B7892B2002BB2
:1043D0001FD0FF2319401840FFF71AFDE4E7002122
:1043E000244B1980264952780023CC5E254B50007F
:1043F0001B781B1A9C4212DD0020234B1856801894
:104400000028D1D0FFF7DAF9CEE70022194B1A8045
:10441000CAE7FF231940184000F048FEC4E7002017
:10442000194B1856801800190880BDE7FF23194062
:104430001840FFF7EDFCB2E7134B1B785BB218187E
:10444000002800D187E7FFF7B9F94346307800210B
:10445000595E2A687FE70F4B1B785BB2002BA0D018
:10446000401001309DE7FF23194000F01FFE96E742
:10447000C4260010CC260010C22600103B110010EC
:10448000CE260010C126001032110010C8260010E0
:104490000C7A010031110010F0B5D6464F46464661
:1044A000C0B504780500002C50D0714B714E984671
:1044B000714B724F994633680135DA78002A4AD039
:1044C000602C48D9203CE4B20022B85E42461978FC
:1044D0001278521A904200DA6FE000223A80684A5D
:1044E0001278002A2FD0674A92460021515E5A78EE
:1044F00094466046644A40001278121A914200DDE8
:104500009AE00020614A105652466044411800204B
:1045100009B211809A785E4BA21A1B78D2B292B27D
:10452000002B00D19FE0FF231940FFF771FC202CE6
:1045300055D14B461B785BB2002B50D03B884010C6
:104540000130181838802C78002CB4D11CBC90464F
:104550009946A246F0BD0A2C45D008D90D2C24D18D
:104560000022464B1A802C78002CA4D1EEE7082CB0
:10457000AAD1424A197810889B78401A80B21080DC
:10458000404A0021515E2022D21A414BD2B21B7800
:1045900092B2002B3DD0FF2319401840FFF738FCA2
:1045A0002C78002C00D086E7D0E70E2C00D08BE7CB
:1045B0002C78002C00D07EE7C8E7324A0021515EFB
:1045C0009A78334BA21A1B78D2B292B2002B2DD11B
:1045D000FF231940184000F069FD202CA9D03B882A
:1045E00018183880AFE70021244A1180254900229D
:1045F0008C5E5A78244B50001B781B1A9C420EDDAF
:104600000020224B1856801800289CD0FFF7D6F8BF
:1046100099E7FF231940184000F048FD93E7002078
:104620001A4B18568018001908808CE7FF23194090
:104630001840FFF7EDFBD0E70020144A1056604405
:10464000002800D166E7FFF7B9F853460021595E0C
:10465000336838789A780E4BA21A1B78D2B292B28D
:10466000002B00D05FE7FF23194000F01FFDB4E7E7
:10467000C2260010C426001031110010CC260010F4
:104680003B110010CE260010C12600103211001080
:10469000C8260010F0B5CE46474680B5040089B064
:1046A00000295BD00A2933D100285FDB5AD00123CF
:1046B0005B426B4400276D46984643462000B9464E
:1046C0000A210137DE1906F043FF200031700A216C
:1046D00006F0B8FE26000400092EEED84B46EE1870
:1046E00007E03030C0B2FFF705FE731EB5420AD0B6
:1046F0001E0030780928F4D93730C0B2FFF7FAFD30
:10470000731EB542F4D109B00CBC90469946F0BD79
:10471000002827D001235B42FF276B4400266D460B
:1047200098460F402000390006F012FF4246330041
:1047300001369155220004009742F3D9EC1807E0A6
:104740003030C0B2FFF7D6FD631EA542DBD01C009F
:1047500020780928F4D93730C0B2F3E7C0B2FFF7A8
:10476000C9FDD0E73020FFF7C5FDCCE72D20FFF7CE
:10477000C1FD64429BE7C046F0B5D6464F4646466B
:10478000C0B504780500002C50D0744B744E984688
:10479000744B754F994633680135DA78002A50D04A
:1047A000602C4ED9203CE4B20022B85E4246197813
:1047B0001278521A904200DA75E000223A806B4A71
:1047C0001278002A2FD06A4A92460021515E5A7808
:1047D00094466046674A40001278121A914200DD02
:1047E000A0E00020644A1056524660444118002060
:1047F00009B211809A78614BA21A1B78D2B292B298
:10480000002B00D1A5E0FF231940FFF701FB202C6E
:104810005BD14B461B785BB2002B56D03B884010D7
:104820000130181838802C78002CB4D10D20FFF7F7
:1048300061FD0A20FFF75EFD1CBC90469946A2462A
:10484000F0BD0A2C45D008D90D2C24D10022464BAE
:104850001A802C78002C9ED1E8E7082CA4D1424A7B
:10486000197810889B78401A80B21080404A002145
:10487000515E2022D21A414BD2B21B7892B2002B49
:104880003DD0FF2319401840FFF7C2FA2C78002CC6
:1048900000D080E7CAE70E2C00D085E72C78002CEA
:1048A00000D078E7C2E7324A0021515E9A78334B54
:1048B000A21A1B78D2B292B2002B2DD1FF2319403D
:1048C000184000F0F3FB202CA3D03B881818388048
:1048D000A9E70021244A1180254900228C5E5A78DC
:1048E000244B50001B781B1A9C420EDD0020224BEB
:1048F00018568018002896D0FEF760FF93E7FF2334
:104900001940184000F0D2FB8DE700201A4B1856D2
:1049100080180019088086E7FF2319401840FFF728
:1049200077FAD0E70020144A10566044002800D1DE
:1049300060E7FEF743FF53460021595E336838783D
:104940009A780E4BA21A1B78D2B292B2002B00D0EA
:1049500059E7FF23194000F0A9FBB4E7C226001075
:10496000C426001031110010CC2600103B1100109D
:10497000CE260010C126001032110010C8260010EB
:10498000F0B5040089B000290AD1C0B2FFF7B2FC2B
:104990000D20FFF7AFFC0A20FFF7ACFC09B0F0BD1B
:1049A000002820D0FF2600276D460E402000310051
:1049B00006F0CEFD6A463B00013A0137D155220090
:1049C00004009642F2D9EC1807E03030C0B2FFF78D
:1049D00091FC631EA542DBD01C0020780928F4D985
:1049E0003730C0B2F3E73020FFF784FCD0E7C04691
:1049F000024B1880024B19807047C046CC2600102D
:104A0000CE260010F0B5CE46474680B51400384A91
:104A100089B01080374A1180002B5BD00A2B33D12C
:104A2000002C5FDB5AD001235B426B4400276D46AC
:104A3000984643462000B9460A210137DE1906F0A0
:104A400087FD200031700A2106F0FCFC26000400DE
:104A5000092EEED84B46EE1807E03030C0B2FFF713
:104A600049FC731EB5420AD01E0030780928F4D9DB
:104A70003730C0B2FFF73EFC731EB542F4D109B027
:104A80000CBC90469946F0BD002C27D0FF271F4054
:104A900001235B426B4400266D4698462000390096
:104AA00006F056FD434632000136995523000400B6
:104AB0009F42F3D9AC1807E03030C0B2FFF71AFCC0
:104AC000631EA542DBD01C0020780928F4D93730BA
:104AD000C0B2F3E7E0B2FFF70DFCD0E73020FFF7FC
:104AE00009FCCCE72D20FFF705FC64429BE7C0469C
:104AF000CC260010CE2600107047C04610B50C4BD7
:104B00001B785B104B43411059180A4B89B21B6844
:104B10005C18595CC30704D50F2399430A432270DC
:104B200010BD0F2312010B401A43D2B2F7E7C04663
:104B300038110010F0260010124B30B51B889A4235
:104B400019D0114C85B22378AB4214D90F4C89B2DD
:104B500024788C420FD90F245B1059430C4B401022
:104B60001B68091889B2581822405B5CE90703D515
:104B7000A3431A43027030BD1C401201224302704D
:104B8000F9E7C04634110010381100103911001037
:104B9000F0260010F0B54E46DE4657464546E0B5D5
:104BA00085B00392C34ACB18167802938E4202D87E
:104BB0009E4200D86CE1C04B1C780193844200D81F
:104BC0000BE1029B0F008B4200DBAFE082B2944608
:104BD00002B2521092B29346B84A9146C20700D42C
:104BE00024E1B74A8A46904661468446380001E08F
:104BF000019A14788C4211D99AB296420ED9641057
:104C000054434A460F2516685C44A4B2325DAA4359
:104C100045462F883A433255A64A167801338342D7
:104C2000E6DD6046039B5146C218019B1C78564541
:104C300000D828E1A24237D2029B0F008B4201DB51
:104C40001F000B0016B295B27610AC46B5B2AB465B
:104C50009A4DA946D50700D4C2E03D008846674674
:104C6000594694462A000390BC4217D991489EB2F7
:104C70000078B04212D948466410744300680C1999
:104C8000A4B2065D0F208643B2468D480688504682
:104C9000064348460068065501980478013393425C
:104CA000E2DD624641460398844200D98BE0A2428D
:104CB00045D2804B1B78994248D2904200DC89E073
:104CC00082461300012900D0E8E07D4957468B4613
:104CD0007A4992468946012188460E318C46220047
:104CE00008E06546AC4321431170019A1278013304
:104CF0009F421EDB9EB29642F9D26E490978012985
:104D0000F5D91C045210640CA4184D464A462D686F
:104D10001268594612192C5D454609783542E0D192
:104D2000654609012C402143C9B2DDE71F000B0095
:104D30004CE714005246844208D8944206D805B085
:104D40003CBC90469946A246AB46F0BD594B1B78F9
:104D500002999942F3D2904202DD030010001A003A
:104D600057496B468A4655491700894601218846AE
:104D70000E318C461B8986B2B44218D94D4A12783E
:104D80009A4214D9524664105C4311780204520CC2
:104D9000A4184D464A462D681268A4B212192C5D1B
:104DA0004546354209D06546AC4321431170013078
:104DB000B842C4DC019A1478DDE7654609012C404D
:104DC0002143C9B2F2E73B4B1B788B42C0D99042DA
:104DD00000DD75E79246030074E7039BC21829E7DC
:104DE0003D0088466746594694462A000390A742EC
:104DF00018D230489EB20078B04213D930486410BF
:104E0000744306780C193001824648460068A4B203
:104E1000065D0F200640504606434846006806558A
:104E20000198047801339A42E1DA3AE70F228A4680
:104E30009046390067468446584601E0019A147846
:104E4000A74214D29AB2B24211D24D4664105443D2
:104E50002D680419A4B22E5D45462E404D46184AD1
:104E60002D681278120132432A55124A16780133FE
:104E70009942E3DA6046039B5146C218019B1C78B5
:104E8000564500D9D6E6029B9E4200D9D2E60BE7F2
:104E9000039BC218084B1C78019305E789B2894629
:104EA000064990468C4601214A468B46814650462B
:104EB00011E0C0463911001038110010F026001022
:104EC000361100100F218C43264301993E700C7857
:104ED000013383421DDC99B2A142F9D20E4D2E78E6
:104EE0009642F5D90D4D64102E78654654431F0443
:104EF0007F0C2D68E419A4B22F1965462D682C5D2E
:104F00005D460D42DED10F2136010C402643F6B23C
:104F1000DBE7424648460EE7391100103611001013
:104F2000F0B5DE4657464E464546E0B5821887B096
:104F300012B2002800DAA9E0584C2478844201DC3F
:104F400094426ADDCB181BB200296DDB544C2478E7
:104F50008C4201DC9C4260DD824269DA00B21400BE
:104F60000190994268DD0AB219000392CB43E043F5
:104F7000DB17019AC0170B402040029390424CDA95
:104F8000039A0493934200DD0492029B039A0093D8
:104F9000934200DA0092434B07009C469846404CEF
:104FA0002378029A934202D8039A93422FD93B4D19
:104FB0002A78BA422BD983B299467B109BB29A4683
:104FC000C3073CD40F239B464B46049E814605975E
:104FD000180000E02A78904213D22178B3B29942A7
:104FE0000FD941465F4652105A4309682E4B52442E
:104FF00092B21B78895C1B0139400B43414609681A
:105000008B54009B01369E42E4DD4846059F0130EB
:10501000019B00B201378342C2D107B03CBC90462D
:105020009946A246AB46F0BD002BF6DB824295DBEB
:1050300004B20192994296DC09B2039396E70F23DA
:1050400056469B46BA46049927004C46814600E0E6
:105050002A78A24212D938788BB298420ED95210CF
:105060005A43634658461B68B21892B29B5C83430E
:105070000D4800880343604600688354009B01315B
:105080009942E5DD3C0048465746C0E7002AC4DBAC
:10509000CB181BB2002900DB58E7C5E73811001018
:1050A00039110010F026001036110010F0B54E46F0
:1050B0004546DE465746E0B5844B06001B68F7249C
:1050C0005D788DB0280008382040441EA041EC10C7
:1050D0000019040004901878019544430134624398
:1050E00004329B185A1C1B780692794A5BB20393D0
:1050F0001378022B01D001231370002E08DB002946
:1051000006DB5843734A80191278904200DAC5E0F2
:10511000714A724812880488A24200D1BCE0704DE6
:1051200070480088844200D1B4E06D4C0A9408AC09
:105130000B9520716271022B4CD0039B002B34DD48
:105140000023994601339846069B8FB29B46BA4688
:10515000019F5B461D78049B022B33D001239C46A4
:10516000ADB2E34452460024B246019243460826BB
:1051700001992B4009AA08A8D25C091980199B0043
:105180000134C35809B2504664B298476D08A7422B
:10519000ECDA019B56469A464B4601335BB2994680
:1051A000039B013636B24B45D3D100204E4B1856E7
:1051B000039B9C4660440DB03CBC90469946A24679
:1051C000AB46F0BD5B465B781B021D4302239C4649
:1051D000E344C7E7039B002B4CDDB3B205938BB2CE
:1051E000029300230793069A04991378022949D061
:1051F0009BB2994601320692059900260BB29B4656
:105200000B0001331BB29A464A4601230821134082
:1052100009AAD25C9B00904608AA5218D758029B54
:1052200074009C466444A5B224B24246210058460C
:105230000135B8472DB2424621005046B847424694
:1052400029005846B847424629005046B8474B46C1
:105250005B0899460136019B76B2B342D4DA079BCC
:1052600001335AB2059B079202339BB20593039B0D
:105270009342B8D100201C4B1856039B9C466044B7
:10528000400098E71100527812021A438B1C914695
:105290000693B1E7154C49E7144D41E7019A1448CC
:1052A00001325A4300785218824200DB30E70A4A42
:1052B0000A4812880488A24206D00E4D0948008888
:1052C0008442E7D00B4C31E7084DF7E7C4260010C5
:1052D0003A1100103811001036110010341100106E
:1052E000394B0000CA26001031110010F94A0000A5
:1052F00039110010FD4A0000F0B5DE46454657461C
:105300004E46E0B59B46931085B01BB2984600917F
:105310000392002A68DD83B2994600239A464B46E1
:10532000D1469A4603274B463D004A46DB171D40AF
:105330009B0FD2181740FF1A5B464D443FB2AD1089
:105340007F00002B45DD53461BB25B109BB2C0268D
:10535000019306233E41DF1B5346002476B2DB0750
:1053600049D40E9A0023944665442A004546904647
:1053700042466B43D05C3A4B30401B8838418342F5
:1053800021D0C0B2FEF7F8FE364AA3B212785245D9
:1053900019D900998C463449634409789BB29942E3
:1053A00011D952105343019A0F2094462F4A634457
:1053B00011682F4A9BB212780291C95C1201084011
:1053C00002990243CA54013424B22300A345CFDC1E
:1053D000A8464B4601331BB29946534601339BB254
:1053E0009A46039B99459DDB05B03CBC9046994687
:1053F000A246AB46F0BD0E9A0023944665442A00AF
:105400004546904642466B43D05C154B30401B8866
:10541000384198421ED0C0B2FEF7AEFE114BA2B288
:105420001B78534516D900998C460F496244097878
:1054300092B291420ED95B105343019A0F209446C9
:105440000A4A634411689BB2CA5C824308480088D8
:105450000243CA54013424B223005C45D2DBB7E7CF
:10546000341100103811001039110010F02600100E
:1054700036110010F0B5DE4657464E464546E0B5BB
:105480008DB0169C0092002900DA1AE19A4DCA18D4
:105490002D780292AA4200DDBDE00BB29C461A00B4
:1054A000002800DABEE0954D009B2E781B1805956C
:1054B000B34200DD0FE100234510039308930793E7
:1054C000761071438E4B49191B685B1802998A420A
:1054D00057DA01210D000540069505B20195009DA2
:1054E000039EA846874F4044861BB946B846B2463D
:1054F0000D4081490995049104990978914240DD54
:10550000069A019D002A00D0A3E0554500DBD4E0B7
:10551000039A002A45D108E08243023511432DB297
:10552000197001340133AA4518DD404621780688F8
:105530001A780811864206D00F20024093460A00CE
:105540008243584602430F200140B142E4D1023564
:105550002DB21A7001340133AA45E6DC079A00998E
:105560009346059A5C441278521A089952108B4659
:105570005A449B1862460299013212B294468A42FA
:10558000BADB0DB03CBC90469946A246AB46F0BD96
:10559000814302350A432DB21A7001340133AA4502
:1055A0001DDD484621786278090112110A430688F8
:1055B000D2B219781011864206D00F2001408B46D6
:1055C00011008143584601430F200240B242DFD10F
:1055D00002352DB2197001340133AA45E1DC099A74
:1055E000002A15D00F21474A257812882940914278
:1055F0000ED00F2019780AAAD171D1792D0101405E
:10560000D171D17907320D43EDB2157012781A704D
:1056100001340133A2E70AB2EB1894460293002842
:1056200000DB40E7022543001D40009B03959846A0
:105630008044434640424010009303B2984607938B
:105640002E4B00251E780593002300204444089328
:1056500036E755451BDA1A78217838880E11B042A2
:1056600002D00F20824332430F261A70388801334C
:105670000E401A7886421AD00F20090102400A43D0
:105680000235D2B22DB21A7001345545E4DB039ACB
:10569000002A00D162E71B48227805881978121188
:1056A000AA4202D00F2081431143197056E70235F8
:1056B0002DB201345545CFDBE9E7039A002A8ED19C
:1056C0004CE7CB180293531059430023641A00226D
:1056D0009C460021E4E6022745002F4001250540B5
:1056E000A8469B1B5B1043441BB20793331A0895D3
:1056F000039700934510E3E63911001038110010AC
:10570000F026001034110010F0B54E464546DE4636
:105710005746E0B585B0914680461A000E9B002999
:105720006ADB8818824639480078824551DC0AB223
:10573000944614004246002A52DB354A0025107870
:1057400003924A4642440195824207DD4246121ABC
:105750004A4412B201924246821A914641432D4A6E
:10576000414412685118A2452CDD424612B2029201
:10577000264A4F4693464546274847445A4612789C
:10578000A2421FDD029ABA420DDAA846EE1A1D782F
:105790000488AC4200D00D7001339A1912B2013165
:1057A0009742F4DC45464C46019A9046039A43449E
:1057B0001278121B89186246013212B29446140004
:1057C0005245DBDB05B03CBC90469946A246AB4651
:1057D000F0BD8246924442460CB2A446002AACDA9E
:1057E000504202B2C14401929046094A43441078A3
:1057F000039200229046B1E792464A468A445143BA
:1058000000225B1A00249446002193E7391100100E
:1058100038110010F026001034110010F0B5DE46EB
:10582000454657464E46E0B59B46931085B01BB2A1
:10583000984600910392002A68DD83B299460023BE
:105840009A464B46D1469A4603274B463D004A4668
:10585000DB171D409B0FD2181740FF1A5B464D44C3
:105860003FB2AD107F00002B45DD53461BB25B10ED
:105870009BB2C026019306233E41DF1B534676B2FE
:10588000DB074AD40E9A0023944665442A0000247C
:105890004546904642466B43D05C3B4B30401B88AC
:1058A0003841834221D0C0B2FEF766FC374AA3B22A
:1058B0001278524519D900998C46354963440978C4
:1058C0009BB2994211D952105343019A0F2094462A
:1058D000304A63441168304A9BB212780291C95C25
:1058E0001201084002990243CA54013424B2230031
:1058F000A345CFDCA8464B4601331BB2994653461D
:1059000001339BB29A46039B4B459DDC05B03CBCE2
:1059100090469946A246AB46F0BD0E9A00239446A7
:1059200065442A0000244546904642466B43D05CBD
:10593000154B30401B88384198421ED0C0B2FEF74C
:105940001BFC124BA2B21B78534516D900998C460A
:105950000F496244097892B291420ED95B105343C9
:10596000019A0F2094460B4A634411689BB2CA5CAB
:105970008243094800880243CA54013424B22300F8
:10598000A345D2DCB6E7C046341100103811001030
:1059900039110010F026001036110010F0B5454600
:1059A000DE4657464E46E0B58BB0019215B200294F
:1059B00000DA2EE1A14ACC181278039494426CDCF0
:1059C000019B5C100BB29C461A00149B013C98464C
:1059D000444400286EDB9A4B1F780693019B1B18EA
:1059E000BB4200DD21E10026431004967F1079437D
:1059F000C918944B1B685B180399914200DCB2E014
:105A000001210E00019F0640B846079606B2029695
:105A1000049E4044861B38006D10084079106918B8
:105A20000990089188488549804605910F2105987D
:105A30000078904200DC96E0079A029D002A4CD143
:105A4000AE4200DCE1E0049A002A00D098E0B146C2
:105A5000260009E012010840023502432DB21A70F7
:105A6000013E0133A94515DD327818781411A2469C
:105A7000754C2488544502D05746884338430F005C
:105A80001740A742E6D102352DB21870013E01330E
:105A9000A945E9DC34004E4654E0D3180393149B27
:105AA000019C984664100EB2013CB4463200444456
:105AB000002890DA0223460033400493019B984665
:105AC000804443464042019340105D4B00B21F7832
:105AD000241A06930020002388E7AE4221DDB24657
