:1000000000800010FD000000C97A0000D17A0000D5
:100010000000000000000000000000006989FEEF01
:10002000000000000000000000000000D57A000081
:100030000000000000000000D97A0000CD6500003B
:10004000CD7A0000CD7A0000CD7A0000CD7A000094
:10005000CD7A0000CD7A0000CD7A0000CD7A000084
:10006000CD7A0000CD7A0000CD7A0000CD7A000074
:10007000CD7A0000CD7A0000CD7A0000CD7A000064
:10008000CD7A0000CD7A000051620000CD7A0000E8
:10009000CD7A0000CD7A0000CD7A0000CD7A000044
:1000A000CD7A0000CD7A0000CD7A0000CD7A000034
:1000B000CD7A0000CD7A0000CD7A0000000000006B
:1000C0002C7D010000010010680100002C7D010062
:1000D00000000020000000002C7D010000400020F6
:1000E00000000000680200102C4200000000002008
:1000F000000000000040002000000000F0B5454670
:10010000DE4657464E46E0B55D4A5E4B904683B0AC
:10011000934200D3B1E00722934607329246213240
:10012000914619001C6889685D680C331A0020002C
:1001300000292FD027005E462F4337407E4277416B
:10014000EE1D361BB245B641764201393E4200D122
:100150007FE089457DD28908481C9C4621004708DC
:10016000FF003F192E1B0094019573180C684D6811
:1001700008311C605D60B942F7D101210600009C86
:10018000019D8E43B100634664186D18B04201D0E2
:10019000216829609845C4D83B498A424FD2072339
:1001A0000139891A994313008C4608339C44012372
:1001B00090469A460023424606CA0800002A39D0D3
:1001C0005646551EAC080134A1468C0864423440A2
:1001D000172D4BD9002C3AD0042508C04E46361BAB
:1001E000B146A40009197408E40064180026002729
:1001F000C0C18C42FAD151464C468C43A1008B467B
:10020000290058445944A14514D00C1D0360A24252
:1002100010D904344360A2420CD904348360A24252
:1002200008D90434C360A24204D9143103618A425C
:1002300000D9436108229146C844E045BBD107F08C
:1002400077FC124B002B13D000E000BFFEE7002527
:10025000C4E78908261D890089192E1B05002D6811
:100260008419043025608842F8D193E70021CCE757
:1002700008F0B6FC07F08CFBE8E71A008CE7C046F4
:10028000E4000000C0000000FC00000000000000CE
:1002900010B5064C2378002B07D1054B002B02D05C
:1002A000044800E000BF0123237010BD6802001065
:1002B000000000002C7D0100044B10B5002B03D082
:1002C0000349044800E000BF10BDC0460000000024
:1002D0006C0200102C7D010010B50400C0680028DD
:1002E00001D007F001FC200010BDC04670B5856844
:1002F0000400002D05D028002D6807F0F5FB002D27
:10030000F9D1636800219A00206808F0CAFC002334
:10031000E360A360230020681833984201D007F0FF
:10032000E3FB200070BDC046F0B5DE4657464546AB
:100330004E46E0B5B24CB348A54403F017F80AABFB
:100340009C4613AF3D003B000022AF4961441A6058
:1003500008339942FBD1802600247600E000082271
:1003600000213818013408F09CFCB442F6D1A748AB
:1003700004F0E8FC0122A64B39001A700723A54AB5
:10038000D83113801022A44B2B602A716A71083572
:1003900082338D42F8D1002110A801F0F1F8109BB2
:1003A0009E4A1B689E4805931B689E4C9978118055
:1003B000DA78090102809C48120101809B499C481F
:1003C0000A8019780A0102805A7810012080986802
:1003D000984B0890F950984BFA50083BF85006F0AB
:1003E0000DF9964A03009446634409930223079348
:1003F0000023069302F072FC002800D12DE258235E
:100400000022009300210020163302F06DFC061E2E
:10041000F0D0824B042100229B5E9946804B002243
:100420009B5E9A46059B187902F0AEFB002809D026
:100430007A4B00229B5E7C4A0021515E1A01914258
:1004400000D193E2059B0421187A02F09DFB00285D
:1004500009D0724B00229B5E734A0021515E1A0143
:10046000914200D18AE2059B0421987902F08CFB2D
:10047000002809D06A4B00229B5E6C4A0021515E25
:100480001A01914200D1A9E2059B0421987A02F059
:100490007BFB00280FD0624B00229B5E634A002149
:1004A000515E1A01914206D15D4A01331380022345
:1004B000079300230693059D0421287B02F064FB2B
:1004C00043425841069C404204210440A87B02F06C
:1004D0005BFB43425841404204400421287C02F027
:1004E00053FB434258414D4B404204400694002484
:1004F0001C5F002C00DAF4E14D4B1B881B09A34262
:1005000000DDCCE1242205998A5C920700D4C6E183
:1005100001240121059E0434300000F0B3FFB446ED
:100520000DAB18803D4BC2B201041A800B0E3C4942
:1005300091460B803C4912010A80A4003B49644467
:100540009A461B010B806168394D05910968354E4B
:100550000C78200128804878050135808D68354960
:1005600008957C503449785008397D501B210A91F8
:10057000494609018A4200DBABE12B49043212B241
:100580000A80514609018B4200DB9AE12749043376
:100590001BB20B80032100242948029401802949C1
:1005A00008784108914208DC214C2488651A95425C
:1005B00000DBCBE1001B02B202920020224A8146FE
:1005C000117893464A089A4208DC16480088841A33
:1005D0009C4200DBB6E1091A0BB29946089B002B3E
:1005E00070D0154BFB580393002B6BD0114BFB586D
:1005F0000493002B66D00023089D9A462EE0C04647
:10060000A4F7FFFFC06E010024080000D8580100C5
:1006100084190010DE0100108ED70000D2010010F6
:10062000D6010010CC010010D0010010D401001040
:10063000CE0100100408000008080000C0D401002A
:1006400092190010E2010010E301001001239C4602
:10065000039BE24445469144534533D0049900221C
:100660008846CA4B029E1B78A8449E42EEDA2C783C
:10067000E4003859002800D10CE15A46127891451F
:100680000FDA3A1911798C46F1420AD44946527967
:10069000CA4206D433000091614606F0ADFBBB4B65
:1006A0001B783C192279B61862799E42CEDA013560
:1006B0004545DAD101239C46039BE24445469144DB
:1006C0005345CBD1B24BB34A1B88B34E138008239A
:1006D00002212A209846338002F06AFC05F08EFF42
:1006E000099B181A00D5D3E105F088FFFA21099B70
:1006F0008900181A09F00EF83C21040009F0F0F8FE
:100700000D00601A3C2109F005F8A44902002B00F5
:100710000EA808F0ABFD0EA802F0A8FF05210420EA
:1007200002F032FA002800D0B7E10521053002F0CE
:100730002BFA002800D0ADE143460221022033808D
:1007400002F036FC964802F091FF0A210A9803F065
:100750008BF81021002002F02BFC924802F086FF5B
:10076000914B0A210020185E03F07EF88F4C200088
:1007700002F07CFF8E4B0A210020185E03F074F813
:100780001821002002F014FC8A4802F06FFF8A4B07
:100790000A210020185E03F067F8200002F066FFCF
:1007A000864B0A210020185E03F05EF87E4B002085
:1007B000185E764B1B785A08904208DB80490988FE
:1007C0008C1AA04200DCCFE05B1A181800B2784BFC
:1007D0000021595E5B461B785A08914208DB794C30
:1007E0002488A51AA94200DCBCE01B1B591809B2D9
:1007F000079B012B00D1A1E01A00734B9B569A0175
:10080000D218724B5200D21802F0C2FD069B002B88
:1008100000D1EFE50523032433805C4B00211A78D7
:100820000020182303F0A6FA584B00211A78002064
:100830001823348003F0D8F80221022002F0B8FB1C
:10084000534B544A1B880B981380348002F00EFFE0
:1008500002F044FA002800D0D1E500261098119D3E
:1008600085420AD004002068002802D0282108F020
:1008700089F80434A542F6D11098002801D007F079
:1008800033F93000524B9D443CBC90469946A246F9
:10089000AB46F0BD00220AE7494B1B881B09474ABB
:1008A0000025555F002D55DB464A12881209AA42E1
:1008B00021DC24210598415C49071CD50224022132
:1008C00028E68B4200DC65E63949043B1BB20B800D
:1008D00060E68A4200DC54E63349043A12B20A80E8
:1008E0004FE62423EB5C1B07D6D50324032111E636
:1008F000344A12881209002C05DBA34203DD002DC7
:1009000001DB954271DB08F023FC032108F0E8FFCE
:10091000022903D82F4B8900CB580B934A46264B0C
:1009200006961A805246254B1A801F4B00229A5E6B
:100930001F4B00215B5E1B210A9119E6264A02F03B
:1009400071FD63E7D31A1BB2994647E68A1A12B2C1
:10095000029232E6242205998A5CD207C8D5002487
:100960000021D7E511B243E710B230E7124A013B4C
:10097000138003230793002306939CE50E4A01335B
:100980001380012307930023069394E5E2010010EE
:10099000DE01001092190010E001001088C1000073
:1009A00094C100009CC10000D00100104CC20000A6
:1009B000D4010010A4C10000D2010010D601001023
:1009C000CE010010CC01001024C400008CD7000020
:1009D0005C08000018C4000036E20000354A013B04
:1009E000138000230793069365E5334A2301BA5821
:1009F0001B11934247D231482901385809118142CD
:100A000041D24A4308998C466344985C02900A900C
:100A10002B4E736819009B4608F078FE33688A00F5
:100A2000D35804910393002B3AD01B681A7990464F
:100A30005A464146AB46A04615000C000CE01E6825
:100A4000002E2DD0347929002000039308F05EFE9B
:100A5000049B8B4224D13300029AA242EFD1039A25
:100A600044465D46002A1BD0002B19D00A9B042B5C
:100A700000D1F2E6134BAA4600229A5E124BA14621
:100A800000215B5E74E5002300200A930293BFE718
:100A90000126E3E601261098EFE600261098ECE622
:100AA0004A460A4B55461A805246024B4C461A801B
:100AB000DCE7C046D601001004080000080800006A
:100AC0008C030010D0010010D4010010D2010010DE
:100AD000F0B5C64600B5254882B004F033F90723C7
:100AE0000621234A234D1380234A00241180234AE0
:100AF0001380234BEF18234B9846582602F0EEF84C
:100B000000282FD06E23002200210020009602F042
:100B1000EBF80028F2D00521042002F035F8431E3E
:100B2000984124180B2C1DDC0521062002F02CF81E
:100B3000002817D10022072C00DD134A521900218A
:100B4000002002F025FC3A000021002002F020FCE9
:100B50000221022002F02CFA4246A300985802F02B
:100B600085FDCAE702B004BC9046F0BDF058010014
:100B7000DE010010C8E60000E0010010921900102C
:100B8000D425000004010010EA120000F0B5DE4692
:100B90004E4645465746E0B583B005F02FFD08F0B8
:100BA000B3FA02F00FF82D4802F0E0FB2C4B582569
:100BB0009A462C4B2C4E99462C4B98462C4B9B46D8
:100BC0001027504604F0BEF8378008E06E2300225C
:100BD00000210020009502F087F8002831D102F0B2
:100BE0007DF80028F2D1FFF773FFFFF79DFB0400AB
:100BF000484604F0A7F80622414607230A801D4A0A
:100C0000338013801C4B03345C431C4B9C46644470
:100C100002F064F80028D4D06E23002200210020C6
:100C2000009502F061F80028F2D000210020220097
:100C300002F0AEFB0521042001F0A6FF0028E7D05A
:100C4000BEE7002100205A4602F0A2FB0521042045
:100C500001F09AFF0028C2D0C5E7C046C06E01006F
:100C600044580100F0580100DE010010E0010010BE
:100C700028C4000092190010EA120000C8E6000023
:100C8000F0B557464E464546DE46E0B515001822FB
:100C90009446844462468BB007920260012242600F
:100CA00000228260C26042618261103294460E006E
:100CB0008444FE2162468905016107000592A91B53
:100CC000994200D21900059807F066FE7B6804007F
:100CD0009946834215D2012800D1EDE080239B057F
:100CE000984200D3F3E083009946180006F0F8FE1E
:100CF0004A460021804607F0D4FF4346A1463B60A8
:100D00007C60AE4266D03B68B24602936B1E049391
:100D100008239C46BC446346BB46069353461B7857
:100D200049461800984608F0F1FC029A8B00D55805
:100D30000C000393002D1ED02B681F790BE01E685A
:100D4000002E18D03779494638001D0008F0DEFC27
:100D50008C4210D13300B845F1D1002D0BD0002BBF
:100D600009D0049B534534D05B465B689946012308
:100D70009C46E244D2E7082006F0B2FE002303605E
:100D800053461B785A460371012300935B4608AC17
:100D9000DB68060052682000059907F039FE2378C9
:100DA000002B1FD15B461B680293029A039B94465B
:100DB00063441C001B68002B6BD01B6833602368E6
:100DC0001E605B465A46DB680133D360049B534583
:100DD000CAD15F4638000BB03CBC90469946A2464B
:100DE000AB46F0BD6768012F6BD080239B059F4207
:100DF0006DD2BC00200006F073FE2200002102909C
:100E000007F04FFF5B4600229D689A60002D27D0B7
:100E10000023B1461E0005E0126822601B681C60BA
:100E2000002D1CD02C003900207908F06FFC029AAC
:100E30008B00944663441A682D68002AECD15A4608
:100E4000926822605A469460069A1A602368002BC2
:100E500030D06346B600F4500E00002DE2D14E466D
:100E60005B461868079B834201D006F03DFE5B4657
:100E7000029A5F601A603900404608F047FC029A07
:100E80008B0094460393039B63441C001B68002B58
:100E900093D15B465A469B6896603360002B06D020
:100EA0001879516808F032FC029B8900CE50069BED
:100EB000236086E70E00B3E70023BB61079B9846DB
:100EC0001BE75B4600229A61079B02939AE707F0B3
:100ED0005DFDC04670B5624B8EB06A4634210C93FE
:100EE000042352181370352208AB05930BAB0493FF
:100EF00007AB03930AAB5B4D029309AB019306ABBF
:100F000000936A4400230CA92800FFF7B9FE564C51
:100F100028002200554906F0E1FD6A46544B554E23
:100F20001386554B08220193544B0A21009330003D
:100F30000C9B00F05BF9524D22002900300006F0B6
:100F4000CDFD504E504B0A2200930C214F4B3000E8
:100F500000F0D8F822002900300006F0BFFD4C4E0A
:100F60004C4B0A2200930C214B4B300000F0CAF886
:100F700022002900300006F0B1FD484E484B0C22FB
:100F800000930E21474B300000F0BCF822002900EE
:100F9000300006F0A3FD444E444B06220093082186
:100FA000434B300000F0AEF822002900300006F07C
:100FB00095FD404E404B0622009308213F4B3000E8
:100FC00000F0A0F822002900300006F087FD3C4E1A
:100FD0003C4B0C22009310213B4B300000F092F868
:100FE00022002900300006F079FD384E384B0622E9
:100FF00000930821374B300000F084F822002900CC
:10100000300006F06BFD344E344B0622009308216D
:10101000334B300000F076F822002900300006F053
:101020005DFD304E304B082200930A212F4B3000DB
:1010300000F068F822002900300006F04FFD2C4E29
:101040002C4B062200930A212B4B300000F05AF85B
:1010500022002900300006F041FD0EB070BDC046F0
:10106000000201038C03001000010010ED020000DB
:10107000060300009C02001088580100145901006A
:10108000D90200008402001014D70000105901009A
:10109000B40200101859010064580100CC0200107D
:1010A0009059010068580100E4020010385A01000C
:1010B0006C580100FC020010685A010070580100D1
:1010C00014030010985A0100745801002C030010FA
:1010D000585B01007858010044030010885B010050
:1010E0007C5801005C030010B85B010080580100CF
:1010F00074030010085C010084580100831C032065
:1011000018407047F0B5DE4657464E464546E0B5B6
:1011100087B04360109B059083600023019100928B
:1011200001704270C36003614361002944D02E4BBB
:101130005A681B6893460293002303930493039A0F
:10114000109B944663449A46009B0026002B2BD0AC
:1011500053461B7859461800994608F0D7FA029A68
:101160008B009C58002C17D0236888461A791500EC
:101170000BE01F68002F0FD03D79594628001C0056
:1011800008F0C4FA884507D13B00A945F1D1002CED
:1011900002D02368002B17D1019B01369C46009B8F
:1011A000F6B2E244B342D3D1039B019A01330393D5
:1011B000DBB204939A42C2D8059807B03CBC904673
:1011C0009946A246AB46F0BD059B049ADE709A7024
:1011D000009BB342F0D8039B019A01330393DBB227
:1011E00004939A42ABD8E7E7B004001030B504008E
:1011F00085B003AD2B80099B0093089BFFF782FF0E
:1012000020002B88638005B030BDC04682B0022923
:1012100018D00ED800291DD0027801AB013A1A70FF
:10122000426852785A7018785B781B02184302B0F3
:101230007047032914D1002201AB1A704268D2789A
:101240005A70F0E7426801AB92781A704278013A1E
:101250005A70E8E7426801AB127859701A70E2E7F9
:10126000002201AB1A80DEE770B55F4B8EB00C93A5
:10127000042335220CA90B7108AB05930BAB049327
:1012800007AB03930AAB594D029309AB019306AB2D
:1012900000936A4400232800FFF7F2FC544C280016
:1012A0002200544906F01AFC534E544B0822009376
:1012B0000A213000524BFFF725FF524D524B2200BE
:1012C00029007380300006F009FC504E504B0A2272
:1012D00000930C214F4B3000FFF714FF2200290030
:1012E000300006F0FBFB4C4E4C4B0A2200930C21C5
:1012F0004B4B3000FFF706FF22002900300006F0BC
:10130000EDFB484E484B0C2200930E21474B30001A
:10131000FFF7F8FE22002900300006F0DFFB444E04
:10132000444B062200930821434B3000FFF7EAFEAE
:1013300022002900300006F0D1FB404E404B06222F
:10134000009308213F4B3000FFF7DCFE220029000C
:10135000300006F0C3FB3C4E3C4B0C2200931021A6
:101360003B4B3000FFF7CEFE22002900300006F094
:10137000B5FB384E384B062200930821374B30001E
:10138000FFF7C0FE22002900300006F0A7FB344E14
:10139000344B062200930821334B3000FFF7B2FE96
:1013A00022002900300006F099FB304E304B082215
:1013B00000930A212F4B3000FFF7A4FE22002900E2
:1013C000300006F08BFB2C4E2C4B062200930A219A
:1013D0002B4B3000FFF796FE22002900300006F06C
:1013E0007DFB0EB070BDC04600020103B0040010CA
:1013F00000010010ED020000C0030010E05C0100DD
:10140000345D0100D902000006030000A8030010AB
:10141000445C0100305D0100D8030010385D01001C
:10142000BC5C0100F0030010B05D0100C05C010075
:1014300008040010585E0100C45C01002004001084
:10144000885E0100C85C010038040010B85E01002D
:10145000CC5C010050040010785F0100D05C0100FA
:1014600068040010A85F0100D45C01008004001033
:10147000D85F0100D85C01009804001028600100CA
:10148000DC5C010010B50B1D9B00C018436882B0E6
:1014900008001C68FFF732FE01002000FFF7B6FECF
:1014A000FF2213000340000A10400002184302B05C
:1014B00010BDC046F8B55746DE464E464546036861
:1014C000E0B5476893462B4A9946FB1A05008A46C1
:1014D0009B10934242D0002B3BD059008B422FD916
:1014E00053464A469C1A244B9846404606F0F8FA62
:1014F000060080445B461B683351002C04DD22004B
:101500004946300007F0BAFB534604343419FF1A39
:10151000002F04DD3A005146200007F0AFFB4B4698
:10152000E419002B02D0484606F0DEFA43462E604E
:101530006C60AB603CBC90469946A246AB46F8BD99
:10154000534648461C1A00290BD100230026984612
:10155000D0E74A4604238C1A9846C6E7074807F0A6
:1015600018FA80239B05994200D311008B009846FE
:10157000BBE7C046FFFFFF1FFCFFFF7F6460010069
:10158000F0B5DE4657464E464546E0B500258FB0DD
:10159000056045600290856028200C0006F0A0FAE6
:1015A000204B062603602423C5549A4680235B0201
:1015B000436099461C4F1D4BC760836006820C90A8
:1015C0002820984606F08CFA194B029A036053467D
:1015D000C5544B4643604346916883605368C76077
:1015E00006820D908B4201D100F084FF0C9801C35C
:1015F00053608B4201D100F076FF0D9A04C3029A2A
:101600005360012C16D0022C00D19DE3002C00D198
:101610005DE302980FB03CBC90469946A246AB46AB
:10162000F0BDC046E4040010040005000200030001
:10163000CC04001007F08CFDF64C0621019408F054
:101640004FF9A446CD006D1A28206D00654406F0C0
:1016500047FAF14B002203602423C25480235B022B
:101660004360EE4B04008360ED4BC36006230382AE
:10167000AB0701D000F0D5FF2B6843606B68836037
:10168000AB68C360AB89038207F062FD062108F0F6
:1016900027F9019BCD009C466D1A28206D006544FA
:1016A00006F01EFADF4B002203602423C25480237D
:1016B0005B024360D94B03908360D94BC360062320
:1016C0000382AB0701D000F0CCFF2B6843606B684E
:1016D0008360AB68C360AB890382282006F000FA00
:1016E000D14B0626036024239A4600239B4653468B
:1016F0005946C15480235B029946C94F4360C74B8A
:10170000C760836006829846069007F021FD062197
:1017100008F0E6F8019BCD009C466D1A28206D006C
:10172000654406F0DDF9C14A5946026052468154CB
:101730004A464260424604908260C7600682AA0719
:1017400001D000F07EFF6B682A688360AB6842605E
:10175000C360AB89038207F0FBFC062108F0C0F8E8
:10176000019BCD009C466D1A28206D00654406F053
:10177000B7F9AF4B0022036008932423C25480239F
:101780005B024360A54B82468360A54BC360062382
:101790000382AB0701D000F0A4FF2A68AB89426046
:1017A0006A688260AA680382C26007F0D1FC0621E1
:1017B00008F096F8019BCD009C466D1A28206D001C
:1017C000654406F08DF99B4B002203602423C2542C
:1017D00080235B024360914B83468360904BC360E0
:1017E00006230382AB0701D000F06BFF2A68AB89A8
:1017F00042606A688260AA680382C26007F0A8FC3F
:10180000062108F06DF8019BCD009C466D1A28203A
:101810006D00654406F064F9089B002203602423F0
:10182000C25480235B0243607C4B060083607C4B88
:10183000C36006230382AB0701D000F032FF2B68A0
:1018400043606B688360AB68C360AB89038207F059
:101850007FFC062108F044F8019BCD009C466D1AE0
:1018600028206D00654406F03BF9704A242302608D
:101870000022C25480235B024360684B8046836031
:10188000674BC36006230382AB0701D000F0F9FE6B
:101890002A68AB8942606A688260AA680382C26073
:1018A00007F056FC062108F01BF8019BCD009C4672
:1018B0006D1A28206D00654406F012F9594B00227C
:1018C00003602423C25480235B024360534B079080
:1018D0008360534BC36006230382AB0701D000F043
:1018E00082FF2B6843606B688360AB68C360AB8921
:1018F000038207F02DFC062107F0F2FF019BCD00CB
:101900009C466D1A28206D00654406F0E9F84A4BA4
:10191000002203602423C25480235B0243603F4BB8
:10192000814683603E4BC36006230382AB0701D030
:1019300000F049FF2A68AB8942606A688260AA6841
:101940000382C26007F004FC062107F0C9FF019B77
:10195000CD009C466D1A28206D00654406F0C0F845
:10196000089B002203602423C25480235B0243604F
:101970002A4B070083602A4BC36006230382AB0710
:1019800001D000F010FF2B6843606B688360AB6888
:10199000C360AB890382282006F0A2F8242200212C
:1019A000264B059003600300815480201B4D0631B7
:1019B0009D601B4D4002DD601982586007F0C8FB36
:1019C000062107F08DFF019BCD009C466D1A282053
:1019D0006D00654406F084F824220021184B019024
:1019E00003600300815480200C4A40029A600C4A34
:1019F00006315860DA601982AA0701D000F0C2FEF1
:101A00002A685A601A006B689360AB68D360AB8930
:101A1000138217E06C6101005C05001002000300F6
:101A200004000500FC0400101405001074050010EB
:101A30008C050010440500102C050010BC0500109A
:101A4000A4050010242508210C9A03201462535D7C
:101A500008920B435355FFF751FB031D089A9B0057
:101A6000E3185A6001228240635D03991343042204
:101A70001343E16102206355FFF740FB0399031D07
:101A80008C469B0063445C60012383401A0008205D
:101A90004B5D13434B5506992162635D03436355C8
:101AA0000538FFF72BFB0699031D8C469B0063440A
:101AB0005C60012383401A004B5D049813430122AC
:101AC000134348614B5500200C00FFF717FB049AA5
:101AD000031D94469B0063445C6001238340604681
:101AE0001A00435D134343555B460422E361635D83
:101AF000022013436355FFF701FB031D9B005B446A
:101B00005C60012383405C461A0050465B465B5D87
:101B1000A061022458461343234343550120FFF795
:101B2000EDFA5946031D9B0053445960012383403D
:101B30001A00534650465B5D0399134301227161BD
:101B40004355735D002013437355FFF7D7FA03998C
:101B5000031D8C469B0063445E60012383401A0092
:101B60004B5D082013434B5543463362735D03437B
:101B700073550538FFF7C2FA031D9B0043445E60AE
:101B8000012383401A00434641465B5D0120134315
:101B90004B554B46B361735D23437355FFF7AEFA64
:101BA000031D9B004B445E60012383401A004B469B
:101BB00049465B5D079E13434B554346042241460D
:101BC000DE615B5D022013434B55FFF797FAB44685
:101BD0004146031D9B0063445960012383401A0062
:101BE000735D5146134304221343F1610220735580
:101BF000FFF784FA031D9B0053445E60012383407A
:101C00001A00534651465B5D012013434B554B462A
:101C100049469F615B5D23434B55FFF76FFA494689
:101C2000031D9B00FB185960012383401A007B5D54
:101C3000059E13432343BE6101207B55FFF75EFAE7
:101C4000B446031D9B0063445F60012383401A0078
:101C500001203100735D019E134303434E61002058
:101C60004B550591FFF74AFAB446031D05999B00B1
:101C700063445960012383401A00735D0196134346
:101C8000042273550D9E0220F761735D1343735553
:101C9000FFF734FA01228240031D9B00FB185E60AF
:101CA0007B5D0D9E13437B55019F0120B761735DE2
:101CB0001C437455FFF722FABC46031D9B00634486
:101CC0005E60012383407A5D13437B55A1E42820A5
:101CD00005F006FF194B2426036080235B02845520
:101CE0004360174B08228360164B0C9CC36006238D
:101CF00003822062A35D05001343A3550320FFF771
:101D0000FDF9031D9B00EB185C600124220082405A
:101D1000AB5D0D9F13430422AB55FD61BB5D0220FB
:101D20001343BB55FFF7EAF98440031D9B00EB18F2
:101D30005F60AB5D1C43AC556BE4C04614050010FE
:101D4000020003000400050007F002FAF54D062129
:101D5000019507F0C5FDAC46CC00641A282064004C
:101D6000644405F0BDFEF04B002203602423C254FE
:101D700080235B024360ED4B03908360EC4BC360B8
:101D800006230382A30701D000F0ECFC2368436024
:101D900063688360A368C360A389038207F0D8F9EE
:101DA000062107F09DFD019BCC009C46641A28206B
:101DB0006400644405F094FEDE4B0022036024239B
:101DC000C25480235B024360D84B05008360D84B2C
:101DD000C36006230382A30701D000F0B3FC23688D
:101DE000436063688360A368C360A389038228207B
:101DF00005F076FED04A0626026024229246002292
:101E00009346524659468154802252029146C84F09
:101E10004260C64AC760826006829046079007F01B
:101E200097F9062107F05CFD019BCC009C46641AE3
:101E300028206400644405F053FE52465946BF4BC7
:101E40000990036081544A4642604246C7608260FE
:101E50000682A20701D000F064FC636822688360F8
:101E6000A3684260C360A389038207F071F9062169
:101E700007F036FD019BCC009C46641A28206400C4
:101E8000644405F02DFEAE4B002203602423C254AF
:101E900080235B024360A54B04908360A44BC36026
:101EA00006230382A30701D000F02BFC23684360C4
:101EB00063688360A368C360A389038207F048F95D
:101EC000062107F00DFD019BCC009C46641A2820DA
:101ED0006400644405F004FE9A4B0022036024234E
:101EE000C25480235B024360904B05908360904B0B
:101EF000C36006230382A30700D074E32368436012
:101F000063688360A368C360A389038207F020F934
:101F1000062107F0E5FC019BCC009C46641A2820B2
:101F20006400644405F0DCFD874B002203600893E5
:101F30002423C25480235B0243607C4B834683602E
:101F40007B4BC36006230382A30700D03CE32268D7
:101F5000A389426062688260A2680382C26007F05F
:101F6000F7F8062107F0BCFC019BCC009C46641AE4
:101F700028206400644405F0B3FD724B0022036026
:101F80002423C25480235B024360684B0A90836021
:101F9000674BC36006230382A30700D005E32368D1
:101FA000436063688360A368C360A389038207F00A
:101FB000CFF8062107F094FC019BCC009C46641AE4
:101FC00028206400644405F08BFD574B0022036019
:101FD0002423C25480235B024360544B06908360E9
:101FE000534BC36006230382A30700D0CEE22368CD
:101FF000436063688360A368C360A389038207F0BA
:10200000A7F8062107F06CFC019BCC009C46641AE3
:1020100028206400644405F063FD4C4B00220360FB
:102020002423C25480235B024360404B070083603B
:102030003F4BC36006230382A30700D097E22368C7
:10204000436063688360A368C360A389038207F069
:102050007FF8062107F044FC019BCC009C46641AE3
:1020600028206400644405F03BFD324B00220360ED
:102070002423C25480235B0243602C4B0600836000
:102080002B4BC36006230382A30700D060E22368C2
:10209000436063688360A368C360A38903822820C8
:1020A00005F01EFD244A0021026024220300815411
:1020B0001F4A0B908020DA60924606221B4C400299
:1020C0009C601A825860914607F042F8062107F09A
:1020D00007FC019ACC009446641A282064006444EA
:1020E00005F0FEFC134B0021036024230200C154C1
:1020F000804680200D4B400293605060434652461C
:10210000DA604A461A82A30700D011E243462268E9
:102110005A6062689A60A268DA604246A3891382B4
:1021200016E0C0466C6101001405001002000300B7
:10213000040005005C050010440500107405001043
:10214000A4050010BC0500108C0500102C05001023
:1021500006F0FEFF062107F0C3FB019BCC009C4666
:10216000641A28206400644405F0BAFCED4A242374
:1021700002600022C25480235B024360EA4B814626
:102180008360EA4BC36006230382A30700D0BAE151
:102190002268A389426062688260A2680382C2608A
:1021A00006F0D6FF062107F09BFB019BCC009C4666
:1021B000641A28206400644405F092FC089A2423E1
:1021C00002600022C25480235B024360D64B8246E9
:1021D0008360D64BC36006230382A30700D011E2BD
:1021E0002268A389426062688260A2680382C2603A
:1021F000242408200C9A03991162135D0192034371
:1022000013550538FEF77AFF0399031D8C46019A92
:102210009B0063445A60012282400B5D00201343FF
:10222000012213434D610B55FEF768FF031D03990F
:102230009B00EB185960012383401A002B5D02209C
:1022400013432B555B460422CB610B5D13430B55A7
:10225000FEF754FF031D03999B005B445960012363
:1022600083401A005B46594608201B5D13430B55FB
:10227000079929622B5D03432B550538FEF73EFF76
:102280000799031D8C469B0063445D6001238340D6
:102290001A000B5D0120134302220B55059BAB6115
:1022A0002B5D13432B55FEF729FF0599031D8C4623
:1022B0009B0063445D60012383401A000B5D079D12
:1022C000134301220B550999002069612B5D1343CB
:1022D0002B55FEF713FF0999031D8C469B006344A1
:1022E0005D60012383401A000B5D049D13430222AD
:1022F00013438D6101200B550D00FEF7FFFE04997D
:10230000031D8C469B0063445D60012383401A00DB
:1023100004200B5D059D13430343CD6102380B552B
:10232000FEF7ECFEAC46031D04999B006344596024
:10233000012383401A002B5D594613432B555B46FE
:1023400002220A9D01209D611B5D13430B55FEF780
:10235000D5FEAC465946031D9B00634459600123DA
:1023600083401A002B5D0F6213432B550B5D082130
:102370000B43594603200B55FEF7C0FE5946031D7B
:102380009B00FB185960012383401A003B5D0699AE
:102390001343012269613B552B5D002013432B55EC
:1023A000FEF7ACFE0699031D8C469B0063445D60FE
:1023B000012383401A0002250B5D012013432B43A8
:1023C0008E610B55FEF79AFE01228240031D06998D
:1023D0009B00F31859600821335D3E621343335567
:1023E0003B5D03200B433B55FEF788FE01228240F4
:1023F000031D9B00F3185F60335D042013433355C6
:102400004B46FB613B5D03433B550238FEF776FECE
:102410000122031D9B004B445F604B4682404946AE
:1024200004201B5D0B9F13430B55F761335D034382
:1024300033550238FEF762FE0122BC468240031D7E
:102440009B0063445E603B5D0120134342462B4387
:10245000BA613B55FEF752FE0122031D9B00434427
:102460005F60434682401B5D4946134342462B430F
:10247000916101201355FEF741FE4246031D9B006A
:102480004B445A6001224B4682401B5D042013439B
:102490004A46135543465246DA6142461B5D2E00BA
:1024A000034313550238FEF729FE4246031D9B00E5
:1024B00053445A600122534682401B5D0D9D1343D5
:1024C00052463343956101201355FEF717FE5246DD
:1024D000031D9B00EB185A60012383402A5D1343C0
:1024E0002B55FFF796F8190002980DAAFEF7E2FFA8
:1024F000FFF787F815000CAA2800FEF7DBFF6B68D2
:10250000A968FFF776F8238883806388C380A3884F
:102510000381E3884381238983816389C381A389FC
:1025200003823DE6BC050010020003000400050024
:102530004246238893806388D380A3881381E388ED
:102540005381238993816389D381A3891382FFE512
:10255000238883806388C380A3880381E3884381C1
:10256000238983816389C381A389038297E52388B3
:1025700083806388C380A3880381E38843812389A0
:1025800083816389C381A389038260E52388838073
:102590006388C380A3880381E3884381238983817F
:1025A0006389C381A389038229E5238883806388A3
:1025B000C380A3880381E38843812389838163895E
:1025C000C381A3890382F2E4238883806388C38064
:1025D000A3880381E3884381238983816389C3813D
:1025E000A3890382BBE4238883806388C380A38894
:1025F0000381E3884381238983816389C381A3891C
:10260000038283E4238883806388C380A388038153
:10261000E3884381238983816389C381A3890382FA
:10262000E6E52B8883806B88C380AB880381EB88C9
:1026300043812B8983816B89C381AB890382FFF737
:1026400023F82B8883806B88C380AB880381EB8859
:1026500043812B8983816B89C381AB890382FFF717
:102660007AF82B8883806B88C380AB880381EB88E2
:1026700043812B8983816B89C381AB890382FFF7F7
:102680002CF82B8883806B88C380AB880381EB8810
:1026900043812B8983816B89C381AB890382FFF7D7
:1026A000FFF82B8883806B88C380AB880381EB881D
:1026B00043812B8983816B89C381AB890382FFF7B7
:1026C000C6F82B8883806B88C380AB880381EB8836
:1026D00043812B8983816B89C381AB890382FFF797
:1026E0008DF82B8883806B88C380AB880381EB884F
:1026F00043812B8983816B89C381AB890382FFF777
:1027000054F8238883806388C380A3880381E38887
:102710004381238983816389C381A3890382FFF76E
:10272000CDFB099A238893806388D380A388138183
:10273000E3885381238993816389D381A389138299
:10274000FFF793FB238883806388C380A38803817A
:10275000E3884381238983816389C381A3890382B9
:10276000FFF745FB238883806388C380A3880381A8
:10277000E3884381238983816389C381A389038299
:10278000FFF70CFB019A2B8893806B88D380AB8872
:102790001381EB8853812B8993816B89D381AB891A
:1027A0001382FFF74FF92B8883806B88C380AB8837
:1027B0000381EB8843812B8983816B89C381AB893A
:1027C0000382FFF7E8F82B8883806B88C380AB888F
:1027D0000381EB8843812B8983816B89C381AB891A
:1027E0000382FFF7AFF82B8883806B88C380AB88A8
:1027F0000381EB8843812B8983816B89C381AB89FA
:102800000382FFF776F8C04670B5624B8EB06A4619
:1028100034210C93042352181370352208AB05930E
:102820000BAB049307AB03930AAB5B4D029309AB6D
:10283000019306AB00936A4400230CA92800FEF71D
:102840001FFA564C28002200554905F047F96A4600
:10285000544B554E1386554B08220193544B0A2175
:10286000009330000C9BFEF7C1FC524D2200290062
:10287000300005F033F9504E504B0A2200930C21E2
:102880004F4B3000FEF73EFC22002900300005F0DF
:1028900025F94C4E4C4B0A2200930C214B4B300037
:1028A000FEF730FC22002900300005F017F9484EF1
:1028B000484B0C2200930E21474B3000FEF722FCC0
:1028C00022002900300005F009F9444E444B06224D
:1028D00000930821434B3000FEF714FC220029002E
:1028E000300005F0FBF8404E404B062200930821D3
:1028F0003F4B3000FEF706FC22002900300005F0B7
:10290000EDF83C4E3C4B0C22009310213B4B300029
:10291000FEF7F8FB22002900300005F0DFF8384E02
:10292000384B062200930821374B3000FEF7EAFBB4
:1029300022002900300005F0D1F8344E344B062235
:1029400000930821334B3000FEF7DCFB2200290006
:10295000300005F0C3F8304E304B082200930A21B6
:102960002F4B3000FEF7CEFB22002900300005F08F
:10297000B5F82C4E2C4B062200930A212B4B30002D
:10298000FEF7C0FB22002900300005F0A7F80EB0CA
:1029900070BDC04600020103D40500100001001004
:1029A000ED02000006030000E40400101C610100B9
:1029B000C4610100D9020000CC0400108060010055
:1029C000C0610100FC040010C8610100F860010052
:1029D0001405001040620100FC6001002C0500108D
:1029E000E862010000610100440500101863010065
:1029F000046101005C0500104863010008610100EA
:102A000074050010086401000C6101008C050010C1
:102A10003864010010610100A40500106864010021
:102A200014610100BC050010B864010018610100C8
:102A300010B50249024805F00FF910BD5C2E0000E8
:102A4000F005001010B502F0BFFB10BD474A484B1F
:102A50001178002900D06DE01878002804D0FF28F4
:102A600000D16CE0FF311970517800295BD15878A2
:102A7000002803D0FF285BD0FF31597091780029DE
:102A80004AD19878002803D0FF284AD0FF319970A6
:102A9000D178002939D1D878002803D0FF2839D03F
:102AA000FF31D9701179002928D11879002803D075
:102AB000FF2828D0FF3119715179002917D1587991
:102AC000002803D0FF2817D0FF3159719279002ACE
:102AD00006D09A790132D2B2FF2A32D09A71704769
:102AE00099790029FBD0FF29F8D0FF22F6E7597920
:102AF0000131C9B2FF2927D05971E7E719790131AE
:102B0000C9B2FF2923D01971D6E7D9780131C9B2EA
:102B1000FF291FD0D970C5E799780131C9B2FF29C3
:102B20001BD09970B4E759780131C9B2FF2917D089
:102B30005970A3E719780131C9B2FF2913D0197070
:102B400092E702229A71CAE702215971BEE7022177
:102B50001971B1E70221D970A4E70221997097E7B2
:102B6000022159708AE7022119707DE7001C0010CC
:102B7000F4050010034B185C013843425841C0B2C1
:102B80007047C046F405001010B50C4B01290CD954
:102B9000185CFF2807D006F0B9FDC8B201384142E1
:102BA0004841C0B210BD0020FCE71B5CFD220020A4
:102BB000013BDBB29A424041C0B2F3E7F40500109A
:102BC0007047C04670B50124354B00201C7000F0E2
:102BD0005BFC344800F0CAFB03F000FD03F02AFD63
:102BE00002F0F2FA03F01EFD2122FF262E4B2F4D9C
:102BF0001A702F4B7F201C602E7002F02FF97F225D
:102C00002C4B2E701A80FFF71DFFFFF71FFF00F0FF
:102C1000CBF9294803F0FAFF830736D400260120B8
:102C200000F032FC254D2E8000F0B0F9244C20003D
:102C300000F09CFB012000F027FCFC22214BD2007D
:102C400020001A8001242E8000F090FB00231E4EED
:102C50001E4DFF2033702C7002F000F9FF2002F0AF
:102C600083F9002000F010FC194B1A481C701A4B15
:102C700034701C702C7000F079FB02F06DF90520A7
:102C8000FFF778FF002806D170BD210081430A4874
:102C900003F0DEFFC2E7002002F066F9F4E7C04669
:102CA00011060010F4640100000600100806001070
:102CB00004060010C4190010B40F0000861900109B
:102CC0005C6B0100D8010010DB010010DC0100107A
:102CD000E4010010F8670100E5010010014B1878CD
:102CE0007047C0461106001070B5050002F0DCF810
:102CF00003F084FC114B12491A780B68114C1B1A13
:102D0000934209D92368002B0BD1280000F05AF90F
:102D100001230020236003E023680020002BF4D06F
:102D200070BD1018084A086013680133136000234F
:102D30002360FFF78BFE0120F2E7C046000600107B
:102D40000C06001004060010FC05001010B5024827
:102D500000F0DAF810BDC046100600107047C046FB
:102D600010B50400182105F00DFE200010BDC0466E
:102D700010B582B06B469C1D220004F0F5FA208845
:102D800002B010BD10B5002004F07AFB014B1870A2
:102D900010BDC0465C0600100123812210B5084C0E
:102DA00082B05B4200932000064B0749520104F0B9
:102DB00011FD2000054A064904F090FE02B010BD46
:102DC00014060010180C000024120000000100106E
:102DD0005D2D0000F8B54E46DE4657464546E0B547
:102DE000424B81461B789C46984202DB013B1BB25A
:102DF00099463F4B1B78042B47D0022B3FD14846C6
:102E000003213C4A127893465043C41721400918C5
:102E1000891089B2384A394892461288008890460B
:102E2000524610804A46002A39DD48466246121A48
:102E30009146002A18DD5A46D0084343002B13D090
:102E4000002400222E4D00200E00AF5D2600013030
:102E50000131013480B289B2A4B2AF559842F3DB9C
:102E6000013292B24A45EEDB264B5A460021595EAA
:102E70000020634600F07EFF534642461A803CBC69
:102E800090469946A246AB46F8BD4846194A127884
:102E90005043C10F09184910934689B2BAE76446F6
:102EA000A2B294464A4690B2A04217D25A46534321
:102EB000DB1013D000260027114D002430002A5CBF
:102EC0000800013401360131A4B2B6B289B22A54E5
:102ED0009C42F3DB0137BFB26745EED34B465A46FF
:102EE0000021002000F046FFC6E7C046E3010010C5
:102EF000DA010010E2010010E00100109219001048
:102F00006006001096190010134B144A10B5040007
:102F100013481A6001F04EFE0122124B12491A703A
:102F2000124BDB321A70124B2C3A1A70114B124AA8
:102F3000200013601A7801320A705B780F4A01335F
:102F4000137011220E4B1A8000220E4B1A800E4B6A
:102F500004321A7010BDC046B81900106006001087
:102F6000A470010090190010BC1900108A190010FB
:102F700089190010F46401008C1900107F190010E9
:102F8000DE01001092190010DA01001010B50020C7
:102F900002F0DCFA0023024A1380024A138010BDBB
:102FA000941900109619001010B502F0E9FB10BD3D
:102FB000024B1880024B19807047C04694190010CC
:102FC0009619001010B5002804D01C4B1B78002B5C
:102FD0000DD010BD1A4B1C6802F0FCF9194B2000F3
:102FE000196803F02DF9154B1B78002BF1D1164B06
:102FF000164A197818880F2312780B40012A17D027
:10300000022A0ED0042A16D1190119430C4B104A7A
:10301000186805F046FE00230E4A13800E4A1380FE
:10302000D7E703230B40990019430B011943EDE740
:10303000FF210028EAD11900E8E7C04684190010F2
:10304000B81900108019001092190010DA01001050
:103050001F1300009419001096190010F0B5454692
:10306000DE4657464E46E0B5B44B8BB01B68019127
:103070005978050088460990F720083944460140F0
:10308000481E8141E01009180C000891197861432D
:1030900001314A4304329B185A1C1B7805925BB2DB
:1030A0000793002B00DC46E1A54B089A1F78ABB2D2
:1030B0009A46013306939BB2039353460293059BB2
:1030C0003900A04E47461D78022A00D17DE0013329
:1030D0000593ADB2002F62D0039AB846531E1BB2BF
:1030E0009A4613B2002499460F0027E0022F73D0AE
:1030F000954B1B78002B00D1B4E04346581E019B32
:103100009C466B4608229A5E904B604404921A8853
:103110003388001B00B20F2B06D85B009B46594634
:103120008B4BCB5A934204D0049902F0F9FF844BA5
:103130001F78013464B26D08A0452EDDEB07D5D4AD
:10314000844B1A8833889A42F3D0022F00D1ACE026
:103150007D490978002900D192E04146481E019935
:103160008C466044001B01B2049169460820085E49
:1031700083460F2B06D85B009C466146744BCB5AA6
:103180009342D6D05946049802F0CAFF01346C4BE2
:1031900064B21F786D08A045D0DC390047466B4605
:1031A0001A8B039B079802339BB20393099B0292ED
:1031B000D31A5BB2984200DCAEE0531C0693089A27
:1031C000059B1D78022A00D081E71A005B781B025C
:1031D0001D43931C05937DE7019B67009C46674454
:1031E000BBB20493594B3FB29B461A8833880F2BCE
:1031F00004D857495B005B5A934253D0390050467C
:1032000002F08EFF5B461A8833880F2B04D8504992
:103210005B005B5A934245D03900484602F080FF7C
:103220005B46049F1A88338801373FB20F2B04D8BE
:1032300047495B005B5A934234D03900504602F054
:103240006FFF5B461A8833880F2B04D840495B0018
:103250005B5A934226D03900484602F061FF384B52
:103260001F7866E76B460820185E019BE1180BB2D9
:103270000493364B1A8833880F2B00D84DE753E759
:1032800069460820085E0199611809B28C460F2B27
:1032900005D82F495B005B5A934200D149E761464C
:1032A00002F03EFF264B1F7843E7019967008C46EA
:1032B0006744B9B28B463FB20F2B04D824495B0058
:1032C0005B5A9342EED03900504602F029FF214B61
:1032D0001A8833880F2B04D81D495B005B5A934230
:1032E000E0D039005F46484602F01AFF194B01371B
:1032F0001A8833883FB20F2B04D815495B005B5AFC
:103300009342CFD03900504602F00AFF114B1A8881
:1033100033880F2B9AD99EE70F0000200E4B1856CA
:10332000079B9C46604478430BB03CBC9046994652
:10333000A246AB46F0BD024B1F78EEE78C19001099
:10334000E4010010DE01001088190010D8010010FF
:103350009819001086190010DB0100100F23024A93
:10336000034013807047C046E0010010054B064A39
:1033700018600378013313704378044A01331370E3
:103380007047C0468C190010BC1900107F1900103E
:10339000F0B54746CE4680B55678070073420D001B
:1033A00083B0994216DB1C4B1B78994212DA1478D1
:1033B000634298420EDB194B1B7898420ADA931C41
:1033C0009846174B99461B78022B1CD0042B0FD024
:1033D000082B04D003B00CBC90469946F0BD434680
:1033E0002200009329003300380001F0B7F8F1E71C
:1033F00043462200009329003300380000F064FFA8
:103400004B461B78E4E7434622000093330000F06C
:103410009DFE4B461B78D9E7E3010010E201001046
:10342000DA01001030B5537883B05C42A14214DB5E
:10343000124C2478A14210DC14786542A8420CDBBF
:103440000F4D2D78A84208DC0E4D02322D78022D4A
:103450000AD0042D0DD0082D01D003B030BD00924C
:10346000220001F01DFBF8E70092220001F000F9B4
:10347000F3E70092220001F0BBF9EEE7E301001050
:10348000E2010010DA0100100A4B002808D00122E6
:103490001A70094BDB321A70084B2C3A1A707047BD
:1034A0001870074B1A78044B1A70064B1A78034BA6
:1034B0001A70F4E7901900108A1900108919001089
:1034C000E2010010E3010010F0B5C64600B55D4D05
:1034D00004002A68D378002B35D0602833D9203CEB
:1034E000E4B2594E11780023F05E584B1B785B1AFA
:1034F00098422EDB00233380554B1B78002B3DD0A8
:10350000544B507898460021595E534B47001B7826
:10351000DB1B994200DD79E0504B1B785BB2181839
:1035200043464118002009B2198092784C4BA21AE8
:103530001B78D2B292B2002B00D17EE0FF2319405B
:10354000FFF78CFD15E00E2CCBD84649A300CB58D5
:103550009F46404B92780021595E414BA21A1B783E
:10356000D2B292B2002B4BD1FF231940184000F089
:10357000C7FC202C59D033881818308004BC9046E2
:10358000F0BD314B11781888401A80B21880314B49
:103590000021595E93782022D21A314BD2B21B7887
:1035A00092B2002B1FD0FF2319401840FFF756FDA1
:1035B000E4E70021244B1980264952780023CC5E91
:1035C000254B50001B781B1A9C4212DD0020234B18
:1035D000185680180028D1D0FFF7FCFBCEE7002258
:1035E000194B1A80CAE7FF231940184000F088FCE5
:1035F000C4E70020194B1856801800190880BDE751
:10360000FF2319401840FFF729FDB2E7134B1B7841
:103610005BB21818002800D187E7FFF7DBFB4346B1
:1036200030780021595E2A687FE70F4B1B785BB228
:10363000002BA0D0401001309DE7FF23194000F07F
:103640005FFC96E78C190010941900108A1900107D
:10365000E50100109619001089190010DC01001016
:1036600090190010D4700100DB010010F0B5D646AF
:103670004F464646C0B504780500002C50D0714B2B
:10368000714E9846714B724F994633680135DA781E
:10369000002A4AD0602C48D9203CE4B20022B85E0F
:1036A000424619781278521A904200DA6FE00022EE
:1036B0003A80684A1278002A2FD0674A9246002141
:1036C000515E5A7894466046644A40001278121A55
:1036D000914200DD9AE00020614A10565246604453
:1036E0004118002009B211809A785E4BA21A1B780B
:1036F000D2B292B2002B00D19FE0FF231940FFF716
:10370000ADFC202C55D14B461B785BB2002B50D022
:103710003B8840100130181838802C78002CB4D128
:103720001CBC90469946A246F0BD0A2C45D008D94B
:103730000D2C24D10022464B1A802C78002CA4D1C9
:10374000EEE7082CAAD1424A197810889B78401AD3
:1037500080B21080404A0021515E2022D21A414B93
:10376000D2B21B7892B2002B3DD0FF2319401840F3
:10377000FFF774FC2C78002C00D086E7D0E70E2CE5
:1037800000D08BE72C78002C00D07EE7C8E7324AC7
:103790000021515E9A78334BA21A1B78D2B292B2B2
:1037A000002B2DD1FF231940184000F0A9FB202C3D
:1037B000A9D03B8818183880AFE70021244A11802F
:1037C000254900228C5E5A78244B50001B781B1A26
:1037D0009C420EDD0020224B1856801800289CD0F9
:1037E000FFF7F8FA99E7FF231940184000F088FB2B
:1037F00093E700201A4B18568018001908808CE7B0
:10380000FF2319401840FFF729FCD0E70020144A95
:1038100010566044002800D166E7FFF7DBFA5346F4
:103820000021595E336838789A780E4BA21A1B78BB
:10383000D2B292B2002B00D05FE7FF23194000F014
:103840005FFBB4E78A1900108C190010DB0100102F
:1038500094190010E5010010961900108919001044
:10386000DC01001090190010F0B5CE46474680B537
:10387000040089B000295BD00A2933D100285FDB1E
:103880005AD001235B426B4400276D46984643465D
:103890002000B9460A210137DE1905F037FF200064
:1038A00031700A2105F0ACFE26000400092EEED886
:1038B0004B46EE1807E03030C0B2FFF705FE731E2E
:1038C000B5420AD01E0030780928F4D93730C0B28A
:1038D000FFF7FAFD731EB542F4D109B00CBC904657
:1038E0009946F0BD002827D001235B42FF276B4497
:1038F00000266D4698460F402000390005F006FF6F
:103900004246330001369155220004009742F3D914
:10391000EC1807E03030C0B2FFF7D6FD631EA542B9
:10392000DBD01C0020780928F4D93730C0B2F3E787
:10393000C0B2FFF7C9FDD0E73020FFF7C5FDCCE7E7
:103940002D20FFF7C1FD64429BE7C0467047C0468B
:1039500010B50C4B1B785B104B43411059180A4BA8
:1039600089B21B685C18595CC30704D50F239943BF
:103970000A43227010BD0F2312010B401A43D2B22A
:10398000F7E7C046E2010010B8190010124B30B53D
:103990001B889A4219D0114C85B22378AB4214D9B6
:1039A0000F4C89B224788C420FD90F245B105943F5
:1039B0000C4B40101B68091889B2581822405B5CF8
:1039C000E90703D5A3431A43027030BD1C4012011E
:1039D00022430270F9E7C046DE010010E201001048
:1039E000E3010010B8190010F0B54E46DE46574608
:1039F0004546E0B585B00392C34ACB1816780293CA
:103A00008E4202D89E4200D86CE1C04B1C780193D4
:103A1000844200D80BE1029B0F008B4200DBAFE039
:103A200082B2944602B2521092B29346B84A91467C
:103A3000C20700D424E1B74A8A46904661468446CC
:103A4000380001E0019A14788C4211D99AB296425A
:103A50000ED9641054434A460F2516685C44A4B23C
:103A6000325DAA4345462F883A433255A64A167816
:103A700001338342E6DD6046039B5146C218019B39
:103A80001C78564500D828E1A24237D2029B0F008D
:103A90008B4201DB1F000B0016B295B27610AC46CC
:103AA000B5B2AB469A4DA946D50700D4C2E03D0059
:103AB00088466746594694462A000390BC4217D967
:103AC00091489EB20078B04212D9484664107443BF
:103AD00000680C19A4B2065D0F208643B2468D48DB
:103AE0000688504606434846006806550198047803
:103AF00001339342E2DD624641460398844200D995
:103B00008BE0A24245D2804B1B78994248D290422A
:103B100000DC89E082461300012900D0E8E07D49FD
:103B200057468B467A4992468946012188460E318E
:103B30008C46220008E06546AC4321431170019A8F
:103B4000127801339F421EDB9EB29642F9D26E4933
:103B500009780129F5D91C045210640CA4184D46AB
:103B60004A462D681268594612192C5D4546097857
:103B70003542E0D1654609012C402143C9B2DDE759
:103B80001F000B004CE714005246844208D89442B0
:103B900006D805B03CBC90469946A246AB46F0BD5F
:103BA000594B1B7802999942F3D2904202DD0300EF
:103BB00010001A0057496B468A4655491700894636
:103BC000012188460E318C461B8986B2B44218D931
:103BD0004D4A12789A4214D9524664105C431178C7
:103BE0000204520CA4184D464A462D681268A4B22D
:103BF00012192C5D4546354209D06546AC43214338
:103C000011700130B842C4DC019A1478DDE76546D2
:103C100009012C402143C9B2F2E73B4B1B788B4290
:103C2000C0D9904200DD75E79246030074E7039B1C
:103C3000C21829E73D0088466746594694462A003F
:103C40000390A74218D230489EB20078B04213D9F0
:103C500030486410744306780C1930018246484697
:103C60000068A4B2065D0F20064050460643484651
:103C7000006806550198047801339A42E1DA3AE780
:103C80000F228A469046390067468446584601E02E
:103C9000019A1478A74214D29AB2B24211D24D4678
:103CA000641054432D680419A4B22E5D45462E407D
:103CB0004D46184A2D681278120132432A55124A8D
:103CC000167801339942E3DA6046039B5146C218E5
:103CD000019B1C78564500D9D6E6029B9E4200D92E
:103CE000D2E60BE7039BC218084B1C78019305E74B
:103CF00089B28946064990468C4601214A468B4640
:103D00008146504611E0C046E3010010E201001078
:103D1000B8190010E00100100F218C4326430199CF
:103D20003E700C78013383421DDC99B2A142F9D276
:103D30000E4D2E789642F5D90D4D64102E786546BD
:103D400054431F047F0C2D68E419A4B22F19654653
:103D50002D682C5D5D460D42DED10F2136010C40F1
:103D60002643F6B2DBE7424648460EE7E301001081
:103D7000E0010010F0B5DE4657464E464546E0B538
:103D8000821887B012B2002800DAA9E0584C2478D3
:103D9000844201DC94426ADDCB181BB200296DDB42
:103DA000544C24788C4201DC9C4260DD824269DA0A
:103DB00000B214000190994268DD0AB21900039222
:103DC000CB43E043DB17019AC0170B40204002931E
:103DD00090424CDA039A0493934200DD0492029BD2
:103DE000039A0093934200DA0092434B07009C46EB
:103DF0009846404C2378029A934202D8039A934201
:103E00002FD93B4D2A78BA422BD983B299467B10E1
:103E10009BB29A46C3073CD40F239B464B46049E55
:103E200081460597180000E02A78904213D2217845
:103E3000B3B299420FD941465F4652105A430968BE
:103E40002E4B524492B21B78895C1B0139400B43C4
:103E5000414609688B54009B01369E42E4DD48468A
:103E6000059F0130019B00B201378342C2D107B0E8
:103E70003CBC90469946A246AB46F0BD002BF6DB13
:103E8000824295DB04B20192994296DC09B2039317
:103E900096E70F2356469B46BA46049927004C46A0
:103EA000814600E02A78A24212D938788BB2984233
:103EB0000ED952105A43634658461B68B21892B244
:103EC0009B5C83430D48008803436046006883542D
:103ED000009B01319942E5DD3C0048465746C0E76A
:103EE000002AC4DBCB181BB2002900DB58E7C5E76A
:103EF000E2010010E3010010B8190010E001001009
:103F0000F0B54E464546DE465746E0B5844B0600C2
:103F10001B68F7245D788DB0280008382040441EC7
:103F2000A041EC1000190400049018780195444356
:103F30000134624304329B185A1C1B780692794A5A
:103F40005BB203931378022B01D001231370002E70
:103F500008DB002906DB5843734A80191278904227
:103F600000DAC5E0714A724812880488A24200D182
:103F7000BCE0704D70480088844200D1B4E06D4CC4
:103F80000A9408AC0B9520716271022B4CD0039BF4
:103F9000002B34DD0023994601339846069B8FB2EF
:103FA0009B46BA46019F5B461D78049B022B33D08B
:103FB00001239C46ADB2E34452460024B24601922E
:103FC0004346082601992B4009AA08A8D25C091982
:103FD00080199B000134C35809B2504664B2984717
:103FE0006D08A742ECDA019B56469A464B460133D0
:103FF0005BB29946039B013636B24B45D3D10020C4
:104000004E4B1856039B9C4660440DB03CBC9046FA
:104010009946A246AB46F0BD5B465B781B021D434A
:1040200002239C46E344C7E7039B002B4CDDB3B25D
:1040300005938BB2029300230793069A0499137891
:10404000022949D09BB29946013206920599002671
:104050000BB29B460B0001331BB29A464A46012322
:104060000821134009AAD25C9B00904608AA521866
:10407000D758029B74009C466444A5B224B24246C1
:10408000210058460135B8472DB24246210050461E
:10409000B847424629005846B8474246290050468C
:1040A000B8474B465B0899460136019B76B2B3424E
:1040B000D4DA079B01335AB2059B079202339BB2B5
:1040C0000593039B9342B8D100201C4B1856039BC9
:1040D0009C466044400098E71100527812021A434F
:1040E0008B1C91460693B1E7154C49E7144D41E707
:1040F000019A144801325A4300785218824200DB78
:1041000030E70A4A0A4812880488A24206D00E4DB7
:10411000094800888442E7D00B4C31E7084DF7E7A7
:104120008C190010E4010010E2010010E001001001
:10413000DE0100108D39000092190010DB01001023
:104140004D390000E301001051390000F0B5DE46A2
:10415000454657464E46E0B59B46931085B01BB288
:10416000984600910392002A68DD83B299460023A5
:104170009A464B46D1469A4603274B463D004A464F
:10418000DB171D409B0FD2181740FF1A5B464D44AA
:104190003FB2AD107F00002B45DD53461BB25B10D4
:1041A0009BB2C026019306233E41DF1B53460024E9
:1041B00076B2DB0749D40E9A0023944665442A0060
:1041C0004546904642466B43D05C3A4B30401B8894
:1041D0003841834221D0C0B2FFF7C0F8364AA3B2BB
:1041E0001278524519D900998C46344963440978AC
:1041F0009BB2994211D952105343019A0F20944611
:104200002F4A634411682F4A9BB212780291C95C0D
:104210001201084002990243CA54013424B2230017
:10422000A345CFDCA8464B4601331BB29946534603
:1042300001339BB29A46039B99459DDB05B03CBC7C
:1042400090469946A246AB46F0BD0E9A002394468E
:1042500065442A004546904642466B43D05C154B68
:1042600030401B88384198421ED0C0B2FFF776F824
:10427000114BA2B21B78534516D900998C460F49B1
:104280006244097892B291420ED95B105343019A6D
:104290000F2094460A4A634411689BB2CA5C824369
:1042A000084800880243CA54013424B223005C4504
:1042B000D2DBB7E7DE010010E2010010E3010010DD
:1042C000B8190010E0010010F0B5DE4657464E4622
:1042D0004546E0B58DB0169C0092002900DA1AE13F
:1042E0009A4DCA182D780292AA4200DDBDE00BB2A9
:1042F0009C461A00002800DABEE0954D009B2E78FF
:104300001B180595B34200DD0FE100234510039310
:1043100008930793761071438E4B49191B685B18FD
:1043200002998A4257DA01210D000540069505B22F
:104330000195009D039EA846874F4044861BB946C1
:10434000B846B2460D40814909950491049909780F
:10435000914240DD069A019D002A00D0A3E0554518
:1043600000DBD4E0039A002A45D108E082430235FD
:1043700011432DB2197001340133AA4518DD4046AE
:10438000217806881A780811864206D00F2002404C
:1043900093460A008243584602430F200140B1422F
:1043A000E4D102352DB21A7001340133AA45E6DC9E
:1043B000079A00999346059A5C441278521A089914
:1043C00052108B465A449B1862460299013212B22F
:1043D00094468A42BADB0DB03CBC90469946A24650
:1043E000AB46F0BD814302350A432DB21A70013449
:1043F0000133AA451DDD4846217862780901121172
:104400000A430688D2B219781011864206D00F20CE
:1044100001408B4611008143584601430F20024062
:10442000B242DFD102352DB2197001340133AA45F1
:10443000E1DC099A002A15D00F21474A2578128815
:10444000294091420ED00F2019780AAAD171D17952
:104450002D010140D171D17907320D43EDB21570B4
:1044600012781A7001340133A2E70AB2EB189446AD
:104470000293002800DB40E7022543001D40009B1B
:10448000039598468044434640424010009303B24F
:10449000984607932E4B00251E7805930023002095
:1044A0004444089336E755451BDA1A782178388852
:1044B0000E11B04202D00F20824332430F261A70F1
:1044C000388801330E401A7886421AD00F2009012D
:1044D00002400A430235D2B22DB21A70013455455A
:1044E000E4DB039A002A00D162E71B4822780588A2
:1044F00019781211AA4202D00F208143114319707A
:1045000056E702352DB201345545CFDBE9E7039A72
:10451000002A8ED14CE7CB18029353105943002345
:10452000641A00229C460021E4E6022745002F4041
:1045300001250540A8469B1B5B1043441BB2079313
:10454000331A0895039700934510E3E6E301001042
:10455000E2010010B8190010DE010010F0B54E465F
:104560004546DE465746E0B585B0914680461A007E
:104570000E9B00296ADB88188246394800788245FC
:1045800051DC0AB2944614004246002A52DB354AF6
:104590000025107803924A4642440195824207DD85
:1045A0004246121A4A4412B201924246821A914677
:1045B00041432D4A414412685118A2452CDD424620
:1045C00012B20292264A4F46934645462748474430
:1045D0005A461278A2421FDD029ABA420DDAA84664
:1045E000EE1A1D780488AC4200D00D7001339A1980
:1045F00012B201319742F4DC45464C46019A90468E
:10460000039A43441278121B89186246013212B28F
:10461000944614005245DBDB05B03CBC90469946FD
:10462000A246AB46F0BD8246924442460CB2A44636
:10463000002AACDA504202B2C14401929046094AC3
:1046400043441078039200229046B1E792464A46CE
:104650008A44514300225B1A00249446002193E7C8
:10466000E3010010E2010010B8190010DE01001093
:10467000F0B5DE46454657464E46E0B59B4693109C
:1046800085B01BB2984600910392002A68DD83B280
:10469000994600239A464B46D1469A4603274B46F5
:1046A0003D004A46DB171D409B0FD2181740FF1AEA
:1046B0005B464D443FB2AD107F00002B45DD5346B5
:1046C0001BB25B109BB2C026019306233E41DF1B49
:1046D000534676B2DB074AD40E9A002394466544CB
:1046E0002A0000244546904642466B43D05C3B4B33
:1046F00030401B883841834221D0C0B2FEF72EFEE5
:10470000374AA3B21278524519D900998C463549D7
:10471000634409789BB2994211D952105343019ACC
:104720000F209446304A63441168304A9BB2127895
:104730000291C95C1201084002990243CA54013433
:1047400024B22300A345CFDCA8464B4601331BB25D
:104750009946534601339BB29A46039B4B459DDCD9
:1047600005B03CBC90469946A246AB46F0BD0E9AB9
:104770000023944665442A0000244546904642465C
:104780006B43D05C154B30401B88384198421ED09B
:10479000C0B2FEF7E3FD124BA2B21B78534516D907
:1047A00000998C460F496244097892B291420ED921
:1047B0005B105343019A0F2094460B4A63441168DF
:1047C0009BB2CA5C8243094800880243CA54013440
:1047D00024B22300A345D2DCB6E7C046DE010010B8
:1047E000E2010010E3010010B8190010E001001010
:1047F000F0B54546DE4657464E46E0B58BB00192D1
:1048000015B2002900DA2EE1A14ACC1812780394DF
:1048100094426CDC019B5C100BB29C461A00149B0A
:10482000013C9846444400286EDB9A4B1F7806935F
:10483000019B1B18BB4200DD21E1002643100496BA
:104840007F107943C918944B1B685B1803999142F8
:1048500000DCB2E001210E00019F0640B846079639
:1048600006B20296049E4044861B38006D10084034
:104870007910691809900891884885498046059102
:104880000F2105980078904200DC96E0079A029D7F
:10489000002A4CD1AE4200DCE1E0049A002A00D0AC
:1048A00098E0B146260009E01201084002350243B3
:1048B0002DB21A70013E0133A94515DD3278187802
:1048C0001411A246754C2488544502D0574688439B
:1048D00038430F001740A742E6D102352DB21870B9
:1048E000013E0133A945E9DC34004E4654E0D318BB
:1048F0000393149B019C984664100EB2013CB4468D
:1049000032004444002890DA0223460033400493E6
:10491000019B9846804443464042019340105D4BC2
:1049200000B21F78241A06930020002388E7AE42C5
:1049300021DDB2461A780E0020780640B346574E65
:104940003688B1465E46D94502D08A4316433200C6
:10495000524E1A7036880133B1461A780611B145A5
:1049600032D00A408843023502432DB21A70013C0E
:104970005545E0DB5646049A002A0DD0099A002AD4
:104980000AD04648227800880A40824203D018782C
:10499000884302431A700133089A01989146069A97
:1049A0004C441278121A52109B1862460398013236
:1049B00012B29446824200DA63E70BB03CBC9046E8
:1049C0009946A246AB46F0BD02352DB2013C554595
:1049D000B1DBCFE72A0000961000651E0BE04C46C5
:1049E00012010C4022431A700230009A00B20133C7
:1049F000013D824222DD6A782C7812112401224383
:104A00001C78D2B2A1461411A34644462488AA4673
:104A10005C4506D04F468F43B9465F464E46374306
:104A2000B9460F001740A742D9D14A4602301A7042
:104A3000009A00B20133013D8242DCDC544616008C
:104A4000099A002AA8D015482278008815118542B5
:104A5000A1D018788A43084002431A709BE7049A51
:104A6000002AEDD198E75410CB1861430393149BAF
:104A700000225B1A1493002300219C46CFE60223F8
:104A80004600334004933B1A01934310D8E6C046D6
:104A9000E3010010E2010010B8190010DE0100105F
:104AA000F0B54E464546DE465746E0B585B09146E0
:104AB00080461A000E9B00296ADB88188246394816
:104AC0000078824551DC0AB2944614004246002A1E
:104AD00052DB354A0025107803924A46424401953C
:104AE000824207DD4246121A4A4412B201924246FD
:104AF000821A914641432D4A414412684944511853
:104B0000A2452BDD424612B20292264A4746934600
:104B1000454627484F445A461278A2421EDD029A63
:104B2000BA420DDAA846EE1A1D780488AC4200D0CD
:104B30000D7001339A1912B201399742F4DC4546DF
:104B4000019A9046039A434412784A44891862466F
:104B5000013212B2944614005245DCDB05B03CBC75
:104B600090469946A246AB46F0BD824692444246E4
:104B70000CB2A446002AACDA504202B2C1440192FF
:104B80009046094A43441078039200229046B1E7C8
:104B900092464A468A44514300225B1A00249446B6
:104BA000002193E7E3010010E2010010B8190010A2
:104BB000DE010010427801789210C910C90252013A
:104BC0000A4381785D4BC9100A431A80C278417943
:104BD000D210C910D2020A430179891049010A434F
:104BE0005A808279017AD210C910D2020A43C1795F
:104BF000891049010A439A80427AC17AD210C910B9
:104C0000D2020A43817A891049010A43DA80027B81
:104C1000817BD210C910D2020A43417B891049011D
:104C20000A431A81C27B417CD210C910D2020A43C6
:104C3000017C891049010A435A81827C017DD2108E
:104C4000C910D2020A43C17C891049010A439A81E2
:104C5000427DC17DD210C910D2020A43817D8910E4
:104C600049010A43DA81027E817ED210C910D20244
:104C70000A43417E891049010A431A82C27E417F5C
:104C8000D210C910D2020A43017F891049010A4398
:104C900020215A82827F415CD210C910D2020A437D
:104CA000C17F891049010A439A8221222321825C13
:104CB000415CD210C910D2020A432221415C891002
:104CC00049010A43DA8224222621825C415CD21007
:104CD000C910D2020A432521415C891049010A43C7
:104CE0001A8327222921825C415CD210C910D2028A
:104CF0000A432821415C891049010A435A832A2228
:104D00002C21825C415CD210C910D2020A432B21B3
:104D1000415C891049010A439A832D222F21825C2C
:104D2000415CD210C910D2020A432E21415C891085
:104D300049010A43DA83024A136070479819001048
:104D4000801900100200264B1A43920726D1C21C7C
:104D5000D21A062A22D902681A80120C5A80426896
:104D60009A80120CDA8082681A81120C5A81C26809
:104D70009A81120CDA8102691A82120C5A824269F3
:104D80009A82120CDA8282691A83120C5A83C269DF
:104D90009A83120CDA83134A1360704702881A80D0
:104DA00042885A8082889A80C288DA8002891A8171
:104DB00042895A8182899A81C289DA81028A1A8259
:104DC000428A5A82828A9A82C28ADA82028B1A8341
:104DD000428B5A83828B9A83C28BDA83DBE7C0468D
:104DE000981900108019001010B50B490B78013389
:104DF000DBB2072B0CD80948C25C501114005309D0
:104E0000074A105C074A0B70148001F011FB10BDBB
:104E10007F200723E024F5E7BD1900101071010081
:104E200018710100C419001010B5084A1378002B3E
:104E300001D0013BDBB20649CB5C06490B805B111C
:104E40001370054AD05C01F0F3FA10BDBD190010D3
:104E500010710100C41900101871010010B5021C76
:104E6000FF2800DDFF2213B2DB43DB170A491340A2
:104E70000A4A138000200B5E0A88DB43DB171340CD
:104E80001AB20B805311064A1370FF221340054AD1
:104E9000D05C01F0CDFA10BDC4190010E60100107D
:104EA000BD1900101871010070B5224D224C2A68FE
:104EB00023689A4225D02368002B1CD02368012B3D
:104EC00031D0802123680901022B28D01B48FDF72F
:104ED0004FFF8020000184462368194919482B6040
:104EE0000B68634484461A000B60174B1B6A6344CB
:104EF00093420FD370BD802114480901FDF738FF9C
:104F0000E7E71048104B84460D491B6A0A68634462
:104F10009342EFD200230B60FDF734FFEAE70C4821
:104F2000FDF726FFD5E780210A480901FDF720FF9C
:104F3000CFE7C046243C0010183C0010182C00108D
:104F40002C44001000F8FFFF2C060010183400104D
:104F500018240010181C001010B501F031FB0120BE
:104F600001F086FA10BDC0460300C043C0171840C8
:104F7000064B10B51880064B40111870FF231840DF
:104F8000044B185C01F054FA10BDC046C41900105F
:104F9000BD1900101871010010B50248FDF710FE90
:104FA00010BDC046CC1900100122014B1A71704788
:104FB000001C00100022014B1A717047001C0010E9
:104FC0000122014B5A717047001C00100022014B56
:104FD0005A717047001C00100122014B9A717047F2
:104FE000001C00100022014B9A717047001C001039
:104FF0000122014B5A707047001C00100022014B27
:105000005A707047001C00100122014BDA70704783
:10501000001C00100022014BDA707047001C0010C9
:105020000022014B9A707047001C00100022014BB7
:105030001A707047001C001010B5054B9A79002AB1
:1050400002D101229A7010BDFFF7CEFEFBE7C046E9
:10505000001C001010B5054B9A79002A02D10122DC
:105060001A7010BDFFF7E0FEFBE7C046001C001001
:1050700010B5044802F05AFB0122034B1871034B90
:105080005A6210BDD0190010001C0010004000A092
:1050900010B5044802F04AFB0222034B5871034B3F
:1050A0005A6210BD201A0010001C0010004000A021
:1050B00010B5044802F03AFB0422034B9871034BED
:1050C0005A6210BD701A0010001C0010004000A0B1
:1050D00010B5044802F02AFB0822034B5870034B1A
:1050E0005A6210BDB01B0010001C0010004000A050
:1050F00010B5044802F01AFB1022034BD870034B82
:105100005A6210BDC01A0010001C0010004000A020
:1051100070B5114802F00AFB104CA071104802F063
:1051200005FBA379C0B22070002B01D0002806D166
:1051300000220C4B1A7020220B4B5A6270BD094D95
:105140002B78002B04D00023237001332B70F2E75F
:10515000FFF76AFEF7E7C046701A0010001C001047
:10516000101B0010091C0010004000A070B5114871
:1051700002F0DCFA104CA071104802F0D7FAA379C3
:10518000C0B2A070002B01D0002806D100220C4B29
:105190001A7040220B4B5A6270BD094D2B78002BC0
:1051A00004D00023A37001332B70F2E7FFF71CFE3D
:1051B000F7E7C046701A0010001C0010601B0010BA
:1051C000091C0010004000A010B52E4C2E492000F4
:1051D00002F0D4FA20002D4902F0BEFA2C4C2D49E1
:1051E000200002F0CBFA20002B4902F0B5FA2B4C3C
:1051F0002B49200002F0C2FA20002A4902F0ACFA42
:10520000294C2A49200002F0B9FA2000284902F06E
:10521000A3FA284C2849200002F0B0FA20002749C0
:1052200002F09AFA264C2749200002F0A7FA200043
:10523000254902F091FA254C2549200002F09EFAFA
:105240002000244902F088FA0020234902F050FC93
:105250000120224902F04CFC0220214902F048FCC6
:105260000320204902F044FC04201F4902F040FCC6
:1052700005201E4902F03CFC06201D4902F038FCC6
:1052800010BDC046D0190010B54F0000A94F000056
:10529000201A0010CD4F0000C14F0000701A0010FE
:1052A000E54F0000D94F0000B01B0010FD4F00007B
:1052B000F14F0000C01A0010155000000950000006
:1052C000101B00102D50000055500000601B0010F6
:1052D0002150000039500000715000009150000032
:1052E000B1500000D1500000F150000011510000F9
:1052F0006D51000070B52648FDF706FE254E264983
:10530000300002F0EFF9254D254C2A002100300035
:1053100002F0E4FB234E2449300002F0E3F92A00B6
:105320002100300002F0DAFB204E2149300002F06B
:10533000D9F92A002100300002F0D0FB1D4E1E4991
:10534000300002F0CFF92A002100300002F0C6FB45
:105350001A4E1B49300002F0C5F92A002100300026
:1053600002F0BCFB174E1849300002F0BBF92A00CE
:105370002100300002F0B2FB144E1549300002F05B
:10538000B1F92A003000210002F0A8FB70BDC04630
:10539000081C0010D0190010841201000001001038
:1053A00061760000201A001070080100701A0010C9
:1053B00088140100B01B0010941A0100C01A0010DC
:1053C0006C060100101B0010C4320100601B0010AD
:1053D0007C0E0100F0B54A4857464E464546DE462B
:1053E0008046A0238A22E0B5042780254446182061
:1053F0001B0692019F5043499246434E434A6D0417
:105400009D505E50185142480024844680206546D5
:1054100040015C505851C046C046843D9850A94652
:105420005F5180256D049D503A4D5E50AB46454618
:105430005E465E5165465C505851C0465546985090
:105440005F5180256D049D5080256D00AB462E4E2A
:1054500045465E505E465E5165465C505851C046BA
:10546000C0464D4698505F5180256D049D5045467D
:10547000254E5E505C5165465C505851C0465546BD
:1054800098505F5180256D049D5084256D00AB467A
:105490005E5045465E465E5165465C505851C0467A
:1054A000C0464D4698505F5180256D049D5045463D
:1054B000154E5E505C5165465C505851C04655468D
:1054C00098505F5180256D049D5088256D00AA4637
:1054D0005E50454656465E515C5064461851C04683
:1054E000C0464C4698501F518024074E64049C507F
:1054F00098505E503CBC90469946A246AB46F0BDE3
:1055000088210000882000000700F8FF0422000026
:1055100084220000C081000080230B4A9B00D258E7
:1055200010B5031C642800D96423D8B26421504309
:1055300004F066F881220421034B920098505A68C7
:105540008A435A6010BDC04600C00050F0B55746AF
:105550004546DE464E46A0238A22E0B50425802734
:105560001B06920183B000903C4C9D5092463C49F2
:105570003C4A7F045F5090461A513B4A3B48944650
:105580008022654652005A5100221A51802252014F
:105590001A50C046C04688260425B6015A50B14666
:1055A0009D5146465F5000251E5166469D5100267E
:1055B0001E511A50C046564604355A509D51464613
:1055C0005F501E5184267600B34666465F469F5163
:1055D00000261E511A50C046C0464E4680275A50DB
:1055E00001959D5146467F045F5000251E51664639
:1055F0009D5100261E511A50C0465646019D5A50D4
:105600009D5146465F501E5188267600B24666463A
:1056100057469F5100261E511A50C046C046464666
:105620005A501E51009EF600B046664647469F51AE
:10563000002680271E514C467F041D510C4C5F50A4
:105640005A501A50C046013C5A50002CF9D103B0B0
:105650003CBC90469946A246AB46F0BD882000006F
:10566000042200000700F8FF8821000084220000C7
:1056700040970000F0B557464E464546DE46A0220C
:105680008A23E0B50427802612069B01D7503649AD
:105690009A463648364B760416508846D1503549DE
:1056A00000258C4680216446490011518021324CEE
:1056B0004901D5501151C046C046843C1150A14605
:1056C000175144461650D450644615512A4CD550B3
:1056D0001151C04654461150175144461650D450EB
:1056E00084246400A34664465E461651224CD5507D
:1056F0001151C046C0464C468026115017514446B1
:1057000076041650D450644615511B4CD550115197
:10571000C04654461150175144461650D450882460
:105720006400A246644656461651134CD55011519A
:10573000C046C04644461150D45064468026155198
:10574000D5504B467604D7500B4C0C4B165011508D
:105750001151C046013B1150002BF9D13CBC904681
:105760009946A246AB46F0BD0700F8FF04220000B0
:10577000882000008821000084220000409700005B
:1057800080208022F8B5DE4657464E464546EC4B13
:1057900012061958E0B50A431A508022596892003F
:1057A00011435960FC210324E64801274358802611
:1057B0009B0A9B022343E44C43502168E34B760150
:1057C0000B430C2123606368E1480B436360A12312
:1057D000DB00E750DF4B0A39E150C1239B00E65064
:1057E000C021012389005B4263500C3160500439B1
:1057F0006350D94B6421A350A358D84D1801C01A47
:10580000400003F0FDFE812304229B00E05063680A
:10581000924693436360A024240667510A2002F055
:1058200037F9CF4A0A20A750914602F031F9675163
:105830000A2002F02DF98A2351469B01E150802174
:105840000823002249046151C64F8B46C648C74908
:10585000E05190466350E2514A469C46A650C046ED
:10586000C0465346843A6651A3505B468E2263512C
:1058700043461201E0516250E3514B46E650C046A8
:105880008A22534692016651A3505B46102263510F
:105890004346E0516250E3514B46E650C046C04695
:1058A0008822534692016651A3505B468022635181
:1058B00043461201E0516250E3514B46E650C04668
:1058C0008A22534692016651A3505B4618226351C7
:1058D0004346E0516250E3514B46E650C046C04655
:1058E0008822534692016651A3505B46635143465A
:1058F0009F4AE0516250E3514B46E650C0468A222F
:10590000534692016651A3505B4640226351434681
:10591000E0516250E3514B46E650C046C0468822F3
:10592000534692016651A3505B4663514346914AE8
:10593000E0516250E3514B46E650C0468A2253463E
:1059400092016651A3505B46602263514346E05189
:105950006250E3514B46E650C046C046882253464B
:1059600092016651A3505B4663514346E051635038
:10597000E3514B46E650C046534680326651A35031
:105980005B46782263514346E0516250E3514B46F7
:10599000E650C046C0468822534692016651A35045
:1059A0005B4663516346E05163504346E3514B46C7
:1059B000E650C046534680326651A3505B46635161
:1059C00080235B00E05163504346E3514B46E65071
:1059D000C046C0465146843B6651E1505946434655
:1059E00061516249E0516350E3514B46E650C04675
:1059F00053466651A3505B46635184235B00E051DC
:105A000063504346E3514B46E650C046C0465146BC
:105A1000843B6651E1505B46635143465349E05134
:105A20006350E3514B46E650C04653466651A3507F
:105A30005B4663518023E05163504346E3514B463C
:105A4000E650C046C0465046843B6651E05058463A
:105A5000434660514448E0516350E3514B46E650A1
:105A6000C04653466651A3505B4663518823E051BC
:105A700063504346E3514B46E650C046C04652464B
:105A8000843B6651E2505B46635180231B02E05128
:105A900063504346E3514B46E650C0460A206651E8
:105AA00001F0F6FF8A2253469201A3505B466351F0
:105AB000C0232D482D495B00E05163504346E3511C
:105AC0004B46E650C046C0465046843B6651E050C7
:105AD0005846434660512448E0516350E3514B46D9
