:1000000000800010FD000000513900005939000047
:10001000000000000000000000000000590CFFEF8D
:100020000000000000000000000000005D3900003A
:100030000000000000000000613900000D250000F4
:100040005539000055390000553900005539000078
:100050005539000055390000553900005539000068
:100060005539000055390000553900005539000058
:100070005539000055390000553900005539000048
:100080005539000055390000912100005539000014
:100090005539000055390000553900005539000028
:1000A0005539000055390000553900005539000018
:1000B0005539000055390000553900000000000096
:1000C000F471000000010010CC000000F471000089
:1000D0000000002000000000F4710000004000203B
:1000E00000000000D0010010C43E0000000000200D
:1000F000000000000040002000000000F0B5454670
:10010000DE4657464E46E0B55D4A5E4B904683B0AC
:10011000934200D3B1E00722934607329246213240
:10012000914619001C6889685D680C331A0020002C
:1001300000292FD027005E462F4337407E4277416B
:10014000EE1D361BB245B641764201393E4200D122
:100150007FE089457DD28908481C9C4621004708DC
:10016000FF003F192E1B0094019573180C684D6811
:1001700008311C605D60B942F7D101210600009C86
:10018000019D8E43B100634664186D18B04201D0E2
:10019000216829609845C4D83B498A424FD2072339
:1001A0000139891A994313008C4608339C44012372
:1001B00090469A460023424606CA0800002A39D0D3
:1001C0005646551EAC080134A1468C0864423440A2
:1001D000172D4BD9002C3AD0042508C04E46361BAB
:1001E000B146A40009197408E40064180026002729
:1001F000C0C18C42FAD151464C468C43A1008B467B
:10020000290058445944A14514D00C1D0360A24252
:1002100010D904344360A2420CD904348360A24252
:1002200008D90434C360A24204D9143103618A425C
:1002300000D9436108229146C844E045BBD103F090
:10024000B7FB124B002B13D000E000BFFEE70025E8
:10025000C4E78908261D890089192E1B05002D6811
:100260008419043025608842F8D193E70021CCE757
:1002700004F0CCFA03F0D8FAE8E71A008CE7C0469D
:10028000E4000000C0000000FC00000000000000CE
:1002900010B5064C2378002B07D1054B002B02D05C
:1002A000044800E000BF0123237010BDD0010010FE
:1002B00000000000F4710000044B10B5002B03D0C7
:1002C0000349044800E000BF10BDC0460000000024
:1002D000D4010010F4710000F0B55746DE464E46DA
:1002E0004546E0B5BE4CBF49A54402AA944605AFB9
:1002F0003B00002261441A6008339942FBD18025FB
:1003000000246D00E000082200213818013404F0B8
:10031000B7FAAC42F6D100F0A3FAB34800F042FDC0
:100320000122B24B1A70B24B0B321A80B14B033A16
:10033000FA50B14B033AFA50B04A083BFA50B04B6E
:10034000B04A190082310791591DFF3109911900F6
:100350008731FF310B918221890059180D91AA49EB
:10036000059359180F91C321890059181191A74974
:10037000BA80591813918221C90059181591442146
:100380007A52A349BA81591817914C217A52A1493E
:10039000BA825918199154217A529F49BA8359182F
:1003A0001B915C21BA84BA85BA86BA877A52C32176
:1003B000C90059181D9164217A52984959181F9102
:1003C0006C217A5296495918219174217A52954993
:1003D000591823917C217A52822109018C46634469
:1003E00025938423FA52582400F0C6FA002800D13D
:1003F000EBE06E23002200210020009400F0C2FAFE
:100400000028F1D000F0E4F9002000F0BBF9864CA0
:10041000002800D1CDE02388013B2380022000F09A
:10042000B1F9002800D1BCE02388013323800120EA
:1004300000F0A8F97D4D002800D1AAE02B88013BEF
:100440002B80032000F09EF9002800D197E02B8834
:1004500001331BB22B800021625E002A00DA8AE0A1
:10046000F42A02DD8022520022801000002B6DDB76
:10047000F12B00DCB2E080235B002B806C4B0393FC
:100480001B789C46590881424DDC802380255B0007
:100490006D001C006D1A854269DA6246013AFF3A26
:1004A00012B292460020634A8046117891464A086B
:1004B000A24241DD514E093604E05F4B0936A844A3
:1004C000B34290D0340053460025093C9C45F4DDEE
:1004D0002278D200B858002817D049460978BA18AF
:1004E000414508DC117955795B186345E5DA01343B
:1004F000A642EBD1E1E71179CD18AB4607D4557987
:100500004246D54206D55B46EFE70025EFE75B465E
:100510005579ECE700922A0002F00EFC039B1B7851
:100520009C465B46E1E7434B1978994600239A467F
:100530000133FF331C004A0880204000801AA0428B
:100540003FDA0139FF390BB29846B3E700230024A4
:100550002B8000253649AA46039109788C46490824
:1005600081429FDC80256D006D1A854295DB8A1AD9
:1005700012B2924696E700220020228076E70121FF
:10058000033000F009F9002800D060E70022AB5EDC
:1005900061E70121012000F0FFF8002800D04DE7BD
:1005A0004FE70121022000F0F7F8002800D03BE7D8
:1005B0003DE70121002000F0EFF8002800D02AE7F5
:1005C0002CE7D31A1BB2984674E700201B4B9D44BE
:1005D0003CBC90469946A246AB46F0BD1C00B8E72D
:1005E000DCF7FFFF0C0800009C6000008415001081
:1005F0004401001004080000080800000401001075
:1006000076560000101000008A0200008E030000E1
:100610009204000014050000960500009A060000F0
:100620001C0700009E0700003A0100103C0100106A
:10063000460100104701001043010010240800008B
:1006400010B50249024803F047FA10BD5C2E0000C5
:10065000EC01001010B500F0E7FD10BD474A484B13
:100660001178002900D06DE01878002804D0FF2808
:1006700000D16CE0FF311970517800295BD15878B6
:10068000002803D0FF285BD0FF31597091780029F2
:100690004AD19878002803D0FF284AD0FF319970BA
:1006A000D178002939D1D878002803D0FF2839D053
:1006B000FF31D9701179002928D11879002803D089
:1006C000FF2828D0FF3119715179002917D15879A5
:1006D000002803D0FF2817D0FF3159719279002AE2
:1006E00006D09A790132D2B2FF2A32D09A7170477D
:1006F00099790029FBD0FF29F8D0FF22F6E7597934
:100700000131C9B2FF2927D05971E7E719790131C1
:10071000C9B2FF2923D01971D6E7D9780131C9B2FE
:10072000FF291FD0D970C5E799780131C9B2FF29D7
:100730001BD09970B4E759780131C9B2FF2917D09D
:100740005970A3E719780131C9B2FF2913D0197084
:1007500092E702229A71CAE702215971BEE702218B
:100760001971B1E70221D970A4E70221997097E7C6
:10077000022159708AE7022119707DE700180010E4
:10078000F0010010034B185C013843425841C0B2DD
:100790007047C046F001001010B50C4B01290CD970
:1007A000185CFF2807D004F0E7F9C8B201384142CD
:1007B0004841C0B210BD0020FCE71B5CFD220020B8
:1007C000013BDBB29A424041C0B2F3E7F0010010B6
:1007D000002330B51D491E4A08780B705378022457
:1007E000002B02D0012301340B70D578002D01D0ED
:1007F00023000C701478002C03D004242343DBB2B4
:100800000B709478002C03D008242343DBB20B70C8
:100810001479002C03D010242343DBB20B705479DD
:10082000002C03D020242343DBB20B709279002AE2
:1008300003D040221343DBB20B701900054A01407C
:100840009843054B1170187030BDC046EE01001082
:1008500000180010ED010010EF0100107047C046B5
:1008600070B50124354B00201C7000F0B3F93448FA
:1008700000F09EF901F052FE01F07CFE00F0D4FC85
:1008800001F070FE2122FF262E4B2F4D1A702F4BA8
:100890007F201C602E7000F011FB7F222C4B2E70ED
:1008A0001A80FFF7D7FEFFF7D9FE00F031F929488B
:1008B00002F04CF9830736D40026012000F08AF9B3
:1008C000254D2E8000F016F9244C200000F070F920
:1008D000012000F07FF9FC22214BD20020001A8079
:1008E00001242E8000F064F900231E4E1E4DFF20CF
:1008F00033702C7000F0E2FAFF2000F065FB00205E
:1009000000F068F9194B1A481C701A4B34701C70AF
:100910002C7000F04DF900F04FFB0520FFF732FF7F
:10092000002806D170BD210081430A4802F030F949
:10093000C2E7002000F048FBF4E7C0460D020010BB
:10094000B0600000FC010010040200100002001062
:10095000C4150010B40F00008615001018670000C1
:100960003E0100104101001042010010480100103A
:10097000B463000049010010014B18787047C0466D
:100980000D02001070B5050000F0BEFA01F0D6FDB2
:10099000114B12491A780B68114C1B1A934209D952
:1009A0002368002B0BD1280000F0B6F801230020AB
:1009B000236003E023680020002BF4D070BD1018E2
:1009C000084A086013680133136000232360FFF7AF
:1009D00045FE0120F2E7C046FC01001008020010AD
:1009E00000020010F801001010B5024800F040F8B5
:1009F00010BDC0460C0200107047C04610B5040080
:100A0000182103F0FFFE200010BDC04610B582B0D3
:100A10006B469C1D220002F047FC208802B010BDEE
:100A200010B5002002F0CCFC014B187010BDC04680
:100A3000580200100123812210B5084C82B05B429D
:100A400000932000064B0749520102F063FE20008C
:100A5000054A064902F086FF02B010BD10020010E0
:100A6000180C00002412000000010010F909000019
:100A7000134B144A10B5040013481A6000F0CAF86A
:100A80000122124B12491A70124BDB321A70124BB0
:100A90002C3A1A70114B124A200013601A78013256
:100AA0000A705B780F4A0133137011220E4B1A80C3
:100AB00000220E4B1A800E4B04321A7010BDC04635
:100AC000B8150010600200107C6A0000901500103C
:100AD000BC1500108915001088150010B0600000CA
:100AE0008C1500107F1500104401001092150010A5
:100AF0004001001010B5002000F058FD0023024A0C
:100B00001380024A138010BD941500109615001032
:100B100010B500F065FE10BD10B5002804D01C4BC8
:100B20001B78002B0DD010BD1A4B1C6800F082FC06
:100B3000194B2000196801F023FB154B1B78002B83
:100B4000F1D1164B164A197818880F2312780B40EA
:100B5000012A17D0022A0ED0042A16D119011943EE
:100B60000C4B104A186803F08BFE00230E4A1380CA
:100B70000E4A1380D7E703230B40990019430B015A
:100B80001943EDE7FF210028EAD11900E8E7C04644
:100B900084150010B8150010801500109215001073
:100BA000400100101F13000094150010961500104E
:100BB000054B064A18600378013313704378044AE2
:100BC000013313707047C0468C150010BC1500101F
:100BD0007F1500100A4B002808D001221A70094B1B
:100BE000DB321A70084B2C3A1A7070471870074B9A
:100BF0001A78044B1A70064B1A78034B1A70F4E7F4
:100C0000901500108915001088150010460100107D
:100C100047010010427801789210C910C9025201B0
:100C20000A4381785D4BC9100A431A80C278417922
:100C3000D210C910D2020A430179891049010A432E
:100C40005A808279017AD210C910D2020A43C1793E
:100C5000891049010A439A80427AC17AD210C91098
:100C6000D2020A43817A891049010A43DA80027B61
:100C7000817BD210C910D2020A43417B89104901FD
:100C80000A431A81C27B417CD210C910D2020A43A6
:100C9000017C891049010A435A81827C017DD2106E
:100CA000C910D2020A43C17C891049010A439A81C2
:100CB000427DC17DD210C910D2020A43817D8910C4
:100CC00049010A43DA81027E817ED210C910D20224
:100CD0000A43417E891049010A431A82C27E417F3C
:100CE000D210C910D2020A43017F891049010A4378
:100CF00020215A82827F415CD210C910D2020A435D
:100D0000C17F891049010A439A8221222321825CF2
:100D1000415CD210C910D2020A432221415C8910E1
:100D200049010A43DA8224222621825C415CD210E6
:100D3000C910D2020A432521415C891049010A43A6
:100D40001A8327222921825C415CD210C910D20269
:100D50000A432821415C891049010A435A832A2207
:100D60002C21825C415CD210C910D2020A432B2193
:100D7000415C891049010A439A832D222F21825C0C
:100D8000415CD210C910D2020A432E21415C891065
:100D900049010A43DA83024A13607047981500102C
:100DA000801500100200264B1A43920726D1C21C60
:100DB000D21A062A22D902681A80120C5A80426876
:100DC0009A80120CDA8082681A81120C5A81C268E9
:100DD0009A81120CDA8102691A82120C5A824269D3
:100DE0009A82120CDA8282691A83120C5A83C269BF
:100DF0009A83120CDA83134A1360704702881A80B0
:100E000042885A8082889A80C288DA8002891A8150
:100E100042895A8182899A81C289DA81028A1A8238
:100E2000428A5A82828A9A82C28ADA82028B1A8320
:100E3000428B5A83828B9A83C28BDA83DBE7C0466C
:100E4000981500108015001010B50B490B78013370
:100E5000DBB2072B0CD80948C25C501114005309AF
:100E6000074A105C074A0B70148001F081FA10BD2C
:100E70007F200723E024F5E7BD150010AC6A0000D1
:100E8000B46A0000C415001010B5084A1378002B8E
:100E900001D0013BDBB20649CB5C06490B805B11FC
:100EA0001370054AD05C01F063FA10BDBD15001047
:100EB000AC6A0000C4150010B46A000010B5021C32
:100EC000FF2800DDFF2213B2DB43DB170A49134082
:100ED0000A4A138000200B5E0A88DB43DB171340AD
:100EE0001AB20B805311064A1370FF221340054AB1
:100EF000D05C01F03DFA10BDC41500104A0100108D
:100F0000BD150010B46A000070B5224D224C2A684D
:100F100023689A4225D02368002B1CD02368012B1C
:100F200031D0802123680901022B28D01B48FFF70C
:100F30006DFD8020000184462368194919482B6003
:100F40000B68634484461A000B60174B1B6A6344AA
:100F500093420FD370BD802114480901FFF756FD5D
:100F6000E7E71048104B84460D491B6A0A68634442
:100F70009342EFD200230B60FFF752FDEAE70C48E3
:100F8000FFF744FDD5E780210A480901FFF73EFD40
:100F9000CFE7C04624380010183800101828001079
:100FA0002C40001000F8FFFF28020010183000103D
:100FB000182000101818001010B501F0A1FA012037
:100FC00001F0F6F910BDC0460300C043C017184039
:100FD000064B10B51880064B40111870FF231840BF
:100FE000044B185C01F0C4F910BDC046C4150010D4
:100FF000BD150010B46A000010B50248FFF72EFCC2
:1010000010BDC046CC1500100122014B1A7170476B
:10101000001800100022014B1A71704700180010D0
:101020000122014B5A717047001800100022014B39
:101030005A717047001800100122014B9A717047D5
:10104000001800100022014B9A7170470018001020
:101050000122014B5A707047001800100022014B0A
:101060005A707047001800100122014BDA70704767
:10107000001800100022014BDA70704700180010B1
:101080000022014B9A707047001800100022014B9B
:101090001A7070470018001010B5054B9A79002A95
:1010A00002D101229A7010BDFFF7CEFEFBE7C046C9
:1010B0000018001010B5054B9A79002A02D10122C0
:1010C0001A7010BDFFF7E0FEFBE7C04600180010E5
:1010D00010B5044802F0CAFA0122034B1871034B01
:1010E0005A6210BDD015001000180010004000A07A
:1010F00010B5044802F0BAFA0222034B5871034BB0
:101100005A6210BD2016001000180010004000A008
:1011100010B5044802F0AAFA0422034B9871034B5D
:101120005A6210BD7016001000180010004000A098
:1011300010B5044802F09AFA0822034B5870034B8A
:101140005A6210BDB017001000180010004000A037
:1011500010B5044802F08AFA1022034BD870034BF2
:101160005A6210BDC016001000180010004000A008
:1011700070B5114802F07AFA104CA071104802F0D4
:1011800075FAA379C0B22070002B01D0002806D1D7
:1011900000220C4B1A7020220B4B5A6270BD094D75
:1011A0002B78002B04D00023237001332B70F2E73F
:1011B000FFF76AFEF7E7C04670160010001800102F
:1011C0001017001009180010004000A070B5114859
:1011D00002F04CFA104CA071104802F047FAA379C3
:1011E000C0B2A070002B01D0002806D100220C4B09
:1011F0001A7040220B4B5A6270BD094D2B78002BA0
:1012000004D00023A37001332B70F2E7FFF71CFE1C
:10121000F7E7C046701600100018001060170010A5
:1012200009180010004000A010B52E4C2E492000D7
:1012300002F044FA20002D4902F02EFA2C4C2D49E0
:10124000200002F03BFA20002B4902F025FA2B4C3B
:101250002B49200002F032FA20002A4902F01CFA41
:10126000294C2A49200002F029FA2000284902F0DE
:1012700013FA284C2849200002F020FA20002749C0
:1012800002F00AFA264C2749200002F017FA200043
:10129000254902F001FA254C2549200002F00EFAFA
:1012A0002000244902F0F8F90020234902F060FBF5
:1012B0000120224902F05CFB0220214902F058FB88
:1012C0000320204902F054FB04201F4902F050FB88
:1012D00005201E4902F04CFB06201D4902F048FB88
:1012E00010BDC046D01500101510000009100000F8
:1012F000201600102D1000002110000070160010A4
:101300004510000039100000B01700105D100000FB
:1013100051100000C0160010751000006910000088
:10132000101700108D100000B5100000601700109D
:101330008110000099100000D1100000F110000091
:101340001111000031110000511100007111000055
:10135000CD11000070B52648FFF78AFB254E2649BF
:10136000300002F05FF9254D254C2A0021003000A5
:1013700002F0F8FA234E2449300002F053F92A0013
:101380002100300002F0EEFA204E2149300002F038
:1013900049F92A002100300002F0E4FA1D4E1E49EE
:1013A000300002F03FF92A002100300002F0DAFAA2
:1013B0001A4E1B49300002F035F92A002100300096
:1013C00002F0D0FA174E1849300002F02BF92A002B
:1013D0002100300002F0C6FA144E1549300002F028
:1013E00021F92A003000210002F0BCFA70BDC0468D
:1013F00008180010D0150010841201000001001020
:10140000A1350000201600107008010070160010B1
:1014100088140100B0170010941A0100C0160010C3
:101420006C06010010170010C43201006017001094
:101430007C0E0100F0B54A4857464E464546DE460A
:101440008046A0238A22E0B5042780254446182040
:101450001B0692019F5043499246434E434A6D04F6
:101460009D505E50185142480024844680206546B5
:1014700040015C505851C046C046843D9850A94632
:101480005F5180256D049D503A4D5E50AB464546F8
:101490005E465E5165465C505851C0465546985070
:1014A0005F5180256D049D5080256D00AB462E4E0A
:1014B00045465E505E465E5165465C505851C0469A
:1014C000C0464D4698505F5180256D049D5045465D
:1014D000254E5E505C5165465C505851C04655469D
:1014E00098505F5180256D049D5084256D00AB465A
:1014F0005E5045465E465E5165465C505851C0465A
:10150000C0464D4698505F5180256D049D5045461C
:10151000154E5E505C5165465C505851C04655466C
:1015200098505F5180256D049D5088256D00AA4616
:101530005E50454656465E515C5064461851C04662
:10154000C0464C4698501F518024074E64049C505E
:1015500098505E503CBC90469946A246AB46F0BDC2
:1015600088210000882000000700F8FF0422000006
:1015700084220000C081000080230B4A9B00D258C7
:1015800010B5031C642800D96423D8B264215043E9
:1015900003F06CFA81220421034B920098505A68A0
:1015A0008A435A6010BDC04600C00050F0B557468F
:1015B0004546DE464E46A0238A22E0B50425802714
:1015C0001B06920183B000903C4C9D5092463C49D2
:1015D0003C4A7F045F5090461A513B4A3B48944630
:1015E0008022654652005A5100221A51802252012F
:1015F0001A50C046C04688260425B6015A50B14646
:101600009D5146465F5000251E5166469D5100265D
:101610001E511A50C046564604355A509D514646F2
:101620005F501E5184267600B34666465F469F5142
:1016300000261E511A50C046C0464E4680275A50BA
:1016400001959D5146467F045F5000251E51664618
:101650009D5100261E511A50C0465646019D5A50B3
:101660009D5146465F501E5188267600B24666461A
:1016700057469F5100261E511A50C046C046464646
:101680005A501E51009EF600B046664647469F518E
:10169000002680271E514C467F041D510C4C5F5084
:1016A0005A501A50C046013C5A50002CF9D103B090
:1016B0003CBC90469946A246AB46F0BD882000004F
:1016C000042200000700F8FF8821000084220000A7
:1016D00040970000F0B557464E464546DE46A022EC
:1016E0008A23E0B50427802612069B01D75036498D
:1016F0009A463648364B760416508846D1503549BE
:1017000000258C4680216446490011518021324CCD
:101710004901D5501151C046C046843C1150A146E4
:10172000175144461650D450644615512A4CD55092
:101730001151C04654461150175144461650D450CA
:1017400084246400A34664465E461651224CD5505C
:101750001151C046C0464C46802611501751444690
:1017600076041650D450644615511B4CD550115177
:10177000C04654461150175144461650D450882440
:101780006400A246644656461651134CD55011517A
:10179000C046C04644461150D45064468026155178
:1017A000D5504B467604D7500B4C0C4B165011506D
:1017B0001151C046013B1150002BF9D13CBC904661
:1017C0009946A246AB46F0BD0700F8FF0422000090
:1017D000882000008821000084220000409700003B
:1017E00080208022F8B5DE4657464E464546EC4BF3
:1017F00012061958E0B50A431A508022596892001F
:1018000011435960FC210324E648012743588026F0
:101810009B0A9B022343E44C43502168E34B76012F
:101820000B430C2123606368E1480B436360A123F1
:10183000DB00E750DF4B0A39E150C1239B00E65043
:10184000C021012389005B4263500C316050043990
:101850006350D94B6421A350A358D84D1801C01A26
:10186000400003F003F9812304229B00E0506368E9
:10187000924693436360A024240667510A2002F035
:101880004BF8CF4A0A20A750914602F045F867511D
:101890000A2002F041F88A2351469B01E150802141
:1018A0000823002249046151C64F8B46C648C749E8
:1018B000E05190466350E2514A469C46A650C046CD
:1018C000C0465346843A6651A3505B468E2263510C
:1018D00043461201E0516250E3514B46E650C04688
:1018E0008A22534692016651A3505B4610226351EF
:1018F0004346E0516250E3514B46E650C046C04675
:101900008822534692016651A3505B468022635160
:1019100043461201E0516250E3514B46E650C04647
:101920008A22534692016651A3505B4618226351A6
:101930004346E0516250E3514B46E650C046C04634
:101940008822534692016651A3505B466351434639
:101950009F4AE0516250E3514B46E650C0468A220E
:10196000534692016651A3505B4640226351434661
:10197000E0516250E3514B46E650C046C0468822D3
:10198000534692016651A3505B4663514346914AC8
:10199000E0516250E3514B46E650C0468A2253461E
:1019A00092016651A3505B46602263514346E05169
:1019B0006250E3514B46E650C046C046882253462B
:1019C00092016651A3505B4663514346E051635018
:1019D000E3514B46E650C046534680326651A35011
:1019E0005B46782263514346E0516250E3514B46D7
:1019F000E650C046C0468822534692016651A35025
:101A00005B4663516346E05163504346E3514B46A6
:101A1000E650C046534680326651A3505B46635140
:101A200080235B00E05163504346E3514B46E65050
:101A3000C046C0465146843B6651E1505946434634
:101A400061516249E0516350E3514B46E650C04654
:101A500053466651A3505B46635184235B00E051BB
:101A600063504346E3514B46E650C046C04651469C
:101A7000843B6651E1505B46635143465349E05114
:101A80006350E3514B46E650C04653466651A3505F
:101A90005B4663518023E05163504346E3514B461C
:101AA000E650C046C0465046843B6651E05058461A
:101AB000434660514448E0516350E3514B46E65081
:101AC000C04653466651A3505B4663518823E0519C
:101AD00063504346E3514B46E650C046C04652462B
:101AE000843B6651E2505B46635180231B02E05108
:101AF00063504346E3514B46E650C0460A206651C8
:101B000001F00AFF8A2253469201A3505B466351BB
:101B1000C0232D482D495B00E05163504346E351FB
:101B20004B46E650C046C0465046843B6651E050A6
:101B30005846434660512448E0516350E3514B46B8
:101B4000E650C04653466651A3505B466351C423DA
:101B50005B00E05163504346E3514B46E650C046BC
:101B6000C0465146843B6651E1505946DB236151E2
:101B70001649DB00E0519C4663504346E3514B4617
:101B8000E650C04653466651A3505B46C822635197
:101B900043465200E0516250E3514B46E6501BE091
:101BA000008004400040044000C0005001000600D6
:101BB000011000000C050000204E0000042200006F
:101BC00084220000882000000700F8FF8821000020
:101BD0008081000040400000C046C0468822534635
:101BE00092016651A3505B4663514346E0516350F6
:101BF000E3514B46E650C046534680326651A350EF
:101C00005B46CC22635143465200E0516250E3519F
:101C10004B46E650C046C046882253469201665164
:101C2000A3505B4663514346E0516350E3514B463A
:101C3000E650C046534680326651A3505B46D022E0
:101C4000635143465200E0516250E3514B46E65027
:101C5000C046C0468822534692016651A3505B4657
:101C600063516346E05163504346E3514B46E650AF
:101C7000C046534680326651A3505B46D42263511E
:101C800043465200E0516250E3514B46E650C04695
:101C9000C0468822534692016651A3505B46635169
:101CA0004346E0516350E3514B46E650C04653462D
:101CB00080326651A3505B46D8226351434652009E
:101CC000E0516250E3514B46E650C046C046882280
:101CD000534692016651A3505B46AF22635143467F
:101CE000D200E0516250E3514B46E650C0468A2292
:101CF000534692016651A3505B46DC226351434632
:101D00005200E0516250E3514B46E650C046C04697
:101D10008822534692016651A3505B466351434665
:101D2000E0516350E3514B46E650C0465346803283
:101D30006651A3505B46E022635143465200E05196
:101D40006250E3514B46E650C046C0468822534697
:101D500092016651A3505B4663516346E0510A000D
:101D600063504146E15149466650C0468A23514678
:101D70009B016651E1505946E423615141465B00A5
:101D8000E051A350E15149466650C046C046534613
:101D9000843966516350594661514146E051A15022
:101DA000E15149466650C0460A20665101F0B4FD33
:101DB0008A2351469B01E1505946FF234246615117
:101DC000E248E349DB00E0516350E2514A469C4659
:101DD000A650C046C0465346843A6651A3505B465F
:101DE000182263514346E0516250E3514B46E6509E
:101DF000C0465246043B6651E2505A466251A02208
:101E00009200E05162504246E2514A46A650C04616
:101E1000C0465046843A6651A0505846CD4A60515B
:101E2000CA48E05162504246E2514A46A650C04676
:101E300052466651E2505A466251A2229200E05147
:101E400062504246E2514A46A650C046C0465046FD
:101E5000843A6651A0505846BF4A6051BB48E05191
:101E600062504246E2514A46A650C046524666512A
:101E7000E2505A466251A4229200E051625042461A
:101E8000E2514A46A650C046C0465146843A665181
:101E9000A150594628226151AD49E0516250424655
:101EA000E2514A46A650C04652466651E2505A4652
:101EB0006251A6229200E05162504146E1514946EA
:101EC0006650C046C0468822514692016651A150D4
:101ED00059469F4A6151A149E051A1504246E25101
:101EE0004A46A650C04652466651E2505B46A8227A
:101EF0006351974B9200E0511900E2504346E35181
:101F00004B46E650C046C046882253469201665171
:101F1000A3505A466251924AE05162504246E25101
:101F20004A46A650C046043A6651A3505B46AA22D0
:101F3000635143469200E0516250E3514B46E650F4
:101F4000C046C0465246843B6651E2505B466351F0
:101F50001823E05163504346E3514B460A00E650D4
:101F6000C0465346F8326651A350AC225B469200FD
:101F70006351E05162504246E2514A46A650C04683
:101F8000C0465346843A6651A3505A46434662516E
:101F9000744AE0516250E3514B46E650C046514608
:101FA000043B6651E15059466151E051AE20414633
:101FB000674B8000E050E15149466650C046C0463C
:101FC0008820514680016651215059466151414651
:101FD0005E48E0516448E050E15149466650C046D1
:101FE0005146F8336651E150594658486151E05125
:101FF000B0204146564B8000E050E15149466650C2
:10200000C046C0468820514680016651215059463D
:102010004E4861515149E051E1504146E151494634
:102020006650C04653460439665163505946615163
:10203000B221474B8900E051E1504146E151494608
:102040006650C046C046534684396651635059466F
:102050006151E05101003E4822504246E2514A4659
:10206000A650C0468A2352469B016651E2505A460A
:102070006251B022D200E15122504246E2514A461A
:10208000A650C046C0465346843A6651A3505B46AC
:1020900063514346354AE1512250E3514B46E650E5
:1020A000C0465246043B6651E2505A46634662516E
:1020B000E1510A00235001004046E05148462650B5
:1020C000C046C04653468438665123505B46635130
:1020D0004346E2516350E3514B46E650C0465046FA
:1020E000043B6651E0505846382360514046E25167
:1020F0006350E05148462650C046C0465346843897
:1021000066512350584660514046194BE251635086
:10211000E05148462650C046C820665101F0FCFBFD
:102120008A2350469B01E0505B4663518823074A4F
:1021300007495B00E25163504346E3514B46E6508A
:10214000C046C0466651FFF7C5FA13E00700F8FF26
:10215000882100001810000048500000088100008D
:10216000103000001838000038280000082801004E
:10217000B88000003CBC90469946A246AB46F8BDEC
:10218000030010B50800190000F028FD10BDC0467E
:1021900002225C4BF0B519680A4200D1F0BD1A600A
:1021A00001235948594A5A490370096813688B42F8
:1021B00000D19CE057490978002900D081E0591CE2
:1021C00011601A78544B197801230B40037000D129
:1021D00081E05248524C03682568591C01601B7805
:1021E000DBB2A94212D34F490D6801350D600D686D
:1021F000042D01D100250D6009684B4DC902491914
:102200000160802000018446614421609A18803A70
:10221000464B1B785BB2002B65D0FF2A5FDDFF22A7
:102220000321CB1ADA40FF23D1B213404048414E7C
:102230000170414D3178414C695C4B4301210F00E5
:102240001B0A1F4027703E4F5C100C403C703D4FF6
:102250009C100C403C703C4FDC100C403C703B4FE1
:102260001C110C403C705C11394F0C403C709C11AF
:102270002140384CDB1121703749DBB20B703378C9
:10228000E95C364B51431C6880239B00E358090AE4
:102290004B4381211B0A89006350037830499A1807
:1022A0000888304B304C52081A8022548022431C3C
:1022B0009BB20B805200934200D06FE700230B804B
:1022C0006CE72A490C78651C0D70002C11D11A7826
:1022D0000F239A4376E700299AD07F2396E7D143CC
:1022E000C9170A409CE70023002100229EE77F22B5
:1022F00068E75C1C14601A7800231201D2B20B70DC
:1023000060E7C0460040014030400010C01500109A
:10231000C8150010C6150010141800101C38001045
:102320002038001018380010181800104C01001048
:102330000A180010BD150010BC6A00003C0000A087
:102340003D0000A03E0000A03F0000A0540000A0FF
:10235000550000A0560000A0570000A00C18001067
:10236000284000102A40001028380010BE15001028
:1023700010B543B20C4C8EB0002B12DB20708121C3
:1023800068460A4A090100F079F922785E21684618
:1023900000F00EFA2478684600F008FA20000EB02B
:1023A00010BD7F232370EAE70B180010140A000009
:1023B000A0221206002804D08021044B8902D150AB
:1023C00070478021024B8902D150F9E704220000B6
:1023D0008422000070B5002858D080228023344920
:1023E0009B008858334C03438B50334B626818680A
:1023F000002363600133A36001336360A368002B93
:10240000FCD162600822FA216369490113436361C8
:1024100002F02CFB1022E0616369802513436361A5
:1024200063680F3A13436360C023244CED025B00E2
:10243000E5501220224901F09BFA8023214A2560B1
:102440001360214A21481360214A1360214A136016
:10245000214A1360214A1360214A1360214A136004
:10246000F023214A1B0611680B431360F0231F4A17
:102470001B0411680B431360A02380211B061A580C
:1024800089020A431A501A4A995070BD194C1A49C8
:10249000200001F09DFE20000F2101F0C1FF20006F
:1024A000164901F08DFF1E20FFF766F895E7C0463C
:1024B00000800440004001406401001000E100E0A1
:1024C00091210000DC400440D8400440042000007A
:1024D000D4400440D04004404C41044048410440B2
:1024E0004441044040410440042000A0082000A0D2
:1024F000042200000C18001040270200CDCCCC3D77
:1025000010B50020FFF766FF10BDC046024A1368F1
:10251000643313607047C04634400010044B054AD2
:1025200007215A6000229A601960034B1A607047B5
:1025300010E000E0FF3D490034400010054B986872
:10254000054B1A68054B1B1A05485B0A5843000CDB
:102550008018704710E000E034400010FF3D490053
:10256000BB02000010B5002001F07AF902F038FA41
:1025700010BDC046A023802104201B0689015A58A3
:1025800010B502435A508021294A49019858014305
:102590009950802198584904014301209950995835
:1025A000014399502349244A585802435A5023481A
:1025B000002101F0D7FD0021214801F0D3FD0021C9
:1025C000204801F0CFFD00211F4801F0CBFD002184
:1025D0001E4801F0C7FD00211D4801F0C3FD002188
:1025E0001C4801F0BFFD00211B4801F0BBFD00218C
:1025F0001A4801F0B7FD0021194801F0B3FD002190
:10260000184801F0AFFD0021174801F0ABFD002193
:10261000164801F0A7FD0021154801F0A3FD002197
:10262000144801F09FFD0021134801F09BFD10BDEF
:102630000420000008200000F8FF07000007020047
:1026400004090200080B02000C0D0200100F02002A
:1026500014110200181302001C15020020170200BA
:1026600024190200281B02002C1D0200301F02004A
:1026700034210200382302003C250200F0B5C64692
:1026800004000D0000B516000021182202F0F8F831
:10269000290025002000183501F070F818220021CB
:1026A000280002F0EDF83100280001F067F8012160
:1026B000280001F0CFFA0421280001F0C5FA012119
:1026C000200001F0C7FA0421200001F0BDFA002229
:1026D0003023E2542F3B63630121280001F0BAFA52
:1026E0000121200001F0B6FA2368013348D0E368E5
:1026F00062681A60A36901334DD0A36AE2690425B8
:102700001A60606B01F018F9264E274B3700984687
:102710000121200001F09EFA606B01F00DF92368A1
:10272000013327D0236962681A60606B01F004F9F5
:10273000A369013318D0636AE2691A60606B01F023
:10274000FBF82368013309D0E3686268013D1A6031
:10275000002DDDD1200004BC9046F0BD242211499B
:10276000114800F0FDFFEFE7242239000E4800F089
:10277000F7FFE0E724223100404600F0F1FFD1E707
:1027800024220849084800F0EBFFE36862681A60F9
:10279000A3690133B1D124220249034800F0E0FFCC
:1027A000ABE7C046C46A0000286B00007047C04613
:1027B000F8B50123DE46574645464E460400994388
:1027C000E0B588460121170001F044FA606B01F082
:1027D000B3F8A369013300D19BE1636AE2691A602F
:1027E0002368013300D18EE1E36862681A60606B90
:1027F00001F0A2F82368013300D17EE12369626809
:102800001A60606B01F098F8A369013300D16EE1A2
:10281000A36AE26908251A60606B01F08DF8012156
:10282000200001F017FAC74B9946C74BCA469B4692
:102830000126606B013D01F07FF8AE4043461E402B
:102840002368013300D108E1002E00D101E1E368E3
:1028500062681A60A369013300D1F4E0636AE26937
:102860001A60606B01F068F8A369013300D1DEE003
:10287000A36AE2691A60002DDAD12368013300D11E
:102880002FE1E368626801211A60200001F0E2F99B
:102890002368013300D11EE1E36862681A60A3690E
:1028A000013300D111E1636AE26900211A6020005E
:1028B00001F0D0F90421200001F0C6F9606B01F0AD
:1028C0003BF8A369013300D1F9E0A36AE2691A6019
:1028D0002368013300D1ECE0636962681B681A4227
:1028E00000D1C4E00121200001F0B4F9954B082586
:1028F0009846954BC1469A460126013DAE40606B15
:1029000001F01AF823683E40013300D189E0002E1F
:1029100000D182E0E36862681A60A369013300D1E4
:1029200075E0636AE2691A60606B01F005F8A369FB
:10293000013360D0A36AE2691A60002DDCD12368FC
:10294000013300D197E0E368626801211A6020003A
:1029500001F080F92368013300D1A4E0E3686268E4
:102960001A60A369013300D197E0636AE26900212C
:102970001A60200001F06EF90421200001F064F9D2
:10298000606B00F0D9FFA369013300D17FE0A36A37
:10299000E2691A602368013300D172E063696268FA
:1029A0001B681A425FD00121200001F053F9606BCF
:1029B00000F0C2FF2368013300D1BCE023696268E4
:1029C0001A60606B00F0B8FFA369013300D1ACE07E
:1029D000636AE2691A60606B00F0AEFF236801333E
:1029E00000D19CE0E36862681A603CBC904699465E
:1029F000A246AB46F8BD24225249534800F0B0FE2F
:102A0000A36AE2691A60002D00D075E797E72422D7
:102A100049464D4800F0A4FE83E7236962681A60C6
:102A20007BE724224146504600F09AFE6FE72422BD
:102A30004449454800F094FEA36AE2691A60002DFB
:102A400000D0F5E619E7242251463F4800F088FE01
:102A500004E7236962681A60FCE624224946584666
:102A600000F07EFEF0E6606B00F066FF9BE7606BB7
:102A700000F062FF36E724223249334800F070FE4E
:102A800061E72C222F49304800F06AFE86E72422B5
:102A90002C492D4800F064FE79E7242229492A4870
:102AA00000F05EFE61E724222649274800F058FE28
:102AB00054E72C222349244800F052FE0CE724223C
:102AC0002049214800F04CFEFFE624221D491E4803
:102AD00000F046FEE7E624221A491B4800F040FEBB
:102AE000DAE624221749184800F03AFEC9E6242203
:102AF0001449154800F034FE8AE624221149124890
:102B000000F02EFE7AE624220E490F4800F028FE3F
:102B10006AE624220B490C4800F022FE5DE62422DE
:102B20000849094800F01CFE5CE7242205490648D4
:102B300000F016FE4CE724220249034800F010FE84
:102B40003CE7C046C46A0000286B00003E2310B575
:102B50008AB005936B46DC1C0123FA2108930A4BCB
:102B6000069089001868079401F080FF099072B6FA
:102B7000064B01A905A8984762B6019B002B02D11C
:102B800020780AB010BDFEE764010010F11FFF1F9E
:102B900010B58CB06B46D971FA213D220124073360
:102BA00009930B4B08908900186807920A9401F06A
:102BB0005DFF084B0B905C6072B6074B03A907A83A
:102BC000984762B6039B002B01D10CB010BDFEE705
:102BD0006401001000400140F11FFF1FF0B54446A2
:102BE0004D46564670B4EEB06E46414C414AA14641
:102BF000414CA0466E250F780F243B0927405B000F
:102C0000C45AE40014604B46D36710C6FC24135129
:102C1000D3677F001351C45BE40014604B46D36755
:102C200010C6FC241351D36701311351023DE2D188
:102C30006E466E254C4608CE1360D467FC23D450F4
:102C4000D467013DD45008CE1360D467FC23D45020
:102C5000D467013DD45008CE1360D467FC23D45010
:102C6000D467013DD45008CE1360D467FC23D45000
:102C7000D467013DD45008CE1360D467FC23D450F0
:102C8000D467013DD45008CE1360D467FC23D450E0
:102C9000D467013DD45008CE1360D467FC23D450D0
:102CA000D467013DD45008CE1360D467FC23D450C0
:102CB000D467013DD45008CE1360D467FC23D450B0
:102CC000D467013DD45008CE1360D467FC23D450A0
:102CD000D467013DD450AED16E4601245823A044A0
:102CE000984587D16EB070BCA046A946B246F0BDEB
:102CF00000100000882100A00000000010B50A4B61
:102D0000187802F05DFC011C084801F08DFF0849AD
:102D100002F054F9F621890502F050F901F06CFF38
:102D2000044B188010BDC0464D01001000007042D9
:102D30000000FA4538400010F0B5DE4657464E46D2
:102D40004546E0B58DB001900800029116990092B9
:102D50000C000200002B00DAE8E080460025002687
:102D60009844002900DAD9E00098002784468C4472
:102D700077490878404505D8C11A8AB2C90700D5F5
:102D800097E012B273490978614501D8091B009197
:102D9000002D02D001360133013A002A00D181E032
:102DA000009900297ED001214010444319405B085E
:102DB000E318694C8846551E02991C19931E063A61
:102DC00092084F430132590852000390481C0B915E
:102DD00006928108002289008B4603219146113218
:102DE0009A429B41BC4608908843411C07900F20A3
:102DF000490009915B420231B4440A91059363464C
:102E000046465910019B5A182300002E54D0002D1D
:102E10003CD0042D00D899E0069926788A46924441
:102E2000514604910021A2460C0011785F780901F7
:102E300007400F437FB25F701178864309110E433C
:102E40001E7051789E78090106400E43F6B29E70BE
:102E50005178874309110F43049902325F7004349B
:102E600002339142E1D12100544617785E783F0148
:102E700006403E435E7017781E783F1186433E43FE
:102E800002311E7001320133A942EED301239A466A
:102E9000029BD1449A46039BD4449A46009B5444D7
:102EA0004B45ACD10DB03CBC90469946A246AB46D2
:102EB000F0BD013A92B264E7002DE7D0019B0431E6
:102EC0009A46434651448C427341211D8A427641C1
:102ED00005993343194230D013000321234319428B
:102EE0002BD100235946D658E65004339942FAD1E3
:102EF000079B089E9A468B4652441900E318B1423C
:102F0000C4D01178197009998D42BFD95178597080
:102F10000A998D42BAD992789A70B7E700984F42D1
:102F200084468C4461460024009121E701255E42DD
:102F30001A1890460023354013E700230B9ED15CFE
:102F4000E154190001338E42F9D19FE700218CE74B
:102F500046010010470100106002001010B5024841
:102F6000FDF77CFC10BDC0463C400010F8B543B2F4
:102F700004000D00002B68DBA022882380211206AC
:102F80009B01D150022235490B781A42FCD0FF2216
:102F9000334B32491A70FB3A0B781A42FCD0304B53
:102FA000A0221B788A23802112069B01D150022285
:102FB0002A490B781A42FCD0FF22294B27481A7065
:102FC000FB3A03781A42FCD0FF27264E244B2100FF
:102FD00030001B7800F084FB290E300000F080FBED
:102FE000290C3940300000F07BFB290A39403000C1
:102FF00000F076FB39003000294000F071FB402CD6
:1030000021D0210048394C1EA141852349429943D2
:103010008731300000F064FB0A250224FF270421D9
:103020000E4B0F4E1A781442FCD037701A781142AA
:10303000FCD03278D0B252B2002A03DA013DEDB2B0
:10304000002DEFD1F8BD9521E3E700217720FFF7B0
:103050008DFF0128F6D87F231C408DE70C0004402B
:103060000800044010020010F8B557464E46454689
:10307000DE46E0B59946514B80461B7892461B07C9
:1030800000D449025120FFF771FF8346002814D174
:103090000226FF2704254A4B4A494B480C78264212
:1030A000FCD007700C782542FCD00278D4B2FF2AFD
:1030B00021D1013B9BB2002BF0D101239B46A022E2
:1030C0008823802112069B01D15002223D490B78B2
:1030D0001A42FCD0FF223C4B3A491A70FB3A0B785B
:1030E0001A42FCD0384B58461B783CBC9046994657
:1030F000A246AB46F8BDFE2CDFD14B46334DED1A50
:103100005346ED1AADB2002B14D0FF220421944691
:103110002C4B2D4EFC3C1A781442FCD06246327087
:103120001A781142FCD032785246013A92B2924655
:10313000002AF0D14346002B2CD047464B46FE18C0
:10314000214B02249C46FF23042198461D4AB6B217
:1031500013781C42FCD0634640461870137819421D
:10316000FCD063461B783B700137BBB29E42EFD167
:103170000224FF270421134B134E1A781442FCD06B
:1031800037701A781142FCD0013DADB23278002D73
:10319000F3D194E70224FF2704210A4A0A4E137848
:1031A0001C42FCD0377013781942FCD033784B4660
:1031B000013B9BB29946002BF1D1D9E73D4000106D
:1031C000307500000C0004400800044002020000BA
:1031D000F0B5040083B0012820D9314B1D68EB689D
:1031E00083421BD92B78022B2ED0032B19D0012020
:1031F000012B14D1A3B25A08D2182A4B96B2D20589
:10320000D20D760A9A422CD0296901AFFE3B3800D4
:103210007118FF3BFFF728FF002836D0012003B0CC
:10322000F0BD7F2229690240C4090423920061187D
:1032300001A8FFF719FF0028F0D16B466A465B79B9
:1032400010791B021843EAE7FF2229690240040AA9
:1032500002235200611801A8FFF706FF0028DDD104
:10326000EBE72B6901AFF11838000123FFF7FCFEF3
:103270000028D3D168462969012301310022891928
:103280000530FFF7F1FE0028C8D178783B780002BE
:1032900003431811E207C2D41805000DBFE7C0466A
:1032A00040400010FF010000F0B54546DE4657469D
:1032B0004E46424BE0B59B461E68002382460D00F9
:1032C000904683B01380002E00D174E001221100DB
:1032D000B378194001911A426AD0F769336ADB1B4F
:1032E0009D425FD8D146002D22D0FA0523D0F16A45
:1032F0008023D20D9B009B1A9BB21C1CAB4200D9B1
:103300002C1C5346A4B2002B4AD048462300FFF79A
:10331000ABFE00283AD1F3692D1BE71843461B8802
:10332000A144E4184346ADB2F7611C80002DDCD106
:10333000002301932CE07178780A01F01DFC00292C
:1033400015D05B461A68B06AD3680238023B9842CF
:103350001CD25178484391694018002816D0F17862
:10336000F7694B1C0918F370F162FA05C0E7002FEA
:103370001AD1706A012809D90023F3705B461A68D4
:10338000B062D3680238023B9842E2D30023B370A4
:10339000019803B03CBC90469946A246AB46F0BDAE
:1033A0000020B3E79DB29DE7B06AFFF711FFE1E7A8
:1033B00005230193ECE706230193E9E74040001061
:1033C000F0B54E46DE4657464546E0B5724B83B0F3
:1033D0001C689946002C00D1D3E001221100A3788B
:1033E00019408A461A4200D195E0236A98468342E2
:1033F0002AD80023E769E3614346002B09D1002363
:103400009A46504603B03CBC90469946A246AB460D
:10341000F0BD66787602002F6AD14746656AA562DC
:10342000BE4200D3B5E0012D0BD9B8462700FB689A
:10343000AB4206D93B78022B4DD0032B29D0012B70
:103440000AD00023A370DCE700238046E769E3612C
:103450004346002BDDD1D2E7AAB25308D21891B26D
:103460004B0A9B464D4BD205D20D9A4256D0396934
:10347000FE3B5944FF3B01A8FFF7F6FD0028E0D1D1
:103480006B465A791B7912021343EA077CD51D114A
:1034900010E07F2239692A40ED090423920069185F
:1034A00001A8FFF7E1FD0028CBD16B465D791979C2
:1034B0002D020D43012DC4D9E368AB42C1D9E269A5
:1034C000A5629319E36143469B1B9E423CD24A4648
:1034D00098461768ABE7FF2239692A402D0A022374
:1034E0005200691801A8FFF7BFFD0028A9D1DCE749
:1034F0003100581E01F0BAFA013F050031003800D2
:1035000001F0B4FA854288D3434670420740E76130
:10351000A56ADF1B84E705239A4672E73B6901A889
:103520005B4419000123FFF79FFD002889D16846FD
:10353000396901230131002259440530FFF794FD18
:10354000002800D07DE79BE7474690464A46116831
:10355000B8444246E261CA68023D023A954200D34D
:103560006FE74A7855438A69AD18002D00D168E7A6
:103570005A0AD1B2DB050AD001315519E170E56272
:103580003DE706239A463CE71B051D0D92E7E170D7
:1035900035E721003B00DCE740400010FF01000060
:1035A00010B50400034B083303601C3000F082FDAB
:1035B000200010BD406B000010B50400054B08331F
:1035C00003601C3000F076FD2000502101F01AF954
:1035D000200010BD406B000010B501290CD002295D
:1035E00009D1C36C002B12D0826B002A03D00100DA
:1035F00010003C31984710BD436B002B0CD0026A81
:10360000002AF8D00100100024319847F3E7836BBB
:10361000002BF0D09847EEE7036A002BEBD09847D9
:10362000E9E7C04670B5050004000E4B0E000833F4
:1036300008C528001822002101F022F900232000EB
:103640003100094AE36123626363A363E3641C30CE
:10365000230000F09FFC2800310000F08FF82000CC
:1036600070BDC046406B0000D9350000436810B5FE
:103670000400013306D0A369A0681B681840431EEC
:10368000984110BD2C220249024800F069F8F2E787
:10369000C46A0000286B000010B5002908D0002380
:1036A00001624363012201211C3000F017FD10BDAF
:1036B000002201211C3000F011FDF8E710B50029AF
:1036C00008D000238163C364012202211C3000F072
:1036D00005FD10BD002202211C3000F0FFFCF8E7C0
:1036E000F8B50B4F04003B680D00061D98420AD048
:1036F0000269C1680023300000F08CFF300061696E
:1037000000F0BEFF3C602900300000F0F3FFF8BD80
:103710004440001030B504000F48082508302060F0
:1037200000206060207220610C4883B060610698C0
:10373000E560251D0090280000F0DEFE0023280033
:103740002269E16800F066FF2800616900F098FFD7
:10375000200003B030BDC046506B000040420F0057
:1037600010B513000A000100014800F003F810BD75
:10377000646B00000FB404B07047C04670B50C0015
:10378000050000F005FA631C07D00021280000F0B6
:1037900061FA0121280000F057FA70BD10B504004D
:1037A000431C03D108E09C4207D00C310B685A1C23
:1037B000F9D10648FFF7DEFF10BD2000896800F050
:1037C000B3FC0021200000F0CDFCF5E7986B000071
:1037D00010B5884203D0431C08D04B1C00D110BD4B
:1037E0000348FFF7C7FF01204042F8E70800F6E76B
:1037F000AC6B000010B5431C03D10AE0984209D01D
:103800000C310B685A1CF9D10448FFF7B3FF0120B3
:10381000404210BD4868431CFBD1F5E7C06B000077
:103820007047C0467047C04610B5FFF7FBFFFFF773
:10383000F7FFFCF751FD10BD0300074A1068C318DD
:10384000EFF308818B4201D2136070470C220120F4
:10385000024B40421A60F8E75001001090400010FF
:10386000124B10B51B680400002B02D098470028AB
:1038700008D00F4B1B68002B14D09847002C00D0A9
:1038800003C410BD0B4B1B68002B00D098470A4B9C
:103890001B68002BEDD0002000219847044B1B68CB
:1038A000002BEAD100200021E8E7C04658010010B3
:1038B0005C0100105401001060010010036870B535
:1038C000DB68050098476B685B680DE01C682B6837
:1038D0005B689847241A002C0CDC6A6851688B6876
:1038E00053601268002A0CD1002BEFD12B689B6823
:1038F000984770BD6B685B6818682B681B699847B0
:10390000F7E748689047DEE710B50248FFF7D6FFB3
:1039100010BDC046E06B000070B5050000F026FF4A
:1039200006006C01641BA4006419E40000F01EFF93
:10393000801B8442FAD870BD70B5050000F016FFF8
:10394000040000F013FF001BA842FAD370BDC0466C
:103950007047C0467047C0467047C0467047C04673
:103960007047C0460020704710B500F07FFF10BDC3
:103970000D4A70B5946892682300002A0FD1802305
:103980000A4D5B05F0263606B446E218624412681A
:1039900004C3AB42F6D18023034A5B059360103029
:1039A0008000C15070BDC04600ED00E0C0000010B6
:1039B00080218022424B5202585870B502435A501F
:1039C0002322F0209A603F4A7F3911500430115071
:1039D000002145301962FF301A583B4C84B0224018
:1039E00020240192019AA2430192C822019C120252
:1039F00022431A500091009B344A934206D8C04695
:103A0000009B01330093009B9342F8D901220021CF
:103A10002B4B1A645A6459645A6401315A6C11422E
:103A2000FCD08E22802592009958274E23203140C9
:103A30000391039929430391C821039C09020C4374
:103A40009C5098609858304002900298A843029089
:103A50000298014399500121194AD3681942FCD0B8
:103A60000323136700235167536751670121144BE8
:103A70005A6F1142FCD08E22996792009858144CCC
:103A8000204098509858134C204098500022996438
:103A9000D964DA64D9640121094AD36C1942FCD093
:103AA000232301211361064A53691942FCD0C02324
:103AB0000020D050D0500833D15004B070BDC04663
:103AC0000080044000400440FF250000C3090000BE
:103AD000FFFBFFFFFFFEFFFF70B50C00234E05004C
:103AE0003100200082B0FFF785FEC0B22870FF28A9
:103AF00036D020003100FFF751FE1D4B80229C463E
:103B00008E20E405E40D6444236880009343236021
:103B1000184B194C19582140102401910199A143C7
:103B20000191C821019C0902214319508021985814
:103B3000890101439950114B1149186800F096FF13
:103B40008022431EFF200F491840D2051043086011
:103B50000B68180010401342FAD1086002B070BD23
:103B6000352209490948FFF7FBFDC2E7786C0000E0
:103B70000040044000800440FF2500006401001064
:103B800020A1070000C00140FC6B0000606C000039
:103B900070B505000C0001604B1C25D01D4B1A6848
:103BA000002A07D11C4901321A607F3288581B4B0A
:103BB00003438B500121002C17D1200000F0B4FAF0
:103BC0000123A204D20E934024146B60144BA40072
:103BD000E318EB60134BE3182B61134BE3186B6195
:103BE000124B9C466444AC6070BD114B9C42E4D0C7
:103BF000104B9C42E1D0104B9C42DED00F4B9C42BC
:103C0000DBD00F4B9C42D8D00E4BE1184B425941B0
:103C1000D3E7C0465040001000800440400001003F
:103C2000002200A0802200A0002100A0002000A00F
:103C3000281400002C16000030180000341A000070
:103C4000381C0000C4E1FFFF10B5006800F08AFADC
:103C500010BDC046036870B504000D0001330FD0DD
:103C6000002D07D0012D04D1A268616813680B43B1
:103C7000136070BDA268616813688B431360F8E736
:103C8000432202490248FFF76BFDE9E7146D00008B
:103C9000286B000070B54025134C636A1D4222D08A
:103CA000124EB06900281ED023681D421BD16368E4
:103CB0001D4207D0E3691D4204D00D4B01211B6852
:103CC0009847E5614025084C23691D4208D0236AC6
:103CD0001D4205D0064B0221B0691B68984725623A
:103CE0004022014B5A6270BD004000A054400010B9
:103CF0007440001070B58025134C636A1D4222D0B9
:103D0000124EF06900281ED023681D421BD1636843
:103D10001D4207D0E3691D4204D00D4B01211B68F1
:103D20009847E5618025084C23691D4208D0236A25
:103D30001D4205D0064B0221F0691B689847256299
:103D40008022014B5A6270BD004000A05440001018
:103D50007440001070B50125134C636A1D4222D0D7
:103D6000124E306800281ED023681D421BD16368A4
:103D70001D4207D0E3691D4204D00D4B01211B6891
:103D80009847E5610125084C23691D4208D0236A44
:103D90001D4205D0064B022130681B6898472562FA
:103DA0000122014B5A6270BD004000A05440001037
:103DB0007440001070B50225134C636A1D4222D076
:103DC000124E706800281ED023681D421BD1636804
:103DD0001D4207D0E3691D4204D00D4B01211B6831
:103DE0009847E5610225084C23691D4208D0236AE3
:103DF0001D4205D0064B022170681B68984725625A
:103E00000222014B5A6270BD004000A054400010D5
:103E10007440001070B50425134C636A1D4222D013
:103E2000124EB06800281ED023681D421BD1636863
:103E30001D4207D0E3691D4204D00D4B01211B68D0
:103E40009847E5610425084C23691D4208D0236A80
:103E50001D4205D0064B0221B0681B6898472562B9
:103E60000422014B5A6270BD004000A05440001073
:103E70007440001070B50825134C636A1D4222D0AF
:103E8000124EF06800281ED023681D421BD16368C3
:103E90001D4207D0E3691D4204D00D4B01211B6870
:103EA0009847E5610825084C23691D4208D0236A1C
:103EB0001D4205D0064B0221F0681B689847256219
:103EC0000822014B5A6270BD004000A0544000100F
:103ED0007440001070B51025134C636A1D4222D047
:103EE000124E306900281ED023681D421BD1636822
:103EF0001D4207D0E3691D4204D00D4B01211B6810
:103F00009847E5611025084C23691D4208D0236AB3
:103F10001D4205D0064B022130691B689847256277
:103F20001022014B5A6270BD004000A054400010A6
:103F30007440001070B52025134C636A1D4222D0D6
:103F4000124E706900281ED023681D421BD1636881
:103F50001D4207D0E3691D4204D00D4B01211B68AF
:103F60009847E5612025084C23691D4208D0236A43
:103F70001D4205D0064B022170691B6898472562D7
:103F80002022014B5A6270BD004000A05440001036
:103F900074400010F8B5DE4657464E4645460400CC
:103FA0003D48E0B581421ADC3C4802603C4A10685A
:103FB00000281CD0506800285FD0906800285ED090
:103FC000D06800285DD0106900285CD050690028B6
:103FD0005BD0906900285AD0D069002859D00120C0
:103FE00040423CBC90469946A246AB46F8BD0020F4
:103FF0008700D35180222B4B20609C469D582A4B32
:1040000006002B436546AB508B03613A4912934639
:104010000A4092469B0F5A00D218D2005E36524494
:10402000B6007251812292009046624645460126B2
:1040300052594146914632004D4682402A436546D8
:104040006A50A02212069446802235005146920101
:104050009B00634494468D4061469A5840B2AA43FF
:104060005D465A50114BF958FFF782FC2368002037
:104070001D40AE400E4B1E60B3E70120B8E70220A2
:10408000B6E70320B4E70420B2E70520B0E7062036
:10409000AEE70730ACE7C0461311020074400010D1
:1040A000544000100080044080000900886D00002A
:1040B00000E100E0002110B50468064BA200D150D9
:1040C00001228121A2400448890043589343435070
:1040D00010BDC04654400010008004400123006819
:1040E00030B583400F480468234200D143620D4835
:1040F000DD4304689C430460012909D0002A03D1F0
:1041000003691D40056130BD026913430361FAE78D
:10411000002A03D0426813434360F4E743681D401C
:104120004560F0E7004000A070B504000D00431C9E
:104130000BD0094BE4059C460723E40D6444216839
:1041400099432B401943216070BD1522034904484F
:10415000FFF706FBEDE7C04600400440A86D0000F5
:10416000746D000070B504000D00431C1BD081234A
:104170001B01984210D0124B98420DD0114BE40510
:104180009C46E40D6444042D07D018232168ED00FB
:1041900099432B400B43236070BD80232268DB00D2
:1041A00013432360F8E71D2207490848FFF7D8FAB0
:1041B000044BE4059C46E40D6444042DE5D1ECE792
:1041C000140A000000400440A86D0000746D000057
:1041D000F8B5CE4647460E0080B5684F040039005A
:1041E0003000FFF707FBC3B20500FF2B00D1B1E0A1
:1041F0000122634B98461B781A4200D1AEE0591059
:104200000A4200D1B2E05F48FFF7B4FA00218022F1
:1042100043468C46520091461B78023AFF3A0B43C4
:1042200041460B706346626080222360564B99586A
:104230008C468021604609060143995049465A68D8
:1042400030000A435A603900FFF7A8FA24684F4B40
:104250002268FF2013430C22236063682840134325
:10426000636007280AD84A4B80001B589F46A0234A
:104270000122DB00E250474B0132E250C123802291
:104280009B005201E2500123C022802681275B421D
:1042900041499200A3500C32A150043AA350B600F9
:1042A000BF00A559E3593D4998463D4B0135186873
:1042B00000F0DCFB42463B4B4343501C5843013B60
:1042C000A351854221D8290000F0D0FB04220138F7
:1042D000E05163689343636080239B00E0580130A2
:1042E00001F06EF9002100F069FE00F085FC002865
:1042F00012D0812304229B000138E050636893436D
:1043000063600CBC90469946F8BD0C226368134369
:10431000636000232365DFE70C2263681343636057
:104320002065EEE7A2230122DB00E2501E4B0132A2
:10433000E250A3E7A1230122DB00E2501B4B013234
:10434000E2509BE7A3230122DB00E250184B01322D
:10435000E25093E71748FFF70DFA49E78022164924
:10436000920091468C460022012158E78022134991
:10437000D20091468C460122022150E7586E00007F
:1043800078400010246E0000008004400100060008
:10439000386E0000040500000110000040420F00CC
:1043A00064010010204E0000140500000C05000000
:1043B0001C050000086E000000C0005000E0005026
:1043C00070B50C1C05680021201C00F0EDFB0028D6
:1043D00024D1FE21201C890500F0FAFB002801D021
:1043E000FE24A40580239B00E858013001F0E8F882
:1043F000211C00F0E3FD00F0FFFB002808D0812322
:1044000004229B000138E8506B6893436B6070BDD9
:104410000C226B6813436B602865F8E70024E1E722
:10442000F8B5CE464746812380B5802705680C0045
:10443000BF009B00EE599846EB5812499946124B23
:104440000136186800F012FB21004B464143581C0E
:1044500048430139E951B0420DD3310000F006FB69
:10446000434604220138E8506B6893436B600CBCF0
:1044700090469946F8BD0C226B6813436B6000238D
:104480002B65F4E740420F00640100108021802377
:10449000094ADB055058034301205350074B1A6863
:1044A00002431A6000229A601A680A431A601A6866
:1044B00082431A607047C0460080044000400240BA
:1044C000024B18680006C00F7047C046004002400B
:1044D000014B0021986870470040024010B58024CD
:1044E000044B1968A143196098601A6822431A6046
:1044F00010BDC04600400240F0B5DE4657464E466D
:104500004546E0B50E001C00394B85B019000090FF
:10451000300015009B46FFF76DF9364B01901900EE
:1045200028009A46FFF766F9334B804619002000B1
:104530009946FFF75FF9314F029039000E98FFF767
:1045400059F9414603900198FFF742F903998046D3
:104550000298FFF73DF901004046FFF739F9009B4B
:104560001860431C3BD0264B98422AD0254B9842DA
:104570000DD180218022244BD202585802435A5038
:104580009C227F3999505A6803310A435A60594630
:104590003000FFF703F951462800FFF7FFF84946BE
:1045A0002000FFF7FBF80E9B013303D039000E9873
:1045B000FFF7F4F805B03CBC90469946A246AB46DE
:1045C000F0BD80218022104B1201585802435A50EE
:1045D00094227F3999505A680A435A60D7E70B48AA
:1045E00048220B49FFF7BCF8009B1868BBE7C046A0
:1045F000DC6F0000A06F0000187000006070000009
:10460000000004400080054000800440246F00004A
:10461000C46E0000F8B50E0002211D0003681400EE
:104620005A6807008A435A60321F0C2A01D9032CAA
:104630001AD81A68E101120C1004FF220A40402126
:10464000013E64010C403243224302431A605A681F
:1046500033398A43002D01D009390A4302215A60B7
:104660005A680A435A60F8BD652203490348FFF7B8
:1046700077F83B68DDE7C046C46E0000386F000085
:104680000222F0B5C646056800B56B680E0093437C
:104690006B60154B02241F6880235B00984602E084
:1046A000023444451BD02100380000F0DFF94308F4
:1046B0003100181800F0DAF9FF28F1D82C612B68C6
:1046C0000A4A0138134002222B602B68000218436B
:1046D00028606B6813436B6004BC9046F0BD0448CF
:1046E000FFF748F8F8E7C04664010010FF0000FF3C
:1046F000786F000003680220DA681042FCD09960ED
:104700000421DA681142FCD09868704770B5104BEC
:104710001A78002A1BD101251D7080230D49803293
:104720008858DB0003438B500B4B0C4C186802235A
:104730000B49636000F09AF90138E06009491320E1
:104740006560FFF715F98022074B12031A6070BDF0
:104750007940001000800440640100100080014096
:1047600040420F000939000000E100E070B5124B33
:104770001A78002A02D0114B986870BD01251D706F
:1047800080230F4980328858DB0003438B500D4B48
:104790000A4C186802230C49636000F067F901387D
:1047A000E0600A4913206560FFF7E2F88022084BB9
:1047B00012031A60DFE7C046794000100080014014
:1047C000008004406401001040420F0009390000DD
:1047D00000E100E00121034B98615A690A435A61E4
:1047E0007047C046008001400121024A53698B4353
:1047F00053617047008001400122014B1A607047ED
:104800000080014010B5FFF7AFF810BD70B500266D
:104810000C4D0D4C641BA410A64209D1002602F0D9
:10482000CDFC0A4D0A4C641BA410A64205D170BDF4
:10483000B300EB5898470136EEE7B300EB589847C2
:104840000136F2E7C8710000C8710000C8710000AD
:10485000E87100007047704710B5034B01001868FD
:1048600000F060F810BDC0466801001010B5034BA1
:104870000100186800F00CF810BDC0466801001077
:1048800003008218934200D1704719700133F9E791
:1048900070B50500002910D00C1F2368002B00DA2A
:1048A000E418280000F0D2F81D4A1368002B05D147
:1048B00063601460280000F0D1F870BDA34208D9ED
:1048C000216860188342F3D118685B684118216041
:1048D000EEE71A005B68002B01D0A342F9D91168FA
:1048E0005018A0420BD1206809185018116083425B
:1048F000E0D118685B68411811605360DAE7A042A4
:1049000002D90C232B60D5E721686018834203D1BC
:1049100018685B684118216063605460CAE7C0464C
:104920007C400010F8B50323CD1C9D4308350600DC
:104930000C2D1FD20C25A9421ED8300000F086F89D
:1049400025490A681400002C1AD1244F3B68002B1B
:1049500004D12100300000F067F8386029003000F1
:1049600000F062F8431C2BD10C233000336000F0C0
:1049700075F803E0002DDEDA0C2333600020F8BD6B
:1049800023685B1B19D40B2B03D92360E418256023
:1049900003E06368A2420ED10B60300000F05EF8C5
:1049A000200007220B30231D9043C21A9842E6D004
:1049B0001B1AA350E3E75360EFE722006468C2E7E5
:1049C0000323C41C9C43A042E1D0211A300000F014
:1049D0002BF8431CDBD1C7E77C400010804000105F
:1049E0000D4B70B51D680400AB6B002B0FD1182068
:1049F000FFF732FF094BA8630360094B01224360B4
:104A0000084B83600B2383810023026143610022F2
:104A1000AB6B1C615A6170BD680100100E33CDABE9
:104A200034126DE6ECDE0500002370B5064D04007F
:104A300008002B60FEF700FF431C03D12B68002BFE
:104A400000D0236070BDC0469040001010B50248F1
:104A5000FFF700FF10BDC0468840001010B50248A7
:104A6000FFF7F9FE10BDC046884000100022430841
:104A70008B4274D303098B425FD3030A8B4244D326
:104A8000030B8B4228D3030C8B420DD3FF22090268
:104A900012BA030C8B4202D31212090265D0030B27
:104AA0008B4219D300E0090AC30B8B4201D3CB031D
:104AB000C01A5241830B8B4201D38B03C01A52415F
:104AC000430B8B4201D34B03C01A5241030B8B4261
:104AD00001D30B03C01A5241C30A8B4201D3CB024C
:104AE000C01A5241830A8B4201D38B02C01A524131
:104AF000430A8B4201D34B02C01A5241030A8B4234
:104B000001D30B02C01A5241CDD2C3098B4201D34B
:104B1000CB01C01A524183098B4201D38B01C01AC9
:104B2000524143098B4201D34B01C01A5241030940
:104B30008B4201D30B01C01A5241C3088B4201D3EF
:104B4000CB00C01A524183088B4201D38B00C01A9C
:104B5000524143088B4201D34B00C01A5241411AC3
:104B600000D20146524110467047FFE701B50020D0
:104B700000F006F802BDC0460029F7D076E770477E
:104B80007047C0468446081C6146FFE71FB500F029
:104B9000CBF9002801D40021C8421FBD10B500F098
:104BA0004FF94042013010BD10B500F0BDF90028AA
:104BB00001DB002010BD012010BDC04610B500F083
:104BC000B3F9002801DD002010BD012010BDC04652
:104BD00010B500F05DF9002801DC002010BD0120B7
:104BE00010BDC04610B500F053F9002801DA0020CE
:104BF00010BD012010BDC0469E2110B5C905041C82
:104C0000FFF7F0FF002803D1201C00F0B9FC10BD15
:104C10009E21201CC90500F0EBFA00F0B1FC8023B6
:104C20001B069C466044F2E7F0B54F464646D64622
:104C30004502C0B547000C1C6D0A3F0EC60F002F81
:104C400066D0FF2F6CD00023EA00802599469A4653
:104C5000ED0415437F3F60026100430A9846090E48
:104C6000E40F002948D0FF2910D08022D800D204B8
:104C70000243904600207F394A4633007F1A0243A0
:104C80006C4992008A586340DBB29746002B6DD185
:104C90000220FF3F33E00023984626004546824627
:104CA0005346022B00D17FE0032B00D194E0012B6F
:104CB00017D038007F3000285FDD6B0704D00F234A
:104CC0002B40042B00D004352B0103D538005A4B60
:104CD00080301D40FE2867DCAD016D0AC0B202E0E5
:104CE0001E0000200025C0052843F60730431CBCE9
:104CF00090469946A246F0BD002B2BD101204A4692
:104D000033004E49024392008A586340DBB2974613
:104D1000002D13D104239946033B00279A469AE7B6
:104D2000002D05D108239946063BFF279A4692E7B6
:104D30000C239946093BFF279A468CE7280000F090
:104D40007BFC7627431F9D4000237F4299469A466D
:104D50003F1A80E7180000F06FFC4246431F76219F
:104D60009A404942091A9046002085E7FF21032016
:104D700082E71E00FF200025B5E701231B1A1B2B2D
:104D8000AFDC9E372900BD40D9406A1E95410D43D6
:104D90006B0704D00F232B40042B00D004356B018C
:104DA00044D5012000259EE7FF2000259BE78025B4
:104DB0000026FF20ED0396E7002398468020C003DD
:104DC000054209D04346034206D1454605436D02DC
:104DD0002600FF206D0A86E78020C00305436D0290
:104DE000FF206D0A7FE741466A014801824219D2DD
:104DF0001B210025013F012614006D005200002CEC
:104E000001DB904201D8121A354301390029F3D150
:104E1000501E824138007F301E001543002800DDFF
:104E20004BE7AAE71A210125121AE4E7AD01002099
:104E30006D0A58E7FC700000FFFFFFF73C710000AF
:104E400070B542004E024C0045026D0A120EC30FAF
:104E5000760A240EC90FFF2A0FD0FF2C11D0012093
:104E6000A24200D070BDB542FCD18B420DD0002AC9
:104E7000F8D12800451EA841F4E70120002DF1D10A
:104E8000EBE70120002EEDD1E9E70020EAE7C0467C
:104E9000F0B5420046024D024C00C30F760A120ED6
:104EA0006D0A240EC80FFF2A1FD0FF2C10D0002A35
:104EB0001FD171427141002C01D1002D1ED000295B
:104EC0000ED183421ED00221581E08400138F0BD89
:104ED000002D26D1002AF4D1714271410029F0D071
:104EE0000028F4D101204042F1E7002E19D1FF2C17
:104EF000EED0002CE5D1002DE3D1E4E70020002E18
:104F0000E5D0E0E7A24205DCEADBAE4202D8E7D317
:104F10000020DCE74142414148420221084001387B
:104F2000D5E702204042D2E7F0B5420046024D02EA
:104F30004C00C30F760A120E6D0A240EC80FFF2A0A
:104F40000DD0FF2C0FD0002A23D171427141002CCB
:104F50000FD1002D0DD10020002E14D00DE0002E19
:104F600010D1FF2C15D1002D0CD1002A03D1714294
:104F70007141002908D1834210D00221581E0840F7
:104F8000013800E00220F0BD0028FCD101204042A1
:104F9000F9E7002CEFD1002DEDD1EEE7A24205DCC0
:104FA000F2DBAE4202D8EFD30020ECE741424141B0
:104FB0004842022108400138E5E7C046F8B55746A7
:104FC0004E464546DE464402E0B545000F1C640AE5
:104FD0002D0EC60F002D47D0FF2D4DD00023802071
:104FE0009A469B46E400C00404437F3D7802430A8E
:104FF00099467A00FB0F9846120E4B4644D0FF2A82
:1050000011D0D8008023DB040343994600207F3A67
:10501000AD18474653467740691C0F2B3FD8724A5C
:105020009B00D3589F46FF35002B00D079E05246B5
:1050300002231A4392460220EBE747464C4683463A
:105040005B46022B28D0032B00D1C6E0012B4FD1A9
:1050500000200024C005FF07204338433CBC904695
:105060009946A246AB46F8BD002C71D104239A465E
:10507000033B00259B46B9E7002C63D108239A46E1
:10508000063BFF259B46B1E7002B50D1524601332A
:105090001A4392460120BCE7FF200024DAE7484685
:1050A000260C2404220C0404240C4B4620001B0C68
:1050B000504374435A435E431219030C9B189C429D
:1050C00003D9802252029446664400041A04000C5C
:1050D00012189401601E84411B0C920E9B191443FC
:1050E0009B011C431B0172D50120630804401C4333
:1050F00008007F3000283CDD630704D00F232340E5
:10510000042B00D00434230103D580310800374B31
:105110001C40FE28C0DCA401640AC0B29AE7370034
:105120008EE7524603231A439246032071E748460E
:1051300000F082FA4A46431F9A402D1A91460020F9
:10514000763D66E70C239A46093BFF259B464DE7D3
:10515000200000F071FA7625431F9C4000236D4229
:105160009A469B462D1A41E780240027FF20E4033E
:1051700070E701231B1A1B2B00DD69E79E3120001D
:105180008C40D840631E9C410443630704D00F2326
:105190002340042B00D0043463011AD501200024DD
:1051A00058E78020C003044209D04B46034206D191
:1051B0004C46044364024746FF20640A4AE78020C5
:1051C000C003044364023700FF20640A42E7290059
:1051D0008EE7A4010020640A3CE78020C00304435A
:1051E0006402FF20640A35E77C710000FFFFFFF7CF
:1051F000F0B54646D6464F4643025B0ADA0094466F
:105200004A02C0B54400560A051CB046240E4E00A2
:1052100092091F0020009246ED0F360EC90FFF2E97
:1052200000D17FE0012251408D4251D0A21B914616
:10523000002A00DC7EE0002E00D199E0FF2C00D196
:105240008CE080235246DB041A4392464A460123EF
:105250001B2A08DC53462021D340891A52468A4033
:10526000511E8A4113436246D31A5A0100D4F3E017
:105270009B019E09300000F0DFF90538864084422A
:1052800000DDF7E03200041B20200134E240041B63
:10529000A64033005E1EB341002413435A0704D0D6
:1052A0000F221A40042A00D004335A0100D4D6E059
:1052B000621CFE2C00D1DAE09B015F0AD0B2C0056F
:1052C0003843ED0728431CBC90469946A246F0BDE2
:1052D000A21B9146002A63DD002E00D199E0FF2C2D
:1052E0003CD080235246DB041A4392464A460123AF
:1052F0001B2A08DC53462021D340891A52468A4093
:10530000511E8A41134363445A0100D4A4E001347E
:10531000FF2C00D1ABE0012297491A405B080B40FB
:105320001343BBE7002A32D08D4235D0FF225242D0
:105330009146A1444A46002A51D0301B002C00D08F
:105340009CE06346002B00D1DFE00138002800D14B
:10535000F7E0FF2E00D099E00D004346002B00D16E
:1053600085E08027FF031F437F02FF207F0AA6E717
:105370005246002A74D0012252429046C1444A4605
:10538000002A00D1C8E0FF2C00D05FE7E6E7012249
:105390005140A94200D049E7FF2252429146A14420
:1053A0004A46002A43D0311B002C00D18CE0FF2E4E
:1053B00000D192E080236246DB041A439446012325
:1053C0001B2909DC202063466246CB40411A8A40F3
:1053D0001100481E81410B433400534494E7FE22E0
:1053E000661C324264D1002C00D082E06346002B60
:1053F00000D1ABE05346002B00D160E76346524634
:105400009B1A5A0100D4AAE0634652460D00D31AF3
:1054100044E75246002A23D0012252429046C1441A
:105420004A46002A75D0FF2C00D05FE796E7FE269B
:105430000134264253D1002872D16346002B00D19B
:1054400093E05346002B00D139E7634400245A010E
:1054500002D54A4A013413405A0700D020E7DB083E
:10546000FF2C00D17AE75B025F0AE0B227E7FF205A
:10547000002724E7414B241A33400FE7FF2E00D1C9
:105480006AE780236246DB041A43944601231B2803
:1054900009DC202463466246C340201A8240100083
:1054A000441EA041034352460D003400D31ADCE6EB
:1054B000634652469E1A730117D4002E00D0D9E6D7
:1054C000002500200027FAE66346002B44D001396E
:1054D00000294CD0FF2E00D071E743463EE7FF2C59
:1054E000C5D0524662445308B6E763460D00D61A4B
:1054F000C0E66246002A16D15346002B00D02BE7A7
:1055000080270025FF20FF03D9E60D004346340025
:10551000A6E753466344F7E6634652469B1AA4E661
:105520006246002AD9D05246002A00D116E78022CE
:10553000D203134200D111E74046104200D00DE7DC
:105540000AE752460D003400D31A8EE65346002B6C
:1055500008D00D004746B2E64346340080E7002BF2
:1055600000D079E700250027A9E64746A7E653467D
:1055700034006344C8E6C046FFFFFF7DFFFFFFFB2A
:1055800041024200C30F490A0020120E7E2A03D9AD
:105590009D2A02D9094A98187047802000040143C7
:1055A000952A07DC9620821AD1404842002BF3D17D
:1055B0000800F1E7963A9140F7E7C046FFFFFF7F0A
:1055C00070B5051E0ED000F037F89E2304001B1A9C
:1055D000962B0CDC082801DD083CA5406D026D0A05
:1055E000D8B201E000200025C005284370BD992BEA
:1055F00009DD020029001B3291404A1E914105221B
:10560000121AD5400D43052C01DD621F954029007B
:10561000084E31406A0709D00F202840042805D0E1
:1056200004314A0102D59F2331401B1B89014D0AD9
:10563000D8B2D9E7FFFFFFFB1C2101231B049842CE
:1056400001D3000C10391B0A984201D3000A083913
:105650001B09984201D30009043902A2105C4018CA
:105660007047C0460403020201010101000000006E
:105670000000000010100001000000010000000107
:1056800000000001000000010000000100001111F5
:1056900011111111111100010000000100000001A1
:1056A00000000001000000010000000100000001F6
:1056B00000000001000000010000000100000001E6
:1056C00000000001000000010000000100001111B5
:1056D0001111111111110001000000010000000161
:1056E00000000001000000010000000100000001B6
:1056F00000000001000010103333333333333333F1
:105700003333333333333333333333333333333369
:10571000333333333333033333333330333333338C
:105720003333333333333333333333333333333349
:105730003333333333333333333333333333333339
:105740003333333333333303333333333333333359
:105750003333333333333333330333333333333349
:105760003333333333333333333333333333333309
:105770003333333333333333101055555555555573
:105780005000444444444444450022222222222220
:1057900044504444222224422451222242224224C0
:1057A00024502222422242242450222242224224F5
:1057B00024502222422242242450222242224224E5
:1057C00024522222422242242452444422222444AB
:1057D0002452777777777777245255555555555515
:1057E0007452333333333333545233033333333319
:1057F000355233333333333354521010000555557B
:1058000055555555005444444444444405442222CB
:1058100022222222154224422222444405424224CA
:10582000222422220542422422242222054242240A
:1058300022242222054242242224222225424224DA
:10584000222422222542422422242222254244428A
:105850002222444425427777777777772547555535
:10586000555555552545333333333303255333339A
:105870003333333325453333333333331010254239
:105880003333333333332542333303333333254216
:1058900033333333303325423333333333332154CB
:1058A000444444444444210555555555555521110A
:1058B000000000000000210111111111111121013E
:1058C0000000000000002101000000000000210194
:1058D0000000000000002101000000000000211174
:1058E000000000000000210111111111111102012D
:1058F000000000000000002222222222222210109A
:10590000333333333333245233333330333324524A
:105910003333333333332452333333333333245237
:105920004444444444444512555555555555501228
:1059300000000000000011121111111111111012BC
:105940000000000000001012000000000000101213
:105950000000000000001012000000000000101203
:10596000000000000000111211111111111110128C
:105970000000000000001020222222222222220009
:1059800010105554444555555455444444444444DA
:1059900044442222222222222222222222222222A3
:1059A0002222222224444442222222224111111482
:1059B000222222224111111422222222400000041C
:1059C0002222222241111114222222222444444262
:1059D00022222222222222222222755777777777CB
:1059E0007557533555555555533533333333333355
:1059F0003333333333333333333333333333333377
:105A000033331010254533333333333325453333A4
:105A1000033333332545333333333333254533337E
:105A20003333333325533333333333332553333322
:105A30003333333325533333333333332553333312
:105A40003333333325533333333333332553333302
:105A500033333333255333333333333325533333F2
:105A6000333333032545333333333333254533332E
:105A7000333333332545333303333333254533331E
:105A8000333333331010333333333333333333332C
:105A90003333333033333303333333333333333309
:105AA00033333333333344444444444444445555FA
:105AB00055555555555500000000000000001111C6
:105AC0001111111111110000055555500000000071
:105AD00053333335000000005333333500000000EA
